:020000020000FC
:047000000C94773E37
:047028000C94C93DBE
:10702F0012010002FF010020EB03F42F0000010208
:10703F000001090212000101008032090400000062
:10704F00000000000C03410054004D0045004C00AF
:10705F002603410054006D00330032005500340008
:10706F0020004400460055002000560031002E003D
:10707F0030002E0032000403090413011501000033
:06708F00150000013C7F2A
:1070960012BD01BDF89A00B5089501E00895F99969
:1070A600FECF12BD01BD20BDFA9AF99AF6CFF99925
:1070B600FECF0C944B38F80104910895F801149111
:1070C6003196FACF009161000093150100E8009314
:1070D600610001E00093610005BF02E005BF0C946A
:1070E60086380091D70001600093D700A89507EF76
:1070F60004BF0091600000610093600000E000930F
:10710600600001E008950E94BC3D0E94C73DFDCF8E
:1071160072D00F7775D072D06ED0006171D078942E
:10712600089566D070D009B500FFFDCF64D00F7DFD
:1071360067D058D00091E000077F0093E0000E94DE
:107146008C3B0091E20001600093E2000091E200B6
:1071560008600093E200E3CF0091D90000FF0EC063
:1071660000911601002351F401E00093160135D079
:1071760002601183008342D0D4DF34D00091D9005D
:1071860000FD0EC000911601013051F400E000939D
:107196001601009324022CD020D0046011830083B2
:1071A600E6E2F2E00081018100FF0DC0008111815D
:1071B6001E7F1183008301E00093EA0000E0009344
:1071C600EA000093240200E00093E9000091E80041
:1071D60003FF02C00E94043C0895E6E2F2E000814B
:1071E600118108950091E0000E7F0093E00008955C
:1071F60002D0006205C00091D8000895FCDF006847
:107206000093D8000895A8952BD000E42CD000E078
:107216002DD00091810003600093810000916000F1
:1072260007FFFCCF00E81FD000E000938100A8957F
:1072360007EF04BF15D000E016D0209184003091EE
:10724600850014D02D3D354002B7007F02BF02B73E
:107256000A6402BF10F002E101C002E009BD089510
:107266000091600000610093600008950093810022
:1072760000938000009385000093840001E006BB24
:1072860008950E94973E239741D100E0009309019B
:10729600B5D104811581012B51F437D10091070135
:1072A600002309F4B9C000E000930701B5C058D126
:1072B60002FFFDCF37D1068335D10093180132D1B5
:1072C600009319012FD100931A012CD100931B01B1
:1072D60029D100931C01028520911C0130911B01CC
:1072E60040911A015091190116811A9541F01250D8
:1072F600A9F01A9599F11A9509F473C08BC01091EB
:107306001801113011F411E001C010E0138799D073
:107316000C3F11F414D17FC077D17DC092D010916B
:107326001801112329F01A9549F01A95A9F073C08E
:1073360010E013870C3F09F06EC0ECCF56D103C0A6
:107346004CD109F468C00D911C9144D10F3FC1F393
:1073560005E0009309015FC011E0EBCFD2D029F020
:107366000250E1F10A9541F056C0FDD00E948B3FD4
:107376000FEF00930A014FC0552319F05A9579F083
:107386004AC04ED00DEF04BF74D0EAD003FFFDCF44
:1073960067D051D04AD008E000936000FFCF40D0BC
:1073A60068D0DED003FFFDCF5BD03FD044D00FEFD7
:1073B6001FE004C009811A810150104009831A8315
:1073C60009811A81012BB1F700E800936100009151
:1073D6001501009361000C940000FFCF01E00387C4
:1073E6001AC08FD019F00A9539F015C0535098F489
:1073F600BAD002E000870FC0505339F05A9541F0D9
:107406005F52B1F35A95A1F306C002E00883F0CFAC
:1074160001E0FCCFA8D079D02396E4E00C94A43EFA
:1074260001E005BF00E005BF08950091D8000F7781
:107436000093D800089509B50D7F09BD00E009BD88
:10744600089551834083338322831091E8001B7F84
:107456001093E8001091E8001F771093E800089554
:107466005DD053D0F8940091E00001600093E000F5
:10747600089579D04AC0219749D00091060103505A
:1074860019F00250B9F00BC03CD021F00A9559F022
:107496000A9529F400910A010C3F19F450D021965F
:1074A600089567D0FCCF009101010093F10000918F
:1074B60000010AC01091190124D019F00A9549F06B
:1074C600EECF135018F400E00093F1001ED044D024
:1074D600E6CF105339F01A9539F01F5241F01A953C
:1074E60041F0F4CF08E5F0CF00E006D0EDCF02E0A2
:1074F600FCCF04E001D0E8CF10E020E030E00C94AF
:10750600F93E009118010023089521C00BD008D040
:1075160007D00093040106D00093050121D00BC0CB
:1075260000D008830091F10008950091EB000062FD
:107536000093EB0015D0077F0093E8000895F5DF70
:1075460002E00093080103E000930901089559D071
:1075560007D000FFFDCF089503D002FFFDCF03C083
:107566000091E8000895FCDF0B7FE6DFF9DF0F7777
:10757600E3CF0E94963E42D038D006C02BD000936F
:10758600F1002BD059F43DD0082F092BA9F0E8DFE4
:1075960002FD12C0E5DF00FFFDCF4424042D439415
:1075A600003289F300910B0100230D911C9131F3F8
:1075B60011970E945A38E3CFD3DF00FFFDCF21D0C9
:1075C600CFDF00FFFDCFCCDF02FFFDCFCCDFE5E054
:1075D6000C94A33E11970C945E380D911C910F5F8D
:1075E6001F4F1C930E93019708958281938100810A
:1075F6001181801B910B0196DF010895E0E0F1E017
:107606000895AEDF0E7F98CF0E94933EF7DF80810C
:107616009181A081B181AF71048115810052104022
:10762600048315830AC000910B01002331F4A301E2
:1076360092010CE911E00E94233F47D0B8F166247D
:1076460077242C0111C06EDFF301E456FE4F008350
:1076560001E0600E00E0701E01960091F20000232A
:1076660011F033D0B8F47FDF30D0E8F2F301B096F2
:10767600E238F040C0F674DF02FFFDCF0091F20061
:10768600BDDF24813581201B304024833583E5CF3F
:1076960049DFAA95AA23E1F700910B01013099F67B
:1076A6002091F1008C010E945238D6CF04811581B9
:1076B600012B21F055DF02FFFDCF55DFA2DF50DFA2
:1076C60000FFFDCFE8E00C94A03EE0E0F1E002818F
:1076D60013810817190708952091EB002160209364
:1076E600EB000093EC000091ED000270012B00937B
:1076F600ED000091ED0002600093ED001091EE00A8
:10770600012F000F00E0001F0895412F0093E900AC
:10771600089500E009D000FD05C000E0F7DF10E2A3
:1077260002E0DACF00E00895F1DF0091EB00089562
:107736000F770132A9F5112369F11A9559F01A95B7
:1077460061F01A9569F01A95F9F01A95C1F01A9533
:10775600D9F024C00E94443920C00E943E3A1DC080
:1077660029D00091090123D001E01FD020D000913B
:1077760008011BD00E94AA3A0E94AF3A0EC01AD046
:107786000091080114D007C002E00093080100E050
:10779600009309010FD00E94AA3A03C00E94983AAA
:1077A60002C001E0089500E0089501D000E00093D2
:1077B600F10008950091E800077F0093E80008951E
:1077C60008950330E9F4112329F01A9549F01A9522
:1077D60089F016C004E00093230205E810E705C00F
:1077E6000CE00093230203E510E7E0E2F2E00083F9
:1077F6001183D7CF06E2009323020FE510E7F5CFFA
:10780600D2CF26D16CD100931401E2D0212F1123BF
:1078160029F12A95E9F02250F1F0225099F02A95A3
:1078260049F0225061F02A9581F02A95E1F02A95D7
:10783600E9F023C0003809F44FC00C949B3B003894
:10784600E1F7C9C00023C9F71EC00023B1F72DC058
:10785600033098F747C1033080F70AC1003868F350
:10786600033858F7CAC0013841F77BC1013051F4DB
:10787600FBD0C0D000FD06C0FCCF0E949B3B00237E
:1078860009F41ED00895A4D00091E30000781F7774
:10789600012B0093E300E8D0ADD000FFFDCF0091AF
:1078A600E30000680093E300089592D0123040F49C
:1078B6000FD010932402D9D0009124020C94E33BFC
:1078C6000091EB0001D004C000620093EB00089524
:1078D6000091E800077FBFC0BA93AA93229700E001
:1078E6000093220275D0FBD0202F2A9519F02A95F5
:1078F600E9F022C002E1009323020FE210E7E0E282
:10790600F2E0008311839ED00883E9D00983E0DF8B
:107916000091230210E02881398102171307A8F489
:107926000F7181F401E00093220211C002E100937D
:10793600230201E410E7E3CF0E94E43B002319F79A
:107946008DD040C01093220202C0209323027DD026
:10795600A0E2B2E001C089D000912302002309F120
:1079660049D004FD1EC046D000FD03C043D004FF2D
:10797600FACF10E0012F1395003281F0ED91FC91C2
:107986001197049134D02D913C912F5F3F4F3C933A
:107996002E93FD0103810A95038361F72BD004FF23
:1079A600DACF00912202013039F424D004FD04C05C
:1079B60021D000FFFDCF59D01DD004FFFDCF45D00B
:1079C60019D00B7F48D02296A991B991089587D0F6
:1079D6001091F10008957CDF0091240208D045D073
:1079E60009D00F7738D006D002FFFDCFBEC0009376
:1079F600F10008950091E800089524D01091140133
:107A0600105829F01A9589F01A9591F019C060DF7F
:107A160000911301ECDF00E0EADF27D0EBDF02FF85
:107A2600FDCF16D0E7DF0F770CC052DF00E0F2CFB4
:107A360050D00F77F0E0E02FE45FFE4F0081EACFF1
:107A46000DD009C04CD04BD04AC0D4DF0F7E03C046
:107A56000091E8000B7F0093E80008950091EB0089
:107A660033DFC8DF077F089533DFC4DF0E7FF3CF30
:107A760000911401002329F00A9511F10A9531F0BD
:107A86001FC02DD0013066D0E1F41BC0A0DF00235B
:107A9600B9F425D00F7711F416D01BD00093E90066
:107AA6001091EB0010FF0BC00ED010E01093E90010
:107AB60021E0F801E45FFE4F20834FD003C046D09B
:107AC60049D0CEDFC8CF1091EB0010621093EB00C7
:107AD60008951091E800177F1093E800089500912B
:107AE600F100089500911401002311F4F8DF02C09B
:107AF600013011F4B3DFAFCF023039F568DF002370
:107B060019F52091F1002F772093E90023D000FF8B
:107B160019C081F01FD00061D8DE422F01E010E0CD
:107B26000E94893E0093EA0000E00093EA0012D02A
:107B36000860CBDE0BD0F0E0E22FE45FFE4F00835F
:107B46000CD0D9CF03D0D6CFBBDE089500E000938A
:107B5600E90008950091EB000895BADE4BDF0E7F31
:107B6600089582DF47DF02FFFDCF72DF43DF0F7725
:107B760072CF0091D70001600093D7000E948B3826
:107B860000E00093250208950C94AF388A93FA9387
:107B9600EA933A922A921A920A927A936A935A939B
:107BA6004A933A932A931A930A938FB782D002FF85
:107BB60005C084D002FF02C00BEF78D07AD000FF58
:107BC6001BC07CD000FF18C001E0009317016DD0E8
:107BD60079D0006267D00EEF6FD000617FD06ED093
:107BE6000F7D7CD00091D80000620093D80009B5C3
:107BF6000D7F09BD00E009BD5CD004FF20C05ED04A
:107C060004FF1DC009B500FD05C00E94063909B56F
:107C160000FFFDCF0091D8000F7D0093D80045D01E
:107C260000911701002359F052D00FEE45D00F7E78
:107C360048D0006437D042D0016050D048D039D007
:107C460005FF0FC03BD005FF0CC000E000931701F5
:107C560035D00F7E43D00FED2FD00F7D32D0006888
:107C660021D027D003FF0DC029D003FF0AC000E0B2
:107C76000093250207EF1AD00E948C3B23D0116097
:107C860011D08FBF09911991299139914991599133
:107C9600699179910990199029903990E991F99112
:107CA600899118951183008308950FEE0093E100E2
:107CB60008950091E10008950093E1000091E2002B
:107CC60008950CD0E6E2F2E000811181089500915A
:107CD600E200006203D00091E20008600093E20037
:107CE600089500008895FECF07E60DBF02E00EBF9F
:107CF600C8EED2E00E947438002311F00E94BB3E09
:107D06000E9465380E94743E0C94743E4A951AF09F
:107D1600000F111FFBCF0895BA92AA929A928A92E7
:107D26007A926A925A924A92BA93AA939A938A93A9
:107D36000895BB84AA84998488847F806E805D8040
:107D46004C80BB81AA8199818881F0E0EC0FFD1FF0
:107D5600EF01089520E006D0E9F70895259102D0B5
:107D6600E9F708952D9301501040202F212B0895F7
:107D760089E890E7FC0105911491FC013296A591E2
:107D8600B491FC01349625913491422F432B19F07E
:107D9600F901E4DF01C0DEDF069610E785399107B9
:107DA60048F308952F930CD02F9101D008953CD01D
:107DB600F12FE02F45E047BFE89536D012D0089561
:107DC60033D0F12FE02F43E047BFE8952DD008953B
:107DD6002BD0F12FE02F43E047BFE89525D001D007
:107DE600089522D041E147BFE8951EC01DD0F12F6E
:107DF600E02F41E247BFC895002D16C015D0F12FE0
:107E0600E02F49E047BFC895002D0EC0F32FE22FA3
:107E1600012E102E41E047BFE89506C005D0002E82
:107E260029E027BFE89500C0022E27B720FDFCCF2A
:107E3600202D0895022E27B726FDFCCF202D08956C
:107E46000E948F3E22974801C901DA0110C05BD01B
:107E560001E0A00E00E0B01E00E4A01600E0B006AF
:107E660008F440C0830120E030E00E94DA3E0A2F89
:107E76000B2B09F440C0082F0F7710E02C01401A95
:107E8600510A320100E4A02E03C00A2F0B2BE1F0A9
:107E96004816590680F0F40101914F0109831197A4
:107EA60029F001914F010883119711C0F201319613
:107EB600049108830CC0F201049109833196E817F6
:107EC600F907A1F7F401EDCF1BD0088319839201BE
:107ED600088119810E94093F16D0AA94B1F62301A0
:107EE600AA24BB240DD0312F0F3F3F4F09F4AFCF4B
:107EF60083011DD0B7CF01E02296ECE00C949C3EA6
:107F060082010C94613802E0400E00E0501E089594
:107F16009A938A9380E090E08C0109D080589F4F15
:107F26008F3F0FE69007C0F389919991089520E05D
:107F360030E00C94E33E000000000000000000006A
:0B7F4600FC0000000000000000010033
:107FE4000C94D53E0C94F93E0C94013F0C94093F3B
:0C7FF4000C94DA3E0C94EB3E0C94113F10
:040000030000700089
:00000001FF
