:10000000DEC1000013C2000011C200000FC20000D8
:100010000DC200000BC2000009C2000007C20000B0
:1000200005C2000003C200000C945C0FFFC1000079
:10003000FDC10000FBC10000F9C10000F7C10000D4
:10004000F5C10000F3C10000F1C10000EFC10000E4
:10005000EDC10000EBC10000E9C10000E8C10000F3
:10006000E5C10000E3C10000E1C10000DFC1000004
:10007000DDC10000DBC10000D9C10000D7C1000014
:10008000D5C10000D3C10000D1C10000CFC1000024
:10009000CDC10000CBC10000C9C10000C7C1000034
:1000A000C5C10000C3C10000C1C100005D7D005D8D
:1000B0002C20224D41585F44495354414E43455FE3
:1000C0006D6D223A205B002244495354414E434512
:1000D0005F6D6D223A205B007B225245434F5244B4
:1000E000494E47223A20007D002C224D4158524172
:1000F0004E4745223A007B2252414E4745223A0064
:10010000564C36313830580053656E736F723A2052
:1001100000207C2000332E32004669726D776172B8
:1001200065205265766973696F6E3A2000207C20E5
:1001300000417765736F6D65204661756365740076
:10014000207C2000487970657274726F6E69780047
:10015000332E32003100120110010200000818197C
:10016000F5FF01000102DC0109023E00020100C0AE
:1001700032090400000102020100052400100104FC
:100180002402060524060001070582030800FF0972
:10019000040100020A0000000705040240000507F0
:1001A0000583024000050403090422034800790086
:1001B000700065007200540072006F006E006900EC
:1001C0007800200049006E0063002E0000001E032E
:1001D00041007700650073006F006D00650020002E
:1001E00046006100750063006500740000002D3159
:1001F00031322C417267756D656E7420746F6F209B
:100200006C6F6E673A20002D3131332C42616420CF
:1002100070617468206F72206865616465723A204D
:10022000002D3130382C546F6F206D616E79207045
:100230006172616D65746572733A20002D313038DA
:100240002C546F6F2066657720706172616D6574E4
:10025000657273000D0A002B302C224E6F206572E0
:10026000726F72220D0A004552524F5220636F6D19
:100270006D616E6420746F6F206C6F6E670D0A0085
:100280006E616E00696E6600494E46494E4954598A
:100290004E414ECDCCCC3D0AD7233C17B7D1387751
:1002A000CC2B329595E6241FB14F0A000020410067
:1002B00000C84200401C4620BCBE4CCA1B0E5AAEB1
:1002C000C59D7400407A10F35A00A0724E180900C0
:1002D00010A5D4E80000E87648170000E40B5402AB
:1002E0000000CA9A3B000000E1F5050000809698E6
:1002F00000000040420F000000A086010000001036
:100300002700000000E80300000000640000000077
:10031000000A00000000000100000000002C76D858
:1003200088DC674F0823DFC1DFAE59E1B1B796E53E
:10033000E3E453C63AE651997696E8E6C28426EBA2
:10034000898C9B62ED407C6FFCEFBC9C9F40F2BAB5
:10035000A56FA5F490055A2AF75C936B6CF9676D4D
:10036000C11BFCE0E40D47FEF520E6B500D0ED90A2
:100370002E0300943577050080841E080000204E6F
:100380000A000000C80C333333330F986E12831108
:1003900041EF8D2114893BE65516CFFEE6DB18D1DF
:1003A000844B381BF77C1D901DA4BBE424203284B1
:1003B000725E228100C9F124ECA1E53D27001124E1
:1003C0001FBECFEFDAE0DEBFCDBF04B603FE18C01C
:1003D0008091070790910807A0910907B0910A073B
:1003E0008A5C9C4AA244BC4D59F4109207071092B3
:1003F00008071092090710920A07E0E0F8E3099550
:1004000014E0A0E0B1E0ECEDF5E402C005900D923F
:10041000AA32B107D9F717E0AAE2B4E001C01D92F1
:10042000A730B107E1F729D00C94EC22E9CD1F9257
:100430000F920FB60F9211242F933F934F935F9318
:100440006F937F938F939F93AF93BF93EF93FF939C
:10045000F8940E94E10C7894FF91EF91BF91AF91D5
:100460009F918F917F916F915F914F913F912F91CC
:100470000F900FBE0F901F9018950F931F93DF934F
:10048000CF93CDB7DEB7CB57D0400FB6F894DEBFD1
:100490000FBECDBF0AE214E08AEB93E0B8010E94E0
:1004A000DC111B830A83CE0108969F838E8380E82C
:1004B000809361001092610084B7877F84BF85B705
:1004C000806885BF85B7806885BF88E10FB6F894DE
:1004D00080936000109260000FBE83E085BD809124
:1004E0006E00816080936E00559A5D98579A5F9870
:1004F0008091C1008A608093C1008091C2008960B0
:100500008093C20080E094E120E931E0F901319765
:10051000F1F70197D9F71F8A89E18E8B81E08D8BE6
:1005200082E08C8B89E290E09B8B8A8B998B888B05
:100530008AE290E09F878E879D878C878BE290E090
:100540009B878A87998788870E943F0F0E945C1348
:100550007894CE0108960E94AB13CE0148962A816A
:100560003B814C815D816E817F812FD083D6ABD65C
:100570009FD6CCD093D6FDD7B1D686D60E945F1732
:100580008E010F5F1F4F89E26DE470E0A8010E94A9
:100590002C14898180FFF7CF89E268E170E041E0A7
:1005A0000E944D148E01085E1F4F0E945213C80115
:1005B0002A813B814C815D816E817F810E94F01692
:1005C0000E94A30B0E94850BF0CFDF93CF9300D046
:1005D00000D000D0CDB7DEB7FC018AEA93E091836A
:1005E00080838DE993E09383828380E993E0958310
:1005F000848382E893E09783868384E793E09187FE
:10060000808786E693E0938782878BE593E09587E2
:1006100084878BE493E0978786878DE393E0918BC3
:10062000808B8DE293E0938B828B8FE193E0958BAF
:10063000848B84E193E0978B868B86E093E0918FA7
:10064000808F84EF92E0938F828F83EE92E0958F7C
:10065000848F82ED92E0978F868F8FEB92E091A34B
:1006600080A380EA92E093A382A383E892E095A31B
:1006700084A384E692E097A386A383E592E091A702
:1006800080A780E392E093A782A785E192E095A7F7
:1006900084A781E092E097A786A786EF91E091ABCF
:1006A00080AB85EE91E093AB82AB85ED91E095ABAD
:1006B00084AB83EC91E097AB86AB85EA91E091AF98
:1006C00080AF89E891E093AF82AF8BE691E095AF80
:1006D00084AF89E491E097AF86AFE05CFF4F8CE395
:1006E00091E08193919382E391E08193919387E2EA
:1006F00091E0819391931182108226960FB6F8941F
:10070000DEBF0FBECDBFCF91DF9108956091910400
:1007100070919204809193049091940420E030E0D1
:1007200040E85FE30E94B81B209185043091860465
:1007300040918704509188040E94B81B9B01AC0132
:1007400060E070E080E89FE30E94201C60939504C5
:100750007093960480939704909398040895DF9380
:10076000CF9300D000D000D0CDB7DEB781E080932A
:10077000B90326960FB6F894DEBF0FBECDBFCF915A
:10078000DF910895DF93CF9300D000D000D0CDB794
:10079000DEB726960FB6F894DEBF0FBECDBFCF9161
:1007A000DF9108950F931F93DF93CF9300D000D074
:1007B00000D0CDB7DEB729833A834B835C836D834A
:1007C0007E83122F032F8DB79EB708970FB6F8942C
:1007D0009EBF0FBE8DBFEDB7FEB73196ADB7BEB7AA
:1007E00011962C93119712963C9380E091E093839D
:1007F00082838091890490918A04A0918B04B091A6
:100800008C0484839583A683B7830E94FE21412FA5
:1008100019830A838DB79EB708960FB6F8949EBFCA
:100820000FBE8DBF502F6B817C818D819E810E9478
:10083000931426960FB6F894DEBF0FBECDBFCF91AE
:10084000DF911F910F9108950F931F93DF93CF9323
:1008500000D000D000D0CDB7DEB729833A834B83D8
:100860005C836D837E83122F032F8DB79EB708970D
:100870000FB6F8949EBF0FBE8DBFEDB7FEB7319691
:10088000ADB7BEB711962C93119712963C9380E0AA
:1008900091E0938382838091950490919604A09136
:1008A0009704B091980484839583A683B7830E94AC
:1008B000FE21412F19830A838DB79EB708960FB684
:1008C000F8949EBF0FBE8DBF502F6B817C818D81B0
:1008D0009E810E94931426960FB6F894DEBF0FBE39
:1008E000CDBFCF91DF911F910F9108950F931F936B
:1008F000DF93CF9300D000D000D0CDB7DEB72983EF
:100900003A834B835C836D837E83122F032F8DB7D5
:100910009EB708970FB6F8949EBF0FBE8DBFEDB778
:10092000FEB73196ADB7BEB711962C9311971296BC
:100930003C9380E091E09383828380918D04909139
:100940008E04A0918F04B091900484839583A68334
:10095000B7830E94FE21412F19830A838DB79EB76A
:1009600008960FB6F8949EBF0FBE8DBF502F6B81B7
:100970007C818D819E810E94931426960FB6F894F7
:10098000DEBF0FBECDBFCF91DF911F910F910895B4
:100990000F931F93DF93CF9300D000D000D0CDB73B
:1009A000DEB729833A834B835C836D837E83122F6A
:1009B000032F8DB79EB708970FB6F8949EBF0FBE52
:1009C0008DBFEDB7FEB73196ADB7BEB711962C937C
:1009D000119712963C9380E091E0938382838091FB
:1009E0009E0690919F06A091A006B091A1068483D7
:1009F0009583A683B7830E94FE21412F19830A8322
:100A00008DB79EB708960FB6F8949EBF0FBE8DBFE8
:100A1000502F6B817C818D819E810E94931426963C
:100A20000FB6F894DEBF0FBECDBFCF91DF911F91FF
:100A30000F9108950F931F93DF93CF9300D000D0B1
:100A400000D0CDB7DEB729833A834B835C836D83B7
:100A50007E83122F032F8DB79EB708970FB6F89499
:100A60009EBF0FBE8DBFEDB7FEB73196ADB7BEB717
:100A700011962C93119712963C9380E091E093830A
:100A800082838091850490918604A0918704B0911F
:100A9000880484839583A683B7830E94FE21412F17
:100AA00019830A838DB79EB708960FB6F8949EBF38
:100AB0000FBE8DBF502F6B817C818D819E810E94E6
:100AC000931426960FB6F894DEBF0FBECDBFCF911C
:100AD000DF911F910F9108950F931F93DF93CF9391
:100AE00000D000D000D0CDB7DEB729833A834B8346
:100AF0005C836D837E83122F032F8DB79EB708977B
:100B00000FB6F8949EBF0FBE8DBFEDB7FEB73196FE
:100B1000ADB7BEB711962C93119712963C9380E017
:100B200091E0938382838091910490919204A091AB
:100B30009304B091940484839583A683B7830E9421
:100B4000FE21412F19830A838DB79EB708960FB6F1
:100B5000F8949EBF0FBE8DBF502F6B817C818D811D
:100B60009E810E94931426960FB6F894DEBF0FBEA6
:100B7000CDBFCF91DF911F910F9108950F931F93D8
:100B8000DF93CF9300D000D000D0CDB7DEB729835C
:100B90003A834B835C836D837E83122F032F00D0B7
:100BA00000D000D0EDB7FEB73196ADB7BEB7119605
:100BB0002C93119712963C9383E091E09383828368
:100BC0008091450490914604958384830E94FE2180
:100BD000412F19830A838DB79EB706960FB6F894F6
:100BE0009EBF0FBE8DBF502F6B817C818D819E81FA
:100BF0000E94931426960FB6F894DEBF0FBECDBFA9
:100C0000CF91DF911F910F9108950F931F93DF9361
:100C1000CF9300D000D000D0CDB7DEB729833A8380
:100C20004B835C836D837E83122F032F00D000D013
:100C300000D0EDB7FEB73196ADB7BEB711962C9385
:100C4000119712963C9383E091E093838283809185
:100C50009904848315820E94FE21412F19830A83FF
:100C60008DB79EB706960FB6F8949EBF0FBE8DBF88
:100C7000502F6B817C818D819E810E9493142696DA
:100C80000FB6F894DEBF0FBECDBFCF91DF911F919D
:100C90000F9108950F931F93DF93CF9300D000D04F
:100CA00000D0CDB7DEB729833A834B835C836D8355
:100CB0007E83122F032F8BB100D000D000D0EDB770
:100CC000FEB73196ADB7BEB711962C931197129619
:100CD0003C9323E031E03383228390E025E0969536
:100CE00087952A95E1F781709070958384830E949F
:100CF000FE21412F19830A838DB79EB706960FB642
:100D0000F8949EBF0FBE8DBF502F6B817C818D816B
:100D10009E810E94931426960FB6F894DEBF0FBEF4
:100D2000CDBFCF91DF911F910F9108950F931F9326
:100D3000DF93CF9300D000D000D0CDB7DEB72983AA
:100D40003A834B835C836D837E83122F032F8DB791
:100D50009EB708970FB6F8949EBF0FBE8DBFEDB734
:100D6000FEB73196ADB7BEB711962C931197129678
:100D70003C9386E091E09383828380919A069091E0
:100D80009B06A0919C06B0919D0684839583A683C3
:100D9000B7830E94FE21412F19830A838DB79EB726
:100DA00008960FB6F8949EBF0FBE8DBF502F6B8173
:100DB0007C818D819E810E94931426960FB6F894B3
:100DC000DEBF0FBECDBFCF91DF911F910F91089570
:100DD000CF92DF92EF92FF920F931F93DF93CF9307
:100DE00000D000D000D0CDB7DEB7022F2983132F5B
:100DF0003A834B835C836D837E8388ED90E098011A
:100E00000E946514E980FA808091B903882319F45F
:100E10002BE031E002C021E131E000D000D000D071
:100E2000EDB7FEB73196ADB7BEB71296FC92EE9213
:100E3000119786E191E093838283358324830E9416
:100E4000FE21EDB7FEB736960FB6F894FEBF0FBE83
:100E5000EDBF87EC90E029813A814B815C816D8107
:100E60007E810E94651400E010E06BE1C62E61E017
:100E7000D62E8DB79EB708970FB6F8949EBF0FBEBB
:100E80008DBF2DB73EB72F5F3F4FADB7BEB71296A0
:100E9000FC92EE921197F901D382C28280913E04B6
:100EA000F801E80FF11DEF73F07053E0EE0FFF1F34
:100EB0005A95E1F7E656FB4F80819181A281B3817B
:100EC000F90184839583A683B7830E94FE210F5F77
:100ED0001F4F8DB79EB708960FB6F8949EBF0FBEF2
:100EE0008DBF0034110529F68FEA90E029813A81FF
:100EF0004B815C816D817E810E94651400E010E071
:100F0000ADB7BEB718970FB6F894BEBF0FBEADBF52
:100F10002DB73EB72F5F3F4F1296FC92EE9211977E
:100F2000F901C282D38280913E04F801E80FF11DDD
:100F3000EF73F07043E0EE0FFF1F4A95E1F7E256C2
:100F4000FB4F80819181A281B381F90184839583D4
:100F5000A683B7830E94FE210F5F1F4F8DB79EB7F8
:100F600008960FB6F8949EBF0FBE8DBF00341105D2
:100F700039F68CEA90E029813A814B815C816D8160
:100F80007E810E94651449815A816B817C818D81AB
:100F90009E810E94931426960FB6F894DEBF0FBE72
:100FA000CDBFCF91DF911F910F91FF90EF90DF9018
:100FB000CF900895EF92FF920F931F93DF93CF93FB
:100FC00000D000D000D0CDB7DEB7022F2983132F79
:100FD0003A834B835C836D837E8386EF90E0980138
:100FE0000E946514E980FA808DB79EB708970FB606
:100FF000F8949EBF0FBE8DBFEDB7FEB73196ADB76B
:10100000BEB71296FC92EE92119700E011E01383A6
:10101000028380919A0690919B06A0919C06B091C4
:101020009D0684839583A683B7830E94FE218DB796
:101030009EB708960FB6F8949EBF0FBE8DBF89EE7F
:1010400090E029813A814B815C816D817E810E9493
:101050006514ADB7BEB718970FB6F894BEBF0FBEF4
:10106000ADBFEDB7FEB731961296FC92EE92119796
:10107000138302838091390490913A04A0913B0438
:10108000B0913C0484839583A683B7830E94FE219C
:101090008DB79EB708960FB6F8949EBF0FBE8DBF52
:1010A00087EE90E029813A814B815C816D817E8160
:1010B0000E94651449815A816B817C818D819E815A
:1010C0000E94931426960FB6F894DEBF0FBECDBFD4
:1010D000CF91DF911F910F91FF90EF9008950F93A3
:1010E0001F93DF93CF9300D000D000D0CDB7DEB7F1
:1010F000022F2983132F3A834B835C836D837E8376
:1011000084E491E098010E94651480E491E02981D3
:101110003A814B815C816D817E810E94651481E3FF
:1011200091E029813A814B815C816D817E810E94B1
:1011300065148DE291E029813A814B815C816D815A
:101140007E810E94651489E191E029813A814B8179
:101150005C816D817E810E94651485E191E0298129
:101160003A814B815C816D817E810E94651481E1B1
:1011700091E029813A814B815C816D817E810E9461
:10118000651488E091E029813A814B815C816D8111
:101190007E810E94651480E091E029813A814B8133
:1011A0005C816D817E810E94651449815A816B81C9
:1011B0007C818D819E810E94931426960FB6F894AF
:1011C000DEBF0FBECDBFCF91DF911F910F9108956C
:1011D0000F931F93DF93CF9300D000D000D0CDB7F3
:1011E000DEB7022F2983132F3A834B835C836D83F1
:1011F0007E8380E591E098010E94651449815A81BF
:101200006B817C818D819E810E94931426960FB6FE
:10121000F894DEBF0FBECDBFCF91DF911F910F912C
:1012200008950F931F93DF93CF9300D000D000D089
:10123000CDB7DEB7022F2983132F3A834B835C830C
:101240006D837E8384E591E098010E946514498155
:101250005A816B817C818D819E810E949314269698
:101260000FB6F894DEBF0FBECDBFCF91DF911F91B7
:101270000F910895F999FECF8DE894E061E370E055
:1012800044E050E00C94C222F999FECF89E894E042
:1012900061E470E044E050E00C94C222F999FECF82
:1012A0008EE996E061E270E044E050E00C94C222E6
:1012B000F999FECF85E894E061E170E044E050E008
:1012C0000E94C22223CAF999FECF81E994E061E02D
:1012D00070E044E050E00E94C22218CAF999FECFA3
:1012E00085E494E061E570E042E050E00C94C222B5
:1012F000DF93CF93CDB7DEB72C970FB6F894DEBF50
:101300000FBECDBFFC012F83388749875A876B8773
:101310007C878081882319F40E943F1515C0CF0176
:10132000BE016F5F7F4F0E94191EF999FECF6B833C
:101330007C838D839E83CE01039661E470E044E05C
:1013400050E00E94D222A0DF2C960FB6F894DEBFA8
:101350000FBECDBFCF91DF910895DF93CF93CDB76F
:10136000DEB72C970FB6F894DEBF0FBECDBFFC01E1
:101370002F83388749875A876B877C8780818823AA
:1013800019F40E943F1515C0CF01BE016F5F7F4F5A
:101390000E94191EF999FECF6B837C838D839E83F7
:1013A000CE01039661E370E044E050E00E94D22257
:1013B00061DF2C960FB6F894DEBF0FBECDBFCF9184
:1013C000DF910895DF93CF93CDB7DEB72C970FB69B
:1013D000F894DEBF0FBECDBFFC012F83388749874D
:1013E0005A876B877C878081882319F40E943F1578
:1013F00015C0CF01BE016F5F7F4F0E94191EF99982
:10140000FECF6B837C838D839E83CE01039661E246
:1014100070E044E050E00E94D22240DF2C960FB6EC
:10142000F894DEBF0FBECDBFCF91DF910895DF935B
:10143000CF93CDB7DEB72C970FB6F894DEBF0FBEB3
:10144000CDBFFC012F83388749875A876B877C87FC
:101450008081882319F40E943F1515C0CF01BE0179
:101460006F5F7F4F0E94191EF999FECF6B837C83BB
:101470008D839E83CE01039661E070E044E050E0EE
:101480000E94D22220DF2C960FB6F894DEBF0FBE4A
:10149000CDBFCF91DF910895DF93CF93CDB7DEB766
:1014A0002C970FB6F894DEBF0FBECDBF2F833887C1
:1014B00049875A876B877C87FC0101900020E9F7F8
:1014C0003297E817F90719F40E943F1514C0BE01BE
:1014D0006F5F7F4F0E94191EF999FECF6B837C834B
:1014E0008D839E83CE01039661E170E044E050E07D
:1014F0000E94D222DDDE2C960FB6F894DEBF0FBE1E
:10150000CDBFCF91DF910895DF93CF93CDB7DEB7F5
:101510002A970FB6F894DEBF0FBECDBFFC012D8316
:101520003E834F83588769877A878081882319F49F
:101530000E943F1515C0CF01BE016F5F7F4F4AE08B
:1015400050E00E946F1FF999FECF7C836B83CE0120
:10155000039661E570E042E050E00E94D222BEDED8
:101560002A960FB6F894DEBF0FBECDBFCF91DF91A4
:101570000895F999FECF89E994E060E070E041E0D8
:1015800050E00E94C222B3C0DF93CF93CDB7DEB745
:1015900029970FB6F894DEBF0FBECDBFFC012C8398
:1015A0003D834E835F83688779878081882319F420
:1015B0000E943F1514C0CF01BE016E5F7F4F4AE00D
:1015C00050E00E946F1FF999FECF6983CE0101960A
:1015D00060E070E041E050E00E94D222CADF29962C
:1015E0000FB6F894DEBF0FBECDBFCF91DF91089547
:1015F000DF93CF9300D000D000D0CDB7DEB72983E2
:101600003A834B835C836D837E831092210180E05B
:1016100073D026960FB6F894DEBF0FBECDBFCF9124
:10162000DF910895DF93CF9300D000D000D0CDB7E5
:10163000DEB729833A834B835C836D837E8310926C
:10164000210181E059D026960FB6F894DEBF0FBE77
:10165000CDBFCF91DF910895DF93CF9300D000D01D
:1016600000D0CDB7DEB729833A834B835C836D838B
:101670007E8381E08093210180E03ED026960FB6E4
:10168000F894DEBF0FBECDBFCF91DF910895DF93F9
:10169000CF9300D000D000D0CDB7DEB729833A83F6
:1016A0004B835C836D837E830E94E11326960FB685
:1016B000F894DEBF0FBECDBFCF91DF910895DF93C9
:1016C000CF9300D000D000D0CDB7DEB729833A83C6
:1016D0004B835C836D837E830E94221826960FB60F
:1016E000F894DEBF0FBECDBFCF91DF9108958091FA
:1016F00099048093D2000895882319F08BB18062F9
:1017000002C08BB18F7D8BB9089580913D048823F1
:1017100081F080912101882311F081E0EDDF81E0EB
:1017200080933804109247041092440410924304AA
:10173000089580913804882329F01092380481E0BC
:101740008093470408956F927F928F929F92AF92F9
:10175000BF92CF92DF92EF92FF920F931F93DF938E
:10176000CF9300D0CDB7DEB789E26FE470E0AE0171
:101770004F5F5F4F0E942C14898182FF11C18091BD
:10178000B1039091B203A091B303B091B4038093DD
:10179000B5039093B603A093B703B093B8038091B9
:1017A0009A0690919B06A0919C06B0919D0680930D
:1017B000B1039093B203A093B303B093B40389E24F
:1017C00062E670E0AE014E5F5F4F0E942C1489E22A
:1017D00065E170E047E00E944D1489E268E170E045
:1017E00041E00E944D146A8170E080E090E00E9428
:1017F000881C209195043091960440919704509153
:1018000098040E94201C7B018C01609191047091CE
:10181000920480919304909194042091B1033091AB
:10182000B2034091B3035091B4030E943E1D9B014B
:10183000AC01C801B7010E94B71B7B018C0160910C
:10184000850470918604809187049091880420918A
:10185000B5033091B6034091B7035091B8030E948D
:101860003E1D9B01AC01C801B7010E94B71B5B0183
:101870006C0160939A0670939B0680939C069093EC
:101880009D066091390470913A0480913B049091D7
:101890003C0420918D0430918E0440918F0450912E
:1018A00090040E94B71B7B018C01609339047093F4
:1018B0003A0480933B0490933C04C601B501A8010F
:1018C00097010E943A1D1816F4F4C601B501A8014B
:1018D00097010E94B71B2091890430918A0440919E
:1018E0008B0450918C040E943E1D9B01AC01C801E9
:1018F000B7010E94B81B6093390470933A04809337
:101900003B0490933C046090390470903A048090BA
:101910003B0490903C0410E0C401B30120919E066A
:1019200030919F064091A0065091A1060E94B71BDE
:101930009B01AC01C601B5010E941C1C88230CF45C
:1019400011E010933D04112319F080E090E009C0EC
:1019500090E08091B903882309F491E081E0982711
:10196000892F8093B9038823D9F080913E04E82F12
:10197000F0E023E0EE0FFF1F2A95E1F7DF01A65606
:10198000BB4FAD92BD92CD92DC921397E256FB4FC6
:1019900060827182828293828F5F8F7380933E0414
:1019A0000F900F90CF91DF911F910F91FF90EF90CB
:1019B000DF90CF90BF90AF909F908F907F906F906F
:1019C000089580913F0490914004A0914104B0910A
:1019D00042040196A11DB11D80933F0490934004E1
:1019E000A0934104B093420480914704882349F0B6
:1019F0008091430490914404019690934404809311
:101A00004304209143043091440480914504909113
:101A100046042817390760F080912101882311F0CE
:101A200080E06ADE1092470410924404109243044E
:101A30000895DA01923049F0933061F09130F9F471
:101A4000E6E5F1E022E130E01EC0E8E6F1E02EE359
:101A500030E019C0813049F0813018F0823079F4DB
:101A600008C0E6EAF1E0849107C0EAEAF1E0849177
:101A700003C0EEECF1E08491282F30E004C0E0E0F8
:101A8000F0E020E030E0ED93FC93C90108959C0163
:101A90004091AD065091AE064617570718F4F9016C
:101AA00090E043C06115710511F0AB01F8CF809152
:101AB000E8008E778093E80040E050E0F0CF80911E
:101AC000A606882309F447C0853009F446C08091F2
:101AD000E80083FD44C08091E80082FD36C080911B
:101AE000E80080FF22C08091F3009091F200782FEF
:101AF00060E0292F30E0262B372B07C0819180939F
:101B0000F100415050402F5F3F4F4115510519F0F2
:101B10002830310598F390E02830310509F491E040
:101B20008091E8008E778093E8004115510539F6E1
:101B3000992329F60AC08091A606882361F0853092
:101B400061F08091E80083FD0AC08091E80082FF87
:101B5000F2CF80E0089582E0089583E0089581E067
:101B600008959C014091AD065091AE064617570767
:101B700018F4F90190E044C06115710511F0AB0152
:101B8000F8CF8091E8008E778093E80040E050E045
:101B9000F0CF8091A606882309F448C0853009F467
:101BA00047C08091E80083FD45C08091E80082FD38
:101BB00037C08091E80080FF23C08091F3009091AE
:101BC000F200782F60E0292F30E0262B372B08C059
:101BD00084918093F1003196415050402F5F3F4FE8
:101BE0004115510519F02830310590F390E0283067
:101BF000310509F491E08091E8008E778093E80048
:101C00004115510531F6992321F60AC08091A606A7
:101C1000882361F0853061F08091E80083FD0AC07F
:101C20008091E80082FFF2CF80E0089582E008957D
:101C300083E0089581E00895382F282F2EC0822F49
:101C40008F708093E900231721F4762F942F50E0B2
:101C500006C07091EC009091ED005091F00091FF62
:101C60001BC08091EB008E7F8093EB008091ED0094
:101C70008D7F8093ED008091EB0081608093EB007D
:101C80007093EC009093ED005093F0008091EE0083
:101C900087FD02C080E008952F5F273080F23F70FB
:101CA0003093E90081E008950F931F93CF93DF9362
:101CB000062FEC0110E02AC09881992329F16B814D
:101CC000E981FA812C81892F8F70873018F52230B5
:101CD00010F452E001C056E040E028E030E003C0DC
:101CE0004F5F220F331F2E173F07D0F36295660F09
:101CF000660F607C991F9927991F692B4295407F39
:101D0000452B9ADF882331F01F5F25961017A0F22C
:101D100081E001C080E0DF91CF911F910F91089584
:101D20008091A70688239CF404C08091A60688238E
:101D3000B9F08091E80082FFF8CF8091E8008B77BE
:101D40008093E80008958091A606882349F0809149
:101D5000E80080FFF8CF8091E8008E778093E8005C
:101D600008954091E4005091E50024E68091EC0054
:101D700080FF24C08091E80080FD1EC08091A606EF
:101D8000882311F482E00895853011F483E00895EA
:101D90008091EB0085FF02C081E008958091E4000E
:101DA0009091E5008417950709F3222311F484E04C
:101DB00008952150AC01DACF80E008958091E800C9
:101DC00082FFDCCFF9CF6BD072D0E0EEF0E0808103
:101DD00081608083A8EDB0E08C918F778C9319BCE3
:101DE000E7EDF0E080818E7F80838C918F7E8C93F5
:101DF0001092A5060895EF92FF920F931F934FD074
:101E000056D008ED10E0F80180818F7780838081C3
:101E10008068808380818F7D808319BC1092A606A4
:101E20001092A2061092A4061092A30680EEE82E4D
:101E3000F12CF70180818B7F8083F80180818160A4
:101E4000808380E060E042E0F7DEE1EEF0E0808158
:101E50008E7F8083E2EEF0E08081816080838081EC
:101E600088608083F70180818E7F8083F801808184
:101E7000806180831F910F91FF90EF900895E8EDAE
:101E8000F0E080818F7E8083E7EDF0E080818160EB
:101E9000808384E082BF81E08093A506ACCFE8ED2B
:101EA000F0E080818E7F80831092E200089510928E
:101EB000DA001092E10008951F920F920FB60F9270
:101EC00011242F933F934F935F936F937F938F933F
:101ED0009F93AF93BF93EF93FF938091E10082FFB5
:101EE0000AC08091E20082FF06C08091E1008B7FF2
:101EF0008093E1000FD28091DA0080FF1DC08091B5
:101F0000D80080FF19C08091DA008E7F8093DA00BC
:101F10008091D90080FF0CC080E189BD82E189BD3C
:101F200009B400FEFDCF81E08093A606B9D304C0BA
:101F300019BC1092A606B5D38091E10080FF18C0AD
:101F40008091E20080FF14C08091E2008E7F809338
:101F5000E2008091E20080618093E2008091D800ED
:101F600080628093D80019BC85E08093A606D2D108
:101F70008091E10084FF2FC08091E20084FF2BC09C
:101F800080E189BD82E189BD09B400FEFDCF809169
:101F9000D8008F7D8093D8008091E1008F7E809360
:101FA000E1008091E2008F7E8093E2008091E20068
:101FB00081608093E2008091A206882311F084E082
:101FC00007C08091E30087FD02C081E001C083E08B
:101FD0008093A6069FD18091E10083FF22C080916B
:101FE000E20083FF1EC08091E100877F8093E100C3
:101FF00082E08093A6061092A2068091E1008E7F77
:102000008093E1008091E2008E7F8093E2008091D6
:10201000E20080618093E20080E060E042E00CDE5C
:1020200079D1FF91EF91BF91AF919F918F917F9166
:102030006F915F914F913F912F910F900FBE0F9035
:102040001F9018951F93DF93CF93CDB7DEB7AC9752
:102050000FB6F894DEBF0FBECDBFE7EAF6E0809181
:10206000F100819326E0EF3AF207C9F71FD3809180
:10207000E80083FF37C18091A7063091A80635306C
:1020800009F487C0363040F43130C9F1313070F096
:10209000333009F027C133C0383009F4F5C0393086
:1020A00009F404C1363009F01DC196C0803821F012
:1020B000823809F017C108C09091A3068091A40648
:1020C000882399F0926011C08091AB068F70809345
:1020D000E9008091EB0090E025E0969587952A95A0
:1020E000E1F7982F91701092E9008091E800877FC6
:1020F0008093E8009093F1001092F100D0C0882303
:1021000019F0823009F0EEC090E08F719070009766
:1021100021F0029709F0E6C00CC08091A906813039
:1021200009F0E0C01092A406333069F58093A4064C
:102130002AC08091A906882331F52091AB062F7023
:1021400009F4D0C02093E9008091EB0080FF1BC010
:10215000333021F48091EB00806213C08091EB005A
:1021600080618093EB0081E090E002C0880F991FAE
:102170002A95E2F78093EA001092EA008091EB0042
:1021800088608093EB001092E9008091E800877FDF
:1021900089C0882309F0A6C01091A9061F778091F5
:1021A000E3008078812B8093E3008091E800877FB3
:1021B0008093E800B5DD8091E80080FFFCCF80913E
:1021C000E30080688093E300112311F482E001C0F2
:1021D00083E08093A60686C08058823008F082C0D3
:1021E0008091A9069091AA0623E08C3D920709F000
:1021F00033C083E08C838AE28B837FB7F894DE015F
:1022000015966EE040E050E011E2E62FF0E010930A
:102210005700849140FF03C082958F706F5F8F706D
:10222000282F30E08A3018F0C901C79602C0C901D2
:10223000C0968D939D934F5F5F4F4431510529F7B1
:102240007FBF8091E800877F8093E800CE010396EE
:102250006AE270E01CDC12C06091AB06AE014F5F19
:102260005F4FE7DBBC01009709F43CC08091E800B8
:10227000877F8093E80089819A8173DC8091E800F0
:102280008B778093E8002EC0803861F58091E8005C
:10229000877F8093E8008091A2068093F10080916F
:1022A000E8008E778093E8003BDD1CC08823D1F4E2
:1022B0009091A9069230B0F48091E800877F8093D6
:1022C000E8009093A2062CDD8091A206882331F4C9
:1022D0008091E30087FD02C081E001C084E080932B
:1022E000A606E7D18091E80083FF0AC08091E8004C
:1022F000877F8093E8008091EB0080628093EB0001
:10230000AC960FB6F894DEBF0FBECDBFCF91DF9174
:102310001F91089508951F938091A606882371F058
:102320001091E9008091EC001092E9008091E800A2
:1023300083FF01C087DE1F701093E9001F9108958D
:10234000FC018091A606843099F584899589A68937
:10235000B7890097A105B10559F186818F708093E7
:10236000E9008091E80082FF23C04091F3002091B2
:10237000F200942F80E030E0822B932B892B19F40C
:102380006FEF7FEF04C08091F100682F70E0409103
:10239000F3002091F200942F80E030E0822B932B09
:1023A000892B41F48091E8008B778093E80002C08C
:1023B0006FEF7FEFCB010895FB012EE0DB011D9253
:1023C0002A95E9F723E023832DE632E13187208740
:1023D0002FEE31E133872287958784870895FC01AA
:1023E00084859585ADDF9C0197FF02C02EEF3FEFFE
:1023F000C90108950895FC018091A606843051F525
:1024000084899589A689B7890097A105B10511F13D
:1024100081818F708093E9004091F3002091F20058
:10242000942F80E030E0822B932B892BA9F09091A0
:10243000E8008091E8008E778093E80095FD0CC05D
:1024400090DC982F882349F48091E8008E77809360
:10245000E80003C092E001C090E0892F0895FC01DC
:102460008091A606843091F484899589A689B789DC
:102470000097A105B10551F081818F708093E9002B
:102480008091E80080FF02C0CF01B5CF08951F936F
:10249000FC01162F8091A6068430E1F48489958989
:1024A000A689B7890097A105B105A1F081818F7038
:1024B0008093E9008091E80085FD08C08091E800E4
:1024C0008E778093E8004DDC882329F41093F10087
:1024D00080E001C082E01F910895282FFB018485D0
:1024E0009585622FD4DF882319F420E030E002C004
:1024F0002FEF3FEFC9010895CF93DF93EC01409692
:10250000FC018BE0DF011D928A95E9F782E08C8364
:10251000898783E08E87CE01019661E0C5DB882341
:1025200071F0CE01069661E0BFDB882341F0CE0159
:102530000B9661E0B9DB882319F081E001C080E0EF
:10254000DF91CF910895CF93DF93EC018091E80064
:1025500083FFA3C0888190E02091AB063091AC0648
:102560002817390709F099C08091A806813269F0CF
:10257000823220F4803209F090C03CC0823209F4EB
:102580006BC0833209F089C07AC08091A706813A76
:1025900009F083C08091E800877F8093E8008091F4
:1025A000E80080FFFCCF8C899D89AE89BF8980932C
:1025B000F100292F3A2F4B2F55272093F1009D0131
:1025C000442755272093F1008B2F9927AA27BB2753
:1025D0008093F100888D8093F100898D8093F100C4
:1025E0008A8D8093F1008091E8008E778093E800D7
:1025F00097DB53C08091A706813209F04EC08091CD
:10260000E800877F8093E80005C08091A6068823B4
:1026100009F443C08091E80082FFF7CF8091F10078
:102620009091F1002091F1003091F1008C8B9D8B05
:102630002E8B3F8B8091F100888F8091F100898FE4
:102640008091F1008A8F8091E8008B778093E80079
:1026500067DBCE01CFDE21C08091A7068132E9F48D
:102660008091E800877F8093E8005ADB8091A9067B
:102670009091AA06998B888BCE01BCDE0EC080910A
:10268000A706813251F48091E800877F8093E800AB
:1026900047DBCE016091A906ADDEDF91CF910895B1
:1026A000089508958AEB93E0DADE35CE8AEB93E065
:1026B0004ACF8AEB93E020CF8AEB93E068E474E0A2
:1026C0007BCEECEBF0E080818B7F808308950F93CD
:1026D0001F938C01F6DF809164008F7780936400F4
:1026E000F80186858093B8008785813059F0813064
:1026F00028F0823089F08330E1F412C08091B90073
:102700008E7F1AC08091B90081608093B90080915A
:10271000B9008D7F8093B9008091B9008E7F03C08E
:102720008091B90081608093B9008091B900826086
:1027300008C08091B90081608093B9008091B90090
:102740008D7F8093B9008091BC0084608093BC0031
:102750001F910F910895FC01A481B5819C918485FE
:10276000809589238C93A681B7819C9185858095DE
:1027700089238C93A081B1818C919485892B8C9332
:10278000A281B3818C919585892B8C93CF019FCFAA
:1027900084EA8093BC0090E02AE106C0822F8A95EB
:1027A000F1F79F5F993221F08091BC0087FFF6CF4F
:1027B00083E5089584E98093BC0080E50895FACF0D
:1027C00008957FDFFCCF8093BB0084E88093BC003A
:1027D00090E02AE106C0822F8A95F1F79F5F983238
:1027E000F9F08091BC0087FFF6CF8091B90090E0AE
:1027F000887F90708832910589F08932910534F490
:102800008831910559F0809759F408C080349105BA
:1028100029F08035910511F0C89711F48BE40895E3
:102820008EE40895882311F484EC01C084E8809339
:10283000BC0020E030E09AE108C0892F8A95F1F7CA
:102840002F5F3F4F2832310521F08091BC0087FF78
:10285000F4CF8091BB000895DF92EF92FF920F9327
:102860001F93182FD62E072F7A0192DF812F880F02
:10287000AADF802FA8DF8D2DA6DF8ADF110F812F21
:102880008160A1DF81E0CEDFF701808393DF1F91BC
:102890000F91FF90EF90DF900895EF92FF920F93CA
:1028A0001F93182FF62E072FE42E72DF812F880F2B
:1028B0008ADF802F88DF8F2D86DF8E2D84DF7ADF01
:1028C0001F910F91FF90EF900895EF92FF920F9359
:1028D0001F93DF93CF9300D000D000D0CDB7DEB7E9
:1028E00029833A834B835C836D837E83E980FA80FE
:1028F000FC018C01849106C090E0B7010E94102277
:10290000F80184910F5F1F4F8823B1F726960FB609
:10291000F894DEBF0FBECDBFCF91DF911F910F9115
:10292000FF90EF900895DF93CF9300D000D000D0B8
:10293000CDB7DEB7242F4983352F5A83462F6B83BB
:10294000572F7C83682F8D83792F9E8384E592E0B7
:10295000BCDF26960FB6F894DEBF0FBECDBFCF9179
:10296000DF9108950F931F93DF93CF9300D000D092
:1029700000D0CDB7DEB729833A834B835C836D8368
:102980007E838091560490915704009721F487E547
:1029900092E09BDF36C00BE210E0809FF001819F48
:1029A000F00D909FF00D1124E355F94F8081918136
:1029B00029813A814B815C816D817E8186DF8091A6
:1029C0005604909157049C01209FC001219F900DB7
:1029D000309F900D112469817A818C57994F0E9404
:1029E0003C2249815A816B817C818D819E819BDF54
:1029F00080915604909157040197909357048093C7
:102A0000560426960FB6F894DEBF0FBECDBFCF9109
:102A1000DF911F910F9108950F931F93CF93DF9331
:102A2000EC0180915604909157048230910510F585
:102A3000019690935704809356040BE210E09C019A
:102A4000209FC001219F900D309F900D11248C5725
:102A5000994F0E94BD218091560490915704809F08
:102A6000F001819FF00D909FF00D1124E355F94F77
:102A7000D183C083DF91CF911F910F9108958CE393
:102A800092E065ED73E040E050E0C6CFDF92EF9258
:102A9000FF920F931F93CF93DF93109258047C0102
:102AA000C0E0D0E013C00D2D10E0C8010E947B21D2
:102AB0000817190731F4FE01E85AFB4FD08221961E
:102AC00002C0F70180830894E11CF11CF701D0805B
:102AD000DD2049F7C85ADB4F188288E594E0DF9182
:102AE000CF911F910F91FF90EF90DF9008956F921B
:102AF0007F928F929F92AF92BF92CF92DF92EF928E
:102B0000FF920F931F93DF93CF93CDB7DEB7C255DC
:102B1000D0400FB6F894DEBF0FBECDBF4C015B01B5
:102B20007A016E010894C11CD11C8AE2682E712CB6
:102B30006C0E7D1E38C0F80160817181C60148E2CB
:102B400050E00E94BD21C601A1DFBC01C30148E2E3
:102B500050E00E94BD21C601B5010E94B42100973A
:102B600031F0C301B5010E94B4210097C1F4F40112
:102B700020813181F801628173816217730741F40A
:102B8000F70180819181F4019183808381E012C0FB
:102B90006115710521F0FB018681882361F782E0D0
:102BA00090E0E80EF91EF701008111810115110571
:102BB00011F680E0CE5ADF4F0FB6F894DEBF0FBE9D
:102BC000CDBFCF91DF911F910F91FF90EF90DF90DC
:102BD000CF90BF90AF909F908F907F906F9008950F
:102BE0004F925F926F927F928F929F92AF92BF921D
:102BF000CF92DF92EF92FF920F931F93DF93CF93C9
:102C0000CDB7DEB7C459D0400FB6F894DEBF0FBEC3
:102C1000CDBF7C012B01FE01E157FF4F00831183E3
:102C200022833383448355831B821C821D821E8230
:102C3000FE0137968DE0DF011D928A95E9F71A8231
:102C40001982C70160E270E00E94A921BC010097CF
:102C500019F16F5F7F4FFB0101900020E9F7319779
:102C6000E61BF70B719718F08EEE91E06CC08E01A9
:102C70000D5F1F4FC80140E150E00E94BD21C80117
:102C800060E270E00E94A921009731F081E292E0B9
:102C9000B80140E150E059C0C70166ED73E00E9401
:102CA000A6218C0180E034E1C32ED12CCC0EDD1E98
:102CB0002DE3A22EB12CAC0EBD1E96E6892E912CD2
:102CC0008C0E9D1E3E010894611C711C50C0C601F3
:102CD000B80148E250E00E94BD2172012AC0F8010B
:102CE0002281338189819A8128173907F1F4608123
:102CF0007181C50148E250E00E94BD21C501C6DED8
:102D0000BC01C40148E250E00E94BD21C501B601EA
:102D10000E94B421009731F0C401B6010E94B42191
:102D2000009719F41A83098312C082E090E0E80E3C
:102D3000F91ED7010D911C910115110581F631C0C5
:102D400087E092E0B60148E250E066DE31C080E004
:102D500090E066ED73E00E94A6218C01009731F0AF
:102D6000C601B80148E250E00E94BD2181E0011592
:102D7000110509F0ACCF8823D9F0E981FA81A4814B
:102D8000B5811097A9F0FE01E157FF4FCE010396E0
:102D9000208131814281538164817581FD010995D2
:102DA00007C0C301B601A201A2DE882381F6C8CF05
:102DB000CC56DF4F0FB6F894DEBF0FBECDBFCF911C
:102DC000DF911F910F91FF90EF90DF90CF90BF9018
:102DD000AF909F908F907F906F905F904F900895ED
:102DE000EF92FF920F931F93DF93CF9300D000D009
:102DF00000D0CDB7DEB77C0129833A834B835C8357
:102E00006D837E834AC090E00E947B218B3321F04A
:102E10008D3011F08A30B9F4809181049091820450
:102E2000892B51F088ED93E0B70109811A812B813C
:102E30003C814D815E81D4DE1092D80310928204D1
:102E4000109281042AC0883011F08F3741F4E0914C
:102E50008104F0918204309711F031970DC02091D8
:102E60008104309182042F34310570F4F901E85265
:102E7000FC4F8083F9013196F0938204E093810442
:102E8000E852FC4F108209C087E692E029813A811E
:102E90004B815C816D817E8118DD8AEB93E050DA95
:102EA00097FFB1CF26960FB6F894DEBF0FBECDBF09
:102EB000CF91DF911F910F91FF90EF90089589E2DC
:102EC00067E072E041E0E9DC89E268E072E041E05D
:102ED000E4DC89E266E970E040E0DFDC89E267E992
:102EE00070E04DEFDADC89E263EE70E040E0D5DCC3
:102EF00089E264EE70E044E0D0DC89E265EE70E0E7
:102F000042E0CBDC89E266EE70E041E0C6DC89E2BB
:102F100067EE70E043E0C1DC89E265EF70E042E01B
:102F2000BCDC89E269ED70E045E0B7DC89E26BED7D
:102F300070E04EECB2DC89E26CED70E043E0ADDCB9
:102F400089E26DED70E048EFA8DC89E26FE970E09E
:102F500040E0A3DC89E263EA70E04CE39EDC89E2B6
:102F600067EB70E040E099DC89E26BEB70E04CE3EA
:102F700094DC89E262EB70E049E08FDC89E26AEC84
:102F800070E049E08ADC89E268E971E041E085DCD3
:102F900089E260EB71E047E180DC89E26DEA71E093
:102FA00040E07BDC89E26FEF70E045E076DC89E2AF
:102FB00060E071E045E071DC89E269E971E045E0DB
:102FC0006CDC89E266EA71E04BE167DC89E26CEA7D
:102FD00071E04EE362DC89E267EA71E04FE15DDCBB
:102FE00089E260E370E040E058DC89E261E170E092
:102FF00040E153DC89E26AE071E04FEF4EDC89E2A8
:103000006FE370E046E449DC89E260E470E043E6A7
:1030100044DC89E26EE370E041E33FDC89E261E396
:1030200070E041E03ADC89E26EE270E041E035DCDC
:1030300089E26BE170E040E030DC89E264E170E05D
:1030400044E22BCC0E94E30EF89480E29EE420E957
:1030500031E0F9013197F1F70197D9F78AEC9CEA51
:10306000A2E4BCED8093070790930807A09309079B
:10307000B0930A072CE088E190E00FB6F894A89589
:10308000809360000FBE20936000FFCFA1E1B0E00D
:10309000EBE4F8E197C53C017F876E876A01FC018C
:1030A00017821682838181FD03C06FEF7FEF5BC3C0
:1030B0009E012F5F3F4F398B288BF3012381EE85D3
:1030C000FF8523FD859123FF8191FF87EE8788236C
:1030D00009F446C3853251F4EE85FF8523FD8591C1
:1030E00023FF8191FF87EE87853229F490E0B301B9
:1030F0000E941022E2CF982F10E0882499241032E9
:10310000B0F49B3269F09C3228F4903251F0933243
:1031100071F40BC09D3239F0903349F4116028C02E
:103120001260146025C0186023C0106121C017FD13
:103130002AC0892F80538A3078F416FF06C0FAE03F
:103140009F9E902C1124980E13C03AE0839E802CF1
:103150001124880E10620CC09E3221F416FD00C3AB
:10316000106406C09C3611F4106802C0983659F4F9
:10317000EE85FF8523FD959123FF9191FF87EE87D3
:10318000992309F0BCCF892F8554833020F4812FF7
:103190008061905E07C0892F8556833008F097C103
:1031A000812F8F7E86FD02C076E0972E6FE3F62E8C
:1031B000F822953619F4F0E4FF2A07C0963619F480
:1031C00020E8F22A02C091109A94F7FE0AC03BE36D
:1031D000391518F45CE3B52E02C0B92CB39427E07E
:1031E00009C047E0491520F4BB2447E0942EF7CFEF
:1031F000292DBB24C60104969D878C87F60160812A
:10320000718182819381AE014F5F5F4F0B2D93D708
:103210006C010981202E332400FF04C003FD02C08D
:103220001DE209C0F1FE02C01BE205C0F2FC02C0B3
:1032300010E001C010E2C1018C709070892BB9F1CF
:10324000112311F483E001C084E0881510F0882474
:103250000AC0881AF3FC07C080E290E0B3010E9424
:1032600010228A94C9F7112329F0812F90E0B3012D
:103270000E94102223FE03C000E812E00EC004E802
:1032800012E00BC0E114F10409F0805290E0B301A8
:103290000E9410220F5F1F4F05C0EF2CFF24F0E1AA
:1032A000EF22FF24F8018491882361F70DC1F7FE16
:1032B00012C0BC0C24FE04C08A81813309F4BA9484
:1032C0001B141CF0BB24B3942DC0F8E0FB1550F583
:1032D00038E0B32E27C0F6FC25C0892D90E08C1570
:1032E0009D054CF02CEFC2162FEFD20624F030E8EB
:1032F000F32A01C09A94992049F0E2E0F0E0EC0F43
:10330000FD1FE90DF11D80818033A1F3F7FE0AC096
:10331000B92CB394892D90E0C816D90614F09924DD
:1033200001C09C18F7FC03C025E030E009C01C1464
:103330001D041CF021E030E003C096012F5F3F4FD9
:10334000112311F02F5F3F4F992029F0892D90E034
:103350000196280F391F882D90E02817390714F09F
:10336000882401C0821A4F2C5524C20189709070A4
:10337000892B39F008C080E290E0B3010E9410224E
:103380008A948820C1F7112329F0812F90E0B3019E
:103390000E94102243FE07C008C080E390E0B30102
:1033A0000E9410228A948820C1F7F7FE46C0860149
:1033B000D7FE02C000E010E076010894E11CF11C89
:1033C000E01AF10A41E050E04C0F5D1FE40EF51EDB
:1033D00026014B185108892D90E0AA24BB24A81A75
:1033E000B90A5FEF0F3F150729F48EE290E0B301B1
:1033F0000E941022C016D10634F0401651061CF46B
:10340000F701808101C080E3015010400894E11C65
:10341000F11C0A151B052CF090E0B3010E9410224C
:10342000E0CF0C151D0539F49A81963318F49533C5
:1034300011F424FE81E390E045C08A81813309F0D4
:103440000F7E90E0B301ECD7992091F08EE290E0EE
:10345000B301E6D712E0E1E0F0E0EC0FFD1FE10F71
:10346000F11D1F5F808190E0B301DAD79A9499F73C
:1034700044FC03C085E690E002C085E490E0B3011F
:10348000CFD7D7FC05C0C114D10441F404FF06C056
:10349000D094C194D108D3948DE201C08BE290E026
:1034A000B301BED780E305C08F5F26EF3FEFC20EAA
:1034B000D31E3AE0C316D104BCF790E0B301B0D7F5
:1034C000C601C096B301ACD7CC84DD8446C1933627
:1034D00031F0933799F0933509F055C022C0F601C9
:1034E000808189835E010894A11CB11C22E030E038
:1034F000C20ED31E21E0E22EF12C11C0F601A080F5
:10350000B18016FD03C06FEF7FEF02C0692D70E040
:1035100022E030E0C20ED31EC5013ED77C011F77EA
:1035200012C0F601A080B18016FD03C06FEF7FEFDF
:1035300002C0692D70E022E030E0C20ED31EC5014A
:10354000FAD67C01106813FF06C019C080E290E033
:10355000B30166D78A94882D90E0E816F906B0F397
:103560000EC0F50117FD859117FF81915F0190E075
:10357000B30156D781108A940894E108F108E11448
:10358000F10479F7EAC0943611F0993681F517FF06
:1035900008C0F601208131814281538184E090E0AE
:1035A0000AC0F601808191819C01442737FD409536
:1035B000542F82E090E0C80ED91E9FE6F92EF1222A
:1035C00057FF09C050954095309521953F4F4F4F7B
:1035D0005F4F90E8F92ACA01B901AE014F5F5F4F12
:1035E0002AE030E071D7E82EE889EE1A40C095371E
:1035F00021F41F7E2AE030E01CC0197F9F3661F065
:10360000903720F4983509F0ABC00FC0903739F0EF
:10361000983709F0A5C004C028E030E00AC0106166
:1036200014FD146020E130E004C014FD166020E1B8
:1036300032E017FF08C0F6016081718182819381B9
:1036400044E050E008C0F60180819181BC0180E037
:1036500090E042E050E0C40ED51EAE014F5F5F4FD8
:1036600033D7E82E5889E51A8FE7F82EF122F6FEB7
:103670000BC08EEFF822E91438F4F4FE07C0F2FC18
:1036800005C09FEEF92202C01E2D01C0192DF4FEC7
:103690000DC0FE01EE0DF11D8081803319F4E9EEBD
:1036A000FE2208C01F5FF2FE05C003C08F2D867882
:1036B00009F01F5F0F2DF3FC13C0F0FE0EC01815AC
:1036C00010F09E2C0AC09E2C980C911A182D05C043
:1036D00080E290E0B301A4D61F5F1815C8F304C0C0
:1036E000181510F4811A01C0882404FF0EC080E36D
:1036F00090E0B30195D602FF1BC001FD03C088E72F
:1037000090E00EC088E590E00BC0802F867881F0B5
:1037100001FF02C08BE201C080E2F7FC8DE290E085
:10372000B3017ED605C080E390E0B30179D69A94C8
:10373000E914C8F3EA94E1E0F0E0EC0FFD1FEE0DB0
:10374000F11D808190E0B3016BD6EE2099F705C0A2
:1037500080E290E0B30164D68A948820C9F7ADCCAA
:10376000F30166817781CB016196E2E147C250584F
:10377000BB27AA270ED044C135D130F03AD120F072
:1037800031F49F3F11F41EF42AC10EF4E095E7FBDB
:1037900020C1E92F46D180F3BA1762077307840767
:1037A000950718F071F49EF55EC10EF4E0950B2EAE
:1037B000BA2FA02D0B01B90190010C01CA01A00183
:1037C0001124FF27591B99F0593F50F4503E68F1DE
:1037D0001A16F040A22F232F342F4427585FF3CF1F
:1037E000469537952795A795F0405395C9F77EF4F0
:1037F0001F16BA0B620B730B840BBAF09150A1F039
:10380000FF0FBB1F661F771F881FC2F70EC0BA0FBE
:10381000621F731F841F48F4879577956795B79546
:10382000F7959E3F08F0B3CF9395880F08F099273E
:10383000EE0F979587950895A8D008F481E0089534
:103840000CD0DEC0D6D040F0CDD030F021F45F3FB8
:1038500019F0BFC0511108C1C2C0E3D098F3992339
:10386000C9F35523B1F3951B550BBB27AA27621744
:103870007307840738F09F5F5F4F220F331F441F89
:10388000AA1FA9F333D00E2E3AF0E0E830D09150C1
:103890005040E695001CCAF729D0FE2F27D0660FAE
:1038A000771F881FBB1F261737074807AB07B0E8ED
:1038B00009F0BB0B802DBF01FF2793585F4F2AF003
:1038C0009E3F510568F085C0CFC05F3FECF3983E46
:1038D000DCF3869577956795B795F7959F5FC9F760
:1038E000880F911D9695879597F90895E1E0660FE9
:1038F000771F881FBB1F621773078407BA0720F062
:10390000621B730B840BBA0BEE1F88F7E0950895CA
:10391000E89409C097FB3EF4909580957095619569
:103920007F4F8F4F9F4F9923A9F0F92F96E9BB271F
:103930009395F695879577956795B795F111F8CF9B
:10394000FAF4BB0F11F460FF1BC06F5F7F4F8F4F06
:103950009F4F16C0882311F096E911C0772321F0FC
:103960009EE8872F762F05C0662371F096E8862F94
:1039700070E060E02AF09A95660F771F881FDAF7EB
:10398000880F9695879597F90895990F0008550F18
:10399000AA0BE0E8FEEF16161706E807F907C0F0D5
:1039A00012161306E407F50798F0621B730B840BDD
:1039B000950B39F40A2661F0232B242B252B21F4B7
:1039C00008950A2609F4A140A6958FEF811D811D57
:1039D000089597F99F6780E870E060E008959FEF91
:1039E00080EC089500240A94161617061806090696
:1039F000089500240A941216130614060506089565
:103A0000092E0394000C11F4882352F0BB0F40F4EC
:103A1000BF2B11F460FF04C06F5F7F4F8F4F9F4F2C
:103A2000089557FD9058440F551F59F05F3F71F0AE
:103A30004795880F97FB991F61F09F3F79F0879515
:103A40000895121613061406551FF2CF4695F1DF9E
:103A500008C0161617061806991FF1CF869571052E
:103A6000610508940895E894BB2766277727CB0162
:103A700097F908958ADF08F48FEF08950BD0C0CF2F
:103A8000B1DF28F0B6DF18F0952309F0A2CFA7CF59
:103A90001124EACFC6DFA0F3959FD1F3950F50E034
:103AA000551F629FF001729FBB27F00DB11D639FF0
:103AB000AA27F00DB11DAA1F649F6627B00DA11D96
:103AC000661F829F2227B00DA11D621F739FB00D3C
:103AD000A11D621F839FA00D611D221F749F3327AC
:103AE000A00D611D231F849F600D211D822F762F45
:103AF0006A2F11249F5750408AF0E1F088234AF042
:103B0000EE0FFF1FBB1F661F771F881F915050408D
:103B1000A9F79E3F510570F05CCFA6CF5F3FECF355
:103B2000983EDCF3869577956795B795F795E79579
:103B30009F5FC1F7FE2B880F911D9695879597F98A
:103B40000895629FD001739FF001829FE00DF11DE7
:103B5000649FE00DF11D929FF00D839FF00D749F07
:103B6000F00D659FF00D9927729FB00DE11DF91FB3
:103B7000639FB00DE11DF91FBD01CF011124089510
:103B8000A1E21A2EAA1BBB1BFD010DC0AA1FBB1F61
:103B9000EE1FFF1FA217B307E407F50720F0A21BD3
:103BA000B30BE40BF50B661F771F881F991F1A9440
:103BB00069F760957095809590959B01AC01BD016A
:103BC000CF0108952F923F924F925F926F927F9212
:103BD0008F929F92AF92BF92CF92DF92EF92FF921D
:103BE0000F931F93CF93DF93CDB7DEB7CA1BDB0BC9
:103BF0000FB6F894DEBF0FBECDBF09942A8839886E
:103C000048885F846E847D848C849B84AA84B98474
:103C1000C884DF80EE80FD800C811B81AA81B98180
:103C2000CE0FD11D0FB6F894DEBF0FBECDBFED0194
:103C30000895A0E0B0E0EEE1FEE1CACFEC015B0147
:103C40006115710519F0FB0191838083F9908F2D27
:103C500090E049D3892BD1F7FDE2FF1621F4F990CA
:103C6000EE24E39405C02BE2F21609F4F990EE2459
:103C70008E0101501040C80168E872E043E050E056
:103C800042D3892BF9F48E010E5F1F4FC8016BE8F8
:103C900072E045E050E037D3892B19F48E01095FBB
:103CA0001F4FA114B10419F0F50111830083E0FC4A
:103CB00004C070E090E080E813C070E090E080E81D
:103CC0006FEF03C1C80160E972E043E050E01BD32D
:103CD000892B69F4A114B10429F470E090E080EC20
:103CE0006FE7F3C02296F501D183C083F6CF882415
:103CF000992440E050E060E070E0EF2DE053EA30BE
:103D0000A0F5F2E0EF2A8E2D90E09C012870307033
:103D1000E2FE06C0232B79F50894811C911C2BC070
:103D2000232B19F0089481089108DB01CA0112E0E5
:103D3000880F991FAA1FBB1F1A95D1F7480F591F4B
:103D40006A1F7B1F440F551F661F771F4E0F511DA3
:103D5000611D711D483929E9520729E9620729E1E6
:103D6000720748F084E0E82A06C0EE3F31F4E3FC35
:103D700039C098E0E92AF990C0CFE53311F0E53178
:103D800089F529912D3219F4E0E1EE2A05C02B3294
:103D900019F081E090E003C0299182E090E0E22FE9
:103DA000E053EA3018F0C81BD90B1CC020E030E00B
:103DB000FCE020383F075CF4C901880F991F880F89
:103DC000991F280F391F220F331F2E0F311DE99124
:103DD000E053EA3068F3E4FE03C0309521953F4F8D
:103DE000820E931ECE2CDD24E1FE07C0A114B10487
:103DF00021F02197F501D183C083CB01BA0188DD81
:103E00007B018C01F3E0CF22DD2423E0C216D10434
:103E100021F417FB109517F9109557016801C80197
:103E2000B70120E030E040E050E006DD882309F4EF
:103E300048C097FE0DC027EAE22E22E0F22E9094B1
:103E4000819491089394C0E2D0E000E010E011C0AA
:103E50009FEBE92E92E0F92EF6CFF70125913591EF
:103E600045915491C601B50109DE5B016C018C1AC4
:103E70009D0A8C169D068CF7D595C7950F5F1F4F31
:103E80000630110529F08CEF9FEFE80EF91EF1CFF7
:103E9000C501D6017C018D018C2D880F8D2D881FC9
:103EA0008F3F49F0C601B50120E030E040E050E02E
:103EB000C3DC882331F482E290E09093060780937C
:103EC00005077E2D9F2D802F612F272F392F482FFB
:103ED000562FB901CA01CDB7DEB7ECE095CE2F92CF
:103EE0003F925F926F927F928F929F92AF92BF921A
:103EF000CF92DF92EF92FF920F931F93CF93DF93B6
:103F00008C011B01EA016115710519F0FB01918318
:103F10008083209749F0CE010297839728F020E014
:103F200030E040E050E0F3C0F801A1908F018A2D0D
:103F300090E0D9D1892BC1F7FDE2AF1631F4F80139
:103F4000A1908F015524539407C0FBE2AF1619F4DA
:103F5000F801A1908F015524209719F0C031D105A7
:103F6000C1F4F0E3AF1679F4F8018081883711F0DD
:103F7000883549F4F801A1800E5F1F4FF2E05F2AF7
:103F8000C0E1D0E006C0209721F480E3A816E9F450
:103F900027C0C830D10531F1C930D10524F4C23071
:103FA000D10531F50CC0CA30D10589F0C031D10539
:103FB000F9F4C12CD12CE12CB8E0FB2E27C0C12C88
:103FC000D12CE12CA0E4FA2E21C0CAE0D0E0FCEC18
:103FD000CF2EFCECDF2EFCECEF2EFCE0FF2E16C00B
:103FE000C8E0D0E0C12CD12CE12CE0E1FE2E0EC0C7
:103FF0009E01442737FD4095542F60E070E080E03B
:1040000090E8BEDDC901DA016C017D0120E030E0FD
:1040100040E050E060E03E01882477FC8094982CDA
:1040200070EDB72EBA0CE9E0EB1570F48A2D8154CF
:104030008A3118F499ECB92E06C08A2D81568A313E
:1040400048F589EAB82EBA0C8B2D90E08C179D07A5
:104050000CF56F3FD9F0C216D306E406F506A8F0BA
:10406000CA01B901A40193016CDD9B01AC012B0DC8
:10407000311D411D511D2130F0E03F07F0E04F0799
:10408000F0E85F0710F461E001C06FEFF801A19064
:104090008F01C6CF2114310481F0662331F0015025
:1040A0001040F1011183008308C051FE1AC0025074
:1040B0001040F1011183008314C067FF12C050FC4F
:1040C00005C02FEF3FEF4FEF5FE704C020E030E087
:1040D00040E050E882E290E0909306078093050765
:1040E00016C050FE08C050954095309521953F4F21
:1040F0004F4F5F4F0CC057FF0AC082E290E0909391
:104100000607809305072FEF3FEF4FEF5FE7B901F9
:10411000CA01DF91CF911F910F91FF90EF90DF9037
:10412000CF90BF90AF909F908F907F906F905F9057
:104130003F902F900895283008F027E03327DA01C8
:10414000990F311D87FD916000966105710539F465
:1041500032602E5F3D9330E32A95E1F708959F3F4B
:1041600030F080387105610509F03C5F3C5F3D939C
:10417000913008F08068911DDF93CF931F930F93C8
:10418000FF92EF92192F987F9695E92F9695969525
:10419000E90FFF27E35EFC4F99273327EE24FF2426
:1041A000A701E70105900894079428F4360FE71E4D
:1041B000F81E491F511D660F771F881F991F06940F
:1041C000A1F70590079428F4E70EF81E491F561F23
:1041D000C11D770F881F991F661F0694A1F70590D0
:1041E000079428F4F80E491F561FC71FD11D880FCA
:1041F000991F661F771F0694A1F70590079420F476
:10420000490F561FC71FD81F990F661F771F881F9A
:104210000694A9F784911095177041F0D695C7952B
:1042200057954795F794E7941A95C1F7E3ECF2E0B8
:1042300068941590159135916591959105907FE25F
:104240007395E118F10A430B560BC90BD009C0F75F
:10425000E10CF11E431F561FC91FD01D7EF47033A1
:1042600011F48A95E6CFE894015030F0080F0AF473
:104270000027021708F4202F2395022F7A3328F005
:1042800079E37D932A95E9F710C07D932A9589F605
:10429000069497956795379517951794E118F10A45
:1042A000430B560BC90BD00998F023957E9173955B
:1042B0007A3308F070E37C932013B8F77E91706135
:1042C0007D9330F0839571E37D9370E32A95E1F758
:1042D0001124EF90FF900F911F91CF91DF919927BB
:1042E00087FD90950895911174C1803219F089501D
:1042F0008550D0F708959111089581568A5108F498
:10430000805285580895FB01DC014150504088F0EF
:104310008D9181341CF08B350CF4805E6591613495
:104320001CF06B350CF4605E861B611171F3990B08
:104330000895881BFCCFFC0105906150704001106E
:10434000D8F7809590958E0F9F1F089543E854E00D
:104350002EC0FC018191861721F08823D9F7992777
:1043600008953197CF010895FB01DC018D910190F3
:1043700080190110D9F3990B0895FB01DC0141501C
:10438000504048F001900D920020C9F701C01D92E5
:1043900041505040E0F70895FC0161507040019099
:1043A0000110D8F7809590958E0F9F1F0895FA0100
:1043B000A191B081009719F41097E1F0CD01DC01D3
:1043C000CD010D90002011F4C00113C0FB0121911B
:1043D000222319F02015D9F7F3CFFB0121912015E5
:1043E00019F41E92119606C02223C1F70D900020E9
:1043F000A1F7D001FA01A193B0830895A0E0B0E045
:10440000E3E0F2E2EFCB9E01275F3F4F8D819E817B
:104410006F817885A9010E9446182096E2E0FECBC4
:104420000F931F93CF93DF938C01EB018B8181FF5F
:104430001BC082FF0DC02E813F818C819D8128177A
:10444000390764F4E881F9810193F983E88306C0B0
:10445000E885F985802F0995892B31F48E819F811C
:1044600001969F838E8302C00FEF1FEFC801DF917B
:10447000CF911F910F910895EF92FF920F931F9389
:10448000CF93DF937C018B01DB0113968C9181FD2F
:1044900003C0CFEFDFEF13C0C0E0D0E00BC0D80106
:1044A0001896ED91FC911997B8010995892B11F097
:1044B000CFEFDFEFF70181917F01882381F7CE01F4
:1044C000CDB7DEB7E6E0A6CBFA01AA27283051F136
:1044D000203181F1E8946F936E7F6E5F7F4F8F4F35
:1044E0009F4FAF4FB1E03ED0B4E03CD0670F781F94
:1044F000891F9A1FA11D680F791F8A1F911DA11D79
:104500006A0F711D811D911DA11D20D009F46894B1
:104510003F912AE0269F11243019305D3193DEF659
:10452000CF010895462F4770405D4193B3E00FD00F
:10453000C9F7F6CF462F4F70405D4A3318F0495DFA
:1045400031FD4052419302D0A9F7EACFB4E0A695DD
:104550009795879577956795BA95C9F700976105FF
:10456000710508959B01AC010A2E06945795479555
:1045700037952795BA95C9F7620F731F841F951F4A
:10458000A01D0895DC01CB01FC01F999FECF06C006
:10459000F2BDE1BDF89A319600B40D924150504001
:1045A000B8F70895DC01CB0102C02D9105D0415030
:1045B0005040D8F70895262FF999FECF1FBA92BD23
:1045C00081BD20BD0FB6F894FA9AF99A0FBE0196F4
:0C45D0000895992788270895F894FFCFDC
:1045DC0025660025750025666D6D0046616C73655A
:1045EC0000547275650025732C2000252E33662C23
:1045FC0000014155544F00220149012C0B004F463C
:10460C0046002E014901F80A004F4E0039014901BC
:10461C00120B0057415445520043010102000000A7
:10462C004D41585F44495354414E43455F4D4D5F96
:10463C0052455345545F5241544500500101027894
:10464C00090057415445525F4445424F554E43452E
:10465C005F54494D454F55540072010102840A00C4
:10466C004D41585F44495354414E43455F4C45417D
:10467C004B4147450090010102AD090044455445AA
:10468C004354494F4E5F5448524553484F4C445F36
:10469C004D4D00AC010102E209004C415345525012
:1046AC004F57455200CA010102C40A004949525FE2
:1046BC004245544100DC0101024C0A004949525F59
:1046CC00414C50484100EC010102170A005345547B
:1046DC0000FD01000000000057415445525F535447
:1046EC004154453F0008021F034A060052414E4701
:1046FC00455F414E445F4D415852414E47453F0046
:10470C001C021F03DA07004D41585F4449535441C2
:10471C004E43455F4D4D5F52455345545F52415496
:10472C00453F0037021F03D20300424C41434B422A
:10473C004F583F005A021F03E80600574154455298
:10474C005F4445424F554E43455F54494D454F5587
:10475C00543F006B021F03BE05004D41585F444996
:10476C005354414E43455F4C45414B4147453F00F7
:10477C008A021F03760400444554454354494F4E66
:10478C005F5448524553484F4C445F4D4D3F00A732
:10479C00021F03C804004C41534552504F57455219
:1047AC003F00C6021F030506004949525F474149B5
:1047BC004E3F00D9021F032404004949525F424571
:1047CC0054413F00EA021F031A05004949525F4158
:1047DC004C5048413F00FB021F036C050052414EF8
:1047EC0047453F000D031F03960600474554001B29
:1047FC000300000000005245434F5244002603744E
:10480C0003AF030056455253696F6E3F0034037477
:10481C0003E808004552526F723F0044037403B220
:10482C00140042544C4F6164657200520366035F7E
:10483C000B0052535400620374030000005359538D
:10484C0054656D006D03000000000144454255475E
:10485C003F007B030000C20300434C52493243002B
:10486C0089030000470B002A49444E3F0097030080
:10487C00006F08002A4F50433F00A40300001109A9
:10488C00000000C8420000C8420100834000000143
:10489C00044000000182080000010000000000003C
:1048AC000000000000003A000000000000000000C2
:1048BC0000000000000000000000000000000000EC
:1048CC0000000000000000000000000000000000DC
:1048DC0000000000000000000000000000000000CC
:1048EC0000000000000000000000000000000000BC
:0A48FC0000000000000000000000B2
:00000001FF
