:10000000E7C100001CC200001AC2000018C20000B4
:1000100016C2000014C2000012C2000010C200008C
:100020000EC200000CC200000C94310E08C2000089
:1000300006C2000004C2000002C2000000C20000AC
:10004000FEC10000FCC10000FAC10000F8C10000C0
:10005000F6C10000F4C10000F2C10000F1C10000CF
:10006000EEC10000ECC10000EAC10000E8C10000E0
:10007000E6C10000E4C10000E2C10000E0C10000F0
:10008000DEC10000DCC10000DAC10000D8C1000000
:10009000D6C10000D4C10000D2C10000D0C1000010
:1000A000CEC10000CCC10000CAC100002D313132E8
:1000B0002C50726F6772616D206D6E656D6F6E6929
:1000C0006320746F6F206C6F6E67002D3131322C9E
:1000D000417267756D656E7420746F6F206C6F6E02
:1000E00067002D3131332C426164207061746820C7
:1000F0006F72206865616465723A200057616974A7
:10010000696E672035306D730D0A00537461727427
:10011000696E67206D6561737572656D656E740DCE
:100120000A000D0A00312E32004669726D77617245
:10013000653A2000202000322E300048617264773A
:100140006172653A2000202000417765736F6D650C
:1001500020466175636574002020004879706572DF
:1001600074726F6E6978000A004649524D574152C9
:10017000452052455620322E30002B302C224E6F17
:10018000206572726F72220A00426F6F746C6F6129
:100190006465722052756E6E696E672E2E2E005346
:1001A000544F524500474554004441524B004F467E
:1001B00046004F4E00574154455200504F5745524C
:1001C000004F4646004F4E004C4153455200434CB1
:1001D0005249324300414C530052414E474500477B
:1001E0004554004445425547002A49444E3F005675
:1001F000455253696F6E3F004552526F723F004245
:10020000544C4F6164657200525354005359535417
:10021000656D002A4F50433F004E554C4C004552EF
:10022000524F5220636F6D6D616E6420746F6F204A
:100230006C6F6E670A0012011001020000081819A5
:10024000F5FF01000102DC0109023E00020100C0CD
:10025000320904000001020201000524001001041B
:100260002402060524060001070582030800FF0991
:10027000040100020A00000007050402400005070F
:1002800005830240000504030904220348007900A5
:10029000700065007200540072006F006E0069000B
:1002A0007800200049006E0063002E0000001E034D
:1002B00041007700650073006F006D00650020004D
:1002C00046006100750063006500740000006E6107
:1002D0006E00696E660000407A10F35A00A0724EFC
:1002E00018090010A5D4E80000E87648170000E4DB
:1002F0000B54020000CA9A3B000000E1F505000023
:1003000080969800000040420F000000A086010087
:100310000000102700000000E80300000000640057
:10032000000000000A0000000000010000000000C2
:100330002C76D888DC674F0823DFC1DFAE59E1B1E6
:10034000B796E5E3E453C63AE651997696E8E6C2F5
:100350008426EB898C9B62ED407C6FFCEFBC9C9FFC
:1003600040F2BAA56FA5F490055A2AF75C936B6C1E
:10037000F9676DC11BFCE0E40D47FEF520E6B50012
:10038000D0ED902E0300943577050080841E080080
:1003900000204E0A000000C80C333333330F986E30
:1003A00012831141EF8D2114893BE65516CFFEE6ED
:1003B000DB18D1844B381BF77C1D901DA4BBE424B3
:1003C000203284725E228100C9F124ECA1E53D2730
:1003D00011241FBECFEFDAE0DEBFCDBF04B603FEAF
:1003E00018C080912A0290912B02A0912C02B0910A
:1003F0002D028A5C9C4AA244BC4D59F410922A02F8
:1004000010922B0210922C0210922D02E0E0F8E3E1
:10041000099511E0A0E0B1E0E6E6F9E302C005903D
:100420000D92A03EB107D9F712E0A0EEB1E001C0F5
:100430001D92AA32B107E1F756D10C94B11CE0CD60
:100440001F920F920FB60F9211248F9381E0809329
:10045000F4018F910F900FBE0F901F901895EF929F
:10046000FF920F931F938091F401882309F454C0E5
:100470001092F4018091E4019091E501019690932E
:10048000E5018093E4018551934141F41BD581E05E
:100490008093F1011092E5011092E4018091F00146
:1004A000882349F08091E2019091E30101969093B5
:1004B000E3018093E2018091E2019091E301825A8D
:1004C000974041F480E0B2D31092F0011092E30122
:1004D0001092E201E090EB01F090EC010091ED014F
:1004E0001091EE01C801B70122E838EA4BE759E361
:1004F0000E94A219882384F0C801B70122E838EAD3
:100500004BE759E30E9456186093EB017093EC019E
:100510008093ED019093EE011F910F91FF90EF906A
:1005200008958091F201882361F081E07FD381E01A
:100530008093EF011092F0011092E3011092E2011A
:1005400008958091EF01882329F01092EF0181E056
:100550008093F00108951F93DF93CF9300D000D0D4
:1005600000D0CDB7DEB749835A836B837C838D83FC
:100570009E838091F101882321F10ED562E370E022
:100580000E94091A660F771F660F771F80E090E0C0
:100590000E94F01820E030E040E05FE30E9457182E
:1005A0000E94BF18162F662311F411E003C06530B6
:1005B00008F014E074D3819F802D1124FED2109294
:1005C000F10126960FB6F894DEBF0FBECDBFCF91D6
:1005D000DF911F910895EF92FF920F931F9366D4BE
:1005E000882309F477C06091E7017091E801809158
:1005F000E9019091EA012EEA37E441E65FE30E94C7
:10060000A6197B018C016AD490E0AA2797FDA095DA
:10061000BA2FBC01CD010E94F2182FE832EC45EF51
:100620005DE30E94A6199B01AC01C801B7010E94BD
:1006300057186093E7017093E8018093E901909364
:10064000EA0146D4E090E701F090E8010091E90169
:100650001091EA01C801B7012091EB013091EC0142
:100660004091ED015091EE010E94A219181644F438
:10067000E092EB01F092EC010093ED011093EE019A
:100680006091EB017091EC018091ED019091EE0190
:1006900020E030E040E250E40E9456189B01AC019B
:1006A000C801B7010E94BB1887FD05C01092E60182
:1006B0001092F20107C08091E601833018F48F5F39
:1006C0008093E6018091E601833040F081E08093E1
:1006D000F20104C0E3D3882309F4FAD31F910F91E8
:1006E000FF90EF9008958F929F92AF92BF92CF921A
:1006F000DF92EF92FF920F931F93DF93CF93CDB7CB
:10070000DEB7CE5BD1400FB6F894DEBF0FBECDBFD3
:10071000FE01E654FF4F119211921192119281E065
:1007200091E0DF019C011D9221503040E1F71A82D7
:10073000198205EF11E084EC91E0B8010E94B1103C
:100740001C830B83CE01099698878F8380E8809362
:1007500061001092610084B7877F84BF85B780688D
:1007600085BF85B7806885BF88E10FB6F894809310
:100770006000109260000FBE83E085BD80916E0026
:10078000816080936E00559A5D98579A5F9880912A
:10079000C1008A608093C1008091C200896080930B
:1007A000C20080E094E120E931E0F9013197F1F7EE
:1007B0000197D9F7188E89E18F8B81E08E8B82E0CB
:1007C0008D8B89E290E09C8B8B8B9A8B898B8AE254
:1007D00090E0988B8F879E878D878BE290E09C8737
:1007E0008B879A8789870E94140E0E94031478943D
:1007F000CE0109960E946F128E01075E1F4FC8013D
:1008000061D00E942B149AEB892E912C8C0E9D1E88
:1008100058016E010894C11CD11C0E94F913C40137
:10082000B601A501EB80FC800D811E812F813885EA
:1008300059D715DED0DE75DE4B815C816D817E81FE
:100840008F81988588DEE9CFDF93CF9300D000D0E9
:1008500000D0CDB7DEB7E0910302F0910402E230A0
:10086000F1055CF43196F0930402E0930302EE0F7D
:10087000FF1FEB5EFD4F9183808326960FB6F894A1
:10088000DEBF0FBECDBFCF91DF910895CF93DF9331
:10089000AC019B01FC018491FB018083EB01A0E092
:1008A000B0E006C01196FA01EA0FFB1FE491E8835D
:1008B00089918823B9F7A20FB31F11961C92DF917B
:1008C000CF9108950F931F93DC0189E192E0119677
:1008D0009C938E9321E012962C93129714961C925F
:1008E0001E9213970DEB15E016961C930E93159719
:1008F000FD01379683E192E018969C938E931797AB
:100900001282B483A3838DE098E096838583AD0142
:10091000425F5F4F8CE092E01F969C938E931E97F0
:10092000FA012283B483A3836DEC75E0768365833B
:100930009D012B5E3F4F88E092E056969C938E93EC
:100940005597F90112825483438376836583FD01B1
:100950007C968FEF91E05D969C938E935C971282CC
:100960003483238380EE99E096838583FD01B396DB
:1009700088EF91E094969C938E9393971282548380
:10098000438384E899E096838583FD01BA968FEED0
:1009900091E09B969C938E939A9712825483438303
:1009A00080E699E096838583FD01F19689EE91E0DA
:1009B000D2969C938E93D1971282B483A3838CE1B9
:1009C00099E096838583FD01F89683EE91E0D996B0
:1009D0009C938E93D8971282B483A38380E498E08B
:1009E000968385839D01215C3F4F8FED91E0F90156
:1009F000918380831282B483A38316830583FD01D0
:100A0000EA5BFF4F89ED91E091838083128234830A
:100A1000238389E797E096838583FD01E35BFF4F9E
:100A200085ED91E09183808312823483238384ED6A
:100A300097E096838583FD01EC5AFF4F8EEC91E0A1
:100A4000918380831282B483A3838EE297E096839E
:100A500085839D01255A3F4F88EC91E0F9019183F0
:100A600080831282B483A38316830583FD01EE592C
:100A7000FF4F85EC91E0918380831282348323833E
:100A80008EEF95E096838583FD01E759FF4F81EC5A
:100A900091E09183808312823483238386EE95E0F4
:100AA00096838583FD01E059FF4F8BEB91E09183A5
:100AB00080831282348323838EE097E0968385833C
:100AC0009D0129583F4F85EB91E0F9019183808387
:100AD0001282B483A38316830583FD01E258FF4F7E
:100AE00082EB91E09183808312823483238387E3B6
:100AF00096E096838583FD01EB57FF4F8EEA91E0E8
:100B0000918380831282348323838FE196E09683DE
:100B100085839D0124573F4F89EA91E0F901918334
:100B200080831282B483A38316830583FD01ED566F
:100B3000FF4F85EA91E0918380831282348323837F
:100B40008DE596E096838583A656BF4F8FE991E0A9
:100B500011969C938E9312961C92129714963C9326
:100B60002E93139787EC96E016969C938E93159789
:100B700087E190E01F910F910895DF93CF9300D00C
:100B800000D000D0CDB7DEB726960FB6F894DEBF02
:100B90000FBECDBFCF91DF910895DF93CF9300D0EB
:100BA00000D000D0CDB7DEB726960FB6F894DEBFE2
:100BB0000FBECDBFCF91DF9108958093D2000895ED
:100BC000882311F08FEF01C080E0F7CFDF93CF9340
:100BD00000D000D000D0CDB7DEB729833A834B8355
:100BE0005C836D837E8380E0EBDF26960FB6F894FE
:100BF000DEBF0FBECDBFCF91DF910895DF93CF93BE
:100C000000D000D000D0CDB7DEB729833A834B8324
:100C10005C836D837E8381E0D3DF26960FB6F894E4
:100C2000DEBF0FBECDBFCF91DF910895882319F0AD
:100C30008BB1806202C08BB18F7D8BB90895DF9339
:100C4000CF9300D000D000D0CDB7DEB729833A8350
:100C50004B835C836D837E8380E0E8DF26960FB64E
:100C6000F894DEBF0FBECDBFCF91DF910895DF9323
:100C7000CF9300D000D000D0CDB7DEB729833A8320
:100C80004B835C836D837E8381E0D0DF26960FB635
:100C9000F894DEBF0FBECDBFCF91DF910895F999D3
:100CA000FECF8BE192E060E070E042E050E00E9415
:100CB000871C8BE192E00C94541A0F931F93DF93DF
:100CC000CF9300D000D000D0CDB7DEB729833A83D0
:100CD0004B835C836D837E8309811A81E0DF00D0C2
:100CE00000D000D0EDB7FEB73196ADB7BEB71296C3
:100CF0001C930E93119720E031E033832283848389
:100D000015820E94C41B8DB79EB706960FB6F89445
:100D10009EBF0FBE8DBF26960FB6F894DEBF0FBEE6
:100D2000CDBFCF91DF911F910F910895DF92EF9288
:100D3000FF920F931F93CF93DF938C01C0E0D0E01D
:100D4000EE24FF2412C0F801EC0FFD1FD0808D2D82
:100D500090E00E94491B892B39F4F801EE0DFF1D2C
:100D6000D0820894E11CF11C2196F801019000202A
:100D7000E9F73197E01BF10BEC17FD0720F7DF9146
:100D8000CF911F910F91FF90EF90DF9008950F93F7
:100D90001F93DF93CF9300D000D000D0CDB7DEB744
:100DA000182F092F29833A834B835C836D837E83BD
:100DB000A82FB92FFD0101900020E9F73197EA1B18
:100DC000FB0B719708F4B2DFA12FB02FFD0101904A
:100DD0000020E9F73197EA1BFB0B339758F4F99998
:100DE000FECF812F902F60E070E042E050E00E9443
:100DF000971C09C08BEC90E029813A814B815C8182
:100E00006D817E8121DD26960FB6F894DEBF0FBE80
:100E1000CDBFCF91DF911F910F9108950F931F9335
:100E2000DF93CF9300D000D000D0CDB7DEB78C01D8
:100E300029833A834B835C836D837E8377DFC8018C
:100E40000E94541ABADE26960FB6F894DEBF0FBE83
:100E5000CDBFCF91DF911F910F910895DF93CF9375
:100E600000D000D000D0CDB7DEB729833A834B83C2
:100E70005C836D837E830E94E51226960FB6F894FC
:100E8000DEBF0FBECDBFCF91DF91089589E26EE442
:100E900070E00E943D1380958170089589E26DE4B1
:100EA00070E00E943D1380958170089589E26FE49F
:100EB00070E00E943D1390E08770843009F491E067
:100EC000892F089589E268E370E041E00C947C1377
:100ED00089E268E170E041E00C947C1389E265E10D
:100EE00070E041E00E947C1389E264E670E00C94BB
:100EF0003D130F931F93DF93CF9300D000D000D00A
:100F0000CDB7DEB729833A834B835C836D837E83C1
:100F100009811A81CBDF882359F4C0DF882321F0AF
:100F2000BDDF8823E9F704C0D3DFB8DF8823E9F702
:100F3000D5DF00D000D000D0EDB7FEB73196ADB709
:100F4000BEB712961C930E93119722E131E03383C2
:100F50002283848315820E94C41B8DB79EB7069698
:100F60000FB6F8949EBF0FBE8DBFB2DF26960FB6A8
:100F7000F894DEBF0FBECDBFCF91DF911F910F91CF
:100F8000089589E265E170E042E00E947C1389E205
:100F900060E570E00C94AD1379DF8823E9F792DF08
:100FA00075DF8823E9F7EDCF0F931F93DF93CF937E
:100FB00000D000D000D0CDB7DEB729833A834B8371
:100FC0005C836D837E8309811A81E6DF00D000D0C7
:100FD00000D0EDB7FEB73196ADB7BEB712961C93F1
:100FE0000E93119722E131E033832283958384832A
:100FF0000E94C41B8DB79EB706960FB6F8949EBF8D
:101000000FBE8DBF26960FB6F894DEBF0FBECDBFC4
:10101000CF91DF911F910F910895DF93CF9300D06F
:1010200000D000D0CDB7DEB729833A834B835C83F1
:101030006D837E8369817A8183E291E00E94011C45
:1010400026960FB6F894DEBF0FBECDBFCF91DF91CD
:1010500008950F931F93CF93DF938B01FC01EC0155
:10106000849106C090E0B8010E94D51BFE018491D6
:1010700021968823B9F7DF91CF911F910F910895A1
:101080000F931F93DF93CF9300D000D000D0CDB744
:10109000DEB729833A834B835C836D837E8309812A
:1010A0001A8104DF00D000D000D0EDB7FEB7319632
:1010B000ADB7BEB712961C930E93119726E231E09E
:1010C00033832283848315820E94C41B8DB79EB70D
:1010D00006960FB6F8949EBF0FBE8DBF8BE091E0D1
:1010E000B801B7DFF5DEE2DE00D000D000D0EDB70A
:1010F000FEB73196ADB7BEB712961C930E931197FB
:101100002EE331E033832283848315820E94C41B43
:101110008DB79EB706960FB6F8949EBF0FBE8DBFD3
:10112000BDDE00D000D000D0EDB7FEB73196ADB730
:10113000BEB712961C930E9311972AE531E03383C4
:101140002283848315820E94C41B8DB79EB70696A6
:101150000FB6F8949EBF0FBE8DBF8CEF90E0B80124
:1011600078DF84EF91E020E931E0F9013197F1F780
:101170000197D9F79BDE00D000D000D0EDB7FEB7C5
:101180003196ADB7BEB712961C930E93119726E217
:1011900031E033832283848315820E94C41B8DB780
:1011A0009EB706960FB6F8949EBF0FBE8DBF76DE33
:1011B00000D000D000D0EDB7FEB73196ADB7BEB7C6
:1011C00012961C930E9311972AE531E03383228304
:1011D000848315820E94C41B8DB79EB706960FB6F6
:1011E000F8949EBF0FBE8DBF79DE00D000D000D036
:1011F000EDB7FEB73196ADB7BEB712961C930E93FE
:10120000119729E631E033832283848315820E947B
:10121000C41B8DB79EB706960FB6F8949EBF0FBE3F
:101220008DBF26960FB6F894DEBF0FBECDBFCF910F
:10123000DF911F910F9108950F931F93DF93CF9329
:1012400000D000D000D0CDB7DEB729833A834B83DE
:101250005C836D837E8309811A818BE591E0B801FF
:10126000F8DE88E591E0B801F4DE89E491E0B801A8
:10127000F0DE86E491E0B801ECDE8BE391E0B801AA
:10128000E8DE87E391E0B801E4DE84E391E0B801B1
:10129000E0DE89E291E0B801DCDE85E291E0B801B0
:1012A000D8DE82E291E0B801D4DE26960FB6F8943B
:1012B000DEBF0FBECDBFCF91DF911F910F9108957B
:1012C0000F931F93DF93CF9300D000D000D0CDB702
:1012D000DEB729833A834B835C836D837E830981E8
:1012E0001A8189E691E0B801B4DE87E691E0B801A1
:1012F000B0DE26960FB6F894DEBF0FBECDBFCF91FD
:10130000DF911F910F9108950F931F93DF93CF9358
:1013100000D000D000D0CDB7DEB729833A834B830D
:101320005C836D837E8309811A81E0910302F091D1
:101330000402309729F48AE791E0B8018ADE35C0CB
:10134000EE0FFF1FEB5EFD4F80819181B80181DEC2
:1013500080917E01882301F100D000D000D0EDB74C
:10136000FEB73196ADB7BEB712961C930E93119788
:1013700087E791E0938382838EE791E0958384836E
:101380000E94C41B10927E018DB79EB706960FB6C1
:10139000F8949EBF0FBE8DBF80910302909104020E
:1013A0000197909304028093030226960FB6F89457
:1013B000DEBF0FBECDBFCF91DF911F910F9108957A
:1013C000DF93CF9300D000D000D0CDB7DEB7298314
:1013D0003A834B835C836D837E8369817A8189E85C
:1013E00091E037DE0E94F91388E893E120E931E0CB
:1013F000F9013197F1F70197D9F70E940814269661
:101400000FB6F894DEBF0FBECDBFCF91DF91089528
:10141000AF92BF92DF92EF92FF920F931F93CF9301
:10142000DF935B01FB0110827C01C0E0D0E013C0C0
:101430000D2D10E0C8010E94511B0817190731F447
:10144000F501EC0FFD1FD082219602C0F7018083C9
:101450000894E11CF11CF701D080DD2049F7CA0D8A
:10146000DB1D1882DF91CF911F910F91FF90EF90BC
:10147000DF90BF90AF900895AF92BF92CF92DF926E
:10148000EF92FF920F931F93CF93DF937C016B0139
:10149000EA0100E010E0BC2EAD2E888199816AE956
:1014A00071E040E050E0F2D98AE991E06CE871E047
:1014B000AFDF8AE991E0B6010E94721B009739F014
:1014C0008CE891E0B6010E94721B0097C1F4F7010D
:1014D000408151818B2D9A2D9C01F901238134810A
:1014E0002417350729F4F701B082A18281E00EC0EC
:1014F0002115310521F0F9018281813079F30F5FE7
:101500001F4F27960731110531F680E0DF91CF910B
:101510001F910F91FF90EF90DF90CF90BF90AF9011
:1015200008952F923F924F925F926F927F928F9287
:101530009F92AF92BF92CF92DF92EF92FF920F9362
:101540001F93DF93CF93CDB7DEB728970FB6F894EC
:10155000DEBF0FBECDBF2B010B831C832D833E83CB
:101560004F8358871A8219826BE771E00E94641BCF
:101570007C016B807C804DE7A42E41E0B42E80E09E
:101580001E010894211C311C79C0C70160E270E083
:101590000E94671BFC015C018081803221F4108273
:1015A0000894A11CB11CF70101900020E9F73197C4
:1015B000EE19FF093E9718F08CEA90E00BC0F50198
:1015C00001900020E9F73197EA19FB09719750F073
:1015D0008BEC90E02B813C814D815E816F81788521
:1015E00033D967C08201CC24DD24902E812EF801EE
:1015F0002381348189819A8128173907E1F4808118
:10160000918166EB71E0A30141D986EB91E068EA34
:1016100071E0FEDE86EB91E0B7010E94721B00973D
:1016200039F088EA91E0B7010E94721B009719F423
:1016300099828A821BC00894C11CD11C095F1F4F6C
:10164000F7E1CF16D10489F62DC082EE90E02B8110
:101650003C814D815E816F817885F6D88EE791E07F
:10166000B7014DE050E00E947B1B23C080E090E07A
:101670006BE771E00E94641B7C0181E0E114F104DE
:1016800009F083CF8823A9F0E981FA810580F681EA
:10169000E02DC5012B813C814D815E816F81788574
:1016A000099507C0C101B701A201E6DE8823F1F662
:1016B000CCCF28960FB6F894DEBF0FBECDBFCF912A
:1016C000DF911F910F91FF90EF90DF90CF90BF902F
:1016D000AF909F908F907F906F905F904F903F90D2
:1016E0002F9008958F929F92AF92BF92CF92DF92E8
:1016F000EF92FF920F931F93DF93CF9300D000D010
:1017000000D0CDB7DEB75C016B014A01E982FA82F5
:101710000B831C832D833E83FE2CEA8047C090E020
:101720000E94511B8B3321F08D3011F08A30B9F4B7
:10173000D6018D919C91181619065CF40F2DF98233
:10174000EA82C501B4011E2D2B813C814D815E8151
:10175000E8DEF5011082D6011D921C9227C0883068
:1017600011F08F3749F4D601ED91FC9111971E16B7
:101770001F06E4F431970FC0D601ED91FC91B1E062
:10178000E330FB0774F4EA0DFB1D8083D601ED9175
:10179000FC9111973196ED93FC93EA0DFB1D10829D
:1017A00005C08EE192E06F2D7E2D53DC84EC91E03C
:1017B0009CD497FFB4CF26960FB6F894DEBF0FBE29
:1017C000CDBFCF91DF911F910F91FF90EF90DF90F0
:1017D000CF90BF90AF909F908F900895DA01923094
:1017E00049F0933061F09130F9F4E6E3F2E022E160
:1017F00030E01EC0E8E4F2E02EE330E019C08130B2
:1018000049F0813018F0823079F408C0E6E8F2E05F
:10181000849107C0EAE8F2E0849103C0EEEAF2E0C6
:101820008491282F30E004C0E0E0F0E020E030E0D8
:10183000ED93FC93C90108959C01409128025091B9
:1018400029024617570718F4F90190E043C06115C3
:10185000710511F0AB01F8CF8091E8008E7780938D
:10186000E80040E050E0F0CF80912102882309F4A5
:1018700047C0853009F446C08091E80083FD44C02C
:101880008091E80082FD36C08091E80080FF22C090
:101890008091F3009091F200782F60E0292F30E0E2
:1018A000262B372B07C081918093F1004150504087
:1018B0002F5F3F4F4115510519F02830310598F33E
:1018C00090E02830310509F491E08091E8008E77AE
:1018D0008093E8004115510539F6992329F60AC08D
:1018E00080912102882361F0853061F08091E800C9
:1018F00083FD0AC08091E80082FFF2CF80E0089566
:1019000082E0089583E0089581E008959C0140916C
:101910002802509129024617570718F4F90190E060
:1019200044C06115710511F0AB01F8CF8091E8005A
:101930008E778093E80040E050E0F0CF8091210264
:10194000882309F448C0853009F447C08091E80035
:1019500083FD45C08091E80082FD37C08091E8009A
:1019600080FF23C08091F3009091F200782F60E017
:10197000292F30E0262B372B08C084918093F1006B
:101980003196415050402F5F3F4F4115510519F09E
:101990002830310590F390E02830310509F491E0CA
:1019A0008091E8008E778093E8004115510531F66B
:1019B000992321F60AC080912102882361F08530A5
:1019C00061F08091E80083FD0AC08091E80082FF09
:1019D000F2CF80E0089582E0089583E0089581E0E9
:1019E0000895382F282F2EC0822F8F708093E90002
:1019F000231721F4762F942F50E006C07091EC004D
:101A00009091ED005091F00091FF1BC08091EB0090
:101A10008E7F8093EB008091ED008D7F8093ED00B1
:101A20008091EB0081608093EB007093EC009093C9
:101A3000ED005093F0008091EE0087FD02C080E041
:101A400008952F5F273080F23F703093E90081E0E6
:101A500008950F931F93CF93DF93062FEC0110E0AF
:101A60002AC09881992329F16B81E981FA812C811F
:101A7000892F8F70873018F5223010F452E001C0A2
:101A800056E040E028E030E003C04F5F220F331FF4
:101A90002E173F07D0F36295660F660F607C991F83
:101AA0009927991F692B4295407F452B9ADF882300
:101AB00031F01F5F25961017A0F281E001C080E091
:101AC000DF91CF911F910F91089580912202882379
:101AD0009CF404C0809121028823B9F08091E80031
:101AE00082FFF8CF8091E8008B778093E80008951B
:101AF00080912102882349F08091E80080FFF8CF8F
:101B00008091E8008E778093E80008954091E4008A
:101B10005091E50024E68091EC0080FF24C0809184
:101B2000E80080FD1EC080912102882311F482E02C
:101B30000895853011F483E008958091EB0085FFCE
:101B400002C081E008958091E4009091E50084173F
:101B5000950709F3222311F484E008952150AC0184
:101B6000DACF80E008958091E80082FFDCCFF9CFE2
:101B70006BD072D0E0EEF0E0808181608083A8EDD0
:101B8000B0E08C918F778C9319BCE7EDF0E0808109
:101B90008E7F80838C918F7E8C931092200208958B
:101BA000EF92FF920F931F934FD056D008ED10E0A5
:101BB000F80180818F778083808180688083808135
:101BC0008F7D808319BC1092210210921D02109209
:101BD0001F0210921E0280EEE82EF12CF701808188
:101BE0008B7F8083F80180818160808380E060E06A
:101BF00042E0F7DEE1EEF0E080818E7F8083E2EE6E
:101C0000F0E0808181608083808188608083F7013B
:101C100080818E7F8083F8018081806180831F9125
:101C20000F91FF90EF900895E8EDF0E080818F7EB6
:101C30008083E7EDF0E080818160808384E082BF73
:101C400081E080932002ACCFE8EDF0E080818E7FD0
:101C500080831092E20008951092DA001092E10061
:101C600008951F920F920FB60F9211242F933F9356
:101C70004F935F936F937F938F939F93AF93BF9394
:101C8000EF93FF938091E10082FF0AC08091E20010
:101C900082FF06C08091E1008B7F8093E1000FD22C
:101CA0008091DA0080FF1DC08091D80080FF19C0AC
:101CB0008091DA008E7F8093DA008091D90080FFD6
:101CC0000CC080E189BD82E189BD09B400FEFDCF71
:101CD00081E0809321028BD504C019BC10922102AF
:101CE00087D58091E10080FF18C08091E20080FFDD
:101CF00014C08091E2008E7F8093E2008091E20028
:101D000080618093E2008091D80080628093D80047
:101D100019BC85E080932102D2D18091E10084FF3B
:101D20002FC08091E20084FF2BC080E189BD82E159
:101D300089BD09B400FEFDCF8091D8008F7D8093CE
:101D4000D8008091E1008F7E8093E1008091E200D5
:101D50008F7E8093E2008091E20081608093E200B8
:101D600080911D02882311F084E007C08091E30078
:101D700087FD02C081E001C083E0809321029FD1F2
:101D80008091E10083FF22C08091E20083FF1EC0AA
:101D90008091E100877F8093E10082E080932102BF
:101DA00010921D028091E1008E7F8093E10080916E
:101DB000E2008E7F8093E2008091E2008061809358
:101DC000E20080E060E042E00CDE79D1FF91EF912B
:101DD000BF91AF919F918F917F916F915F914F9143
:101DE0003F912F910F900FBE0F901F9018951F934A
:101DF000DF93CF93CDB7DEB7AC970FB6F894DEBFC5
:101E00000FBECDBFE2E2F2E08091F100819322E0CB
:101E1000EA32F207C9F7F1D48091E80083FF37C1B5
:101E20008091220230912302353009F487C0363088
:101E300040F43130C9F1313070F0333009F027C14E
:101E400033C0383009F4F5C0393009F404C13630F4
:101E500009F01DC196C0803821F0823809F017C101
:101E600008C090911E0280911F02882399F0926011
:101E700011C0809126028F708093E9008091EB0061
:101E800090E025E0969587952A95E1F7982F917037
:101E90001092E9008091E800877F8093E80090939A
:101EA000F1001092F100D0C0882319F0823009F0BF
:101EB000EEC090E08F719070009721F0029709F0CA
:101EC000E6C00CC080912402813009F0E0C010927D
:101ED0001F02333069F580931F022AC080912402CB
:101EE000882331F5209126022F7009F4D0C0209369
:101EF000E9008091EB0080FF1BC0333021F480911A
:101F0000EB00806213C08091EB0080618093EB0056
:101F100081E090E002C0880F991F2A95E2F7809334
:101F2000EA001092EA008091EB0088608093EB0059
:101F30001092E9008091E800877F89C0882309F02A
:101F4000A6C0109124021F778091E3008078812B36
:101F50008093E3008091E800877F8093E800B5DDFF
:101F60008091E80080FFFCCF8091E300806880933F
:101F7000E300112311F482E001C083E08093210289
:101F800086C08058823008F082C0809124029091EF
:101F9000250223E08C3D920709F033C083E08C8357
:101FA0008AE28B837FB7F894DE0115966EE040E0FD
:101FB00050E011E2E62FF0E010935700849140FFCB
:101FC00003C082958F706F5F8F70282F30E08A304A
:101FD00018F0C901C79602C0C901C0968D939D93A0
:101FE0004F5F5F4F4431510529F77FBF8091E80073
:101FF000877F8093E800CE0103966AE270E01CDCE4
:1020000012C060912602AE014F5F5F4FE7DBBC015B
:10201000009709F43CC08091E800877F8093E80036
:1020200089819A8173DC8091E8008B778093E80046
:102030002EC0803861F58091E800877F8093E800AA
:1020400080911D028093F1008091E8008E7780934B
:10205000E8003BDD1CC08823D1F49091240292302B
:10206000B0F48091E800877F8093E80090931D0290
:102070002CDD80911D02882331F48091E30087FDDF
:1020800002C081E001C084E080932102B9D3809135
:10209000E80083FF0AC08091E800877F8093E80012
:1020A0008091EB0080628093EB00AC960FB6F894C1
:1020B000DEBF0FBECDBFCF91DF911F910895089570
:1020C0001F9380912102882371F01091E900809183
:1020D000EC001092E9008091E80083FF01C087DEE8
:1020E0001F701093E9001F910895FC018091210257
:1020F000843099F584899589A689B7890097A105C7
:10210000B10559F186818F708093E9008091E800D4
:1021100082FF23C04091F3002091F200942F80E0D1
:1021200030E0822B932B892B19F46FEF7FEF04C0E3
:102130008091F100682F70E04091F3002091F2004F
:10214000942F80E030E0822B932B892B41F48091F7
:10215000E8008B778093E80002C06FEF7FEFCB0140
:102160000895FB012EE0DB011D922A95E9F723E09B
:10217000238322E431E13187208724EC30E1338767
:102180002287958784870895FC0184859585ADDF36
:102190009C0197FF02C02EEF3FEFC90108950895FB
:1021A000FC0180912102843051F584899589A689AA
:1021B000B7890097A105B10511F181818F708093D6
:1021C000E9004091F3002091F200942F80E030E08C
:1021D000822B932B892BA9F09091E8008091E80045
:1021E0008E778093E80095FD0CC090DC982F8823B3
:1021F00049F48091E8008E778093E80003C092E074
:1022000001C090E0892F0895FC0180912102843063
:1022100091F484899589A689B7890097A105B105AC
:1022200051F081818F708093E9008091E80080FFF8
:1022300002C0CF01B5CF08951F93FC01162F8091E6
:1022400021028430E1F484899589A689B7890097B1
:10225000A105B105A1F081818F708093E900809183
:10226000E80085FD08C08091E8008E778093E80043
:102270004DDC882329F41093F10080E001C082E056
:102280001F910895282FFB0184859585622FD4DF47
:10229000882319F420E030E002C02FEF3FEFC9019E
:1022A0000895CF93DF93EC014096FC018BE0DF01B2
:1022B0001D928A95E9F782E08C83898783E08E8777
:1022C000CE01019661E0C5DB882371F0CE01069650
:1022D00061E0BFDB882341F0CE010B9661E0B9DB02
:1022E000882319F081E001C080E0DF91CF9108954B
:1022F000CF93DF93EC018091E80083FFA3C0888136
:1023000090E020912602309127022817390709F022
:1023100099C080912302813269F0823220F48032A8
:1023200009F090C03CC0823209F46BC0833209F0DE
:1023300089C07AC080912202813A09F083C08091DD
:10234000E800877F8093E8008091E80080FFFCCF61
:102350008C899D89AE89BF898093F100292F3A2FFE
:102360004B2F55272093F1009D014427552720939B
:10237000F1008B2F9927AA27BB278093F100888D26
:102380008093F100898D8093F1008A8D8093F10014
:102390008091E8008E778093E80097DB53C08091AE
:1023A0002202813209F04EC08091E800877F80933D
:1023B000E80005C080912102882309F443C0809180
:1023C000E80082FFF7CF8091F1009091F100209119
:1023D000F1003091F1008C8B9D8B2E8B3F8B809187
:1023E000F100888F8091F100898F8091F1008A8FB0
:1023F0008091E8008B778093E80067DBCE01CFDE29
:1024000021C0809122028132E9F48091E800877F27
:102410008093E8005ADB8091240290912502998BE9
:10242000888BCE01BCDE0EC080912202813251F435
:102430008091E800877F8093E80047DBCE016091C0
:102440002402ADDEDF91CF910895ECEBF0E08081C6
:102450008B7F808308950F931F938C01F6DF80910B
:1024600064008F7780936400F80186858093B800BC
:102470008785813059F0813028F0823089F08330AF
:10248000E1F412C08091B9008E7F1AC08091B9002A
:1024900081608093B9008091B9008D7F8093B900ED
:1024A0008091B9008E7F03C08091B90081608093D4
:1024B000B9008091B900826008C08091B900816044
:1024C0008093B9008091B9008D7F8093B90080918D
:1024D000BC0084608093BC001F910F910895FC01A3
:1024E000A481B5819C918485809589238C93A68154
:1024F000B7819C918585809589238C93A081B1813A
:102500009C918485809589238C93A281B3819C9131
:102510008585809589238C93CF019DCF84E9809315
:10252000BC0080E508958091B900882311F002D0A5
:10253000F5DFF4CFDF92EF92FF920F931F93CF93CB
:10254000DF9300E010E0C0E0D0E094EAD92E88EC00
:10255000E82EF12C8091B900882309F4E4DFD092B1
:10256000BC0005C0C7010197F1F70F5F1F4F083C82
:1025700011052CF48091BC0087FFF4CF03C0083C08
:10258000110591F08091B90090E0887F90708031C2
:10259000910541F08833910519F0089729F402C09C
:1025A0008FE305C083E501C08FE3C8ECD0E021963E
:1025B000C83CD1057CF2DF91CF911F910F91FF9024
:1025C000EF90DF900895AACF08953FDFFCCF80936E
:1025D000BB0084E88093BC0020E030E048EC50E091
:1025E00008C0CA010197F1F72F5F3F4F283C310522
:1025F000D1F08091BC0087FFF4CF8091B90090E0CA
:10260000887F90708832910561F0893291051CF4C1
:10261000489749F406C08034910519F0803591053A
:1026200011F48BE408958EE40895882311F084E872
:1026300001C084EC8093BC0020E030E048EC50E026
:1026400008C0CA010197F1F72F5F3F4F283C3105C1
:1026500091F08091BC0087FFF4CF8091B90090E0A9
:10266000887F90708035910519F08835910519F4AF
:102670008091BB0008958FEF0895FF920F931F93F1
:10268000CF93DF93182FF62E072F54DF833509F5EC
:10269000C12FD0E0CC0FDD1F8C2F99DF8B34C9F414
:1026A000802F95DF8B34A9F48F2D91DF8B3489F443
:1026B00035DF40DF833569F49E012160822F87DF9B
:1026C00000E08B3439F401E081E0AFDF182F26DF22
:1026D00002C000E01FEF8AE18A95F1F78091BC000B
:1026E00084FD02C0002309F470DF812FDF91CF91B8
:1026F0001F910F91FF900895EF92FF920F931F93F8
:10270000182FF62E072FE42E15DF8335A9F4812F1D
:10271000880F5DDF8B3481F4802F59DF8B3461F4B7
:102720008F2D55DF8B3441F48E2D51DF10E08B342B
:1027300021F411E0F3DE01C010E08AE18A95F1F79F
:102740008091BC0084FD02C0112309F43EDF8FEFAD
:102750001F910F91FF90EF900895FF920F931F9399
:10276000CF93DF93182FF62E072FE4DE833529F55C
:10277000C12FD0E0CC0FDD1F8C2F29DF8B34E9F483
:10278000802F25DF8B34C9F48F2D21DF8B34A9F402
:10279000C5DED0DE833589F49E012160822F17DFEC
:1027A000FF248B3459F4FF24F39480E03EDF082F9C
:1027B00081E03BDF182FB2DE03C0FF240FEF1FEFD5
:1027C0008AE18A95F1F78091BC0084FD02C0FF2068
:1027D00009F4FBDE902F80E0212F30E0282B392BED
:1027E000C901DF91CF911F910F91FF900895089536
:1027F000089584EC91E008DD63CC84EC91E078CD21
:1028000084EC91E04ECD84EC91E065E072E0A9CCDF
:10281000AFD9F89480E29EE420E931E0F9013197E4
:10282000F1F70197D9F78AEC9CEAA2E4BCED80931A
:102830002A0290932B02A0932C02B0932D022CE03D
:1028400088E190E00FB6F894A895809360000FBEE1
:1028500020936000FFCF89E267E072E041E04CDF47
:1028600089E268E072E041E047DF89E266E970E012
:1028700040E042DF89E267E970E04DEF3DDF89E249
:1028800063EE70E040E038DF89E264EE70E044E03F
:1028900033DF89E265EE70E042E02EDF89E266EE2A
:1028A00070E041E029DF89E267EE70E043E024DF79
:1028B00089E265EF70E042E01FDF89E269ED70E0D8
:1028C00045E01ADF89E26BED70E04EEC15DF89E23E
:1028D0006CED70E043E010DF89E26DED70E048EFF1
:1028E0000BDF89E26FE970E040E006DF89E263EA2E
:1028F00070E04CE301DF89E267EB70E040E0FCDE72
:1029000089E26BEB70E04CE3F7DE89E262EB70E0AA
:1029100049E0F2DE89E26AEC70E049E0EDDE89E24E
:1029200068E971E041E0E8DE89E260EB71E047E1EF
:10293000E3DE89E26DEA71E040E0DEDE89E26FEF1E
:1029400070E045E0D9DE89E260E071E045E0D4DE88
:1029500089E269E971E045E0CFDE89E266EA71E08B
:102960004BE1CADE89E26CEA71E04EE3C5DE89E242
:1029700067EA71E04FE1C0DE89E260E370E040E0C9
:10298000BBDE89E261E170E040E1B6DE89E26AE047
:1029900071E04FEFB1DE89E26FE370E046E4ACDE58
:1029A00089E261E370E040E0A7DE89E260E470E084
:1029B00043E6A2DE89E26EE270E041E09DDE89E25C
:1029C0006BE170E040E098DE89E26EE370E041E3A5
:1029D00093DE89E264E170E044E28ECEA1E1B0E0F2
:1029E000E3EFF4E12AC53C017F876E876A01FC01B1
:1029F00017821682838181FD03C06FEF7FEF52C380
:102A00009E012F5F3F4F398B288BF3012381EE8589
:102A1000FF8523FD859123FF8191FF87EE87882322
:102A200009F43DC3853251F4EE85FF8523FD859180
:102A300023FF8191FF87EE87853221F490E0B30177
:102A4000B4D6E3CF982F10E0882499241032B0F444
:102A50009B3269F09C3228F4903251F0933271F439
:102A60000BC09D3239F0903349F4116028C01260D8
:102A7000146025C0186023C0106121C017FD2AC052
:102A8000892F80538A3078F416FF06C0FAE09F9EA3
:102A9000902C1124980E13C03AE0839E802C1124B0
:102AA000880E10620CC09E3221F416FDF8C210642C
:102AB00006C09C3611F4106802C0983659F4EE85B1
:102AC000FF8523FD959123FF9191FF87EE87992341
:102AD00009F0BCCF892F8554833020F4812F806189
:102AE000905E07C0892F8556833008F08FC1812FF3
:102AF0008F7E86FD02C076E0972E6FE3F62EF822D9
:102B0000953619F4F0E4FF2A07C0963619F420E848
:102B1000F22A02C091109A94F7FE0AC03BE33915DD
:102B200018F45CE3B52E02C0B92CB39427E009C0B9
:102B300047E0491520F4BB2447E0942EF7CF292D18
:102B4000BB24C60104969D878C87F6016081718144
:102B500082819381AE014F5F5F4F0B2DC2D46C0118
:102B60000981202E332400FF04C003FD02C01DE2B2
:102B700009C0F1FE02C01BE205C0F2FC02C010E079
:102B800001C010E2C1018C709070892BA1F111235A
:102B900011F483E001C084E0881510F0882409C096
:102BA000881AF3FC06C080E290E0B301FED58A9457
:102BB000D1F7112321F0812F90E0B301F6D523FE48
:102BC00003C00EEC12E00DC002ED12E00AC0E114E9
:102BD000F10409F0805290E0B301E7D50F5F1F4F79
:102BE00005C0EF2CFF24F0E1EF22FF24F8018491CF
:102BF000882369F708C1F7FE12C0BC0C24FE04C08C
:102C00008A81813309F4BA941B141CF0BB24B39459
:102C10002DC0F8E0FB1550F538E0B32E27C0F6FCC8
:102C200025C0892D90E08C159D054CF02CEFC21627
:102C30002FEFD20624F030E8F32A01C09A949920AD
:102C400049F0E2E0F0E0EC0FFD1FE90DF11D80819D
:102C50008033A1F3F7FE0AC0B92CB394892D90E01C
:102C6000C816D90614F0992401C09C18F7FC03C0BB
:102C700025E030E009C01C141D041CF021E030E008
:102C800003C096012F5F3F4F112311F02F5F3F4F7D
:102C9000992029F0892D90E00196280F391F882D61
:102CA00090E02817390714F0882401C0821A4F2CAD
:102CB0005524C20189709070892B31F007C080E2E1
:102CC00090E0B30172D58A948820C9F7112321F0CE
:102CD000812F90E0B30169D543FE06C007C080E3B1
:102CE00090E0B30162D58A948820C9F7F7FE44C00A
:102CF0008601D7FE02C000E010E076010894E11CD6
:102D0000F11CE01AF10A41E050E04C0F5D1FE40EA7
:102D1000F51E26014B185108892D90E0AA24BB24EA
:102D2000A81AB90A5FEF0F3F150721F48EE290E071
:102D3000B3013BD5C016D10634F0401651061CF441
:102D4000F701808101C080E3015010400894E11C2C
:102D5000F11C0A151B0524F090E0B30126D5E2CF43
:102D60000C151D0539F49A81963318F4953311F436
:102D700024FE81E390E045C08A81813309F00F7E13
:102D800090E0B30112D5992091F08EE290E0B3016A
:102D90000CD512E0E1E0F0E0EC0FFD1FE10FF11DBA
:102DA0001F5F808190E0B30100D59A9499F744FCAD
:102DB00003C085E690E002C085E490E0B301F5D45D
:102DC000D7FC05C0C114D10441F404FF06C0D0945F
:102DD000C194D108D3948DE201C08BE290E0B3019D
:102DE000E4D480E305C08F5F26EF3FEFC20ED31E11
:102DF0003AE0C316D104BCF790E0B301D6D4C601C3
:102E0000C096B301D2D4CC84DD8446C1933631F070
:102E1000933799F0933509F055C022C0F6018081AF
:102E200089835E010894A11CB11C22E030E0C20E2F
:102E3000D31E21E0E22EF12C11C0F601A080B1805A
:102E400016FD03C06FEF7FEF02C0692D70E022E036
:102E500030E0C20ED31EC5015DD47C011F7712C0C5
:102E6000F601A080B18016FD03C06FEF7FEF02C0B6
:102E7000692D70E022E030E0C20ED31EC50119D4E6
:102E80007C01106813FF06C019C080E290E0B30116
:102E90008CD48A94882D90E0E816F906B0F30EC021
:102EA000F50117FD859117FF81915F0190E0B30156
:102EB0007CD481108A940894E108F108E114F104AB
:102EC00079F7EAC0943611F0993681F517FF08C0FA
:102ED000F601208131814281538184E090E00AC073
:102EE000F601808191819C01442737FD4095542F44
:102EF00082E090E0C80ED91E9FE6F92EF12257FF1E
:102F000009C050954095309521953F4F4F4F5F4FE9
:102F100090E8F92ACA01B901AE014F5F5F4F2AE07C
:102F200030E097D4E82EE889EE1A40C0953721F4B6
:102F30001F7E2AE030E01CC0197F9F3661F0903779
:102F400020F4983509F0ABC00FC0903739F09837AE
:102F500009F0A5C004C028E030E00AC0106114FDEB
:102F6000146020E130E004C014FD166020E132E07E
:102F700017FF08C0F601608171818281938144E06E
:102F800050E008C0F60180819181BC0180E090E0B2
:102F900042E050E0C40ED51EAE014F5F5F4F59D4E2
:102FA000E82E5889E51A8FE7F82EF122F6FE0BC0BD
:102FB0008EEFF822E91438F4F4FE07C0F2FC05C0E5
:102FC0009FEEF92202C01E2D01C0192DF4FE0DC086
:102FD000FE01EE0DF11D8081803319F4E9EEFE2231
:102FE00008C01F5FF2FE05C003C08F2D867809F070
:102FF0001F5F0F2DF3FC13C0F0FE0EC0181510F06C
:103000009E2C0AC09E2C980C911A182D05C080E2A7
:1030100090E0B301CAD31F5F1815C8F304C0181598
:1030200010F4811A01C0882404FF0EC080E390E0F0
:10303000B301BBD302FF1BC001FD03C088E790E0D2
:103040000EC088E590E00BC0802F867881F001FFEC
:1030500002C08BE201C080E2F7FC8DE290E0B30198
:10306000A4D305C080E390E0B3019FD39A94E91400
:10307000C8F3EA94E1E0F0E0EC0FFD1FEE0DF11D66
:10308000808190E0B30191D3EE2099F705C080E2F2
:1030900090E0B3018AD38A948820C9F7B6CCF301B3
:1030A00066817781CB016196E2E1E3C15058BB278D
:1030B000AA270ED00DC1FED030F003D120F031F49C
:1030C0009F3F11F41EF4F3C00EF4E095E7FBE9C056
:1030D000E92F0FD180F3BA176207730784079507AA
:1030E00018F071F49EF527C10EF4E0950B2EBA2F5F
:1030F000A02D0B01B90190010C01CA01A0011124FE
:10310000FF27591B99F0593F50F4503E68F11A16A9
:10311000F040A22F232F342F4427585FF3CF46953A
:1031200037952795A795F0405395C9F77EF41F165C
:10313000BA0B620B730B840BBAF09150A1F0FF0F26
:10314000BB1F661F771F881FC2F70EC0BA0F621F12
:10315000731F841F48F4879577956795B795F79502
:103160009E3F08F0B3CF9395880F08F09927EE0F94
:1031700097958795089571D008F481E0089504D05B
:103180006894B111D9C00895BCD088F09F5790F0D1
:10319000B92F9927B751A0F0D1F0660F771F881F7C
:1031A000991F1AF0BA95C9F712C0B13081F0C3D097
:1031B000B1E00895C0C0672F782F8827B85F39F035
:1031C000B93FCCF3869577956795B395D9F73EF4DB
:1031D00090958095709561957F4F8F4F9F4F089583
:1031E000E89409C097FB3EF49095809570956195A1
:1031F0007F4F8F4F9F4F9923A9F0F92F96E9BB2757
:103200009395F695879577956795B795F111F8CFD2
:10321000FAF4BB0F11F460FF1BC06F5F7F4F8F4F3D
:103220009F4F16C0882311F096E911C0772321F033
:103230009EE8872F762F05C0662371F096E8862FCB
:1032400070E060E02AF09A95660F771F881FDAF722
:10325000880F9695879597F90895990F0008550F4F
:10326000AA0BE0E8FEEF16161706E807F907C0F00C
:1032700012161306E407F50798F0621B730B840B14
:10328000950B39F40A2661F0232B242B252B21F4EE
:1032900008950A2609F4A140A6958FEF811D811D8E
:1032A000089597F99F6780E870E060E008959FEFC8
:1032B00080EC089500240A941616170618060906CD
:1032C000089500240A94121613061406050608959C
:1032D000092E0394000C11F4882352F0BB0F40F424
:1032E000BF2B11F460FF04C06F5F7F4F8F4F9F4F64
:1032F000089557FD9058440F551F59F05F3F71F0E6
:103300004795880F97FB991F61F09F3F79F087954C
:103310000895121613061406551FF2CF4695F1DFD5
:1033200008C0161617061806991FF1CF8695710565
:10333000610508940895E894BB2766277727CB0199
:1033400097F908958ADF08F48FEF08950BD0C0CF66
:10335000B1DF28F0B6DF18F0952309F0A2CFA7CF90
:103360001124EACFC6DFA0F3959FD1F3950F50E06B
:10337000551F629FF001729FBB27F00DB11D639F27
:10338000AA27F00DB11DAA1F649F6627B00DA11DCD
:10339000661F829F2227B00DA11D621F739FB00D73
:1033A000A11D621F839FA00D611D221F749F3327E3
:1033B000A00D611D231F849F600D211D822F762F7C
:1033C0006A2F11249F5750408AF0E1F088234AF079
:1033D000EE0FFF1FBB1F661F771F881F91505040C5
:1033E000A9F79E3F510570F05CCFA6CF5F3FECF38D
:1033F000983EDCF3869577956795B795F795E795B1
:103400009F5FC1F7FE2B880F911D9695879597F9C1
:103410000895AA1BBB1B51E107C0AA1FBB1FA6171B
:10342000B70710F0A61BB70B881F991F5A95A9F76D
:1034300080959095BC01CD0108952F923F924F92B7
:103440005F926F927F928F929F92AF92BF92CF9234
:10345000DF92EF92FF920F931F93CF93DF93CDB73D
:10346000DEB7CA1BDB0B0FB6F894DEBF0FBECDBFB5
:1034700009942A88398848885F846E847D848C8486
:103480009B84AA84B984C884DF80EE80FD800C818F
:103490001B81AA81B981CE0FD11D0FB6F894DEBF72
:1034A0000FBECDBFED010895FC0188279927E89450
:1034B00021912032E9F3293010F02E30C8F32B325D
:1034C00039F02D3231F4689403C056D1820F911D2A
:1034D000219120532A30C8F31EF4909581959F4F77
:1034E0000895283008F027E03327DA01990F311DBD
:1034F00087FD916000966105710539F432602E5F99
:103500003D9330E32A95E1F708959F3F30F08038EE
:103510007105610509F03C5F3C5F3D93913008F017
:103520008068911DDF93CF931F930F93FF92EF92CB
:10353000192F987F9695E92F96959695E90FFF2775
:10354000E05DFC4F99273327EE24FF24A701E70114
:1035500005900894079428F4360FE71EF81E491FBB
:10356000511D660F771F881F991F0694A1F70590BC
:10357000079428F4E70EF81E491F561FC11D770F48
:10358000881F991F661F0694A1F70590079428F4D9
:10359000F80E491F561FC71FD11D880F991F661FA0
:1035A000771F0694A1F70590079420F4490F561F42
:1035B000C71FD81F990F661F771F881F0694A9F78A
:1035C00084911095177041F0D695C79557954795FA
:1035D000F794E7941A95C1F7E6EDF2E06894159038
:1035E000159135916591959105907FE27395E1185C
:1035F000F10A430B560BC90BD009C0F7E10CF11EC1
:10360000431F561FC91FD01D7EF4703311F48A95D5
:10361000E6CFE894015030F0080F0AF400270217B3
:1036200008F4202F2395022F7A3328F079E37D9335
:103630002A95E9F710C07D932A9589F60694979507
:103640006795379517951794E118F10A430B560BB8
:10365000C90BD00998F023957E9173957A3308F0C1
:1036600070E37C932013B8F77E9170617D9330F006
:10367000839571E37D9370E32A95E1F71124EF9030
:10368000FF900F911F91CF91DF91992787FD909522
:103690000895911163C1803219F089508550D0F797
:1036A00008959111089581568A5108F480528558E1
:1036B0000895FC010590615070400110D8F7809585
:1036C00090958E0F9F1F089543E152E02EC0FC019C
:1036D0008191861721F08823D9F79927089531978A
:1036E000CF010895FB01DC018D910190801901103B
:1036F000D9F3990B0895FB01DC014150504048F08B
:1037000001900D920020C9F701C01D924150504018
:10371000E0F70895FC016150704001900110D8F766
:10372000809590958E0F9F1F0895FA01A191B08109
:10373000009719F41097E1F0CD01DC01CD010D9057
:10374000002011F4C00113C0FB012191222319F0C4
:103750002015D9F7F3CFFB012191201519F41E9202
:10376000119606C02223C1F70D900020A1F7D001C9
:10377000FA01A193B08308957AE0979F902D879FD7
:10378000802D910D11240895A0E0B0E0E9ECFBE15B
:1037900064CE9E01275F3F4F8D819E816F8178852A
:1037A000A9011CD92096E2E074CE0F931F93CF930A
:1037B000DF938C01EB018B8181FF1BC082FF0DC069
:1037C0002E813F818C819D812817390764F4E8811F
:1037D000F9810193F983E88306C0E885F985802F94
:1037E0000995892B31F48E819F8101969F838E8369
:1037F00002C00FEF1FEFC801DF91CF911F910F9112
:103800000895EF92FF920F931F93CF93DF937C0164
:103810008B01DB0113968C9181FD03C0CFEFDFEFAD
:1038200013C0C0E0D0E00BC0D8011896ED91FC9118
:103830001997B8010995892B11F0CFEFDFEFF70148
:1038400081917F01882381F7CE01CDB7DEB7E6E015
:103850001CCEFA01AA27283051F1203181F1E894D9
:103860006F936E7F6E5F7F4F8F4F9F4FAF4FB1E073
:103870003ED0B4E03CD0670F781F891F9A1FA11D6E
:10388000680F791F8A1F911DA11D6A0F711D811D6F
:10389000911DA11D20D009F468943F912AE0269F34
:1038A00011243019305D3193DEF6CF010895462F93
:1038B0004770405D4193B3E00FD0C9F7F6CF462F74
:1038C0004F70405D4A3318F0495D31FD40524193DD
:1038D00002D0A9F7EACFB4E0A6959795879577959A
:1038E0006795BA95C9F700976105710508959B0121
:1038F000AC010A2E06945795479537952795BA95AA
:10390000C9F7620F731F841F951FA01D0895DC0166
:10391000CB01FC01F999FECF06C0F2BDE1BDF89ADA
:10392000319600B40D9241505040B8F70895DC0133
:10393000CB0102C02D9105D041505040D8F70895D9
:10394000262FF999FECF1FBA92BD81BD20BD0FB6BB
:10395000F894FA9AF99A0FBE019608959927882744
:063960000895F894FFCF6A
:103966004461726B6E6573732069733A2025640D2A
:103976000A0052656164696E672069733A2025649E
:103986000D0A00310A004D6561737572656D656ECD
:10399600742072656164793A2025640D0A004D65CC
:1039A60061737572656D656E7420726561647920E8
:1039B6006E6F773A2025640D0A004275737920628E
:1039C60069743A2025640D0A0052656164696E6760
:1039D6003A2025640D0A0025730A003A000000000B
:1039E60000000000000000000000000000000000D1
:1039F60000000000000000000000000000000000C1
:103A060000000000000000000000000000000000B0
:103A160000000000000000000000000000000000A0
:103A26000000000000834000000104400000018205
:103A36000800000100000000000000000000000077
:00000001FF
