:100000006DC20000A2C20000A0C200009EC200009B
:100010009CC200009AC2000098C2000096C2000074
:1000200094C2000092C200000C9470118EC20000B5
:100030008CC200008AC2000088C2000086C2000094
:1000400084C2000082C2000080C200007EC20000A4
:100050007CC200007AC2000078C2000077C20000B3
:1000600074C2000072C2000070C200006EC20000C4
:100070006CC200006AC2000068C2000066C20000D4
:1000800064C2000062C2000060C200005EC20000E4
:100090005CC200005AC2000058C2000056C20000F4
:1000A00054C2000052C2000050C200000D0A0033CA
:1000B0002E30004669726D776172652052657669EF
:1000C00073696F6E3A2000207C2000417765736F62
:1000D0006D652046617563657400207C2000487959
:1000E00070657274726F6E6978000D0A00332E307D
:1000F000002B302C224E6F206572726F72220D0A17
:1001000000310D0A004D41585F44495354414E435C
:10011000455F4D4D5F52455345545F524154450034
:1001200057415445525F4445424F554E43455F54F5
:10013000494D454F5554004D41585F444953544132
:100140004E43455F4C45414B41474500444554456E
:100150004354494F4E5F5448524553484F4C445FB7
:100160004D4D004C41534552504F5745520049495F
:10017000525F42455441004949525F414C50484109
:10018000005345540053544154453F004155544F8A
:10019000004F4646004F4E00574154455200434CD5
:1001A000524932430052414E47455F414E445F4DF4
:1001B000415852414E47453F004D41585F444953D5
:1001C00054414E43455F4D4D5F52455345545F5238
:1001D0004154453F00424C41434B424F583F00572A
:1001E000415445525F4445424F554E43455F544943
:1001F0004D454F55543F004D41585F44495354417C
:100200004E43455F4C45414B4147453F00444554B3
:10021000454354494F4E5F5448524553484F4C4410
:100220005F4D4D3F004C41534552504F5745523F53
:10023000004949525F4741494E3F004949525F4298
:100240004554413F004949525F414C5048413F00AD
:1002500052414E47453F00474554004445425547AB
:100260003F002A49444E3F005245434F52440056F6
:10027000455253696F6E3F004552526F723F0042C4
:10028000544C4F6164657200525354005359535497
:10029000656D002A4F50433F004E554C4C001201F3
:1002A0001001020000081819F5FF01000102DC012D
:1002B00009023E00020100C03209040000010202EE
:1002C0000100052400100104240206052406000193
:1002D000070582030800FF09040100020A0000006C
:1002E00007050402400005070583024000050403DA
:1002F0000904220348007900700065007200540070
:1003000072006F006E0069007800200049006E00E6
:1003100063002E0000001E0341007700650073009B
:100320006F006D00650020004600610075006300ED
:100330006500740000002D3131322C50726F6772ED
:10034000616D206D6E656D6F6E696320746F6F20D7
:100350006C6F6E67002D3131322C417267756D659F
:100360006E7420746F6F206C6F6E67002D313133A7
:100370002C4261642070617468206F72206865612E
:100380006465723A20004552524F5220636F6D6D82
:10039000616E6420746F6F206C6F6E670D0A006E63
:1003A000616E00696E6600494E46494E4954594E89
:1003B000414ECDCCCC3D0AD7233C17B7D13877CCB2
:1003C0002B329595E6241FB14F0A00002041000012
:1003D000C84200401C4620BCBE4CCA1B0E5AAEC5CB
:1003E0009D7400407A10F35A00A0724E1809001054
:1003F000A5D4E80000E87648170000E40B5402009A
:1004000000CA9A3B000000E1F505000080969800C4
:10041000000040420F000000A086010000001027ED
:1004200000000000E803000000006400000000007D
:100430000A00000000000100000000002C76D888AF
:10044000DC674F0823DFC1DFAE59E1B1B796E5E3C2
:10045000E453C63AE651997696E8E6C28426EB89DB
:100460008C9B62ED407C6FFCEFBC9C9F40F2BAA578
:100470006FA5F490055A2AF75C936B6CF9676DC110
:100480001BFCE0E40D47FEF520E6B500D0ED902E14
:100490000300943577050080841E080000204E0A72
:1004A000000000C80C333333330F986E12831141B0
:1004B000EF8D2114893BE65516CFFEE6DB18D1847B
:1004C0004B381BF77C1D901DA4BBE42420328472A2
:1004D0005E228100C9F124ECA1E53D2711241FBE55
:1004E000CFEFDAE0DEBFCDBF04B603FE18C08091C7
:1004F000A4079091A507A091A607B091A7078A5CD1
:100500009C4AA244BC4D59F41092A4071092A5072E
:100510001092A6071092A707E0E0F8E3099513E010
:10052000A0E0B1E0EAE0F9E402C005900D92A23447
:10053000B107D9F717E0A2E4B3E001C01D92A43AD5
:10054000B107E1F729D00C9483245ACD1F920F9262
:100550000FB60F9211242F933F934F935F936F9396
:100560007F938F939F93AF93BF93EF93FF93F894F1
:100570000E94F50E7894FF91EF91BF91AF919F91FA
:100580008F917F916F915F914F913F912F910F903C
:100590000FBE0F901F9018956F927F928F929F922F
:1005A000AF92BF92CF92DF92EF92FF920F931F9381
:1005B000DF93CF93CDB7DEB7CA51D2400FB6F894D0
:1005C000DEBF0FBECDBFFE01EA5EFE4F119211925B
:1005D0001192119281E091E0DF019C011D92215066
:1005E0003040E1F78FE891E062E473E00E94F0139D
:1005F00080E8809361001092610084B7877F84BF98
:1006000085B7806885BF85B7806885BF88E10FB6EC
:10061000F89480936000109260000FBE83E085BD67
:1006200080916E00816080936E00559A5D98579A14
:100630005F988091C1008A608093C1008091C20060
:1006400089608093C20080E094E120E931E0F90103
:100650003197F1F70197D9F7198E89E1888F81E0F9
:100660008F8B82E08E8B89E290E09D8B8C8B9B8BB5
:100670008A8B8AE290E0998B888B9F878E878BE2AA
:1006800090E09D878C879B878A870E9453110E94E8
:1006900070157894CE010A960E94BF15CE014A9635
:1006A0004AD039D661D655D660D249D60E94CD0BF4
:1006B00066D63BD60E94F6188E010F5F1F4F89E267
:1006C0006DE470E0A8010E944016898180FFF7CF99
:1006D00082E493E09D838C8389E268E170E041E0ED
:1006E0000E9461163AE0C32ED12CCC0EDD1E26E10D
:1006F000622E21E0722E6C0E7D1E92E0892E912CCE
:100700008C0E9D1E8AE1A82EB12CAC0EBD1E0E943F
:1007100066152C2DD986C886C301B401A501EC80CD
:10072000FD800E811F8139850E947A180E94B70DC5
:100730000E94990DECCFDC0189E992E011969C931F
:100740008E9321E012962C93129714961C921E926F
:10075000139767EB76E116967C936E931597FD01E0
:10076000379683E992E018969C938E93179712829E
:10077000B483A38387E59DE096838583AD01425FC3
:100780005F4F8CE892E01F969C938E931E97FA0120
:100790002283B483A383768365839D012B5E3F4FC1
:1007A00088E892E056969C938E935597F9011282B1
:1007B0005483438376836583FD017C968FE792E0C3
:1007C0005D969C938E935C9712823483238383E798
:1007D0009DE096838583FD01B39688E792E0949629
:1007E0009C938E93939712825483438389EF9CE06A
:1007F00096838583FD01BA968FE692E09B969C9343
:100800008E939A9712825483438383ED9CE0968360
:100810008583FD01F19688E692E0D2969C938E93B3
:10082000D1971282548343838EED95E0968385831E
:10083000FD01F89682E692E0D9969C938E93D89724
:100840001282B483A38384E99CE096838583FD01AF
:10085000FF968BE592E0918380831282B483A38319
:1008600085EA95E0968385839D012A5B3F4F87E566
:1008700092E0F901918380831282B483A38376830B
:100880006583FD01E35BFF4F80E592E09183808308
:100890001282348323838DE798E096838583FD015C
:1008A000EC5AFF4F85E492E0918380831282348377
:1008B000238380E497E096838583FD01E55AFF4F0B
:1008C0008BE392E0918380831282348323838DEFC4
:1008D00096E096838583FD01EE59FF4F81E392E018
:1008E0009183808312823483238384E396E096830A
:1008F0008583FD01E759FF4F85E292E09183808374
:100900001282348323838BEB97E096838583FD01EA
:10091000E059FF4F8DE092E091838083128234830F
:1009200023838AEB96E096838583FD01E958FF4F88
:1009300087EF91E09183808312823483238387E75A
:1009400096E096838583FD01E258FF4F8FED91E09D
:100950009183808312823483238383E897E0968394
:100960008583FD01EB57FF4F85ED91E091838083F7
:1009700012823483238380EC98E096838583FD0183
:10098000E457FF4F89EB91E0918380831282348397
:10099000238381EF95E096838583FD01ED56FF4F1C
:1009A00085EA91E0918380831282348323838EE2EF
:1009B00098E096838583FD01E656FF4F8EE991E02E
:1009C000918380831282B483A3838CE79CE0968317
:1009D00085839D012F553F4F88E991E0F90191836F
:1009E00080831282B483A38376836583FD01E855F7
:1009F000FF4F85E991E091838083128234832383C2
:100A000087E49CE096838583FD01E155FF4F81E9F2
:100A100091E0918380831282348323838DE29CE072
:100A200096838583FD01EA54FF4F8CE891E0918322
:100A3000808312823483238381E69CE096838583BE
:100A4000FD01E354FF4F85E891E09183808312829A
:100A50003483238381EF97E0968385839D012C5314
:100A60003F4F81E891E0F901918380831282B48342
:100A7000A38376836583FD01E553FF4F87E791E00C
:100A80009183808312823483238381E29BE0968367
:100A90008583FD01EE52FF4F8EE691E091838083C6
:100AA0001282348323838BEC9AE096838583FD0145
:100AB000E752FF4F83E691E0918380831282348373
:100AC000238388ED9BE096838583FD01E052FF4FF1
:100AD0008CE491E09183808312823483238385E7C1
:100AE0009AE096838583FD01E951FF4F87E391E00A
:100AF000918380831282348323838FE19AE09683EB
:100B00008583FD01E251FF4F80E291E09183808374
:100B100012823483238387E79BE096838583AB50DF
:100B2000BF4F85E091E011969C938E9312961C9294
:100B3000129714963C932E93139789EC99E016968E
:100B40009C938E93159784E20895DF93CF9300D002
:100B500000D000D0CDB7DEB726960FB6F894DEBF32
:100B60000FBECDBFCF91DF91089560917E0370914C
:100B70007F03809180039091810320E030E040E882
:100B80005FE30E944F1D20917203309173034091E7
:100B90007403509175030E944F1D9B01AC0160E0EE
:100BA00070E080E89FE30E94B71D6093820370931A
:100BB000830380938403909385030895DF93CF93F9
:100BC00000D000D000D0CDB7DEB781E080938E0199
:100BD00026960FB6F894DEBF0FBECDBFCF91DF9142
:100BE0000895DF93CF9300D000D000D0CDB7DEB70B
:100BF00029833A834B835C836D837E838DB79EB755
:100C000008970FB6F8949EBF0FBE8DBFEDB7FEB725
:100C1000319689819A81ADB7BEB712969C938E9317
:100C2000119780E091E09383828380917603909185
:100C30007703A0917803B091790384839583A68389
:100C4000B7830E9495238DB79EB708960FB6F89488
:100C50009EBF0FBE8DBF26960FB6F894DEBF0FBEA7
:100C6000CDBFCF91DF910895DF93CF9300D000D017
:100C700000D0CDB7DEB729833A834B835C836D8385
:100C80007E838DB79EB708970FB6F8949EBF0FBEB0
:100C90008DBFEDB7FEB7319689819A81ADB7BEB7EA
:100CA00012969C938E93119780E091E093838283B8
:100CB0008091820390918303A0918403B091850376
:100CC00084839583A683B7830E9495238DB79EB7AF
:100CD00008960FB6F8949EBF0FBE8DBF26960FB62E
:100CE000F894DEBF0FBECDBFCF91DF910895DF93A3
:100CF000CF9300D000D000D0CDB7DEB729833A83A0
:100D00004B835C836D837E838DB79EB708970FB648
:100D1000F8949EBF0FBE8DBFEDB7FEB731968981A7
:100D20009A81ADB7BEB712969C938E93119780E0CF
:100D300091E09383828380917A0390917B03A091C9
:100D40007C03B0917D0384839583A683B7830E943F
:100D500095238DB79EB708960FB6F8949EBF0FBE29
:100D60008DBF26960FB6F894DEBF0FBECDBFCF91D4
:100D7000DF910895DF93CF9300D000D000D0CDB79E
:100D8000DEB729833A834B835C836D837E838DB783
:100D90009EB708970FB6F8949EBF0FBE8DBFEDB7F4
:100DA000FEB7319689819A81ADB7BEB712969C93F2
:100DB0008E93119780E091E09383828380918B07DB
:100DC00090918C07A0918D07B0918E0784839583B5
:100DD000A683B7830E9495238DB79EB708960FB65A
:100DE000F8949EBF0FBE8DBF26960FB6F894DEBF57
:100DF0000FBECDBFCF91DF910895DF93CF9300D089
:100E000000D000D0CDB7DEB729833A834B835C8313
:100E10006D837E838DB79EB708970FB6F8949EBFFB
:100E20000FBE8DBFEDB7FEB7319689819A81ADB700
:100E3000BEB712969C938E93119780E091E09383B6
:100E400082838091720390917303A0917403B09197
:100E5000750384839583A683B7830E9495238DB7FA
:100E60009EB708960FB6F8949EBF0FBE8DBF26960C
:100E70000FB6F894DEBF0FBECDBFCF91DF910895BE
:100E8000DF93CF9300D000D000D0CDB7DEB7298359
:100E90003A834B835C836D837E838DB79EB70897BF
:100EA0000FB6F8949EBF0FBE8DBFEDB7FEB731965B
:100EB00089819A81ADB7BEB712969C938E93119794
:100EC00080E091E09383828380917E0390917F0301
:100ED000A0918003B091810384839583A683B78317
:100EE0000E9495238DB79EB708960FB6F8949EBFC3
:100EF0000FBE8DBF26960FB6F894DEBF0FBECDBFD6
:100F0000CF91DF910895DF93CF9300D000D000D030
:100F1000CDB7DEB729833A834B835C836D837E83B1
:100F200000D000D000D0EDB7FEB7319689819A810C
:100F3000ADB7BEB712969C938E93119785E091E062
:100F40009383828380915D0390915E039583848374
:100F50000E9495238DB79EB706960FB6F8949EBF54
:100F60000FBE8DBF26960FB6F894DEBF0FBECDBF65
:100F7000CF91DF910895DF93CF9300D000D000D0C0
:100F8000CDB7DEB729833A834B835C836D837E8341
:100F900000D000D000D0EDB7FEB7319689819A819C
:100FA000ADB7BEB712969C938E93119785E091E0F2
:100FB0009383828380918603848315820E94952384
:100FC0008DB79EB706960FB6F8949EBF0FBE8DBF25
:100FD00026960FB6F894DEBF0FBECDBFCF91DF913E
:100FE0000895DF93CF9300D000D000D0CDB7DEB707
:100FF00029833A834B835C836D837E838BB100D0DE
:1010000000D000D0EDB7FEB7319629813A81ADB757
:10101000BEB712963C932E93119725E031E03383AF
:10102000228390E025E0969587952A95E1F78170D7
:101030009070958384830E9495238DB79EB7069602
:101040000FB6F8949EBF0FBE8DBF26960FB6F894CC
:10105000DEBF0FBECDBFCF91DF910895DF93CF9359
:1010600000D000D000D0CDB7DEB729833A834B83C0
:101070005C836D837E838DB79EB70C970FB6F89413
:101080009EBF0FBE8DBFEDB7FEB7319689819A81A5
:10109000ADB7BEB712969C938E9311978AE091E0FC
:1010A000938382838091870790918807A091890715
:1010B000B0918A0784839583A683B7838091510377
:1010C00090915203A0915303B0915403808791876C
:1010D000A287B3870E9495238DB79EB70C960FB653
:1010E000F8949EBF0FBE8DBF26960FB6F894DEBF54
:1010F0000FBECDBFCF91DF910895DF93CF9300D086
:1011000000D000D0CDB7DEB729833A834B835C8310
:101110006D837E838DB79EB708970FB6F8949EBFF8
:101120000FBE8DBFEDB7FEB7319689819A81ADB7FD
:10113000BEB712969C938E93119787E291E09383AA
:1011400082838091870790918807A0918907B09149
:101150008A0784839583A683B7830E9495238DB7DE
:101160009EB708960FB6F8949EBF0FBE8DBF269609
:101170000FB6F894DEBF0FBECDBFCF91DF910895BB
:10118000CF92DF92EF92FF921F93DF93CF9300D025
:1011900000D000D0CDB7DEB729833A834B835C8380
:1011A0006D837E83E980FA8080918E01882319F413
:1011B0002EE231E002C024E331E000D000D000D0C4
:1011C000EDB7FEB73196ADB7BEB71296FC92EE9270
:1011D000119789E391E093838283358324830E946E
:1011E00095232DB73EB72A5F3F4F0FB6F8943EBF09
:1011F0000FBE2DBF8CE491E0B7010E94D32310E015
:101200005DE5C52E51E0D52EE0915603F0E0E10FEB
:10121000F11DEF77F07043E0EE0FFF1F4A95E1F705
:10122000E957FC4F40815181628173811F5F8DB707
:101230009EB708970FB6F8949EBF0FBE8DBFEDB74F
:10124000FEB73196ADB7BEB71296FC92EE921197EB
:10125000D382C28244835583668377830E94952319
:101260002DB73EB7285F3F4F0FB6F8943EBF0FBE75
:101270002DBF103849F683E691E0B7010E94D323D1
:1012800010E0E0915603F0E0E10FF11DEF77F07010
:1012900033E0EE0FFF1F3A95E1F7E557FC4F408131
:1012A0005181628173811F5F8DB79EB708970FB61A
:1012B000F8949EBF0FBE8DBFEDB7FEB73196ADB7A8
:1012C000BEB71296FC92EE921197C282D3824483EB
:1012D0005583668377830E9495232DB73EB7285F99
:1012E0003F4F0FB6F8943EBF0FBE2DBF103849F6E2
:1012F0008BE791E0B7010E94D32326960FB6F894AE
:10130000DEBF0FBECDBFCF91DF911F91FF90EF9059
:10131000DF90CF900895F999FECF8AE793E061E3DB
:1013200070E044E050E00C945924F999FECF86E730
:1013300093E061E470E044E050E00C945924F999A2
:10134000FECF8BE897E061E270E044E050E00C945F
:101350005924F999FECF82E793E061E170E044E01F
:1013600050E00E94592401CCF999FECF8EE793E01A
:1013700061E070E044E050E00E945924F6CBF99916
:10138000FECF8DE593E061E570E042E050E00C9423
:1013900059240F931F93DF93CF93CDB7DEB72C97CC
:1013A0000FB6F894DEBF0FBECDBF8C012F833887F8
:1013B00049875A876B877C87FC0101900020E9F7F9
:1013C0003197E81BF90B719728F50E94C716C801E1
:1013D000BE016F5F7F4F0E94B01F6B837C838D8344
:1013E0009E83F80101900020E9F73197E01BF10B93
:1013F000719780F4F8018081882361F0F999FECF1C
:10140000CE01039661E470E044E050E00E9469245C
:101410008CDF0AC085E593E02F81388549855A85A0
:101420006B857C850E9479162C960FB6F894DEBFEA
:101430000FBECDBFCF91DF911F910F9108950F93F4
:101440001F93DF93CF93CDB7DEB72C970FB6F894E9
:10145000DEBF0FBECDBF8C012F83388749875A87E7
:101460006B877C87FC0101900020E9F73197E81B2E
:10147000F90B719728F50E94C716C801BE016F5F6E
:101480007F4F0E94B01F6B837C838D839E83F80106
:1014900001900020E9F73197E01BF10B719780F480
:1014A000F8018081882361F0F999FECFCE0103967F
:1014B00061E370E044E050E00E9469242CDF0AC040
:1014C00085E593E02F81388549855A856B857C8534
:1014D0000E9479162C960FB6F894DEBF0FBECDBFD2
:1014E000CF91DF911F910F9108950F931F93DF9379
:1014F000CF93CDB7DEB72C970FB6F894DEBF0FBEF3
:10150000CDBF8C012F83388749875A876B877C87AB
:10151000FC0101900020E9F73197E81BF90B719766
:1015200028F50E94C716C801BE016F5F7F4F0E9459
:10153000B01F6B837C838D839E83F8010190002014
:10154000E9F73197E01BF10B719780F4F801808186
:10155000882361F0F999FECFCE01039661E270E035
:1015600044E050E00E946924EADE0AC085E593E089
:101570002F81388549855A856B857C850E9479162F
:101580002C960FB6F894DEBF0FBECDBFCF91DF9182
:101590001F910F9108950F931F93DF93CF93CDB7B2
:1015A000DEB72C970FB6F894DEBF0FBECDBF8C010F
:1015B0002F83388749875A876B877C87FC01019086
:1015C0000020E9F73197E81BF90B719728F50E9485
:1015D000C716C801BE016F5F7F4F0E94B01F6B83AB
:1015E0007C838D839E83F80101900020E9F7319779
:1015F000E01BF10B719780F4F8018081882361F082
:10160000F999FECFCE01039661E170E044E050E02D
:101610000E9469249EDE0AC085E593E02F8138850B
:1016200049855A856B857C850E9479162C960FB664
:10163000F894DEBF0FBECDBFCF91DF911F910F9108
:1016400008950F931F93DF93CF93CDB7DEB72C97F9
:101650000FB6F894DEBF0FBECDBF8C012F83388745
:1016600049875A876B877C87FC0101900020E9F746
:101670003197E81BF90B719728F50E94C716C8012E
:10168000BE016F5F7F4F0E94B01F6B837C838D8391
:101690009E83F80101900020E9F73197E01BF10BE0
:1016A000719780F4F8018081882361F0F999FECF69
:1016B000CE01039661E070E044E050E00E946924AE
:1016C00053DE0AC085E593E02F81388549855A8528
:1016D0006B857C850E9479162C960FB6F894DEBF38
:1016E0000FBECDBFCF91DF911F910F9108950F9342
:1016F0001F93DF93CF93CDB7DEB72A970FB6F89439
:10170000DEBF0FBECDBF8C012D833E834F83588734
:1017100069877A87FC0101900020E9F73197E81B7F
:10172000F90B719728F50E94C716C801BE016F5FBB
:101730007F4F4AE050E00E9406217C836B83F801D2
:1017400001900020E9F73197E01BF10B719780F4CD
:10175000F8018081882361F0F999FECFCE010396CC
:1017600061E570E042E050E00E94692408DE0AC0B2
:1017700085E593E02D813E814F81588569857A8585
:101780000E9479162A960FB6F894DEBF0FBECDBF21
:10179000CF91DF911F910F910895F999FECF86E8BF
:1017A00093E060E070E041E050E00E945924B3C152
:1017B0000F931F93DF93CF93CDB7DEB729970FB663
:1017C000F894DEBF0FBECDBF8C012C833D834E83CA
:1017D0005F8368877987FC0101900020E9F73197E2
:1017E000E81BF90B719720F50E94C716C801BE01CE
:1017F0006E5F7F4F4AE050E00E9406216983F80146
:1018000001900020E9F73197E01BF10B719780F40C
:10181000F8018081882361F0F999FECFCE0101960D
:1018200060E070E041E050E00E946924B6DF0AC049
:1018300085E593E02C813D814E815F8168857985C6
:101840000E94791629960FB6F894DEBF0FBECDBF61
:10185000CF91DF911F910F910895DF93CF9300D027
:1018600000D000D0CDB7DEB729833A834B835C83A9
:101870006D837E831092850180E052D126960FB64B
:10188000F894DEBF0FBECDBFCF91DF910895DF93F7
:10189000CF9300D000D000D0CDB7DEB729833A83F4
:1018A0004B835C836D837E831092850181E038D108
:1018B00026960FB6F894DEBF0FBECDBFCF91DF9155
:1018C0000895DF93CF9300D000D000D0CDB7DEB71E
:1018D00029833A834B835C836D837E8381E080938D
:1018E000850180E01DD126960FB6F894DEBF0FBEAD
:1018F000CDBFCF91DF910895DF93CF9300D000D07B
:1019000000D0CDB7DEB729833A834B835C836D83E8
:101910007E830E94F51526960FB6F894DEBF0FBEA3
:10192000CDBFCF91DF9108950F931F93DF93CF9396
:1019300000D000D000D0CDB7DEB729833A834B83E7
:101940005C836D837E8309811A818EED90E0B801FE
:101950000E94F8168AED90E0B8010E94F8168BEC10
:1019600090E0B8010E94F81687EC90E0B8010E9460
:10197000F81683EB90E0B8010E94F8168FEA90E029
:10198000B8010E94F8168CEA90E0B8010E94F8169F
:1019900026960FB6F894DEBF0FBECDBFCF91DF9174
:1019A0001F910F9108950F931F93DF93CF9300D052
:1019B00000D000D0CDB7DEB729833A834B835C8358
:1019C0006D837E8309811A818DEE90E0B8010E94BB
:1019D000F8168AEE90E0B8010E94F81626960FB627
:1019E000F894DEBF0FBECDBFCF91DF911F910F9155
:1019F00008950F931F93DF93CF9300D000D000D0B2
:101A0000CDB7DEB729833A834B835C836D837E83B6
:101A100009811A81E0916E03F0916F03309731F4E0
:101A200081EF90E0B8010E94F81636C0EE0FFF1F5C
:101A3000E456F84F80819181B8010E94F816809198
:101A4000AD01882301F100D000D000D0EDB7FEB782
:101A50003196ADB7BEB712961C930E93119780E8DE
:101A600091E0938382838DEA91E0958384830E9441
:101A700095231092AD018DB79EB706960FB6F894D8
:101A80009EBF0FBE8DBF80916E0390916F03019733
:101A900090936F0380936E0326960FB6F894DEBF83
:101AA0000FBECDBFCF91DF911F910F910895DF93AE
:101AB000CF9300D000D000D0CDB7DEB729833A83D2
:101AC0004B835C836D837E8369817A8181E091E0C1
:101AD0000E94F81626960FB6F894DEBF0FBECDBF53
:101AE000CF91DF910895DF93CF9300D000D000D045
:101AF000CDB7DEB729833A834B835C836D837E83C6
:101B00000E94B91926960FB6F894DEBF0FBECDBF5E
:101B1000CF91DF910895809186038093D20008953C
:101B2000882319F08BB1806202C08BB18F7D8BB995
:101B3000089580915503882381F080918501882341
:101B400011F081E0EDDF81E08093500310925F039C
:101B500010925C0310925B030895809150038823D8
:101B600029F01092500381E080935F0308956F92F3
:101B70007F928F929F92AF92BF92CF92DF92EF921D
:101B8000FF920F931F93DF93CF9300D0CDB7DEB7B3
:101B900089E26FE470E0AE014F5F5F4F0E94401634
:101BA000898182FF11C18091860190918701A09166
:101BB0008801B091890180938A0190938B01A09351
:101BC0008C01B0938D018091870790918807A09137
:101BD0008907B0918A078093860190938701A0932B
:101BE0008801B093890189E262E670E0AE014E5F40
:101BF0005F4F0E94401689E265E170E047E00E9475
:101C0000611689E268E170E041E00E9461166A8134
:101C100070E080E090E00E941F1E209182033091CE
:101C2000830340918403509185030E94B71D7B017B
:101C30008C0160917E0370917F038091800390916D
:101C40008103209186013091870140918801509154
:101C500089010E94D51E9B01AC01C801B7010E94F9
:101C60004E1D7B018C016091720370917303809112
:101C700074039091750320918A0130918B014091FA
:101C80008C0150918D010E94D51E9B01AC01C801B1
:101C9000B7010E944E1D5B016C0160938707709332
:101CA00088078093890790938A0760915103709108
:101CB0005203809153039091540320917A03309101
:101CC0007B0340917C0350917D030E944E1D7B015C
:101CD0008C0160935103709352038093530390934C
:101CE0005403C601B501A80197010E94D11E181620
:101CF000F4F4C601B501A80197010E944E1D209180
:101D000076033091770340917803509179030E94D4
:101D1000D51E9B01AC01C801B7010E944F1D609305
:101D20005103709352038093530390935403609034
:101D3000510370905203809053039090540310E02D
:101D4000C401B30120918B0730918C0740918D071E
:101D500050918E070E944E1D9B01AC01C601B5013A
:101D60000E94B31D88230CF411E010935503112336
:101D700019F080E090E009C090E080918E01882306
:101D800009F491E081E09827892F80938E018823C0
:101D9000D9F080915603E82FF0E023E0EE0FFF1F0B
:101DA0002A95E1F7DF01A957BC4FAD92BD92CD92C4
:101DB000DC921397E557FC4F608271828282938296
:101DC0008F5F8F77809356030F900F90CF91DF91A5
:101DD0001F910F91FF90EF90DF90CF90BF90AF9049
:101DE0009F908F907F906F9008958091570390916E
:101DF0005803A0915903B0915A030196A11DB11D3A
:101E00008093570390935803A0935903B0935A03B8
:101E100080915F03882349F080915B0390915C037C
:101E2000019690935C0380935B0320915B03309158
:101E30005C0380915D0390915E032817390760F081
:101E400080918501882311F080E06ADE10925F03A3
:101E500010925C0310925B030895DA01923049F00E
:101E6000933061F09130F9F4EEE9F2E022E130E0F4
:101E70001EC0E0EBF2E02EE330E019C0813049F003
:101E8000813018F0823079F408C0EEEEF2E08491EF
:101E900007C0E2EFF2E0849103C0E6E1F3E0849151
:101EA000282F30E004C0E0E0F0E020E030E0ED93E7
:101EB000FC93C90108959C0140919A0750919B079A
:101EC0004617570718F4F90190E043C061157105F2
:101ED00011F0AB01F8CF8091E8008E778093E80095
:101EE00040E050E0F0CF80919307882309F447C089
:101EF000853009F446C08091E80083FD44C080919C
:101F0000E80082FD36C08091E80080FF22C0809109
:101F1000F3009091F200782F60E0292F30E0262B1B
:101F2000372B07C081918093F100415050402F5FC3
:101F30003F4F4115510519F02830310598F390E0D5
:101F40002830310509F491E08091E8008E77809384
:101F5000E8004115510539F6992329F60AC0809108
:101F60009307882361F0853061F08091E80083FD5C
:101F70000AC08091E80082FFF2CF80E0089582E0FD
:101F8000089583E0089581E008959C0140919A07A7
:101F900050919B074617570718F4F90190E044C089
:101FA0006115710511F0AB01F8CF8091E8008E77D3
:101FB0008093E80040E050E0F0CF809193078823C1
:101FC00009F448C0853009F447C08091E80083FDDA
:101FD00045C08091E80082FD37C08091E80080FF15
:101FE00023C08091F3009091F200782F60E0292FB8
:101FF00030E0262B372B08C084918093F100319676
:10200000415050402F5F3F4F4115510519F0283086
:10201000310590F390E02830310509F491E080918A
:10202000E8008E778093E8004115510531F6992339
:1020300021F60AC080919307882361F0853061F012
:102040008091E80083FD0AC08091E80082FFF2CF12
:1020500080E0089582E0089583E0089581E0089586
:10206000382F282F2EC0822F8F708093E9002317DE
:1020700021F4762F942F50E006C07091EC009091DF
:10208000ED005091F00091FF1BC08091EB008E7F1E
:102090008093EB008091ED008D7F8093ED00809127
:1020A000EB0081608093EB007093EC009093ED0067
:1020B0005093F0008091EE0087FD02C080E008950B
:1020C0002F5F273080F23F703093E90081E0089560
:1020D0000F931F93CF93DF93062FEC0110E02AC0DC
:1020E0009881992329F16B81E981FA812C81892FCB
:1020F0008F70873018F5223010F452E001C056E09E
:1021000040E028E030E003C04F5F220F331F2E175E
:102110003F07D0F36295660F660F607C991F992781
:10212000991F692B4295407F452B9ADF882331F018
:102130001F5F25961017A0F281E001C080E0DF91BB
:10214000CF911F910F9108958091940788239CF45B
:1021500004C0809193078823B9F08091E80082FF42
:10216000F8CF8091E8008B778093E8000895809104
:102170009307882349F08091E80080FFF8CF809191
:10218000E8008E778093E80008954091E400509134
:10219000E50024E68091EC0080FF24C08091E800F7
:1021A00080FD1EC080919307882311F482E008957A
:1021B000853011F483E008958091EB0085FF02C023
:1021C00081E008958091E4009091E50084179507DF
:1021D00009F3222311F484E008952150AC01DACFF1
:1021E00080E008958091E80082FFDCCFF9CF6BD0CA
:1021F00072D0E0EEF0E0808181608083A8EDB0E0F5
:102200008C918F778C9319BCE7EDF0E080818E7F05
:1022100080838C918F7E8C93109292070895EF9219
:10222000FF920F931F934FD056D008ED10E0F801A6
:1022300080818F77808380818068808380818F7D9B
:10224000808319BC1092930710928F071092910708
:102250001092900780EEE82EF12CF70180818B7FA1
:102260008083F80180818160808380E060E042E0CB
:10227000F7DEE1EEF0E080818E7F8083E2EEF0E039
:10228000808181608083808188608083F701808184
:102290008E7F8083F8018081806180831F910F9100
:1022A000FF90EF900895E8EDF0E080818F7E8083CD
:1022B000E7EDF0E080818160808384E082BF81E08F
:1022C00080939207ACCFE8EDF0E080818E7F808331
:1022D0001092E20008951092DA001092E100089541
:1022E0001F920F920FB60F9211242F933F934F938B
:1022F0005F936F937F938F939F93AF93BF93EF936E
:10230000FF938091E10082FF0AC08091E20082FF8A
:1023100006C08091E1008B7F8093E1000FD2809115
:10232000DA0080FF1DC08091D80080FF19C0809125
:10233000DA008E7F8093DA008091D90080FF0CC094
:1023400080E189BD82E189BD09B400FEFDCF81E055
:1023500080939307B9D304C019BC10929307B5D3E7
:102360008091E10080FF18C08091E20080FF14C0DE
:102370008091E2008E7F8093E2008091E200806194
:102380008093E2008091D80080628093D80019BCCD
:1023900085E080939307D2D18091E10084FF2FC024
:1023A0008091E20084FF2BC080E189BD82E189BD7C
:1023B00009B400FEFDCF8091D8008F7D8093D800B6
:1023C0008091E1008F7E8093E1008091E2008F7E1A
:1023D0008093E2008091E20081608093E20080912E
:1023E0008F07882311F084E007C08091E30087FD08
:1023F00002C081E001C083E0809393079FD1809168
:10240000E10083FF22C08091E20083FF1EC0809123
:10241000E100877F8093E10082E080939307109230
:102420008F078091E1008E7F8093E1008091E20030
:102430008E7F8093E2008091E20080618093E200D1
:1024400080E060E042E00CDE79D1FF91EF91BF9136
:10245000AF919F918F917F916F915F914F913F913C
:102460002F910F900FBE0F901F9018951F93DF9321
:10247000CF93CDB7DEB7AC970FB6F894DEBF0FBEE3
:10248000CDBFE4E9F7E08091F100819327E0EC39DA
:10249000F207C9F71FD38091E80083FF37C180910D
:1024A000940730919507353009F487C0363040F4F1
:1024B0003130C9F1313070F0333009F027C133C009
:1024C000383009F4F5C0393009F404C1363009F068
:1024D0001DC196C0803821F0823809F017C108C0AC
:1024E0009091900780919107882399F0926011C094
:1024F000809198078F708093E9008091EB0090E0C5
:1025000025E0969587952A95E1F7982F917010927E
:10251000E9008091E800877F8093E8009093F100C4
:102520001092F100D0C0882319F0823009F0EEC07B
:1025300090E08F719070009721F0029709F0E6C04B
:102540000CC080919607813009F0E0C0109291078D
:10255000333069F5809391072AC0809196078823CC
:1025600031F5209198072F7009F4D0C02093E9002D
:102570008091EB0080FF1BC0333021F48091EB0091
:10258000806213C08091EB0080618093EB0081E05A
:1025900090E002C0880F991F2A95E2F78093EA0025
:1025A0001092EA008091EB0088608093EB0010921B
:1025B000E9008091E800877F89C0882309F0A6C0E0
:1025C000109196071F778091E3008078812B80938C
:1025D000E3008091E800877F8093E800B5DD80917B
:1025E000E80080FFFCCF8091E30080688093E300E7
:1025F000112311F482E001C083E08093930786C029
:102600008058823008F082C0809196079091970799
:1026100023E08C3D920709F033C083E08C838AE28B
:102620008B837FB7F894DE0115966EE040E050E0B2
:1026300011E2E62FF0E010935700849140FF03C0B1
:1026400082958F706F5F8F70282F30E08A3018F07E
:10265000C901C79602C0C901C0968D939D934F5F73
:102660005F4F4431510529F77FBF8091E800877F94
:102670008093E800CE0103966AE270E01CDC12C091
:1026800060919807AE014F5F5F4FE7DBBC01009799
:1026900009F43CC08091E800877F8093E80089813D
:1026A0009A8173DC8091E8008B778093E8002EC0DC
:1026B000803861F58091E800877F8093E800809101
:1026C0008F078093F1008091E8008E778093E80077
:1026D0003BDD1CC08823D1F4909196079230B0F472
:1026E0008091E800877F8093E80090938F072CDD2E
:1026F00080918F07882331F48091E30087FD02C029
:1027000081E001C084E080939307E7D18091E800E5
:1027100083FF0AC08091E800877F8093E800809162
:10272000EB0080628093EB00AC960FB6F894DEBFAE
:102730000FBECDBFCF91DF911F91089508951F93D4
:1027400080919307882371F01091E9008091EC004B
:102750001092E9008091E80083FF01C087DE1F70BE
:102760001093E9001F910895FC0180919307843034
:1027700099F584899589A689B7890097A105B1053E
:1027800059F186818F708093E9008091E80082FF83
:1027900023C04091F3002091F200942F80E030E0BC
:1027A000822B932B892B19F46FEF7FEF04C080915C
:1027B000F100682F70E04091F3002091F200942F17
:1027C00080E030E0822B932B892B41F48091E8004C
:1027D0008B778093E80002C06FEF7FEFCB01089505
:1027E000FB012EE0DB011D922A95E9F723E023830C
:1027F00021E834E13187208723E034E133872287E1
:10280000958784870895FC0184859585ADDF9C01BB
:1028100097FF02C02EEF3FEFC90108950895FC0114
:1028200080919307843051F584899589A689B78969
:102830000097A105B10511F181818F708093E900A6
:102840004091F3002091F200942F80E030E0822B41
:10285000932B892BA9F09091E8008091E8008E7766
:102860008093E80095FD0CC090DC982F882349F4F4
:102870008091E8008E778093E80003C092E001C069
:1028800090E0892F0895FC0180919307843091F4A2
:1028900084899589A689B7890097A105B10551F06A
:1028A00081818F708093E9008091E80080FF02C0F1
:1028B000CF01B5CF08951F93FC01162F8091930788
:1028C0008430E1F484899589A689B7890097A105A8
:1028D000B105A1F081818F708093E9008091E800BB
:1028E00085FD08C08091E8008E778093E8004DDC7C
:1028F000882329F41093F10080E001C082E01F9149
:102900000895282FFB0184859585622FD4DF8823C5
:1029100019F420E030E002C02FEF3FEFC901089525
:10292000CF93DF93EC014096FC018BE0DF011D9219
:102930008A95E9F782E08C83898783E08E87CE01D0
:10294000019661E0C5DB882371F0CE01069661E057
:10295000BFDB882341F0CE010B9661E0B9DB882311
:1029600019F081E001C080E0DF91CF910895CF930D
:10297000DF93EC018091E80083FFA3C0888190E0A1
:1029800020919807309199072817390709F099C0C5
:1029900080919507813269F0823220F4803209F00B
:1029A00090C03CC0823209F46BC0833209F089C008
:1029B0007AC080919407813A09F083C08091E80041
:1029C000877F8093E8008091E80080FFFCCF8C89AE
:1029D0009D89AE89BF898093F100292F3A2F4B2F13
:1029E00055272093F1009D01442755272093F1009E
:1029F0008B2F9927AA27BB278093F100888D80937E
:102A0000F100898D8093F1008A8D8093F10080918F
:102A1000E8008E778093E80097DB53C0809194079D
:102A2000813209F04EC08091E800877F8093E800F2
:102A300005C080919307882309F443C08091E80082
:102A400082FFF7CF8091F1009091F1002091F10089
:102A50003091F1008C8B9D8B2E8B3F8B8091F10000
:102A6000888F8091F100898F8091F1008A8F809109
:102A7000E8008B778093E80067DBCE01CFDE21C0D2
:102A8000809194078132E9F48091E800877F8093F8
:102A9000E8005ADB8091960790919707998B888B75
:102AA000CE01BCDE0EC080919407813251F480913A
:102AB000E800877F8093E80047DBCE0160919607AE
:102AC000ADDEDF91CF910895089508958FE891E0EC
:102AD000DADE35CE8FE891E04ACF8FE891E020CF63
:102AE0008FE891E060E673E07BCEECEBF0E0808174
:102AF0008B7F808308950F931F938C01F6DF809165
:102B000064008F7780936400F80186858093B80015
:102B10008785813059F0813028F0823089F0833008
:102B2000E1F412C08091B9008E7F1AC08091B90083
:102B300081608093B9008091B9008D7F8093B90046
:102B40008091B9008E7F03C08091B900816080932D
:102B5000B9008091B900826008C08091B90081609D
:102B60008093B9008091B9008D7F8093B9008091E6
:102B7000BC0084608093BC001F910F910895FC01FC
:102B8000A481B5819C918485809589238C93A681AD
:102B9000B7819C918585809589238C93A081B18193
:102BA0008C919485892B8C93A281B3818C9195858E
:102BB000892B8C93CF019FCF84EA8093BC0090E057
:102BC0002AE106C0822F8A95F1F79F5F993221F0A2
:102BD0008091BC0087FFF6CF83E5089584E9809358
:102BE000BC0080E50895FACF08957FDFFCCF809385
:102BF000BB0084E88093BC0090E02AE106C0822FED
:102C00008A95F1F79F5F9832F9F08091BC0087FFB9
:102C1000F6CF8091B90090E0887F9070883291055E
:102C200089F08932910534F48831910559F0809703
:102C300059F408C08034910529F08035910511F0D0
:102C4000C89711F48BE408958EE40895882311F455
:102C500084EC01C084E88093BC0020E030E09AE17D
:102C600008C0892F8A95F1F72F5F3F4F2832310531
:102C700021F08091BC0087FFF4CF8091BB000895C4
:102C8000DF92EF92FF920F931F93182FD62E072FEC
:102C90007A0192DF812F880FAADF802FA8DF8D2D88
:102CA000A6DF8ADF110F812F8160A1DF81E0CEDFF7
:102CB000F701808393DF1F910F91FF90EF90DF90DA
:102CC0000895EF92FF920F931F93182FF62E072F60
:102CD000E42E72DF812F880F8ADF802F88DF8F2D0F
:102CE00086DF8E2D84DF7ADF1F910F91FF90EF90AA
:102CF0000895DF93CF9300D000D000D0CDB7DEB7DA
:102D0000E0916E03F0916F03E230F1055CF43196CF
:102D1000F0936F03E0936E03EE0FFF1FE456F84F3E
:102D20009183808326960FB6F894DEBF0FBECDBF89
:102D3000CF91DF910895CF93DF93AC019B01FC010C
:102D40008491FB018083EB01A0E0B0E006C0119606
:102D5000FA01EA0FFB1FE491E88389918823B9F710
:102D6000A20FB31F11961C92DF91CF910895DF93AC
:102D7000CF9300D000D000D0CDB7DEB726960FB6E7
:102D8000F894DEBF0FBECDBFCF91DF910895DF92E3
:102D9000EF92FF920F931F93CF93DF938C01C0E0CC
:102DA000D0E0EE24FF2412C0F801EC0FFD1FD0800C
:102DB0008D2D90E00E940A23892B39F4F801EE0D45
:102DC000FF1DD0820894E11CF11C2196F8010190AE
:102DD0000020E9F73197E01BF10BEC17FD0720F716
:102DE000DF91CF911F910F91FF90EF90DF900895A9
:102DF0000F931F93CF93DF938B01FC01EC01849120
:102E000006C090E0B8010E94A723FE01849121969C
:102E10008823B9F7DF91CF911F910F910895AF9259
:102E2000BF92DF92EF92FF920F931F93CF93DF93A6
:102E30005B01FB0110827C01C0E0D0E013C00D2DCE
:102E400010E0C8010E9412230817190731F4F50198
:102E5000EC0FFD1FD082219602C0F70180830894F9
:102E6000E11CF11CF701D080DD2049F7CA0DDB1D04
:102E70001882DF91CF911F910F91FF90EF90DF901B
:102E8000BF90AF900895AF92BF92CF92DF92EF9232
:102E9000FF920F931F93CF93DF937C016B01EA01A5
:102EA00000E010E0BC2EAD2E888199816FE472E0C5
:102EB00040E050E040DF8FE492E06EEF71E0AFDF82
:102EC0008FE492E0B6010E944B23009739F08EEF19
:102ED00091E0B6010E944B230097C1F4F7014081B5
:102EE00051818B2D9A2D9C01F90123813481241766
:102EF000350729F4F701B082A18281E00EC02115C7
:102F0000310521F0F9018281813079F30F5F1F4F84
:102F100027960432110531F680E0DF91CF911F91A1
:102F20000F91FF90EF90DF90CF90BF90AF900895FA
:102F30002F923F924F925F926F927F928F929F92C9
:102F4000AF92BF92CF92DF92EF92FF920F931F93B7
:102F5000DF93CF93CDB7DEB728970FB6F894DEBFD7
:102F60000FBECDBF2B010B831C832D833E834F836C
:102F700058871A8219826AEA71E00E943D237C0117
:102F80006B807C803CEAA32E31E0B32E80E01E01F2
:102F90000894211C311C7AC0C70160E270E00E94D5
:102FA0004023FC015C018081803221F4108208946E
:102FB000A11CB11CF70101900020E9F73197EE192F
:102FC000FF09E135F10518F086E393E00BC0F50148
:102FD00001900020E9F73197EA19FB09719750F049
:102FE00085E593E02B813C814D815E816F81788501
:102FF00080DE67C08201CC24DD24902E812EF80172
:103000002381348189819A8128173907E1F48081ED
:10301000918161EF72E0A3018EDE81EF92E060EAC0
:1030200072E0FDDE81EF92E0B7010E944B23009732
:1030300039F080EA92E0B7010E944B23009719F41F
:1030400099828A821BC00894C11CD11C095F1F4F42
:10305000F4E2CF16D10489F62DC08CE693E02B81E3
:103060003C814D815E816F81788543DE8DEA91E000
:10307000B70140E550E00E94542323C080E090E077
:103080006AEA71E00E943D237C0181E0E114F104D1
:1030900009F082CF8823A9F0E981FA810580F681C1
:1030A000E02DC5012B813C814D815E816F8178854A
:1030B000099507C0C101B701A201E5DE8823F1F639
:1030C000CCCF28960FB6F894DEBF0FBECDBFCF9100
:1030D000DF911F910F91FF90EF90DF90CF90BF9005
:1030E000AF909F908F907F906F905F904F903F90A8
:1030F0002F9008958F929F92AF92BF92CF92DF92BE
:10310000EF92FF920F931F93DF93CF9300D000D0E5
:1031100000D0CDB7DEB75C016B014A01E982FA82CB
:103120000B831C832D833E83FE2CEA8047C090E0F6
:103130000E9412238B3321F08D3011F08A30B9F4C4
:10314000D6018D919C91181619065CF40F2DF98209
:10315000EA82C501B4011E2D2B813C814D815E8127
:10316000E7DEF5011082D6011D921C9227C088303F
:1031700011F08F3749F4D601ED91FC9111971E168D
:103180001F06E4F431970FC0D601ED91FC91B1E038
:10319000E330FB0774F4EA0DFB1D8083D601ED914B
:1031A000FC9111973196ED93FC93EA0DFB1D108273
:1031B00005C086E893E06F2D7E2D1ADE8FE891E042
:1031C000D3DA97FFB4CF26960FB6F894DEBF0FBEC2
:1031D000CDBFCF91DF911F910F91FF90EF90DF90C6
:1031E000CF90BF90AF909F908F90089589E267E055
:1031F00072E041E066DD89E268E072E041E061DDB5
:1032000089E266E970E040E05CDD89E267E970E050
:103210004DEF57DD89E263EE70E040E052DD89E278
:1032200064EE70E044E04DDD89E265EE70E042E07E
:1032300048DD89E266EE70E041E043DD89E267EE59
:1032400070E043E03EDD89E265EF70E042E039DDA9
:1032500089E269ED70E045E034DD89E26BED70E014
:103260004EEC2FDD89E26CED70E043E02ADD89E26F
:103270006DED70E048EF25DD89E26FE970E040E038
:1032800020DD89E263EA70E04CE31BDD89E267EB55
:1032900070E040E016DD89E26BEB70E04CE311DD9D
:1032A00089E262EB70E049E00CDD89E26AEC70E0F3
:1032B00049E007DD89E268E971E041E002DD89E289
:1032C00060EB71E047E1FDDC89E26DEA71E040E02E
:1032D000F8DC89E26FEF70E045E0F3DC89E260E062
:1032E00071E045E0EEDC89E269E971E045E0E9DCA6
:1032F00089E266EA71E04BE1E4DC89E26CEA71E0C4
:103300004EE3DFDC89E267EA71E04FE1DADC89E273
:1033100060E370E040E0D5DC89E261E170E040E12B
:10332000D0DC89E26AE071E04FEFCBDC89E26FE349
:1033300070E046E4C6DC89E260E470E043E6C1DCAC
:1033400089E26EE370E041E3BCDC89E261E370E0B6
:1033500041E0B7DC89E26EE270E041E0B2DC89E294
:103360006BE170E040E0ADDC89E264E170E044E2F2
:10337000A8CC0E94F710F89480E29EE420E931E0A6
:10338000F9013197F1F70197D9F78AEC9CEAA2E4A9
:10339000BCED8093A4079093A507A093A607B093D4
:1033A000A7072CE088E190E00FB6F894A8958093E9
:1033B00060000FBE20936000FFCFA1E1B0E0E2EE1D
:1033C000F9E197C53C017F876E876A01FC0117828E
:1033D0001682838181FD03C06FEF7FEF5BC39E0187
:1033E0002F5F3F4F398B288BF3012381EE85FF85BB
:1033F00023FD859123FF8191FF87EE87882309F4C0
:1034000046C3853251F4EE85FF8523FD859123FF68
:103410008191FF87EE87853229F490E0B3010E9405
:10342000A723E2CF982F10E0882499241032B0F41B
:103430009B3269F09C3228F4903251F0933271F44F
:103440000BC09D3239F0903349F4116028C01260EE
:10345000146025C0186023C0106121C017FD2AC068
:10346000892F80538A3078F416FF06C0FAE09F9EB9
:10347000902C1124980E13C03AE0839E802C1124C6
:10348000880E10620CC09E3221F416FD00C3106439
:1034900006C09C3611F4106802C0983659F4EE85C7
:1034A000FF8523FD959123FF9191FF87EE87992357
:1034B00009F0BCCF892F8554833020F4812F80619F
:1034C000905E07C0892F8556833008F097C1812F01
:1034D0008F7E86FD02C076E0972E6FE3F62EF822EF
:1034E000953619F4F0E4FF2A07C0963619F420E85F
:1034F000F22A02C091109A94F7FE0AC03BE33915F4
:1035000018F45CE3B52E02C0B92CB39427E009C0CF
:1035100047E0491520F4BB2447E0942EF7CF292D2E
:10352000BB24C60104969D878C87F601608171815A
:1035300082819381AE014F5F5F4F0B2D93D76C015A
:103540000981202E332400FF04C003FD02C01DE2C8
:1035500009C0F1FE02C01BE205C0F2FC02C010E08F
:1035600001C010E2C1018C709070892BB9F1112358
:1035700011F483E001C084E0881510F088240AC0AB
:10358000881AF3FC07C080E290E0B3010E94A723F1
:103590008A94C9F7112329F0812F90E0B3010E948A
:1035A000A72323FE03C00FE913E00EC003EA13E0D4
:1035B0000BC0E114F10409F0805290E0B3010E94C5
:1035C000A7230F5F1F4F05C0EF2CFF24F0E1EF2270
:1035D000FF24F8018491882361F70DC1F7FE12C022
:1035E000BC0C24FE04C08A81813309F4BA941B14F4
:1035F0001CF0BB24B3942DC0F8E0FB1550F538E067
:10360000B32E27C0F6FC25C0892D90E08C159D05B2
:103610004CF02CEFC2162FEFD20624F030E8F32A3C
:1036200001C09A94992049F0E2E0F0E0EC0FFD1F10
:10363000E90DF11D80818033A1F3F7FE0AC0B92C9A
:10364000B394892D90E0C816D90614F0992401C0CE
:103650009C18F7FC03C025E030E009C01C141D04D1
:103660001CF021E030E003C096012F5F3F4F112393
:1036700011F02F5F3F4F992029F0892D90E001969E
:10368000280F391F882D90E02817390714F0882457
:1036900001C0821A4F2C5524C20189709070892B69
:1036A00039F008C080E290E0B3010E94A7238A9419
:1036B0008820C1F7112329F0812F90E0B3010E94E7
:1036C000A72343FE07C008C080E390E0B3010E9437
:1036D000A7238A948820C1F7F7FE46C08601D7FE4B
:1036E00002C000E010E076010894E11CF11CE01A31
:1036F000F10A41E050E04C0F5D1FE40EF51E26017B
:103700004B185108892D90E0AA24BB24A81AB90AA5
:103710005FEF0F3F150729F48EE290E0B3010E949E
:10372000A723C016D10634F0401651061CF4F70149
:10373000808101C080E3015010400894E11CF11C1D
:103740000A151B052CF090E0B3010E94A723E0CFDF
:103750000C151D0539F49A81963318F4953311F43C
:1037600024FE81E390E045C08A81813309F00F7E19
:1037700090E0B301ECD7992091F08EE290E0B30194
:10378000E6D712E0E1E0F0E0EC0FFD1FE10FF11DE4
:103790001F5F808190E0B301DAD79A9499F744FCD7
:1037A00003C085E690E002C085E490E0B301CFD786
:1037B000D7FC05C0C114D10441F404FF06C0D09465
:1037C000C194D108D3948DE201C08BE290E0B301A3
:1037D000BED780E305C08F5F26EF3FEFC20ED31E3A
:1037E0003AE0C316D104BCF790E0B301B0D7C601EC
:1037F000C096B301ACD7CC84DD8446C1933631F09A
:10380000933799F0933509F055C022C0F6018081B5
:1038100089835E010894A11CB11C22E030E0C20E35
:10382000D31E21E0E22EF12C11C0F601A080B18060
:1038300016FD03C06FEF7FEF02C0692D70E022E03C
:1038400030E0C20ED31EC5013ED77C011F7712C0E7
:10385000F601A080B18016FD03C06FEF7FEF02C0BC
:10386000692D70E022E030E0C20ED31EC501FAD609
:103870007C01106813FF06C019C080E290E0B3011C
:1038800066D78A94882D90E0E816F906B0F30EC04A
:10389000F50117FD859117FF81915F0190E0B3015C
:1038A00056D781108A940894E108F108E114F104D4
:1038B00079F7EAC0943611F0993681F517FF08C000
:1038C000F601208131814281538184E090E00AC079
:1038D000F601808191819C01442737FD4095542F4A
:1038E00082E090E0C80ED91E9FE6F92EF12257FF24
:1038F00009C050954095309521953F4F4F4F5F4FF0
:1039000090E8F92ACA01B901AE014F5F5F4F2AE082
:1039100030E071D7E82EE889EE1A40C0953721F4DF
:103920001F7E2AE030E01CC0197F9F3661F090377F
:1039300020F4983509F0ABC00FC0903739F09837B4
:1039400009F0A5C004C028E030E00AC0106114FDF1
:10395000146020E130E004C014FD166020E132E084
:1039600017FF08C0F601608171818281938144E074
:1039700050E008C0F60180819181BC0180E090E0B8
:1039800042E050E0C40ED51EAE014F5F5F4F33D70B
:10399000E82E5889E51A8FE7F82EF122F6FE0BC0C3
:1039A0008EEFF822E91438F4F4FE07C0F2FC05C0EB
:1039B0009FEEF92202C01E2D01C0192DF4FE0DC08C
:1039C000FE01EE0DF11D8081803319F4E9EEFE2237
:1039D00008C01F5FF2FE05C003C08F2D867809F076
:1039E0001F5F0F2DF3FC13C0F0FE0EC0181510F072
:1039F0009E2C0AC09E2C980C911A182D05C080E2AE
:103A000090E0B301A4D61F5F1815C8F304C01815C1
:103A100010F4811A01C0882404FF0EC080E390E0F6
:103A2000B30195D602FF1BC001FD03C088E790E0FB
:103A30000EC088E590E00BC0802F867881F001FFF2
:103A400002C08BE201C080E2F7FC8DE290E0B3019E
:103A50007ED605C080E390E0B30179D69A94E9144C
:103A6000C8F3EA94E1E0F0E0EC0FFD1FEE0DF11D6C
:103A7000808190E0B3016BD6EE2099F705C080E21B
:103A800090E0B30164D68A948820C9F7ADCCF301E5
:103A900066817781CB016196E2E147C25058BB272E
:103AA000AA270ED044C135D130F03AD120F031F4FC
:103AB0009F3F11F41EF42AC10EF4E095E7FB20C1EC
:103AC000E92F46D180F3BA17620773078407950779
:103AD00018F071F49EF55EC10EF4E0950B2EBA2F2E
:103AE000A02D0B01B90190010C01CA01A001112404
:103AF000FF27591B99F0593F50F4503E68F11A16B0
:103B0000F040A22F232F342F4427585FF3CF469540
:103B100037952795A795F0405395C9F77EF41F1662
:103B2000BA0B620B730B840BBAF09150A1F0FF0F2C
:103B3000BB1F661F771F881FC2F70EC0BA0F621F18
:103B4000731F841F48F4879577956795B795F79508
:103B50009E3F08F0B3CF9395880F08F09927EE0F9A
:103B6000979587950895A8D008F481E008950CD022
:103B7000DEC0D6D040F0CDD030F021F45F3F19F058
:103B8000BFC0511108C1C2C0E3D098F39923C9F353
:103B90005523B1F3951B550BBB27AA276217730753
:103BA000840738F09F5F5F4F220F331F441FAA1F07
:103BB000A9F333D00E2E3AF0E0E830D091505040C7
:103BC000E695001CCAF729D0FE2F27D0660F771F75
:103BD000881FBB1F261737074807AB07B0E809F057
:103BE000BB0B802DBF01FF2793585F4F2AF09E3FEC
:103BF000510568F085C0CFC05F3FECF3983EDCF321
:103C0000869577956795B795F7959F5FC9F7880F64
:103C1000911D9695879597F90895E1E0660F771FB6
:103C2000881FBB1F621773078407BA0720F0621B47
:103C3000730B840BBA0BEE1F88F7E0950895E89498
:103C400009C097FB3EF490958095709561957F4FE4
:103C50008F4F9F4F9923A9F0F92F96E9BB27939592
:103C6000F695879577956795B795F111F8CFFAF4A2
:103C7000BB0F11F460FF1BC06F5F7F4F8F4F9F4FD3
:103C800016C0882311F096E911C0772321F09EE831
:103C9000872F762F05C0662371F096E8862F70E097
:103CA00060E02AF09A95660F771F881FDAF7880F71
:103CB0009695879597F90895990F0008550FAA0BC7
:103CC000E0E8FEEF16161706E807F907C0F012162F
:103CD0001306E407F50798F0621B730B840B950B32
:103CE00039F40A2661F0232B242B252B21F4089587
:103CF0000A2609F4A140A6958FEF811D811D089524
:103D000097F99F6780E870E060E008959FEF80EC8E
:103D1000089500240A941616170618060906089531
:103D200000240A9412161306140605060895092E97
:103D30000394000C11F4882352F0BB0F40F4BF2B06
:103D400011F460FF04C06F5F7F4F8F4F9F4F089546
:103D500057FD9058440F551F59F05F3F71F047953C
:103D6000880F97FB991F61F09F3F79F08795089521
:103D7000121613061406551FF2CF4695F1DF08C040
:103D8000161617061806991FF1CF8695710561055D
:103D900008940895E894BB2766277727CB0197F905
:103DA00008958ADF08F48FEF08950BD0C0CFB1DFFC
:103DB00028F0B6DF18F0952309F0A2CFA7CF112481
:103DC000EACFC6DFA0F3959FD1F3950F50E0551FC2
:103DD000629FF001729FBB27F00DB11D639FAA2760
:103DE000F00DB11DAA1F649F6627B00DA11D661FAF
:103DF000829F2227B00DA11D621F739FB00DA11DD0
:103E0000621F839FA00D611D221F749F3327A00D89
:103E1000611D231F849F600D211D822F762F6A2F25
:103E200011249F5750408AF0E1F088234AF0EE0FAA
:103E3000FF1FBB1F661F771F881F91505040A9F7B7
:103E40009E3F510570F05CCFA6CF5F3FECF3983EEC
:103E5000DCF3869577956795B795F795E7959F5F1E
:103E6000C1F7FE2B880F911D9695879597F90895B8
:103E7000629FD001739FF001829FE00DF11D649F4E
:103E8000E00DF11D929FF00D839FF00D749FF00DDA
:103E9000659FF00D9927729FB00DE11DF91F639F7B
:103EA000B00DE11DF91FBD01CF0111240895A1E25C
:103EB0001A2EAA1BBB1BFD010DC0AA1FBB1FEE1FA4
:103EC000FF1FA217B307E407F50720F0A21BB30BEF
:103ED000E40BF50B661F771F881F991F1A9469F76B
:103EE00060957095809590959B01AC01BD01CF01C7
:103EF00008952F923F924F925F926F927F928F928E
:103F00009F92AF92BF92CF92DF92EF92FF920F9368
:103F10001F93CF93DF93CDB7DEB7CA1BDB0B0FB672
:103F2000F894DEBF0FBECDBF09942A88398848882F
:103F30005F846E847D848C849B84AA84B984C884C5
:103F4000DF80EE80FD800C811B81AA81B981CE0FBC
:103F5000D11D0FB6F894DEBF0FBECDBFED010895A1
:103F6000A0E0B0E0E5EBFFE1CACFEC015B01611539
:103F7000710519F0FB0191838083F9908F2D90E0FA
:103F800049D3892BD1F7FDE2FF1621F4F990EE24F5
:103F9000E39405C02BE2F21609F4F990EE248E01A9
:103FA00001501040C80167EA73E043E050E042D39B
:103FB000892BF9F48E010E5F1F4FC8016AEA73E086
:103FC00045E050E037D3892B19F48E01095F1F4F6C
:103FD000A114B10419F0F50111830083E0FC04C0C1
:103FE00070E090E080E813C070E090E080E86FEF50
:103FF00003C1C8016FEA73E043E050E01BD3892B93
:1040000069F4A114B10429F470E090E080EC6FE74A
:10401000F3C02296F501D183C083F6CF882499247A
:1040200040E050E060E070E0EF2DE053EA30A0F5B2
:10403000F2E0EF2A8E2D90E09C0128703070E2FEB5
:1040400006C0232B79F50894811C911C2BC0232BCF
:1040500019F0089481089108DB01CA0112E0880F69
:10406000991FAA1FBB1F1A95D1F7480F591F6A1F26
:104070007B1F440F551F661F771F4E0F511D611D7B
:10408000711D483929E9520729E9620729E17207B8
:1040900048F084E0E82A06C0EE3F31F4E3FC39C082
:1040A00098E0E92AF990C0CFE53311F0E53189F5C0
:1040B00029912D3219F4E0E1EE2A05C02B3219F0D6
:1040C00081E090E003C0299182E090E0E22FE0538C
:1040D000EA3018F0C81BD90B1CC020E030E0FCE02F
:1040E00020383F075CF4C901880F991F880F991F7A
:1040F000280F391F220F331F2E0F311DE991E05376
:10410000EA3068F3E4FE03C0309521953F4F820EFC
:10411000931ECE2CDD24E1FE07C0A114B10421F0D2
:104120002197F501D183C083CB01BA0188DD7B01E2
:104130008C01F3E0CF22DD2423E0C216D10421F468
:1041400017FB109517F9109557016801C801B701C1
:1041500020E030E040E050E006DD882309F448C06C
:1041600097FE0DC026ECE22E23E0F22E909481946F
:1041700091089394C0E2D0E000E010E011C09EED01
:10418000E92E93E0F92EF6CFF7012591359145916F
:104190005491C601B50109DE5B016C018C1A9D0AC0
:1041A0008C169D068CF7D595C7950F5F1F4F06306F
:1041B000110529F08CEF9FEFE80EF91EF1CFC50134
:1041C000D6017C018D018C2D880F8D2D881F8F3F8E
:1041D00049F0C601B50120E030E040E050E0C3DC2A
:1041E000882331F482E290E09093A3078093A207A2
:1041F0007E2D9F2D802F612F272F392F482F562F4F
:10420000B901CA01CDB7DEB7ECE095CE2F923F924F
:104210005F926F927F928F929F92AF92BF92CF9256
:10422000DF92EF92FF920F931F93CF93DF938C0156
:104230001B01EA016115710519F0FB01918380836F
:10424000209749F0CE010297839728F020E030E0D4
:1042500040E050E0F3C0F801A1908F018A2D90E07A
:10426000D9D1892BC1F7FDE2AF1631F4F801A19045
:104270008F015524539407C0FBE2AF1619F4F801DF
:10428000A1908F015524209719F0C031D105C1F4B8
:10429000F0E3AF1679F4F8018081883711F08835A2
:1042A00049F4F801A1800E5F1F4FF2E05F2AC0E1E0
:1042B000D0E006C0209721F480E3A816E9F427C0D7
:1042C000C830D10531F1C930D10524F4C230D1054F
:1042D00031F50CC0CA30D10589F0C031D105F9F4EF
:1042E000C12CD12CE12CB8E0FB2E27C0C12CD12C45
:1042F000E12CA0E4FA2E21C0CAE0D0E0FCECCF2EE5
:10430000FCECDF2EFCECEF2EFCE0FF2E16C0C8E02C
:10431000D0E0C12CD12CE12CE0E1FE2E0EC09E019C
:10432000442737FD4095542F60E070E080E090E82E
:10433000BEDDC901DA016C017D0120E030E040E022
:1043400050E060E03E01882477FC8094982C70ED6A
:10435000B72EBA0CE9E0EB1570F48A2D81548A313E
:1043600018F499ECB92E06C08A2D81568A3148F589
:1043700089EAB82EBA0C8B2D90E08C179D070CF5AE
:104380006F3FD9F0C216D306E406F506A8F0CA01BD
:10439000B901A40193016CDD9B01AC012B0D311D12
:1043A000411D511D2130F0E03F07F0E04F07F0E8DC
:1043B0005F0710F461E001C06FEFF801A1908F0179
:1043C000C6CF2114310481F0662331F00150104032
:1043D000F1011183008308C051FE1AC00250104041
:1043E000F1011183008314C067FF12C050FC05C0A7
:1043F0002FEF3FEF4FEF5FE704C020E030E040E0F9
:1044000050E882E290E09093A3078093A20716C041
:1044100050FE08C050954095309521953F4F4F4F25
:104420005F4F0CC057FF0AC082E290E09093A30751
:104430008093A2072FEF3FEF4FEF5FE7B901CA016B
:10444000DF91CF911F910F91FF90EF90DF90CF9070
:10445000BF90AF909F908F907F906F905F903F90B4
:104460002F900895283008F027E03327DA01990FBC
:10447000311D87FD916000966105710539F4326048
:104480002E5F3D9330E32A95E1F708959F3F30F08A
:1044900080387105610509F03C5F3C5F3D939130C8
:1044A00008F08068911DDF93CF931F930F93FF92C5
:1044B000EF92192F987F9695E92F96959695E90F8B
:1044C000FF27E45CFB4F99273327EE24FF24A70145
:1044D000E70105900894079428F4360FE71EF81EAC
:1044E000491F511D660F771F881F991F0694A1F75A
:1044F0000590079428F4E70EF81E491F561FC11DAA
:10450000770F881F991F661F0694A1F705900794DF
:1045100028F4F80E491F561FC71FD11D880F991F79
:10452000661F771F0694A1F70590079420F4490FA2
:10453000561FC71FD81F990F661F771F881F069425
:10454000A9F784911095177041F0D695C7955795A6
:104550004795F794E7941A95C1F7E2EEF3E0689473
:104560001590159135916591959105907FE2739520
:10457000E118F10A430B560BC90BD009C0F7E10C47
:10458000F11E431F561FC91FD01D7EF4703311F456
:104590008A95E6CFE894015030F0080F0AF400271E
:1045A000021708F4202F2395022F7A3328F079E39D
:1045B0007D932A95E9F710C07D932A9589F6069494
:1045C00097956795379517951794E118F10A430B5E
:1045D000560BC90BD00998F023957E9173957A33C9
:1045E00008F070E37C932013B8F77E9170617D939F
:1045F00030F0839571E37D9370E32A95E1F7112400
:10460000EF90FF900F911F91CF91DF91992787FD38
:1046100090950895911174C1803219F08950855098
:10462000D0F708959111089581568A5108F4805267
:1046300085580895FB01DC014150504088F08D9170
:1046400081341CF08B350CF4805E659161341CF074
:104650006B350CF4605E861B611171F3990B089544
:10466000881BFCCFFC010590615070400110D8F709
:10467000809590958E0F9F1F089540E753E02EC0C0
:10468000FC018191861721F08823D9F79927089595
:104690003197CF010895FB01DC018D9101908019C4
:1046A0000110D9F3990B0895FB01DC0141505040F2
:1046B00048F001900D920020C9F701C01D924150B1
:1046C0005040E0F70895FC016150704001900110E6
:1046D000D8F7809590958E0F9F1F0895FA01A191AC
:1046E000B081009719F41097E1F0CD01DC01CD0104
:1046F0000D90002011F4C00113C0FB012191222371
:1047000019F02015D9F7F3CFFB012191201519F4E9
:104710001E92119606C02223C1F70D900020A1F72A
:10472000D001FA01A193B0830895A0E0B0E0EAE9D6
:10473000F3E2EFCB9E01275F3F4F8D819E816F811A
:104740007885A9010E94DD192096E2E0FECB0F9347
:104750001F93CF93DF938C01EB018B8181FF1BC0F3
:1047600082FF0DC02E813F818C819D8128173907E2
:1047700064F4E881F9810193F983E88306C0E88550
:10478000F985802F0995892B31F48E819F810196BF
:104790009F838E8302C00FEF1FEFC801DF91CF917F
:1047A0001F910F910895EF92FF920F931F93CF9354
:1047B000DF937C018B01DB0113968C9181FD03C09B
:1047C000CFEFDFEF13C0C0E0D0E00BC0D8011896E8
:1047D000ED91FC911997B8010995892B11F0CFEF54
:1047E000DFEFF70181917F01882381F7CE01CDB7FB
:1047F000DEB7E6E0A6CBFA01AA27283051F1203136
:1048000081F1E8946F936E7F6E5F7F4F8F4F9F4F64
:10481000AF4FB1E03ED0B4E03CD0670F781F891FA6
:104820009A1FA11D680F791F8A1F911DA11D6A0F74
:10483000711D811D911DA11D20D009F468943F9127
:104840002AE0269F11243019305D3193DEF6CF0126
:104850000895462F4770405D4193B3E00FD0C9F7EC
:10486000F6CF462F4F70405D4A3318F0495D31FD59
:104870004052419302D0A9F7EACFB4E0A6959795AC
:10488000879577956795BA95C9F700976105710582
:1048900008959B01AC010A2E0694579547953795CC
:1048A0002795BA95C9F7620F731F841F951FA01D26
:1048B0000895DC01CB01FC01F999FECF06C0F2BDE1
:1048C000E1BDF89A319600B40D9241505040B8F7CE
:1048D0000895DC01CB0102C02D9105D0415050401C
:1048E000D8F70895262FF999FECF1FBA92BD81BD42
:1048F00020BD0FB6F894FA9AF99A0FBE0196089562
:0A490000992788270895F894FFCF47
:10490A0025660D0A0025750D0A007B2252414E4785
:10491A0045223A25662C224D415852414E4745229E
:10492A003A25667D0D0A0025666D6D0D0A00466101
:10493A006C73650054727565007B225245434F5271
:10494A0044494E47223A2025732C200022444953D9
:10495A0054414E43455F6D6D223A205B00252E334C
:10496A00662C005D2C20224D41585F444953544126
:10497A004E43455F6D6D223A205B005D7D0D0A0056
:10498A0025730D0A00010000C8420000C842010058
:10499A008340000001044000000182080000010079
:1049AA00000000000000000000003A0000000000C3
:1049BA0000000000000000000000000000000000ED
:1049CA0000000000000000000000000000000000DD
:1049DA0000000000000000000000000000000000CD
:1049EA0000000000000000000000000000000000BD
:1049FA0000000000000000000000000000000000AD
:104A0A00000000000000000000000000000000009C
:104A1A00000000000000000000000000000000008C
:104A2A00000000000000000000000000000000007C
:104A3A00000000000000000000000000000000006C
:104A4A00000000000000000000000000000000005C
:104A5A00000000000000000000000000000000004C
:104A6A00000000000000000000000000000000003C
:104A7A00000000000000000000000000000000002C
:104A8A00000000000000000000000000000000001C
:104A9A00000000000000000000000000000000000C
:104AAA0000000000000000000000000000000000FC
:104ABA0000000000000000000000000000000000EC
:104ACA0000000000000000000000000000000000DC
:104ADA0000000000000000000000000000000000CC
:104AEA0000000000000000000000000000000000BC
:104AFA0000000000000000000000000000000000AC
:104B0A00000000000000000000000000000000009B
:104B1A00000000000000000000000000000000008B
:104B2A00000000000000000000000000000000007B
:104B3A00000000000000000000000000000000006B
:024B4A00000069
:00000001FF
