:10000000E2C1000017C2000015C2000013C20000C8
:1000100011C200000FC200000DC200000BC20000A0
:1000200009C2000007C200000C941B1203C20000AA
:1000300001C20000FFC10000FDC10000FBC10000C3
:10004000F9C10000F7C10000F5C10000F3C10000D4
:10005000F1C10000EFC10000EDC100006CC3000061
:10006000E9C10000E7C10000E5C10000E3C10000F4
:10007000E1C10000DFC10000DDC10000DBC1000004
:10008000D9C10000D7C10000D5C10000D3C1000014
:10009000D1C10000CFC10000CDC10000CBC1000024
:1000A000C9C10000C7C10000C5C100002D313132F7
:1000B0002C50726F6772616D206D6E656D6F6E6929
:1000C0006320746F6F206C6F6E67002D3131322C9E
:1000D000417267756D656E7420746F6F206C6F6E02
:1000E00067002D3131332C426164207061746820C7
:1000F0006F72206865616465723A200057616974A7
:10010000696E672035306D730D0A00537461727427
:10011000696E67206D6561737572656D656E740DCE
:100120000A000D0A00322E32004669726D77617244
:1001300065205265766973696F6E3A2000207C20D5
:1001400000417765736F6D65204661756365740066
:10015000207C2000487970657274726F6E69780037
:100160000D0A00322E32002B302C224E6F20657289
:10017000726F72220D0A00310D0A004441524B0089
:100180004949520053544F5245004155544F004F76
:100190004646004F4E00574154455200504F574578
:1001A00052004155544F004C4153455200434C526C
:1001B000493243004C415345523F004441524B3F6A
:1001C000004949523F00414C533F0052414E474580
:1001D0003F004745540044454255473F002A4944A3
:1001E0004E3F0056455253696F6E3F004552526F65
:1001F000723F0042544C4F61646572005253540088
:1002000053595354656D002A4F50433F004E554C8F
:100210004C004552524F5220636F6D6D616E6420E9
:10022000746F6F206C6F6E670D0A0012011001026F
:100230000000081819F5FF01000102DC0109023E67
:1002400000020100C03209040000010202010005A1
:10025000240010010424020605240600010705827B
:10026000030800FF09040100020A0000000705045A
:10027000024000050705830240000504030904222B
:100280000348007900700065007200540072006F2E
:10029000006E0069007800200049006E0063002EA7
:1002A0000000001E0341007700650073006F006DC1
:1002B0000065002000460061007500630065007461
:1002C0000000006E616E00696E660000407A10F3F7
:1002D0005A00A0724E18090010A5D4E80000E87674
:1002E00048170000E40B54020000CA9A3B000000CB
:1002F000E1F505000080969800000040420F0000E4
:1003000000A08601000000102700000000E80300A4
:100310000000006400000000000A0000000000016E
:1003200000000000002C76D888DC674F0823DFC16E
:10033000DFAE59E1B1B796E5E3E453C63AE6519929
:100340007696E8E6C28426EB898C9B62ED407C6F52
:10035000FCEFBC9C9F40F2BAA56FA5F490055A2A09
:10036000F75C936B6CF9676DC11BFCE0E40D47FE15
:10037000F520E6B500D0ED902E030094357705000A
:1003800080841E080000204E0A000000C80C333391
:1003900033330F986E12831141EF8D2114893BE6A0
:1003A0005516CFFEE6DB18D1844B381BF77C1D9029
:1003B0001DA4BBE424203284725E228100C9F12492
:1003C000ECA1E53D270011241FBECFEFDAE0DEBF30
:1003D000CDBF04B603FE18C0809117029091180299
:1003E000A0911902B0911A028A5C9C4AA244BC4DA9
:1003F00059F41092170210921802109219021092DA
:100400001A02E0E0F8E3099511E0A0E0B1E0EAE9C2
:10041000FDE302C005900D92A23CB107D9F712E0AE
:10042000A2ECB1E001C01D92A731B107E1F792D172
:100430000C94CB1EE5CDA0E3B0E0E1E2F2E00C9439
:10044000401CA8E04E010894811C911CF401BA2FB5
:100450001192BA95E9F729833A834B835C836D83C4
:100460007E838F839887CE010996FC011192AA950D
:10047000E9F7A986BA86CB86DC86ED86FE860F87ED
:10048000188B29813A814B815C812DA73EA74FA70C
:1004900058AB79018A018FEF9FEFA0E0B0E0E8222E
:1004A000F9220A231B231A014424552429853A855D
:1004B0004B855C8529A73AA74BA75CA759016A0120
:1004C000A822B922CA22DB223A0188249924C60133
:1004D000B501A80197010E94771C6DA37EA38FA38D
:1004E00098A7C401B3010E94771C69A37AA38BA3C8
:1004F0009CA3C601B501A20191010E94771C7B015A
:100500008C01C401B3010E94771C5B016C0189A1BD
:100510009AA1ABA1BCA18E0D9F1DA01FB11F89A3E5
:100520009AA3ABA3BCA32DA13EA14FA158A5CA017C
:10053000AA27BB2729A13AA14BA15CA1280F391FEB
:100540004A1F5B1F29A33AA34BA35CA32E153F05AB
:100550004007510740F480E090E0A1E0B0E0A80E31
:10056000B91ECA1EDB1E89A19AA1ABA1BCA19D0127
:10057000442755272A0D3B1D4C1D5D1D2D8F3E8F99
:100580004F8F58A36C01BB24AA248DA19EA1AFA1BB
:10059000B8A5A070B070A80EB91ECA1EDB1EA98E29
:1005A000BA8ECB8EDC8E9A8C8B8C7C8C9E8D6F8DD4
:1005B00078A1FE01719688E0DF011D928A95E9F726
:1005C0002D8B9E8B6F8B788F2D853E854F8558891F
:1005D0006DA57EA58FA598A90E94771C7B018C0133
:1005E0002D813E814F81588569A57AA58BA59CA553
:1005F0000E94771CE60EF71E081F191F6D897E8961
:100600008F89988D6E0D7F1D801F911F6D8B7E8B46
:100610008F8B988FEE892A2D392D482D572D7E2FBF
:100620008F89988DE096E2E10C945C1CEF92FF922A
:100630000F93DF93CF93CDB7DEB760970FB6F894E3
:10064000DEBF0FBECDBFA82F002309F467C07E0117
:100650000894E11CF11C88E0F70111928A95E9F7F2
:1006600029833A834B835C836D837E83AF83988732
:1006700080E2801B4D815E816F817885E82FFF27A6
:10068000E7FDF0951816B4F0DB01CA01BB0F880B2B
:10069000982FDC018D879E87AF87B88B8827992795
:1006A0008E1B9F0B04C075956795579547958A9546
:1006B000D2F728C0202F332727FD3095DB01CA0150
:1006C000022E04C0B595A795979587950A94D2F701
:1006D0008D879E87AF87B88B04C0440F551F661F58
:1006E000771FEA95D2F789819A81AB81BC8104C0DA
:1006F000B695A795979587952A95D2F7482B592BAC
:100700006A2B7B2B49875A876B877C8729853A859B
:100710004B855C856D857E85AF8598898A2F60962F
:100720000FB6F894DEBF0FBECDBFCF91DF910F9112
:10073000FF90EF9008951F920F920FB60F92112421
:100740008F9381E08093C2018F910F900FBE0F9025
:100750001F9018956F927F928F929F92AF92BF9247
:10076000CF92DF92EF92FF920F931F93DF93CF937D
:10077000CDB7DEB7C35DD1400FB6F894DEBF0FBE74
:10078000CDBFFE01E153FF4F1192119211921192D0
:1007900081E091E0DF019C011D9221503040E1F7A2
:1007A0001A82198286EA91E063EC71E00E949B1440
:1007B00080E8809361001092610084B7877F84BFD6
:1007C00085B7806885BF85B7806885BF88E10FB62B
:1007D000F89480936000109260000FBE83E085BDA6
:1007E00080916E00816080936E00559A5D98579A53
:1007F0005F988091C1008A608093C1008091C2009F
:1008000089608093C20080E094E120E931E0F90141
:100810003197F1F70197D9F783EC91E09C838B83B3
:10082000188E89E18F8B81E08E8B82E08D8B89E23F
:1008300090E09C8B8B8B9A8B898B8AE290E0988BD3
:100840008F879E878D878BE290E09C878B879A8726
:1008500089870E94FE110E94ED1778948E01075F30
:100860001F4FC8010E94591699E1E92EF12CEC0E98
:10087000FD1EC70167D01AD32AD30E941518D02EA7
:10088000812E8FEC682E712C6C0E7D1E9E2CCF2C31
:100890005E010894A11CB11C0E94E3172D2DDF827C
:1008A0008886C301B501492D5C2DEB80FC800D814C
:1008B0001E81382DE0D70E94980F0E94F80C0E94EC
:1008C000DA0C0E94BA0CE8CFDF93CF9300D000D0AF
:1008D00000D0CDB7DEB7E091D101F091D201E23086
:1008E000F1055CF43196F093D201E093D101EE0F63
:1008F000FF1FE250FE4F9183808326960FB6F89437
:10090000DEBF0FBECDBFCF91DF910895CF93DF93B0
:10091000AC019B01FC018491FB018083EB01A0E011
:10092000B0E006C01196FA01EA0FFB1FE491E883DC
:1009300089918823B9F7A20FB31F11961C92DF91FA
:10094000CF9108950F931F93DC018DE092E01196F3
:100950009C938E9321E012962C93129714961C92DE
:100960001E92139707E216E016961C930E931597A6
:10097000FD01379687E092E018969C938E93179727
:100980001282B483A38386EB9AE096838583AD01BC
:10099000425F5F4F80E092E01F969C938E931E977C
:1009A000FA012283B483A38367E376E076836583C9
:1009B0009D012B5E3F4F8CEF91E056969C938E935A
:1009C0005597F90112825483438376836583FD0131
:1009D0007C9683EF91E05D969C938E935C97128258
:1009E0003483238383EF98E096838583FD01B39658
:1009F0008CEE91E094969C938E93939712825483FD
:100A000043838AE59AE096838583FD01BA9683EE57
:100A100091E09B969C938E939A9712825483438382
:100A200086E39AE096838583FD01F1968DED91E052
:100A3000D2969C938E93D1971282B483A3838EEF28
:100A400099E096838583FD01F89686ED91E0D9962D
:100A50009C938E93D8971282B483A38382E299E009
:100A6000968385839D01215C3F4F82ED91E0F901E2
:100A7000918380831282B483A38316830583FD014F
:100A8000EA5BFF4F8BEC91E0918380831282348389
:100A900023838BEA98E096838583FD01E35BFF4F18
:100AA00086EC91E09183808312823483238382E7F2
:100AB00098E096838583FD01EC5AFF4F81EC91E02D
:100AC000918380831282348323838BEE96E0968316
:100AD0008583FD01E55AFF4F8BEB91E09183808385
:100AE00012823483238381E297E096838583FD011C
:100AF000EE59FF4F84EB91E091838083128234831F
:100B0000238385EB96E096838583FD01E759FF4FAC
:100B10008DEA91E0918380831282B483A3838AE576
:100B200098E0968385839D0120593F4F87EA91E0A5
:100B3000F901918380831282B483A3831683058392
:100B4000FD01E958FF4F82EA91E091838083128290
:100B50003483238387E496E096838583FD01E258FE
:100B6000FF4F8CE991E09183808312823483238349
:100B700087E398E0968385839D012B573F4F86E955
:100B800091E0F901918380831282B483A383168359
:100B90000583FD01E457FF4F83E991E09183808352
:100BA0001282348323838DE796E096838583FD014B
:100BB000ED56FF4F8FE891E091838083128234835A
:100BC000238383E696E096838583FD01E656FF4FF7
:100BD0008AE891E09183808312823483238387E9BA
:100BE00096E0968385839D012F553F4F84E891E0E1
:100BF000F901918380831282B483A38316830583D2
:100C0000FD01E855FF4F80E891E0918380831282D7
:100C10003483238389EA97E096838583A155BF4F68
:100C20008BE791E011969C938E9312961C921297EB
:100C300014963C932E9313978FEE97E016969C9301
:100C40008E9315978AE190E01F910F910895DF939D
:100C5000CF9300D000D000D0CDB7DEB726960FB628
:100C6000F894DEBF0FBECDBFCF91DF910895DF9323
:100C7000CF9300D000D000D0CDB7DEB726960FB608
:100C8000F894DEBF0FBECDBFCF91DF910895DF9303
:100C9000CF9300D000D000D0CDB7DEB781E08093F5
:100CA0006C0126960FB6F894DEBF0FBECDBFCF9174
:100CB000DF910895882319F08BB1806202C08BB157
:100CC0008F7D8BB90895DF93CF9300D000D000D0F3
:100CD000CDB7DEB729833A834B835C836D837E83F4
:100CE00010926D0180E0E6DF26960FB6F894DEBF25
:100CF0000FBECDBFCF91DF910895DF93CF9300D08A
:100D000000D000D0CDB7DEB729833A834B835C8314
:100D10006D837E8310926D0181E0CCDF26960FB645
:100D2000F894DEBF0FBECDBFCF91DF910895DF9362
:100D3000CF9300D000D000D0CDB7DEB729833A835F
:100D40004B835C836D837E8381E080936D0180E0C3
:100D5000B1DF26960FB6F894DEBF0FBECDBFCF91A0
:100D6000DF9108958091D4010895DF93CF9300D04F
:100D700000D000D0CDB7DEB729833A834B835C83A4
:100D80006D837E832091D20000D000D000D0EDB7DB
:100D9000FEB7319689819A81ADB7BEB712969C9302
:100DA0008E93119780E091E0938382832483158250
:100DB0000E94061E8DB79EB706960FB6F8949EBF8A
:100DC0000FBE8DBF26960FB6F894DEBF0FBECDBF07
:100DD000CF91DF910895DF93CF9300D000D000D062
:100DE000CDB7DEB729833A834B835C836D837E83E3
:100DF00000D000D000D0EDB7FEB7319689819A813E
:100E0000ADB7BEB712969C938E93119780E091E098
:100E1000938382838091D301848315820E94061E6E
:100E20008DB79EB706960FB6F8949EBF0FBE8DBFC6
:100E300026960FB6F894DEBF0FBECDBFCF91DF91DF
:100E40000895DF93CF9300D000D000D0CDB7DEB7A8
:100E500029833A834B835C836D837E8383DF00D059
:100E600000D000D0EDB7FEB7319629813A81ADB7F9
:100E7000BEB712963C932E93119720E031E0338356
:100E80002283848315820E94061E8DB79EB7069624
:100E90000FB6F8949EBF0FBE8DBF26960FB6F8947E
:100EA000DEBF0FBECDBFCF91DF910895F999FECF80
:100EB00086E092E062E070E043E050E00E94A11E14
:100EC00086E092E00E94961C8093D3010895F999E0
:100ED000FECF84E092E060E070E042E050E00E94EB
:100EE000A11E84E092E00E94961C8093D401089594
:100EF000DF92EF92FF920F931F93CF93DF938C01BA
:100F0000C0E0D0E0EE24FF2412C0F801EC0FFD1F7A
:100F1000D0808D2D90E00E948B1D892B39F4F80133
:100F2000EE0DFF1DD0820894E11CF11C2196F80102
:100F300001900020E9F73197E01BF10BEC17FD075A
:100F400020F7DF91CF911F910F91FF90EF90DF90ED
:100F500008950F931F93DF93CF9300D000D000D05C
:100F6000CDB7DEB78C0129833A834B835C836D83D5
:100F70007E83FC0101900020E9F73197E81BF90B13
:100F8000719708F4B5DFF80101900020E9F7319777
:100F9000E01BF10B349778F4F8018081882359F035
:100FA000F999FECFC80162E070E043E050E00E9492
:100FB000B11E7CDF09C08BEC90E029813A814B8126
:100FC0005C816D817E8180DC26960FB6F894DEBF51
:100FD0000FBECDBFCF91DF911F910F9108950F9359
:100FE0001F93DF93CF9300D000D000D0CDB7DEB7F2
:100FF000182F092F29833A834B835C836D837E836B
:10100000A82FB92FFD0101900020E9F73197EA1BC5
:10101000FB0B719708F46CDFA12FB02FFD0101903D
:101020000020E9F73197EA1BFB0B339760F4F9993D
:10103000FECF812F902F60E070E042E050E00E94F0
:10104000B11E45DF09C08BEC90E029813A814B81CC
:101050005C816D817E8138DC26960FB6F894DEBF08
:101060000FBECDBFCF91DF911F910F9108950F93C8
:101070001F93DF93CF9300D000D000D0CDB7DEB761
:101080008C0129833A834B835C836D837E8330DFBD
:1010900010926C01C8010E94961C8093D50126967F
:1010A0000FB6F894DEBF0FBECDBFCF91DF911F9179
:1010B0000F910895DF93CF9300D000D000D0CDB72B
:1010C000DEB729833A834B835C836D837E830E94E2
:1010D000CF1626960FB6F894DEBF0FBECDBFCF91C8
:1010E000DF9108950F931F93DF93CF9300D000D02B
:1010F00000D0CDB7DEB729833A834B835C836D8301
:101100007E8309811A810CD700D000D000D0EDB7C2
:10111000FEB73196ADB7BEB712961C930E931197DA
:1011200020E031E033832283958384830E94061E6E
:101130008DB79EB706960FB6F8949EBF0FBE8DBFB3
:1011400026960FB6F894DEBF0FBECDBFCF91DF91CC
:101150001F910F9108950F931F93DF93CF9300D0AA
:1011600000D000D0CDB7DEB729833A834B835C83B0
:101170006D837E8309811A81ABD6882359F4A1D669
:10118000882321F09ED68823E9F704C0B1D699D6EA
:101190008823E9F7B2D600D000D000D0EDB7FEB773
:1011A0003196ADB7BEB712961C930E93119720E0FF
:1011B00031E033832283848315820E94061E8DB71B
:1011C0009EB706960FB6F8949EBF0FBE8DBF90D601
:1011D00026960FB6F894DEBF0FBECDBFCF91DF913C
:1011E0001F910F910895DF93CF9300D000D000D0CE
:1011F000CDB7DEB729833A834B835C836D837E83CF
:101200000E94F21726960FB6F894DEBF0FBECDBF30
:10121000CF91DF9108950F931F93CF93DF938B01AD
:10122000FC01EC01849106C090E0B8010E94171EF9
:10123000FE01849121968823B9F7DF91CF911F9108
:101240000F9108950F931F93DF93CF9300D000D099
:1012500000D0CDB7DEB729833A834B835C836D839F
:101260007E8309811A8134D600D000D000D0EDB73A
:10127000FEB73196ADB7BEB712961C930E93119779
:1012800025E031E033832283848315820E94061E89
:101290008DB79EB706960FB6F8949EBF0FBE8DBF52
:1012A0008BE091E0B801B7DF23D612D600D000D092
:1012B00000D0EDB7FEB73196ADB7BEB712961C930E
:1012C0000E9311972DE131E03383228384831582BD
:1012D0000E94061E8DB79EB706960FB6F8949EBF65
:1012E0000FBE8DBFEED500D000D000D0EDB7FEB759
:1012F0003196ADB7BEB712961C930E93119729E3A2
:1013000031E033832283848315820E94061E8DB7C9
:101310009EB706960FB6F8949EBF0FBE8DBF8CEF9A
:1013200090E0B80178DF84EF91E020E931E0F90145
:101330003197F1F70197D9F7CBD500D000D000D085
:10134000EDB7FEB73196ADB7BEB712961C930E93AC
:10135000119725E031E033832283848315820E9434
:10136000061E8DB79EB706960FB6F8949EBF0FBEA9
:101370008DBFA7D500D000D000D0EDB7FEB7319615
:10138000ADB7BEB712961C930E93119729E331E0C7
:1013900033832283848315820E94061E8DB79EB7F5
:1013A00006960FB6F8949EBF0FBE8DBFA6D500D08F
:1013B00000D000D0EDB7FEB73196ADB7BEB71296EC
:1013C0001C930E93119728E431E0338322838483A6
:1013D00015820E94061E8DB79EB706960FB6F8942A
:1013E0009EBF0FBE8DBF26960FB6F894DEBF0FBE10
:1013F000CDBFCF91DF911F910F9108950F931F9350
:10140000DF93CF9300D000D000D0CDB7DEB72983D3
:101410003A834B835C836D837E8309811A8184E5E3
:1014200091E0B801F8DE80E591E0B801F4DE81E4F6
:1014300091E0B801F0DE8DE391E0B801ECDE89E2E5
:1014400091E0B801E8DE85E291E0B801E4DE82E2F5
:1014500091E0B801E0DE26960FB6F894DEBF0FBE2D
:10146000CDBFCF91DF911F910F9108950F931F93DF
:10147000DF93CF9300D000D000D0CDB7DEB7298363
:101480003A834B835C836D837E8309811A8183E673
:1014900091E0B801C0DE80E691E0B801BCDE26969E
:1014A0000FB6F894DEBF0FBECDBFCF91DF911F9175
:1014B0000F9108950F931F93DF93CF9300D000D027
:1014C00000D0CDB7DEB729833A834B835C836D832D
:1014D0007E8309811A81E091D101F091D201309788
:1014E00029F487E691E0B80196DE35C0EE0FFF1FC4
:1014F000E250FE4F80819181B8018DDE80915E01C6
:10150000882301F100D000D000D0EDB7FEB73196AE
:10151000ADB7BEB712961C930E93119786E591E076
:10152000938382838EE591E0958384830E94061ED7
:1015300010925E018DB79EB706960FB6F8949EBFC7
:101540000FBE8DBF8091D1019091D20101979093F0
:10155000D2018093D10126960FB6F894DEBF0FBE5C
:10156000CDBFCF91DF911F910F910895DF93CF935E
:1015700000D000D000D0CDB7DEB729833A834B83AB
:101580005C836D837E8369817A8187E791E043DEA6
:1015900026960FB6F894DEBF0FBECDBFCF91DF9178
:1015A0000895AF92BF92DF92EF92FF920F931F9335
:1015B000CF93DF935B01FB0110827C01C0E0D0E0A0
:1015C00013C00D2D10E0C8010E94931D08171907C4
:1015D00031F4F501EC0FFD1FD082219602C0F70116
:1015E00080830894E11CF11CF701D080DD2049F7CD
:1015F000CA0DDB1D1882DF91CF911F910F91FF90D3
:10160000EF90DF90BF90AF900895AF92BF92CF92CE
:10161000DF92EF92FF920F931F93CF93DF937C01A2
:101620006B01EA0100E010E0BC2EAD2E88819981AB
:101630006CE771E040E050E069D98CE791E06EE63C
:1016400071E0AFDF8CE791E0B6010E94B41D009716
:1016500039F08EE691E0B6010E94B41D0097C1F406
:10166000F701408151818B2D9A2D9C01F901238135
:1016700034812417350729F4F701B082A18281E073
:101680000EC02115310521F0F9018281813079F3F5
:101690000F5F1F4F27960A31110531F680E0DF9169
:1016A000CF911F910F91FF90EF90DF90CF90BF905F
:1016B000AF9008952F923F924F925F926F927F92D8
:1016C0008F929F92AF92BF92CF92DF92EF92FF9252
:1016D0000F931F93DF93CF93CDB7DEB728970FB645
:1016E000F894DEBF0FBECDBF2B010B831C832D836F
:1016F0003E834F8358871A8219826BE571E00E94FE
:10170000A61D7C016B807C8080E04DE5A42E41E02D
:10171000B42E1E010894211C311C79C0C70160E25F
:1017200070E00E94A91DFC015C018081803221F4DF
:1017300010820894A11CB11CF70101900020E9F768
:101740003197EE19FF093E9718F08CEA90E00BC034
:10175000F50101900020E9F73197EA19FB0971972B
:1017600050F08BEC90E02B813C814D815E816F814C
:101770007885AAD867C08201CC24DD24902E812EE2
:10178000F8012381348189819A8128173907E1F48E
:101790008081918168E971E0A301B8D888E991E07E
:1017A0006AE871E0FEDE88E991E0B7010E94B41DAD
:1017B000009739F08AE891E0B7010E94B41D0097C4
:1017C00019F499828A821BC00894C11CD11C095F3C
:1017D0001F4FFAE1CF16D10489F62DC082EE90E0BA
:1017E0002B813C814D815E816F8178856DD88EE53E
:1017F00091E0B7014DE050E00E94BD1D23C080E0A4
:1018000090E06BE571E00E94A61D7C0181E0E1148F
:10181000F10409F083CF8823A9F0E981FA810580DA
:10182000F681E02DC5012B813C814D815E816F8168
:101830007885099507C0C101B701A201E6DE8823BA
:10184000F1F6CCCF28960FB6F894DEBF0FBECDBF11
:10185000CF91DF911F910F91FF90EF90DF90CF908C
:10186000BF90AF909F908F907F906F905F904F90C0
:101870003F902F9008958F929F92AF92BF92CF92F8
:10188000DF92EF92FF920F931F93DF93CF9300D0DD
:1018900000D000D0CDB7DEB75C016B014A01E98210
:1018A000FA820B831C832D833E83FE2CEA8047C083
:1018B00090E00E94931D8B3321F08D3011F08A301F
:1018C000B9F4D6018D919C91181619065CF40F2D70
:1018D000F982EA82C501B4011E2D2B813C814D8124
:1018E0005E81E8DEF5011082D6011D921C9227C0B0
:1018F000883011F08F3749F4D601ED91FC911197A2
:101900001E161F06E4F431970FC0D601ED91FC912D
:10191000B1E0E330FB0774F4EA0DFB1D8083D601D0
:10192000ED91FC9111973196ED93FC93EA0DFB1D1F
:10193000108205C082E192E06F2D7E2D6CDC86EA7C
:1019400091E0BDD797FFB4CF26960FB6F894DEBFCF
:101950000FBECDBFCF91DF911F910F91FF90EF9000
:10196000DF90CF90BF90AF909F908F90089580931D
:10197000D2000895809109028823D9F080916C01EA
:10198000882391F0CDD223E0969587952A95E1F7AB
:101990008F3F910521F018F08FEF90E007C000977E
:1019A00029F481E090E002C08091D501E0DF10923F
:1019B000090208958091D701882381F080916D01FB
:1019C000882311F081E076D981E08093D6011092CE
:1019D000EC011092E9011092E80108958091D6017E
:1019E000882329F01092D60181E08093EC010895BC
:1019F0005F926F927F928F929F92AF92BF92CF929F
:101A0000DF92EF92FF920F931F9362D2882309F423
:101A1000AEC19090D301292D30E040E050E060E06D
:101A200070E080E090E0A090D801B090D901C09023
:101A3000DA01D090DB01E090DC01F090DD01009153
:101A4000DE011091DF010E941B02122F032FC42E12
:101A5000A52E862E772E682E592E4FD290E020E0AC
:101A600031E029193109AC01429FC001439F900D1B
:101A7000529F900D1124AA2797FDA095BA2FDC0143
:101A8000992788279C01AD01550F220B322FA90100
:101A9000682F892F9A2FFB2FA22FD22EB22EE62E3F
:101AA000E10EE1E0E61608F0E0E0382F300F71E0DB
:101AB000381708F070E0FE2EF30E61E0F31608F020
:101AC00060E0762B492F4C0DE1E0491708F0E0E08B
:101AD000072F040F61E0041708F060E0E62B5F2F8A
:101AE0005A0D71E05F1708F070E01E2F150F81E0AE
:101AF000151708F080E0782B6A2F680D91E06A17BF
:101B000008F090E0B72FB60F81E0B61708F080E03C
:101B1000982B7D2D770D61E07D1508F060E0A92FF1
:101B2000A70F81E0A71708F080E0682B8B2D860DAA
:101B300071E08B1508F070E0F62FF80F91E0F817C0
:101B400008F090E0E72FE92B250DE20F9701A8019F
:101B50006B2F7A2F8F2F9E2F52F52E2D215081E043
:101B60002E1508F080E0382F3F0D81E03F1508F07A
:101B700080E0482F400F81E0401708F080E0582FA8
:101B8000510F81E0511708F080E0682F6B0F81E062
:101B90006B1708F080E0782F7A0F81E07A1708F051
:101BA00080E08F0F91E08F1708F090E09E0F08E023
:101BB0000E9416032093D8013093D9014093DA0193
:101BC0005093DB016093DC017093DD018093DE01B3
:101BD0009093DF018DD19090D801C090D901D09021
:101BE000DA01E090DB01F090DC011091DD01B091B1
:101BF000DE01A091DF018091E7018A1754F18A1775
:101C0000C1F58091E6018B1720F18B1791F580913A
:101C1000E5018117F0F0811761F58091E4018F15DE
:101C2000C0F08F1531F58091E3018E1590F08E157F
:101C300001F58091E2018D1560F08D15D1F4809150
:101C4000E1018C1530F08C15A1F48091E00189152B
:101C500080F49092E001C092E101D092E201E09222
:101C6000E301F092E4011093E501B093E601A09343
:101C7000E7011092D7018090E0018091E10130915D
:101C8000E2014091E3015091E401B090E501A090A0
:101C9000E601E091E701082F005891E0081708F0ED
:101CA00090E0832F835021E0831708F020E0F92F84
:101CB000F80F91E0F81708F090E0292B842F81505D
:101CC00031E0841708F030E0722F780F91E0781738
:101CD00008F090E0392B852F815021E0851708F01E
:101CE00020E0632F680F91E0681708F090E0292B3F
:101CF0008B2D815031E08B1508F030E0522F580FBA
:101D000091E0581708F090E0392B8A2D815041E07E
:101D10008A1508F040E0232F280F91E0281708F0DB
:101D200090E0842F892BE1508E0FA817E4F08A17DA
:101D300011F5B217C0F02B17F1F41517A0F05117D9
:101D4000D1F4F61680F06F15B1F4E71660F07E1549
:101D500091F4DF1640F0FD1571F4C01620F00C155B
:101D600051F4981440F481E08093D70104C0A9D0C5
:101D7000882309F4BDD08091ED01882309F48CC03B
:101D80008091E0013091E1014091E2015091E30145
:101D90007091E401E091E501F091E6016091E701C5
:101DA000161694F0662309F075C0FF2369F4EE233C
:101DB00059F4772349F4552339F4442329F4332380
:101DC00019F4803108F466C0082F005191E008171B
:101DD00008F090E0832F815021E0831708F020E085
:101DE000192F180F91E0181708F090E0292B842F75
:101DF000815031E0841708F030E0B22FB80F91E045
:101E0000B81708F090E0392B852F815021E0851715
:101E100008F020E0A32FA80F91E0A81708F090E0A9
:101E2000292B872F815031E0871708F030E0522F9F
:101E3000580F91E0581708F090E0392B8E2F815001
:101E400021E08E1708F020E0432F480F91E048175B
:101E500008F090E0292B8F2F815091E08F1708F028
:101E600090E0322F380F21E0381708F020E0922B55
:101E70006150960F0093E0011093E101B093E201ED
:101E8000A093E3015093E4014093E5013093E60110
:101E90009093E7011092ED011F910F91FF90EF9049
:101EA000DF90CF90BF90AF909F908F907F906F907A
:101EB0005F90089589E26EE470E0C9D780958170E3
:101EC000089589E26DE470E0C2D78095817008952D
:101ED00089E26FE470E0BBD790E08770843009F44A
:101EE00091E0892F089589E268E370E041E0EEC750
:101EF00089E268E170E041E0E9C789E265E170E00C
:101F000041E0E4D789E264E670E0A1C789E265E1D7
:101F100070E042E0DBD789E260E570E00C9497174F
:101F2000C9DF8823E9F7DFDFC5DF8823E9F7EECFD4
:101F30008091C2018823D9F11092C20181E080937F
:101F4000ED012091EA013091EB012F5F3F4F30937B
:101F5000EB012093EA018091EC01882349F0809104
:101F6000E8019091E90101969093E9018093E801DD
:101F70002051334140F0B7DF81E080930902109295
:101F8000EB011092EA018091E8019091E901805AF9
:101F9000974068F080916D01882319F080E00E94DD
:101FA0005A061092EC011092E9011092E80108958E
:101FB000DA01923049F0933061F09130F9F4EBE2BC
:101FC000F2E022E130E01EC0EDE3F2E02EE330E08B
:101FD00019C0813049F0813018F0823079F408C09E
:101FE000EBE7F2E0849107C0EFE7F2E0849103C0F1
:101FF000E3EAF2E08491282F30E004C0E0E0F0E072
:1020000020E030E0ED93FC93C90108959C014091DC
:102010001502509116024617570718F4F90190E07F
:1020200043C06115710511F0AB01F8CF8091E80054
:102030008E778093E80040E050E0F0CF80910E0270
:10204000882309F447C0853009F446C08091E80030
:1020500083FD44C08091E80082FD36C08091E80095
:1020600080FF22C08091F3009091F200782F60E011
:10207000292F30E0262B372B07C081918093F10068
:10208000415050402F5F3F4F4115510519F0283006
:10209000310598F390E02830310509F491E0809102
:1020A000E8008E778093E8004115510539F69923B1
:1020B00029F60AC080910E02882361F0853061F014
:1020C0008091E80083FD0AC08091E80082FFF2CF92
:1020D00080E0089582E0089583E0089581E0089506
:1020E0009C0140911502509116024617570718F4AB
:1020F000F90190E044C06115710511F0AB01F8CF12
:102100008091E8008E778093E80040E050E0F0CFC7
:1021100080910E02882309F448C0853009F447C035
:102120008091E80083FD45C08091E80082FD37C0C2
:102130008091E80080FF23C08091F3009091F2002D
:10214000782F60E0292F30E0262B372B08C08491B0
:102150008093F1003196415050402F5F3F4F411521
:10216000510519F02830310590F390E02830310501
:1021700009F491E08091E8008E778093E8004115A2
:10218000510531F6992321F60AC080910E02882369
:1021900061F0853061F08091E80083FD0AC0809194
:1021A000E80082FFF2CF80E0089582E0089583E0A6
:1021B000089581E00895382F282F2EC0822F8F7028
:1021C0008093E900231721F4762F942F50E006C066
:1021D0007091EC009091ED005091F00091FF1BC0C8
:1021E0008091EB008E7F8093EB008091ED008D7FDE
:1021F0008093ED008091EB0081608093EB00709301
:10220000EC009093ED005093F0008091EE0087FD7C
:1022100002C080E008952F5F273080F23F70309336
:10222000E90081E008950F931F93CF93DF93062F6A
:10223000EC0110E02AC09881992329F16B81E98192
:10224000FA812C81892F8F70873018F5223010F495
:1022500052E001C056E040E028E030E003C04F5FAC
:10226000220F331F2E173F07D0F36295660F660FBC
:10227000607C991F9927991F692B4295407F452BB8
:102280009ADF882331F01F5F25961017A0F281E0B6
:1022900001C080E0DF91CF911F910F91089580914F
:1022A0000F0288239CF404C080910E028823B9F0A9
:1022B0008091E80082FFF8CF8091E8008B778093CF
:1022C000E800089580910E02882349F08091E8008B
:1022D00080FFF8CF8091E8008E778093E800089522
:1022E0004091E4005091E50024E68091EC0080FFED
:1022F00024C08091E80080FD1EC080910E028823DA
:1023000011F482E00895853011F483E008958091FE
:10231000EB0085FF02C081E008958091E400909178
:10232000E5008417950709F3222311F484E008954A
:102330002150AC01DACF80E008958091E80082FF5F
:10234000DCCFF9CF6BD072D0E0EEF0E0808181601D
:102350008083A8EDB0E08C918F778C9319BCE7ED6A
:10236000F0E080818E7F80838C918F7E8C931092A1
:102370000D020895EF92FF920F931F934FD056D006
:1023800008ED10E0F80180818F778083808180687C
:10239000808380818F7D808319BC10920E02109201
:1023A0000A0210920C0210920B0280EEE82EF12C21
:1023B000F70180818B7F8083F80180818160808339
:1023C00080E060E042E0F7DEE1EEF0E080818E7FC9
:1023D0008083E2EEF0E0808181608083808188608C
:1023E0008083F70180818E7F8083F8018081806106
:1023F00080831F910F91FF90EF900895E8EDF0E03A
:1024000080818F7E8083E7EDF0E080818160808332
:1024100084E082BF81E080930D02ACCFE8EDF0E074
:1024200080818E7F80831092E20008951092DA00FE
:102430001092E10008951F920F920FB60F9211248F
:102440002F933F934F935F936F937F938F939F93BC
:10245000AF93BF93EF93FF938091E10082FF0AC097
:102460008091E20082FF06C08091E1008B7F809323
:10247000E1000FD28091DA0080FF1DC08091D8006A
:1024800080FF19C08091DA008E7F8093DA008091FE
:10249000D90080FF0CC080E189BD82E189BD09B40B
:1024A00000FEFDCF81E080930E028BD504C019BCE5
:1024B00010920E0287D58091E10080FF18C08091B4
:1024C000E20080FF14C08091E2008E7F8093E200E2
:1024D0008091E20080618093E2008091D800806268
:1024E0008093D80019BC85E080930E02D2D18091F0
:1024F000E10084FF2FC08091E20084FF2BC080E1C7
:1025000089BD82E189BD09B400FEFDCF8091D8006C
:102510008F7D8093D8008091E1008F7E8093E100D1
:102520008091E2008F7E8093E2008091E2008160E2
:102530008093E20080910A02882311F084E007C0B2
:102540008091E30087FD02C081E001C083E08093B9
:102550000E029FD18091E10083FF22C08091E200B2
:1025600083FF1EC08091E100877F8093E10082E0BD
:1025700080930E0210920A028091E1008E7F809378
:10258000E1008091E2008E7F8093E2008091E20082
:1025900080618093E20080E060E042E00CDE79D16F
:1025A000FF91EF91BF91AF919F918F917F916F912B
:1025B0005F914F913F912F910F900FBE0F901F9001
:1025C00018951F93DF93CF93CDB7DEB7AC970FB6B7
:1025D000F894DEBF0FBECDBFEFE0F2E08091F100D6
:1025E000819322E0E731F207C9F7F1D48091E80046
:1025F00083FF37C180910F0230911002353009F40A
:1026000087C0363040F43130C9F1313070F03330AA
:1026100009F027C133C0383009F4F5C0393009F466
:1026200004C1363009F01DC196C0803821F08238CF
:1026300009F017C108C090910B0280910C02882309
:1026400099F0926011C0809113028F708093E9001D
:102650008091EB0090E025E0969587952A95E1F72B
:10266000982F91701092E9008091E800877F809305
:10267000E8009093F1001092F100D0C0882319F087
:10268000823009F0EEC090E08F719070009721F0D9
:10269000029709F0E6C00CC080911102813009F068
:1026A000E0C010920C02333069F580930C022AC00E
:1026B00080911102882331F5209113022F7009F4C3
:1026C000D0C02093E9008091EB0080FF1BC0333025
:1026D00021F48091EB00806213C08091EB00806157
:1026E0008093EB0081E090E002C0880F991F2A954B
:1026F000E2F78093EA001092EA008091EB00886094
:102700008093EB001092E9008091E800877F89C0F8
:10271000882309F0A6C0109111021F778091E30071
:102720008078812B8093E3008091E800877F8093FD
:10273000E800B5DD8091E80080FFFCCF8091E300E8
:1027400080688093E300112311F482E001C083E0EC
:1027500080930E0286C08058823008F082C080913B
:1027600011029091120223E08C3D920709F033C0D0
:1027700083E08C838AE28B837FB7F894DE01159621
:102780006EE040E050E011E2E62FF0E010935700D9
:10279000849140FF03C082958F706F5F8F70282FE8
:1027A00030E08A3018F0C901C79602C0C901C0964E
:1027B0008D939D934F5F5F4F4431510529F77FBF44
:1027C0008091E800877F8093E800CE0103966AE25B
:1027D00070E01CDC12C060911302AE014F5F5F4FCE
:1027E000E7DBBC01009709F43CC08091E800877FDB
:1027F0008093E80089819A8173DC8091E8008B776F
:102800008093E8002EC0803861F58091E800877FD2
:102810008093E80080910A028093F1008091E800A3
:102820008E778093E8003BDD1CC08823D1F4909123
:1028300011029230B0F48091E800877F8093E80025
:1028400090930A022CDD80910A02882331F4809152
:10285000E30087FD02C081E001C084E080930E02A6
:10286000B9D38091E80083FF0AC08091E800877F98
:102870008093E8008091EB0080628093EB00AC963F
:102880000FB6F894DEBF0FBECDBFCF91DF911F9181
:10289000089508951F9380910E02882371F010917E
:1028A000E9008091EC001092E9008091E80083FF3C
:1028B00001C087DE1F701093E9001F910895FC018D
:1028C00080910E02843099F584899589A689B7890B
:1028D0000097A105B10559F186818F708093E900B9
:1028E0008091E80082FF23C04091F3002091F20024
:1028F000942F80E030E0822B932B892B19F46FEF1B
:102900007FEF04C08091F100682F70E04091F300E8
:102910002091F200942F80E030E0822B932B892BC2
:1029200041F48091E8008B778093E80002C06FEF5C
:102930007FEFCB010895FB012EE0DB011D922A956C
:10294000E9F723E023832CE235E1318720872EEA63
:1029500034E133872287958784870895FC01848535
:102960009585ADDF9C0197FF02C02EEF3FEFC901B7
:1029700008950895FC0180910E02843051F58489F8
:102980009589A689B7890097A105B10511F18181C3
:102990008F708093E9004091F3002091F200942F12
:1029A00080E030E0822B932B892BA9F09091E800F6
:1029B0008091E8008E778093E80095FD0CC090DC54
:1029C000982F882349F48091E8008E778093E8005F
:1029D00003C092E001C090E0892F0895FC0180912E
:1029E0000E02843091F484899589A689B78900976D
:1029F000A105B10551F081818F708093E90080912C
:102A0000E80080FF02C0CF01B5CF08951F93FC01FD
:102A1000162F80910E028430E1F484899589A6896D
:102A2000B7890097A105B105A1F081818F708093CE
:102A3000E9008091E80085FD08C08091E8008E776C
:102A40008093E8004DDC882329F41093F10080E0A6
:102A500001C082E01F910895282FFB018485958590
:102A6000622FD4DF882319F420E030E002C02FEF7A
:102A70003FEFC9010895CF93DF93EC014096FC012D
:102A80008BE0DF011D928A95E9F782E08C838987CC
:102A900083E08E87CE01019661E0C5DB882371F06B
:102AA000CE01069661E0BFDB882341F0CE010B9694
:102AB00061E0B9DB882319F081E001C080E0DF919B
:102AC000CF910895CF93DF93EC018091E80083FFCD
:102AD000A3C0888190E0209113023091140228173E
:102AE000390709F099C080911002813269F0823271
:102AF00020F4803209F090C03CC0823209F46BC0EF
:102B0000833209F089C07AC080910F02813A09F0BE
:102B100083C08091E800877F8093E8008091E8007F
:102B200080FFFCCF8C899D89AE89BF898093F1009D
:102B3000292F3A2F4B2F55272093F1009D01442731
:102B400055272093F1008B2F9927AA27BB27809325
:102B5000F100888D8093F100898D8093F1008A8D3A
:102B60008093F1008091E8008E778093E80097DBF6
:102B700053C080910F02813209F04EC08091E8006D
:102B8000877F8093E80005C080910E02882309F4B6
:102B900043C08091E80082FFF7CF8091F1009091CF
:102BA000F1002091F1003091F1008C8B9D8B2E8BE8
:102BB0003F8B8091F100888F8091F100898F809107
:102BC000F1008A8F8091E8008B778093E80067DBC3
:102BD000CE01CFDE21C080910F028132E9F48091D5
:102BE000E800877F8093E8005ADB80911102909182
:102BF0001202998B888BCE01BCDE0EC080910F0231
:102C0000813251F48091E800877F8093E80047DBB0
:102C1000CE0160911102ADDEDF91CF910895ECEB12
:102C2000F0E080818B7F808308950F931F938C0148
:102C3000F6DF809164008F7780936400F8018685C9
:102C40008093B8008785813059F0813028F0823038
:102C500089F08330E1F412C08091B9008E7F1AC0F0
:102C60008091B90081608093B9008091B9008D7F17
:102C70008093B9008091B9008E7F03C08091B90024
:102C800081608093B9008091B900826008C0809112
:102C9000B90081608093B9008091B9008D7F8093E5
:102CA000B9008091BC0084608093BC001F910F919B
:102CB0000895FC01A481B5819C9184858095892328
:102CC0008C93A681B7819C918585809589238C936F
:102CD000A081B1819C918485809589238C93A28168
:102CE000B3819C918585809589238C93CF019DCF5D
:102CF00084E98093BC0080E508958091B900882321
:102D000011F002D0F5DFF4CFDF92EF92FF920F9334
:102D10001F93CF93DF9300E010E0C0E0D0E094EA8F
:102D2000D92E88ECE82EF12C8091B900882309F483
:102D3000E4DFD092BC0005C0C7010197F1F70F5F37
:102D40001F4F083C11052CF48091BC0087FFF4CF85
:102D500003C0083C110591F08091B90090E0887F94
:102D600090708031910541F08833910519F00897F2
:102D700029F402C08FE305C083E501C08FE3C8ECEE
:102D8000D0E02196C83CD1057CF2DF91CF911F9114
:102D90000F91FF90EF90DF900895AACF08953FDF45
:102DA000FCCF8093BB0084E88093BC0020E030E03F
:102DB00048EC50E008C0CA010197F1F72F5F3F4F80
:102DC000283C3105D1F08091BC0087FFF4CF809181
:102DD000B90090E0887F90708832910561F0893267
:102DE00091051CF4489749F406C08034910519F008
:102DF0008035910511F48BE408958EE408958823BD
:102E000011F084E801C084EC8093BC0020E030E045
:102E100048EC50E008C0CA010197F1F72F5F3F4F1F
:102E2000283C310591F08091BC0087FFF4CF809160
:102E3000B90090E0887F90708035910519F0883551
:102E4000910519F48091BB0008958FEF0895FF92CA
:102E50000F931F93CF93DF93182FF62E072F54DF76
:102E6000833509F5C12FD0E0CC0FDD1F8C2F99DF02
:102E70008B34C9F4802F95DF8B34A9F48F2D91DF2B
:102E80008B3489F435DF40DF833569F49E0121609E
:102E9000822F87DF00E08B3439F401E081E0AFDF7F
:102EA000182F26DF02C000E01FEF8AE18A95F1F7B4
:102EB0008091BC0084FD02C0002309F470DF812FE3
:102EC000DF91CF911F910F91FF900895EF92FF92A4
:102ED0000F931F93182FF62E072FE42E15DF83353F
:102EE000A9F4812F880F5DDF8B3481F4802F59DFA7
:102EF0008B3461F48F2D55DF8B3441F48E2D51DFEF
:102F000010E08B3421F411E0F3DE01C010E08AE11F
:102F10008A95F1F78091BC0084FD02C0112309F469
:102F20003EDF8FEF1F910F91FF90EF900895FF927A
:102F30000F931F93CF93DF93182FF62E072FE4DE06
:102F4000833529F5C12FD0E0CC0FDD1F8C2F29DF71
:102F50008B34E9F4802F25DF8B34C9F48F2D21DFEA
:102F60008B34A9F4C5DED0DE833589F49E0121605F
:102F7000822F17DFFF248B3459F4FF24F39480E071
:102F80003EDF082F81E03BDF182FB2DE03C0FF24B5
:102F90000FEF1FEF8AE18A95F1F78091BC0084FD65
:102FA00002C0FF2009F4FBDE902F80E0212F30E0EB
:102FB000282B392BC901DF91CF911F910F91FF90E1
:102FC00008950895089586EA91E008DD63CC86EAC5
:102FD00091E078CD86EA91E04ECD86EA91E06EEE02
:102FE00071E0A9CCAFD9F89480E29EE420E931E009
:102FF000F9013197F1F70197D9F78AEC9CEAA2E43D
:10300000BCED8093170290931802A0931902B0931D
:103010001A022CE088E190E00FB6F894A89580930E
:1030200060000FBE20936000FFCF89E267E072E08E
:1030300041E04CDF89E268E072E041E047DF89E28D
:1030400066E970E040E042DF89E267E970E04DEF59
:103050003DDF89E263EE70E040E038DF89E264EE54
:1030600070E044E033DF89E265EE70E042E02EDF9D
:1030700089E266EE70E041E029DF89E267EE70E008
:1030800043E024DF89E265EF70E042E01FDF89E280
:1030900069ED70E045E01ADF89E26BED70E04EEC1F
:1030A00015DF89E26CED70E043E010DF89E26DED41
:1030B00070E048EF0BDF89E26FE970E040E006DF87
:1030C00089E263EA70E04CE301DF89E267EB70E0DC
:1030D00040E0FCDE89E26BEB70E04CE3F7DE89E276
:1030E00062EB70E049E0F2DE89E26AEC70E049E010
:1030F000EDDE89E268E971E041E0E8DE89E260EB5B
:1031000071E047E1E3DE89E26DEA71E040E0DEDE96
:1031100089E26FEF70E045E0D9DE89E260E071E0BE
:1031200045E0D4DE89E269E971E045E0CFDE89E27D
:1031300066EA71E04BE1CADE89E26CEA71E04EE3D7
:10314000C5DE89E267EA71E04FE1C0DE89E260E353
:1031500070E040E0BBDE89E261E170E040E1B6DEB4
:1031600089E26AE071E04FEFB1DE89E26FE370E07F
:1031700046E4ACDE89E261E370E040E0A7DE89E28C
:1031800060E470E043E6A2DE89E26EE270E041E0D6
:103190009DDE89E26BE170E040E098DE89E26EE35B
:1031A00070E041E393DE89E264E170E044E28ECEB8
:1031B000A1E1B0E0EDEDF8E163C33C017F876E87EC
:1031C0006A01FC0117821682838181FD03C06FEFC3
:1031D0007FEF52C39E012F5F3F4F398B288BF30146
:1031E0002381EE85FF8523FD859123FF8191FF8754
:1031F000EE87882309F43DC3853251F4EE85FF85BF
:1032000023FD859123FF8191FF87EE87853221F48D
:1032100090E0B3010CD5E3CF982F10E088249924D7
:103220001032B0F49B3269F09C3228F4903251F0A5
:10323000933271F40BC09D3239F0903349F4116030
:1032400028C01260146025C0186023C0106121C01E
:1032500017FD2AC0892F80538A3078F416FF06C0E4
:10326000FAE09F9E902C1124980E13C03AE0839EA2
:10327000802C1124880E10620CC09E3221F416FDA1
:10328000F8C2106406C09C3611F4106802C098366B
:1032900059F4EE85FF8523FD959123FF9191FF87DA
:1032A000EE87992309F0BCCF892F8554833020F411
:1032B000812F8061905E07C0892F8556833008F08A
:1032C0008FC1812F8F7E86FD02C076E0972E6FE33F
:1032D000F62EF822953619F4F0E4FF2A07C0963648
:1032E00019F420E8F22A02C091109A94F7FE0AC05D
:1032F0003BE3391518F45CE3B52E02C0B92CB39446
:1033000027E009C047E0491520F4BB2447E0942E8C
:10331000F7CF292DBB24C60104969D878C87F60123
:103320006081718182819381AE014F5F5F4F0B2D70
:103330001AD36C010981202E332400FF04C003FD41
:1033400002C01DE209C0F1FE02C01BE205C0F2FC92
:1033500002C010E001C010E2C1018C709070892B96
:10336000A1F1112311F483E001C084E0881510F06D
:10337000882409C0881AF3FC06C080E290E0B301FB
:1033800056D48A94D1F7112321F0812F90E0B30114
:103390004ED423FE03C003EC12E00DC007EC12E094
:1033A0000AC0E114F10409F0805290E0B3013FD467
:1033B0000F5F1F4F05C0EF2CFF24F0E1EF22FF2429
:1033C000F8018491882369F708C1F7FE12C0BC0C8C
:1033D00024FE04C08A81813309F4BA941B141CF0C2
:1033E000BB24B3942DC0F8E0FB1550F538E0B32EA4
:1033F00027C0F6FC25C0892D90E08C159D054CF06A
:103400002CEFC2162FEFD20624F030E8F32A01C0C9
:103410009A94992049F0E2E0F0E0EC0FFD1FE90DED
:10342000F11D80818033A1F3F7FE0AC0B92CB3945B
:10343000892D90E0C816D90614F0992401C09C1873
:10344000F7FC03C025E030E009C01C141D041CF08B
:1034500021E030E003C096012F5F3F4F112311F0B0
:103460002F5F3F4F992029F0892D90E00196280F7A
:10347000391F882D90E02817390714F0882401C0DF
:10348000821A4F2C5524C20189709070892B31F01B
:1034900007C080E290E0B301CAD38A948820C9F7BC
:1034A000112321F0812F90E0B301C1D343FE06C068
:1034B00007C080E390E0B301BAD38A948820C9F7AB
:1034C000F7FE44C08601D7FE02C000E010E076019E
:1034D0000894E11CF11CE01AF10A41E050E04C0FA5
:1034E0005D1FE40EF51E26014B185108892D90E052
:1034F000AA24BB24A81AB90A5FEF0F3F150721F4CD
:103500008EE290E0B30193D3C016D10634F040169A
:1035100051061CF4F701808101C080E30150104086
:103520000894E11CF11C0A151B0524F090E0B3017E
:103530007ED3E2CF0C151D0539F49A81963318F429
:10354000953311F424FE81E390E045C08A818133F4
:1035500009F00F7E90E0B3016AD3992091F08EE2DA
:1035600090E0B30164D312E0E1E0F0E0EC0FFD1F66
:10357000E10FF11D1F5F808190E0B30158D39A9451
:1035800099F744FC03C085E690E002C085E490E032
:10359000B3014DD3D7FC05C0C114D10441F404FFDD
:1035A00006C0D094C194D108D3948DE201C08BE2BF
:1035B00090E0B3013CD380E305C08F5F26EF3FEF7F
:1035C000C20ED31E3AE0C316D104BCF790E0B3019B
:1035D0002ED3C601C096B3012AD3CC84DD8446C164
:1035E000933631F0933799F0933509F055C022C0E6
:1035F000F601808189835E010894A11CB11C22E040
:1036000030E0C20ED31E21E0E22EF12C11C0F601F3
:10361000A080B18016FD03C06FEF7FEF02C0692D5F
:1036200070E022E030E0C20ED31EC501B5D27C01AD
:103630001F7712C0F601A080B18016FD03C06FEFA6
:103640007FEF02C0692D70E022E030E0C20ED31E91
:10365000C50171D27C01106813FF06C019C080E259
:1036600090E0B301E4D28A94882D90E0E816F90640
:10367000B0F30EC0F50117FD859117FF81915F0131
:1036800090E0B301D4D281108A940894E108F10843
:10369000E114F10479F7EAC0943611F0993681F516
:1036A00017FF08C0F601208131814281538184E0F7
:1036B00090E00AC0F601808191819C01442737FD8A
:1036C0004095542F82E090E0C80ED91E9FE6F92E57
:1036D000F12257FF09C050954095309521953F4FF5
:1036E0004F4F5F4F90E8F92ACA01B901AE014F5F11
:1036F0005F4F2AE030E0C7D2E82EE889EE1A40C0DA
:10370000953721F41F7E2AE030E01CC0197F9F36D8
:1037100061F0903720F4983509F0ABC00FC09037B6
:1037200039F0983709F0A5C004C028E030E00AC09D
:10373000106114FD146020E130E004C014FD166037
:1037400020E132E017FF08C0F601608171818281BB
:10375000938144E050E008C0F60180819181BC0172
:1037600080E090E042E050E0C40ED51EAE014F5F15
:103770005F4F89D2E82E5889E51A8FE7F82EF1229B
:10378000F6FE0BC08EEFF822E91438F4F4FE07C001
:10379000F2FC05C09FEEF92202C01E2D01C0192DBA
:1037A000F4FE0DC0FE01EE0DF11D8081803319F491
:1037B000E9EEFE2208C01F5FF2FE05C003C08F2D98
:1037C000867809F01F5F0F2DF3FC13C0F0FE0EC0CA
:1037D000181510F09E2C0AC09E2C980C911A182DCA
:1037E00005C080E290E0B30122D21F5F1815C8F334
:1037F00004C0181510F4811A01C0882404FF0EC0FB
:1038000080E390E0B30113D202FF1BC001FD03C0AF
:1038100088E790E00EC088E590E00BC0802F8678A6
:1038200081F001FF02C08BE201C080E2F7FC8DE273
:1038300090E0B301FCD105C080E390E0B301F7D183
:103840009A94E914C8F3EA94E1E0F0E0EC0FFD1F6C
:10385000EE0DF11D808190E0B301E9D1EE2099F7E2
:1038600005C080E290E0B301E2D18A948820C9F7D4
:10387000B6CCF30166817781CB016196E2E11CC091
:103880002F923F924F925F926F927F928F929F9270
:10389000AF92BF92CF92DF92EF92FF920F931F935E
:1038A000CF93DF93CDB7DEB7CA1BDB0B0FB6F8940F
:1038B000DEBF0FBECDBF09942A88398848885F844F
:1038C0006E847D848C849B84AA84B984C884DF80C0
:1038D000EE80FD800C811B81AA81B981CE0FD11DA4
:1038E0000FB6F894DEBF0FBECDBFED010895629F05
:1038F000D001739FF001829FE00DF11D649FE00DE8
:10390000F11D929FF00D839FF00D749FF00D659F48
:10391000F00D9927729FB00DE11DF91F639FB00D47
:10392000E11DF91FBD01CF0111240895FC01882775
:103930009927E89421912032E9F3293010F02E30B4
:10394000C8F32B3239F02D3231F4689403C056D1CC
:10395000820F911D219120532A30C8F31EF49095B7
:1039600081959F4F0895283008F027E03327DA012A
:10397000990F311D87FD916000966105710539F43D
:1039800032602E5F3D9330E32A95E1F708959F3F23
:1039900030F080387105610509F03C5F3C5F3D9374
:1039A000913008F08068911DDF93CF931F930F93A0
:1039B000FF92EF92192F987F9695E92F96959695FD
:1039C000E90FFF27EB5DFC4F99273327EE24FF24F7
:1039D000A701E70105900894079428F4360FE71E25
:1039E000F81E491F511D660F771F881F991F0694E7
:1039F000A1F70590079428F4E70EF81E491F561FFB
:103A0000C11D770F881F991F661F0694A1F70590A7
:103A1000079428F4F80E491F561FC71FD11D880FA1
:103A2000991F661F771F0694A1F70590079420F44D
:103A3000490F561FC71FD81F990F661F771F881F72
:103A40000694A9F784911095177041F0D695C79503
:103A500057954795F794E7941A95C1F7EBECF2E088
:103A600068941590159135916591959105907FE237
:103A70007395E118F10A430B560BC90BD009C0F737
:103A8000E10CF11E431F561FC91FD01D7EF4703379
:103A900011F48A95E6CFE894015030F0080F0AF44B
:103AA0000027021708F4202F2395022F7A3328F0DD
:103AB00079E37D932A95E9F710C07D932A9589F6DD
:103AC000069497956795379517951794E118F10A1D
:103AD000430B560BC90BD00998F023957E91739533
:103AE0007A3308F070E37C932013B8F77E9170610D
:103AF0007D9330F0839571E37D9370E32A95E1F730
:103B00001124EF90FF900F911F91CF91DF91992792
:103B100087FD9095089591113BC1803219F089502D
:103B20008550D0F708959111089581568A5108F46F
:103B3000805285580895FC01059061507040011035
:103B4000D8F7809590958E0F9F1F08954CEF51E008
:103B50002EC0FC018191861721F08823D9F799277F
:103B600008953197CF010895FB01DC018D910190FB
:103B700080190110D9F3990B0895FB01DC01415024
:103B8000504048F001900D920020C9F701C01D92ED
:103B900041505040E0F70895FC01615070400190A1
:103BA0000110D8F7809590958E0F9F1F0895FA0108
:103BB000A191B081009719F41097E1F0CD01DC01DB
:103BC000CD010D90002011F4C00113C0FB01219123
:103BD000222319F02015D9F7F3CFFB0121912015ED
:103BE00019F41E92119606C02223C1F70D900020F1
:103BF000A1F7D001FA01A193B08308957AE0979FCD
:103C0000902D879F802D910D11240895A0E0B0E0A4
:103C1000EBE0FEE145CE9E01275F3F4F8D819E8107
:103C20006F817885A901C4DA2096E2E055CE0F9322
:103C30001F93CF93DF938C01EB018B8181FF1BC01E
:103C400082FF0DC02E813F818C819D81281739070D
:103C500064F4E881F9810193F983E88306C0E8857B
:103C6000F985802F0995892B31F48E819F810196EA
:103C70009F838E8302C00FEF1FEFC801DF91CF91AA
:103C80001F910F910895FA01AA27283051F1203190
:103C900081F1E8946F936E7F6E5F7F4F8F4F9F4FE0
:103CA000AF4FB1E03ED0B4E03CD0670F781F891F22
:103CB0009A1FA11D680F791F8A1F911DA11D6A0FF0
:103CC000711D811D911DA11D20D009F468943F91A3
:103CD0002AE0269F11243019305D3193DEF6CF01A2
:103CE0000895462F4770405D4193B3E00FD0C9F768
:103CF000F6CF462F4F70405D4A3318F0495D31FDD5
:103D00004052419302D0A9F7EACFB4E0A695979527
:103D1000879577956795BA95C9F7009761057105FD
:103D200008959B01AC010A2E069457954795379547
:103D30002795BA95C9F7620F731F841F951FA01DA1
:103D40000895DC01CB01FC01F999FECF06C0F2BD5C
:103D5000E1BDF89A319600B40D9241505040B8F749
:103D60000895DC01CB0102C02D9105D04150504097
:103D7000D8F70895262FF999FECF1FBA92BD81BDBD
:103D800020BD0FB6F894FA9AF99A0FBE01960895DD
:0A3D9000992788270895F894FFCFC3
:103D9A0025640D0A004D6561737572656D656E74F3
:103DAA002072656164793A2025640D0A004D6561C7
:103DBA00737572656D656E74207265616479206EC3
:103DCA006F773A2025640D0A00427573792062697B
:103DDA00743A2025640D0A0052656164696E673A77
:103DEA002025640D0A0025730D0A003A0000000020
:103DFA0000000000000000000000000001010000B7
:103E0A0000000000000000000000000000000000A8
:103E1A000000000000000000000000000000000098
:103E2A000000000000000000000000000000000088
:103E3A000000000000000083400000010440000070
:103E4A0001820800000100000000000000000000DC
:023E5A00000066
:00000001FF
