:100000006DC20000A2C20000A0C200009EC200009B
:100010009CC200009AC2000098C2000096C2000074
:1000200094C2000092C200000C94EA138EC2000039
:100030008CC200008AC2000088C2000086C2000094
:1000400084C2000082C2000080C200007EC20000A4
:100050007CC200007AC2000078C2000077C20000B3
:1000600074C2000072C2000070C200006EC20000C4
:100070006CC200006AC2000068C2000066C20000D4
:1000800064C2000062C2000060C200005EC20000E4
:100090005CC200005AC2000058C2000056C20000F4
:1000A00054C2000052C2000050C200002D31313253
:1000B0002C50726F6772616D206D6E656D6F6E6929
:1000C0006320746F6F206C6F6E67002D3131322C9E
:1000D000417267756D656E7420746F6F206C6F6E02
:1000E00067002D3131332C426164207061746820C7
:1000F0006F72206865616465723A20000D0A0033F2
:100100002E30004669726D7761726520526576699E
:1001100073696F6E3A2000207C2000417765736F11
:100120006D652046617563657400207C2000487908
:1001300070657274726F6E6978000D0A00332E302C
:10014000002B302C224E6F206572726F72220D0AC6
:1001500000310D0A004552524F5220636F6D6D61A0
:100160006E6420746F6F206C6F6E670D0A004D41D6
:10017000585F44495354414E43455F4D4D5F52458E
:100180005345545F524154450057415445525F44D2
:1001900045424F554E43455F54494D454F555400D8
:1001A0004D41585F44495354414E43455F4C45418E
:1001B0004B41474500444554454354494F4E5F54D5
:1001C00048524553484F4C445F4D4D004C415345B8
:1001D00052504F574552004949525F4245544100E1
:1001E0004949525F414C50484100534554005354D3
:1001F0004154453F004155544F004F4646004F4E35
:1002000000574154455200434C5249324300524139
:100210004E47455F414E445F4D415852414E474520
:100220003F004D41585F44495354414E43455F4D53
:100230004D5F52455345545F524154453F00424C37
:1002400041434B424F583F0057415445525F44454C
:10025000424F554E43455F54494D454F55543F001D
:100260004D41585F44495354414E43455F4C4541CD
:100270004B4147453F00444554454354494F4E5F29
:100280005448524553484F4C445F4D4D3F004C41FC
:10029000534552504F5745523F004949525F4741DD
:1002A000494E3F004949525F424554413F00494948
:1002B000525F414C5048413F0052414E47453F003C
:1002C0004745540044454255473F002A49444E3F64
:1002D000005245434F52440056455253696F6E3F9A
:1002E000004552526F723F0042544C4F6164657238
:1002F000005253540053595354656D002A4F5043D4
:100300003F004E554C4C001201100102000008182D
:1003100019F5FF01000102DC0109023E00020100A3
:10032000C03209040000010202010005240010018E
:10033000042402060524060001070582030800FFC5
:1003400009040100020A000000070504024000053C
:1003500007058302400005040309042203480079CD
:1003600000700065007200540072006F006E00693A
:10037000007800200049006E0063002E0000001E7F
:100380000341007700650073006F006D0065002079
:100390000046006100750063006500740000006E97
:1003A000616E00696E6600494E46494E4954594E89
:1003B000414ECDCCCC3D0AD7233C17B7D13877CCB2
:1003C0002B329595E6241FB14F0A00002041000012
:1003D000C84200401C4620BCBE4CCA1B0E5AAEC5CB
:1003E0009D7400407A10F35A00A0724E1809001054
:1003F000A5D4E80000E87648170000E40B5402009A
:1004000000CA9A3B000000E1F505000080969800C4
:10041000000040420F000000A086010000001027ED
:1004200000000000E803000000006400000000007D
:100430000A00000000000100000000002C76D888AF
:10044000DC674F0823DFC1DFAE59E1B1B796E5E3C2
:10045000E453C63AE651997696E8E6C28426EB89DB
:100460008C9B62ED407C6FFCEFBC9C9F40F2BAA578
:100470006FA5F490055A2AF75C936B6CF9676DC110
:100480001BFCE0E40D47FEF520E6B500D0ED902E14
:100490000300943577050080841E080000204E0A72
:1004A000000000C80C333333330F986E12831141B0
:1004B000EF8D2114893BE65516CFFEE6DB18D1847B
:1004C0004B381BF77C1D901DA4BBE42420328472A2
:1004D0005E228100C9F124ECA1E53D2711241FBE55
:1004E000CFEFDAE0DEBFCDBF04B603FE18C08091C7
:1004F000180890911908A0911A08B0911B088A5CFD
:100500009C4AA244BC4D59F4109218081092190844
:1005100010921A0810921B08E0E0F8E3099513E026
:10052000A0E0B1E0EAECF0E502C005900D92A63B38
:10053000B107D9F718E0A6EBB3E001C01D92A831CE
:10054000B107E1F729D00C9463285ACD1F920F927E
:100550000FB60F9211242F933F934F935F936F9396
:100560007F938F939F93AF93BF93EF93FF93F894F1
:100570000E946F117894FF91EF91BF91AF919F917D
:100580008F917F916F915F914F913F912F910F903C
:100590000FBE0F901F9018956F927F928F929F922F
:1005A000AF92BF92CF92DF92EF92FF920F931F9381
:1005B000DF93CF93CDB7DEB7C951D2400FB6F894D1
:1005C000DEBF0FBECDBFFE01EB5EFE4F119211925A
:1005D0001192119281E091E0DF019C011D92215066
:1005E0003040E1F71A82198287E293E066EB73E00C
:1005F0000E946A1680E8809361001092610084B7BF
:10060000877F84BF85B7806885BF85B7806885BFD1
:1006100088E10FB6F89480936000109260000FBEDE
:1006200083E085BD80916E00816080936E00559A55
:100630005D98579A5F988091C1008A608093C1004D
:100640008091C20089608093C20080E094E120E93B
:1006500031E0F9013197F1F70197D9F786EB93E093
:100660009C838B83188E89E18F8B81E08E8B82E057
:100670008D8B89E290E09C8B8B8B9A8B898B8AE2A5
:1006800090E0988B8F879E878D878BE290E09C8788
:100690008B879A8789870E94CD130E94CD19789401
:1006A00029E0E22EF12CEC0EFD1EC7010E94281855
:1006B00099E1C92ED12CCC0EDD1EC6013CD08FD6BF
:1006C000B7D6ABD6B6D29FD6C8D6BDD692D689E21B
:1006D0000E94771C89E249E150E060E070E000E0B0
:1006E00010E020E030E00E940F1B89E20E94E31A34
:1006F000BE2C8F2C85E1682E81E0782E6C0E7D1E3D
:100700009C2CAD2C6E010894C11CD11C0E94C319F5
:100710002B2DBF828886C301B601492D5A2DEB804F
:10072000FC800D811E81382D0E948C0F0E94341098
:100730000E941610EBCF0F931F93DC0182E093E031
:1007400011969C938E9321E012962C9312971496F7
:100750001C921E92139709EE15E016961C930E93A9
:100760001597FD0137968CEF92E018969C938E9327
:1007700017971282B483A38382E09EE096838583D9
:10078000AD01425F5F4F85EF92E01F969C938E9381
:100790001E97FA012283B483A38369EF75E0768301
:1007A00065839D012B5E3F4F81EF92E056969C93AF
:1007B0008E935597F9011282548343837683658320
:1007C000FD017C9688EE92E05D969C938E935C97FB
:1007D0001282348323838BE19DE096838583FD0120
:1007E000B39681EE92E094969C938E9393971282A7
:1007F0005483438386EA9DE096838583FD01BA9600
:1008000088ED92E09B969C938E939A9712825483E4
:10081000438382E89DE096838583FD01F19681ED17
:1008200092E0D2969C938E93D19712825483438305
:1008300082E496E096838583FD01F8968BEC92E046
:10084000D9969C938E93D8971282B483A3838AE41B
:100850009DE096838583FD01FF9684EC92E0918371
:1008600080831282B483A38389E096E09683858394
:100870009D012A5B3F4F80EC92E0F90191838083D8
:100880001282B483A38316830583FD01E35BFF4FCC
:1008900089EB92E09183808312823483238381EEFB
:1008A00098E096838583FD01EC5AFF4F8EEA92E033
:1008B0009183808312823483238384EA97E0968332
:1008C0008583FD01E55AFF4F84EA92E0918380839E
:1008D00012823483238381E697E096838583FD012A
:1008E000EE59FF4F8AE992E091838083128234832C
:1008F000238388E996E096838583FD01E759FF4FBE
:100900008EE892E0918380831282348323838FE187
:1009100098E096838583FD01E059FF4F86E792E0DA
:10092000918380831282348323838EE197E09683C0
:100930008583FD01E958FF4F80E692E09183808333
:100940001282348323838BED96E096838583FD01A9
:10095000E258FF4F88E492E09183808312823483CF
:10096000238387EE97E096838583FD01EB57FF4F46
:100970008EE392E09183808312823483238384E226
:1009800099E096838583FD01E457FF4F82E292E070
:100990009183808312823483238385E596E0968356
:1009A0008583FD01ED56FF4F8EE092E091838083B9
:1009B00012823483238382E998E096838583FD0144
:1009C000E656FF4F87E092E0918380831282B483E2
:1009D000A38383E09DE0968385839D012F553F4F40
:1009E00081E092E0F901918380831282B483A38332
:1009F00016830583FD01E855FF4F8EEF91E091834B
:100A000080831282348323838EEC9CE096838583DB
:100A1000FD01E155FF4F8AEF91E0918380831282BF
:100A20003483238384EB9CE096838583FD01EA5421
:100A3000FF4F85EF91E0918380831282348323837B
:100A400088EE9CE096838583FD01E354FF4F8EEE94
:100A500091E09183808312823483238385E598E03B
:100A6000968385839D012C533F4F8AEE91E0F901D7
:100A7000918380831282B483A38316830583FD014F
:100A8000E553FF4F80EE91E091838083128234839F
:100A9000238389EB9BE096838583FD01EE52FF4F14
:100AA00087ED91E09183808312823483238385E6EE
:100AB0009BE096838583FD01E752FF4F8CEC91E02C
:100AC0009183808312823483238381E69CE0968322
:100AD0008583FD01E052FF4F85EB91E09183808398
:100AE00012823483238381E19BE096838583FD0119
:100AF000E951FF4F80EA91E0918380831282348331
:100B000023838DEB9AE096838583FD01E251FF4FAD
:100B100089E891E0918380831282348323838DE07E
:100B20009CE096838583AB50BF4F8EE691E0119693
:100B30009C938E9312961C92129714963C932E932C
:100B4000139789E69AE016969C938E93159784E204
:100B50001F910F910895DF93CF9300D000D000D064
:100B6000CDB7DEB7E091C403F091C503E230F105E3
:100B70005CF43196F093C503E093C403EE0FFF1FBE
:100B8000EA51FC4F9183808326960FB6F894DEBF1E
:100B90000FBECDBFCF91DF910895CF93DF93AC010E
:100BA0009B01FC018491FB018083EB01A0E0B0E09C
:100BB00006C01196FA01EA0FFB1FE491E8838991C0
:100BC0008823B9F7A20FB31F11961C92DF91CF9122
:100BD0000895DF93CF9300D000D000D0CDB7DEB71B
:100BE00026960FB6F894DEBF0FBECDBFCF91DF9132
:100BF0000895DF93CF9300D000D000D0CDB7DEB7FB
:100C000026960FB6F894DEBF0FBECDBFCF91DF9111
:100C10000895DF93CF9300D000D000D0CDB7DEB7DA
:100C200026960FB6F894DEBF0FBECDBFCF91DF91F1
:100C300008956091F8037091F9038091FA039091FF
:100C4000FB0320E030E040E85FE30E94EF202091CA
:100C5000EC033091ED034091EE035091EF030E94BD
:100C6000EF209B01AC0160E070E080E89FE30E9410
:100C700057216093FC037093FD038093FE039093D0
:100C8000FF030895DF93CF9300D000D000D0CDB7FD
:100C9000DEB781E08093260326960FB6F894DEBF78
:100CA0000FBECDBFCF91DF910895DF93CF9300D0DA
:100CB00000D000D0CDB7DEB729833A834B835C8365
:100CC0006D837E838DB79EB708970FB6F8949EBF4D
:100CD0000FBE8DBFEDB7FEB7319689819A81ADB752
:100CE000BEB712969C938E93119780E091E0938308
:100CF00082838091F0039091F103A091F203B0916F
:100D0000F30384839583A683B7830E9475278DB7E9
:100D10009EB708960FB6F8949EBF0FBE8DBF26965D
:100D20000FB6F894DEBF0FBECDBFCF91DF9108950F
:100D3000DF93CF9300D000D000D0CDB7DEB72983AA
:100D40003A834B835C836D837E838DB79EB7089710
:100D50000FB6F8949EBF0FBE8DBFEDB7FEB73196AC
:100D600089819A81ADB7BEB712969C938E931197E5
:100D700080E091E0938382838091FC039091FD0356
:100D8000A091FE03B091FF0384839583A683B7836C
:100D90000E9475278DB79EB708960FB6F8949EBF30
:100DA0000FBE8DBF26960FB6F894DEBF0FBECDBF27
:100DB000CF91DF910895DF93CF9300D000D000D082
:100DC000CDB7DEB729833A834B835C836D837E8303
:100DD0008DB79EB708970FB6F8949EBF0FBE8DBF14
:100DE000EDB7FEB7319689819A81ADB7BEB712963D
:100DF0009C938E93119780E091E0938382838091FE
:100E0000F4039091F503A091F603B091F703848366
:100E10009583A683B7830E9475278DB79EB70896E2
:100E20000FB6F8949EBF0FBE8DBF26960FB6F894EE
:100E3000DEBF0FBECDBFCF91DF910895DF93CF937B
:100E400000D000D000D0CDB7DEB729833A834B83E2
:100E50005C836D837E838DB79EB708970FB6F89439
:100E60009EBF0FBE8DBFEDB7FEB7319689819A81C7
:100E7000ADB7BEB712969C938E93119780E091E028
:100E8000938382838091050890910608A0910708BA
:100E9000B091080884839583A683B7830E94752741
:100EA0008DB79EB708960FB6F8949EBF0FBE8DBF44
:100EB00026960FB6F894DEBF0FBECDBFCF91DF915F
:100EC0000895DF93CF9300D000D000D0CDB7DEB728
:100ED00029833A834B835C836D837E838DB79EB772
:100EE00008970FB6F8949EBF0FBE8DBFEDB7FEB743
:100EF000319689819A81ADB7BEB712969C938E9335
:100F0000119780E091E0938382838091EC0390912C
:100F1000ED03A091EE03B091EF0384839583A68344
:100F2000B7830E9475278DB79EB708960FB6F894C1
:100F30009EBF0FBE8DBF26960FB6F894DEBF0FBEC4
:100F4000CDBFCF91DF910895DF93CF9300D000D034
:100F500000D0CDB7DEB729833A834B835C836D83A2
:100F60007E838DB79EB708970FB6F8949EBF0FBECD
:100F70008DBFEDB7FEB7319689819A81ADB7BEB707
:100F800012969C938E93119780E091E093838283D5
:100F90008091F8039091F903A091FA03B091FB03BB
:100FA00084839583A683B7830E9475278DB79EB7E8
:100FB00008960FB6F8949EBF0FBE8DBF26960FB64B
:100FC000F894DEBF0FBECDBFCF91DF910895DF93C0
:100FD000CF9300D000D000D0CDB7DEB729833A83BD
:100FE0004B835C836D837E8300D000D000D0EDB74F
:100FF000FEB7319689819A81ADB7BEB712969C93A0
:101000008E93119785E091E0938382838091D3033F
:101010009091D403958384830E9475278DB79EB7E2
:1010200006960FB6F8949EBF0FBE8DBF26960FB6DC
:10103000F894DEBF0FBECDBFCF91DF910895DF934F
:10104000CF9300D000D000D0CDB7DEB729833A834C
:101050004B835C836D837E8300D000D000D0EDB7DE
:10106000FEB7319689819A81ADB7BEB712969C932F
:101070008E93119785E091E09383828380910004A1
:10108000848315820E9475278DB79EB706960FB68A
:10109000F8949EBF0FBE8DBF26960FB6F894DEBFA4
:1010A0000FBECDBFCF91DF910895DF93CF9300D0D6
:1010B00000D000D0CDB7DEB729833A834B835C8361
:1010C0006D837E838BB100D000D000D0EDB7FEB72A
:1010D000319629813A81ADB7BEB712963C932E93D3
:1010E000119725E031E03383228390E035E0969537
:1010F00087953A95E1F781709070958384830E947B
:1011000075278DB79EB706960FB6F8949EBF0FBE93
:101110008DBF26960FB6F894DEBF0FBECDBFCF9120
:10112000DF910895DF93CF9300D000D000D0CDB7EA
:10113000DEB729833A834B835C836D837E838DB7CF
:101140009EB70C970FB6F8949EBF0FBE8DBFEDB73C
:10115000FEB7319689819A81ADB7BEB712969C933E
:101160008E9311978AE091E09383828380910108A6
:1011700090910208A0910308B0910408848395839C
:10118000A683B7838091C7039091C803A091C90338
:10119000B091CA0380879187A287B3870E94752781
:1011A0008DB79EB70C960FB6F8949EBF0FBE8DBF3D
:1011B00026960FB6F894DEBF0FBECDBFCF91DF915C
:1011C0000895DF93CF9300D000D000D0CDB7DEB725
:1011D00029833A834B835C836D837E838DB79EB76F
:1011E00008970FB6F8949EBF0FBE8DBFEDB7FEB740
:1011F000319689819A81ADB7BEB712969C938E9332
:10120000119787E291E09383828380910108909106
:101210000208A0910308B091040884839583A683F3
:10122000B7830E9475278DB79EB708960FB6F894BE
:101230009EBF0FBE8DBF26960FB6F894DEBF0FBEC1
:10124000CDBFCF91DF910895CF92DF92EF92FF92C1
:101250001F93DF93CF9300D000D000D0CDB7DEB77F
:1012600029833A834B835C836D837E83E980FA8094
:1012700080912603882319F42EE231E002C024E392
:1012800031E000D000D000D0EDB7FEB73196ADB759
:10129000BEB71296FC92EE92119789E391E0938388
:1012A0008283358324830E9475272DB73EB72A5F3A
:1012B0003F4F0FB6F8943EBF0FBE2DBF8CE491E0B8
:1012C000B7010E94B32710E06DE5C62E61E0D62E6F
:1012D000E091CC03F0E0E10FF11DEF77F07053E007
:1012E000EE0FFF1F5A95E1F7EF5FFB4F40815181F1
:1012F000628173811F5F8DB79EB708970FB6F89410
:101300009EBF0FBE8DBFEDB7FEB73196ADB7BEB76E
:101310001296FC92EE921197D382C2824483558337
:10132000668377830E9475272DB73EB7285F3F4FAE
:101330000FB6F8943EBF0FBE2DBF103849F683E6B6
:1013400091E0B7010E94B32710E0E091CC03F0E0F8
:10135000E10FF11DEF77F07043E0EE0FFF1F4A95AC
:10136000E1F7EB5FFB4F40815181628173811F5F29
:101370008DB79EB708970FB6F8949EBF0FBE8DBF6E
:10138000EDB7FEB73196ADB7BEB71296FC92EE92AE
:101390001197C282D38244835583668377830E94E8
:1013A00075272DB73EB7285F3F4F0FB6F8943EBF65
:1013B0000FBE2DBF103849F68BE791E0B7010E94B0
:1013C000B32726960FB6F894DEBF0FBECDBFCF91E0
:1013D000DF911F91FF90EF90DF90CF900895F999E2
:1013E000FECF84EF93E061E370E044E050E00C94C2
:1013F0003928F999FECF80EF93E061E470E044E092
:1014000050E00C943928F999FECF85E098E061E22C
:1014100070E044E050E00C943928F999FECF8CEE4E
:1014200093E061E170E044E050E00E94392801CC93
:10143000F999FECF88EF93E061E070E044E050E07E
:101440000E943928F6CBF999FECF83ED93E061E550
:1014500070E042E050E00C943928F999FECF80E02A
:1014600094E060E070E041E050E00E943928D0C58F
:10147000DF92EF92FF920F931F93CF93DF938C0134
:10148000C0E0D0E0EE24FF2412C0F801EC0FFD1FF5
:10149000D0808D2D90E00E94EA26892B39F4F80146
:1014A000EE0DFF1DD0820894E11CF11C2196F8017D
:1014B00001900020E9F73197E01BF10BEC17FD07D5
:1014C00020F7DF91CF911F910F91FF90EF90DF9068
:1014D00008950F931F93DF93CF93CDB7DEB72C976B
:1014E0000FB6F894DEBF0FBECDBF8C012F833887B7
:1014F00049875A876B877C87FC0101900020E9F7B8
:101500003197E81BF90B719720F5B2DFC801BE01D6
:101510006F5F7F4F0E9490236B837C838D839E83BC
:10152000F80101900020E9F73197E01BF10B71976A
:1015300080F4F8018081882361F0F999FECFCE0113
:10154000039661E470E044E050E00E94492851DFD6
:1015500009C08BEC90E02F81388549855A856B85D1
:101560007C85F9DA2C960FB6F894DEBF0FBECDBF9E
:10157000CF91DF911F910F9108950F931F93DF93E8
:10158000CF93CDB7DEB72C970FB6F894DEBF0FBE62
:10159000CDBF8C012F83388749875A876B877C871B
:1015A000FC0101900020E9F73197E81BF90B7197D6
:1015B00020F55EDFC801BE016F5F7F4F0E94902360
:1015C0006B837C838D839E83F80101900020E9F773
:1015D0003197E01BF10B719780F4F801808188232B
:1015E00061F0F999FECFCE01039661E370E044E02B
:1015F00050E00E944928F3DE09C08BEC90E02F8177
:10160000388549855A856B857C85A5DA2C960FB679
:10161000F894DEBF0FBECDBFCF91DF911F910F9128
:1016200008950F931F93DF93CF93CDB7DEB72C9719
:101630000FB6F894DEBF0FBECDBF8C012F83388765
:1016400049875A876B877C87FC0101900020E9F766
:101650003197E81BF90B719720F50ADFC801BE012D
:101660006F5F7F4F0E9490236B837C838D839E836B
:10167000F80101900020E9F73197E01BF10B719719
:1016800080F4F8018081882361F0F999FECFCE01C2
:10169000039661E270E044E050E00E944928B3DE26
:1016A00009C08BEC90E02F81388549855A856B8580
:1016B0007C8551DA2C960FB6F894DEBF0FBECDBFF5
:1016C000CF91DF911F910F9108950F931F93DF9397
:1016D000CF93CDB7DEB72C970FB6F894DEBF0FBE11
:1016E000CDBF8C012F83388749875A876B877C87CA
:1016F000FC0101900020E9F73197E81BF90B719785
:1017000020F5B6DEC801BE016F5F7F4F0E949023B7
:101710006B837C838D839E83F80101900020E9F721
:101720003197E01BF10B719780F4F80180818823D9
:1017300061F0F999FECFCE01039661E170E044E0DB
:1017400050E00E94492869DE09C08BEC90E02F81AF
:10175000388549855A856B857C85FDD92C960FB6D1
:10176000F894DEBF0FBECDBFCF91DF911F910F91D7
:1017700008950F931F93DF93CF93CDB7DEB72C97C8
:101780000FB6F894DEBF0FBECDBF8C012F83388714
:1017900049875A876B877C87FC0101900020E9F715
:1017A0003197E81BF90B719720F562DEC801BE0185
:1017B0006F5F7F4F0E9490236B837C838D839E831A
:1017C000F80101900020E9F73197E01BF10B7197C8
:1017D00080F4F8018081882361F0F999FECFCE0171
:1017E000039661E070E044E050E00E94492820DE6A
:1017F00009C08BEC90E02F81388549855A856B852F
:101800007C85A9D92C960FB6F894DEBF0FBECDBF4C
:10181000CF91DF911F910F9108950F931F93DF9345
:10182000CF93CDB7DEB72A970FB6F894DEBF0FBEC1
:10183000CDBF8C012D833E834F83588769877A877C
:10184000FC0101900020E9F73197E81BF90B719733
:1018500020F50EDEC801BE016F5F7F4F4AE050E009
:101860000E94E6247C836B83F80101900020E9F755
:101870003197E01BF10B719780F4F8018081882388
:1018800061F0F999FECFCE01039661E570E042E088
:1018900050E00E944928D7DD09C08BEC90E02D81F3
:1018A0003E814F81588569857A8555D92A960FB62C
:1018B000F894DEBF0FBECDBFCF91DF911F910F9186
:1018C00008950F931F93DF93CF93CDB7DEB729977A
:1018D0000FB6F894DEBF0FBECDBF8C012C833D83C5
:1018E0004E835F8368877987FC0101900020E9F7C8
:1018F0003197E81BF90B719718F5BADDC801BE01E5
:101900006E5F7F4F4AE050E00E94E6246983F80151
:1019100001900020E9F73197E01BF10B719780F4FB
:10192000F8018081882361F0F999FECFCE010196FC
:1019300060E070E041E050E00E9449288EDD09C07F
:101940008BEC90E02C813D814E815F8168857985AB
:1019500002D929960FB6F894DEBF0FBECDBFCF9146
:10196000DF911F910F910895DF93CF9300D000D0A6
:1019700000D0CDB7DEB729833A834B835C836D8378
:101980007E831092D90180E048D326960FB6F89452
:10199000DEBF0FBECDBFCF91DF910895DF93CF9310
:1019A00000D000D000D0CDB7DEB729833A834B8377
:1019B0005C836D837E831092D90181E02ED32696BD
:1019C0000FB6F894DEBF0FBECDBFCF91DF91089563
:1019D000DF93CF9300D000D000D0CDB7DEB72983FE
:1019E0003A834B835C836D837E8381E08093D9014E
:1019F00080E013D326960FB6F894DEBF0FBECDBF9E
:101A0000CF91DF910895DF93CF9300D000D000D025
:101A1000CDB7DEB729833A834B835C836D837E83A6
:101A20000E945E1826960FB6F894DEBF0FBECDBF9B
:101A3000CF91DF910895DF93CF9300D000D000D0F5
:101A4000CDB7DEB729833A834B835C836D837E8376
:101A50000E94D21926960FB6F894DEBF0FBECDBFF6
:101A6000CF91DF9108950F931F93CF93DF938B0155
:101A7000FC01EC01849106C090E0B8010E94872728
:101A8000FE01849121968823B9F7DF91CF911F91B0
:101A90000F9108950F931F93DF93CF9300D000D041
:101AA00000D0CDB7DEB729833A834B835C836D8347
:101AB0007E8309811A818EE291E0B801D4DF8AE247
:101AC00091E0B801D0DF8BE191E0B801CCDF87E194
:101AD00091E0B801C8DF83E091E0B801C4DF8FEF87
:101AE00090E0B801C0DF8CEF90E0B801BCDF269633
:101AF0000FB6F894DEBF0FBECDBFCF91DF911F911F
:101B00000F9108950F931F93DF93CF9300D000D0D0
:101B100000D0CDB7DEB729833A834B835C836D83D6
:101B20007E8309811A818DE391E0B8019CDF8AE30D
:101B300091E0B80198DF26960FB6F894DEBF0FBE8D
:101B4000CDBFCF91DF911F910F9108950F931F93F8
:101B5000DF93CF9300D000D000D0CDB7DEB729837C
:101B60003A834B835C836D837E8309811A81E09184
:101B7000C403F091C503309729F481E491E0B801E2
:101B800072DF35C0EE0FFF1FEA51FC4F808191815B
:101B9000B80169DF80918801882301F100D000D06D
:101BA00000D0EDB7FEB73196ADB7BEB712961C9315
:101BB0000E93119780E891E09383828388E891E007
:101BC000958384830E947527109288018DB79EB7F4
:101BD00006960FB6F8949EBF0FBE8DBF8091C403CA
:101BE0009091C50301979093C5038093C4032696F3
:101BF0000FB6F894DEBF0FBECDBFCF91DF911F911E
:101C00000F910895DF93CF9300D000D000D0CDB7CF
:101C1000DEB729833A834B835C836D837E8369813E
:101C20007A8181E591E01FDF26960FB6F894DEBF3A
:101C30000FBECDBFCF91DF910895AF92BF92DF92DB
:101C4000EF92FF920F931F93CF93DF935B01FB0102
:101C500010827C01C0E0D0E013C00D2D10E0C8015F
:101C60000E94F2260817190731F4F501EC0FFD1F49
:101C7000D082219602C0F70180830894E11CF11CF8
:101C8000F701D080DD2049F7CA0DDB1D1882DF91F6
:101C9000CF911F910F91FF90EF90DF90BF90AF9089
:101CA0000895AF92BF92CF92DF92EF92FF920F937F
:101CB0001F93CF93DF937C016B01EA0100E010E0FA
:101CC000BC2EAD2E888199816BE272E040E050E03D
:101CD0000E94CD058BE292E06AED71E0AEDF8BE20F
:101CE00092E0B6010E942B27009739F08AED91E02F
:101CF000B6010E942B270097C1F4F7014081518162
:101D00008B2D9A2D9C01F9012381348124173507ED
:101D100029F4F701B082A18281E00EC021153105BE
:101D200021F0F9018281813079F30F5F1F4F2796EF
:101D30000432110529F680E0DF91CF911F910F91B8
:101D4000FF90EF90DF90CF90BF90AF9008952F92CB
:101D50003F924F925F926F927F928F929F92AF923B
:101D6000BF92CF92DF92EF92FF920F931F93DF9378
:101D7000CF93CDB7DEB728970FB6F894DEBF0FBE6E
:101D8000CDBF2B010B831C832D833E834F8358874C
:101D90001A82198265E871E00E941D277C016B8020
:101DA0007C80E7E8AE2EE1E0BE2E80E01E010894C4
:101DB000211C311C7DC0C70160E270E00E94202719
:101DC000FC015C018081803221F410820894A11C06
:101DD000B11CF70101900020E9F73197EE19FF09D6
:101DE000E135F10518F08CEA90E00BC0F5010190A7
:101DF0000020E9F73197EA19FB09719758F08BEC4D
:101E000090E02B813C814D815E816F8178850E94BD
:101E1000AB0569C08201CC24DD24902E812EF8010F
:101E20002381348189819A8128173907E9F48081D7
:101E300091816DEC72E0A3010E94CD058DEC92E0E2
:101E40006CE772E0FADE8DEC92E0B7010E942B277E
:101E5000009739F08CE792E0B7010E942B2700979A
:101E600019F499828A821CC00894C11CD11C095F94
:101E70001F4FF4E2CF16D10481F62EC082EE90E01F
:101E80002B813C814D815E816F8178850E94AB05FD
:101E900088E891E0B70140E550E00E94342723C074
:101EA00080E090E065E871E00E941D277C0181E000
:101EB000E114F10409F07FCF8823A9F0E981FA81C8
:101EC0000580F681E02DC5012B813C814D815E812D
:101ED0006F817885099507C0C101B701A201E1DED4
:101EE0008823F1F6CBCF28960FB6F894DEBF0FBE4D
:101EF000CDBFCF91DF911F910F91FF90EF90DF90B9
:101F0000CF90BF90AF909F908F907F906F905F9099
:101F10004F903F902F9008958F929F92AF92BF92D3
:101F2000CF92DF92EF92FF920F931F93DF93CF93A5
:101F300000D000D000D0CDB7DEB75C016B014A0104
:101F4000E982FA820B831C832D833E83FE2CEA8078
:101F500047C090E00E94F2268B3321F08D3011F0C3
:101F60008A30B9F4D6018D919C91181619065CF44B
:101F70000F2DF982EA82C501B4011E2D2B813C810F
:101F80004D815E81E4DEF5011082D6011D921C9226
:101F900027C0883011F08F3749F4D601ED91FC91BC
:101FA00011971E161F06E4F431970FC0D601ED916C
:101FB000FC91B1E0E330FB0774F4EA0DFB1D808374
:101FC000D601ED91FC9111973196ED93FC93EA0DBA
:101FD000FB1D108205C085E591E06F2D7E2D43DD50
:101FE00087E293E03BD697FFB4CF26960FB6F894DE
:101FF000DEBF0FBECDBFCF91DF911F910F91FF903C
:10200000EF90DF90CF90BF90AF909F908F9008950A
:10201000809100048093D2000895882319F08BB139
:10202000806202C08BB18F7D8BB908958091CB0304
:10203000882381F08091D901882311F081E0EDDFC0
:1020400081E08093C6031092D5031092D2031092C0
:10205000D10308958091C603882329F01092C60306
:1020600081E08093D50308956F927F928F929F9223
:10207000AF92BF92CF92DF92EF92FF920F931F9396
:10208000DF93CF93CDB7DEB760970FB6F894DEBF7E
:102090000FBECDBF89E2BE016F5F7F4F0E94A11AC4
:1020A0008981882309F406C180911E0390911F0342
:1020B000A0912003B09121038093220390932303E6
:1020C000A0932403B0932503809101089091020806
:1020D000A0910308B091040880931E0390931F03FE
:1020E000A0932003B093210389E2BE016E5F7F4F6E
:1020F0000E94FD1989E20E94F9196B8170E080E06D
:1021000090E00E94EB212091FC033091FD0340916F
:10211000FE035091FF030E9457217B018C016091C7
:10212000F8037091F9038091FA039091FB032091D9
:102130001E0330911F0340912003509121030E9400
:10214000A1229B01AC01C801B7010E94EE207B01D6
:102150008C016091EC037091ED038091EE039091FE
:10216000EF032091220330912303409124035091E7
:1021700025030E94A1229B01AC01C801B7010E9466
:10218000EE205B016C01609301087093020880935C
:102190000308909304086091C7037091C80380916D
:1021A000C9039091CA032091F4033091F503409143
:1021B000F6035091F7030E94EE207B018C0160939F
:1021C000C7037093C8038093C9039093CA03C601E1
:1021D000B501A80197010E949D221816F4F4C601CA
:1021E000B501A80197010E94EE202091F0033091E3
:1021F000F1034091F2035091F3030E94A1229B014D
:10220000AC01C801B7010E94EF206093C70370932F
:10221000C8038093C9039093CA036090C70370906A
:10222000C8038090C9039090CA0310E0C401B301B1
:102230002091050830910608409107085091080840
:102240000E94EE209B01AC01C601B5010E94532102
:1022500088230CF411E01093CB03112319F080E0D4
:1022600090E009C090E080912603882309F491E072
:1022700081E09827892F809326038823D9F08091C5
:10228000CC03E82FF0E023E0EE0FFF1F2A95E1F7E3
:10229000DF01AF5FBB4FAD92BD92CD92DC92139741
:1022A000EB5FFB4F60827182828293828F5F8F77B8
:1022B0008093CC0360960FB6F894DEBF0FBECDBFFF
:1022C000CF91DF911F910F91FF90EF90DF90CF9012
:1022D000BF90AF909F908F907F906F900895809166
:1022E000CD039091CE03A091CF03B091D00301967E
:1022F000A11DB11D8093CD039093CE03A093CF0376
:10230000B093D0038091D503882349F08091D10305
:102310009091D20301969093D2038093D1032091A0
:10232000D1033091D2038091D3039091D403281725
:10233000390760F08091D901882311F080E06DDECB
:102340001092D5031092D2031092D1030895DA01AE
:10235000923049F0933061F09130F9F4E7E0F3E026
:1023600022E130E01EC0E9E1F3E02EE330E019C0E5
:10237000813049F0813018F0823079F408C0E7E507
:10238000F3E0849107C0EBE5F3E0849103C0EFE74D
:10239000F3E08491282F30E004C0E0E0F0E020E09A
:1023A00030E0ED93FC93C90108959C01409114081D
:1023B000509115084617570718F4F90190E043C0EB
:1023C0006115710511F0AB01F8CF8091E8008E77AF
:1023D0008093E80040E050E0F0CF80910D08882322
:1023E00009F447C0853009F446C08091E80083FDB8
:1023F00044C08091E80082FD36C08091E80080FFF3
:1024000022C08091F3009091F200782F60E0292F94
:1024100030E0262B372B07C081918093F10041508B
:1024200050402F5F3F4F4115510519F028303105BD
:1024300098F390E02830310509F491E08091E800AC
:102440008E778093E8004115510539F6992329F6D6
:102450000AC080910D08882361F0853061F0809179
:10246000E80083FD0AC08091E80082FFF2CF80E09F
:10247000089582E0089583E0089581E008959C0125
:1024800040911408509115084617570718F4F901A0
:1024900090E044C06115710511F0AB01F8CF809157
:1024A000E8008E778093E80040E050E0F0CF809124
:1024B0000D08882309F448C0853009F447C080918D
:1024C000E80083FD45C08091E80082FD37C080911F
:1024D000E80080FF23C08091F3009091F200782FF4
:1024E00060E0292F30E0262B372B08C084918093A1
:1024F000F1003196415050402F5F3F4F411551053B
:1025000019F02830310590F390E02830310509F4B6
:1025100091E08091E8008E778093E80041155105A5
:1025200031F6992321F60AC080910D08882361F0C5
:10253000853061F08091E80083FD0AC08091E80059
:1025400082FFF2CF80E0089582E0089583E008954D
:1025500081E00895382F282F2EC0822F8F7080930E
:10256000E900231721F4762F942F50E006C07091D4
:10257000EC009091ED005091F00091FF1BC0809114
:10258000EB008E7F8093EB008091ED008D7F809338
:10259000ED008091EB0081608093EB007093EC0084
:1025A0009093ED005093F0008091EE0087FD02C003
:1025B00080E008952F5F273080F23F703093E9006C
:1025C00081E008950F931F93CF93DF93062FEC01C3
:1025D00010E02AC09881992329F16B81E981FA8161
:1025E0002C81892F8F70873018F5223010F452E03B
:1025F00001C056E040E028E030E003C04F5F220F0A
:10260000331F2E173F07D0F36295660F660F607C6D
:10261000991F9927991F692B4295407F452B9ADF77
:10262000882331F01F5F25961017A0F281E001C0CA
:1026300080E0DF91CF911F910F91089580910E0856
:1026400088239CF404C080910D088823B9F0809100
:10265000E80082FFF8CF8091E8008B778093E80054
:10266000089580910D08882349F08091E80080FF4B
:10267000F8CF8091E8008E778093E800089540912C
:10268000E4005091E50024E68091EC0080FF24C036
:102690008091E80080FD1EC080910D08882311F410
:1026A00082E00895853011F483E008958091EB0075
:1026B00085FF02C081E008958091E4009091E500DB
:1026C0008417950709F3222311F484E0089521501B
:1026D000AC01DACF80E008958091E80082FFDCCF82
:1026E000F9CF6BD072D0E0EEF0E080818160808322
:1026F000A8EDB0E08C918F778C9319BCE7EDF0E0FA
:1027000080818E7F80838C918F7E8C9310920C08B9
:102710000895EF92FF920F931F934FD056D008ED7C
:1027200010E0F80180818F778083808180688083CA
:1027300080818F7D808319BC10920D08109209084A
:1027400010920B0810920A0880EEE82EF12CF70187
:1027500080818B7F8083F80180818160808380E02D
:1027600060E042E0F7DEE1EEF0E080818E7F808382
:10277000E2EEF0E0808181608083808188608083E8
:10278000F70180818E7F8083F80180818061808362
:102790001F910F91FF90EF900895E8EDF0E0808198
:1027A0008F7E8083E7EDF0E080818160808384E02C
:1027B00082BF81E080930C08ACCFE8EDF0E080812F
:1027C0008E7F80831092E20008951092DA001092BA
:1027D000E10008951F920F920FB60F9211242F93CC
:1027E0003F934F935F936F937F938F939F93AF9399
:1027F000BF93EF93FF938091E10082FF0AC0809125
:10280000E20082FF06C08091E1008B7F8093E100AF
:102810000FD28091DA0080FF1DC08091D80080FF28
:1028200019C08091DA008E7F8093DA008091D90000
:1028300080FF0CC080E189BD82E189BD09B400FE42
:10284000FDCF81E080930D089CD504C019BC109287
:102850000D0898D58091E10080FF18C08091E200BA
:1028600080FF14C08091E2008E7F8093E20080910F
:10287000E20080618093E2008091D80080628093C2
:10288000D80019BC85E080930D08D2D18091E10079
:1028900084FF2FC08091E20084FF2BC080E189BDBE
:1028A00082E189BD09B400FEFDCF8091D8008F7D03
:1028B0008093D8008091E1008F7E8093E100809129
:1028C000E2008F7E8093E2008091E200816080933D
:1028D000E20080910908882311F084E007C080910C
:1028E000E30087FD02C081E001C083E080930D0812
:1028F0009FD18091E10083FF22C08091E20083FF9D
:102900001EC08091E100877F8093E10082E0809388
:102910000D08109209088091E1008E7F8093E100FC
:102920008091E2008E7F8093E2008091E2008061DE
:102930008093E20080E060E042E00CDE79D1FF911C
:10294000EF91BF91AF919F918F917F916F915F9127
:102950004F913F912F910F900FBE0F901F901895A0
:102960001F93DF93CF93CDB7DEB7AC970FB6F89434
:10297000DEBF0FBECDBFEEE0F8E08091F1008193A5
:1029800028E0E631F207C9F702D58091E80083FF1D
:1029900037C180910E0830910F08353009F487C097
:1029A000363040F43130C9F1313070F0333009F055
:1029B00027C133C0383009F4F5C0393009F404C1F7
:1029C000363009F01DC196C0803821F0823809F0F8
:1029D00017C108C090910A0880910B08882399F0CC
:1029E000926011C0809112088F708093E9008091ED
:1029F000EB0090E025E0969587952A95E1F7982FD2
:102A000091701092E9008091E800877F8093E80040
:102A10009093F1001092F100D0C0882319F0823019
:102A200009F0EEC090E08F719070009721F002974E
:102A300009F0E6C00CC080911008813009F0E0C0B8
:102A400010920B08333069F580930B082AC08091EF
:102A50001008882331F5209112082F7009F4D0C096
:102A60002093E9008091EB0080FF1BC0333021F4FC
:102A70008091EB00806213C08091EB0080618093B5
:102A8000EB0081E090E002C0880F991F2A95E2F7E1
:102A90008093EA001092EA008091EB0088608093B6
:102AA000EB001092E9008091E800877F89C08823BD
:102AB00009F0A6C0109110081F778091E30080787C
:102AC000812B8093E3008091E800877F8093E8006A
:102AD000B5DD8091E80080FFFCCF8091E300806845
:102AE0008093E300112311F482E001C083E080931E
:102AF0000D0886C08058823008F082C0809110088E
:102B00009091110823E08C3D920709F033C083E0D7
:102B10008C838AE28B837FB7F894DE0115966EE092
:102B200040E050E011E2E62FF0E01093570084916E
:102B300040FF03C082958F706F5F8F70282F30E049
:102B40008A3018F0C901C79602C0C901C0968D939A
:102B50009D934F5F5F4F4431510529F77FBF8091AF
:102B6000E800877F8093E800CE0103966AE270E078
:102B70001CDC12C060911208AE014F5F5F4FE7DBB3
:102B8000BC01009709F43CC08091E800877F8093E6
:102B9000E80089819A8173DC8091E8008B778093CB
:102BA000E8002EC0803861F58091E800877F80932F
:102BB000E800809109088093F1008091E8008E7709
:102BC0008093E8003BDD1CC08823D1F4909110086D
:102BD0009230B0F48091E800877F8093E800909372
:102BE00009082CDD80910908882331F48091E300E5
:102BF00087FD02C081E001C084E080930D08CAD344
:102C00008091E80083FF0AC08091E800877F80936D
:102C1000E8008091EB0080628093EB00AC960FB6E9
:102C2000F894DEBF0FBECDBFCF91DF911F91089505
:102C300008951F9380910D08882371F01091E90089
:102C40008091EC001092E9008091E80083FF01C0C0
:102C500087DE1F701093E9001F910895FC01809199
:102C60000D08843099F584899589A689B7890097DC
:102C7000A105B10559F186818F708093E90080919B
:102C8000E80082FF23C04091F3002091F200942FCE
:102C900080E030E0822B932B892B19F46FEF7FEFCC
:102CA00004C08091F100682F70E04091F300209102
:102CB000F200942F80E030E0822B932B892B41F49B
:102CC0008091E8008B778093E80002C06FEF7FEF80
:102CD000CB010895FB012EE0DB011D922A95E9F757
:102CE00023E023832BEF36E1318720872DE736E180
:102CF00033872287958784870895FC01848595858D
:102D0000ADDF9C0197FF02C02EEF3FEFC901089590
:102D10000895FC0180910D08843051F584899589CE
:102D2000A689B7890097A105B10511F181818F703E
:102D30008093E9004091F3002091F200942F80E00D
:102D400030E0822B932B892BA9F09091E8008091A1
:102D5000E8008E778093E80095FD0CC090DC982FFA
:102D6000882349F48091E8008E778093E80003C0BF
:102D700092E001C090E0892F0895FC0180910D0838
:102D8000843091F484899589A689B7890097A10533
:102D9000B10551F081818F708093E9008091E80046
:102DA00080FF02C0CF01B5CF08951F93FC01162FFD
:102DB00080910D088430E1F484899589A689B789CA
:102DC0000097A105B105A1F081818F708093E90082
:102DD0008091E80085FD08C08091E8008E7780939F
:102DE000E8004DDC882329F41093F10080E001C055
:102DF00082E01F910895282FFB0184859585622F1D
:102E0000D4DF882319F420E030E002C02FEF3FEF39
:102E1000C9010895CF93DF93EC014096FC018BE04C
:102E2000DF011D928A95E9F782E08C83898783E030
:102E30008E87CE01019661E0C5DB882371F0CE015B
:102E4000069661E0BFDB882341F0CE010B9661E07E
:102E5000B9DB882319F081E001C080E0DF91CF91D8
:102E60000895CF93DF93EC018091E80083FFA3C026
:102E7000888190E0209112083091130828173907B3
:102E800009F099C080910F08813269F0823220F4F4
:102E9000803209F090C03CC0823209F46BC08332AA
:102EA00009F089C07AC080910E08813A09F083C088
:102EB0008091E800877F8093E8008091E80080FFA0
:102EC000FCCF8C899D89AE89BF898093F100292F21
:102ED0003A2F4B2F55272093F1009D01442755276A
:102EE0002093F1008B2F9927AA27BB278093F1000D
:102EF000888D8093F100898D8093F1008A8D809375
:102F0000F1008091E8008E778093E80097DB53C052
:102F100080910E08813209F04EC08091E800877FD1
:102F20008093E80005C080910D08882309F443C010
:102F30008091E80082FFF7CF8091F1009091F1003D
:102F40002091F1003091F1008C8B9D8B2E8B3F8B6B
:102F50008091F100888F8091F100898F8091F1003C
:102F60008A8F8091E8008B778093E80067DBCE0141
:102F7000CFDE21C080910E088132E9F48091E80013
:102F8000877F8093E8005ADB8091100890911108A8
:102F9000998B888BCE01BCDE0EC080910E088132E9
:102FA00051F48091E800877F8093E80047DBCE01F1
:102FB00060911008ADDEDF91CF910895ECEBF0E069
:102FC00080818B7F808308950F931F938C01F6DFA0
:102FD000809164008F7780936400F80186858093E8
:102FE000B8008785813059F0813028F0823089F02F
:102FF0008330E1F412C08091B9008E7F1AC08091B5
:10300000B90081608093B9008091B9008D7F809371
:10301000B9008091B9008E7F03C08091B9008160B2
:103020008093B9008091B900826008C08091B90096
:1030300081608093B9008091B9008D7F8093B90041
:103040008091BC0084608093BC001F910F91089513
:10305000FC01A481B5819C918485809589238C9302
:10306000A681B7819C918585809589238C93A081C9
:10307000B1818C919485892B8C93A281B3818C91A1
:103080009585892B8C93CF019FCF84EA8093BC00D8
:1030900090E02AE106C0822F8A95F1F79F5F99326E
:1030A00021F08091BC0087FFF6CF83E5089584E985
:1030B0008093BC0080E50895FACF08957FDFFCCFB0
:1030C0008093BB0084E88093BC0090E02AE106C0B6
:1030D000822F8A95F1F79F5F9832F9F08091BC00BA
:1030E00087FFF6CF8091B90090E0887F907088329A
:1030F000910589F08932910534F48831910559F0B0
:10310000809759F408C08034910529F080359105E5
:1031100011F0C89711F48BE408958EE40895882384
:1031200011F484EC01C084E88093BC0020E030E01E
:103130009AE108C0892F8A95F1F72F5F3F4F283217
:10314000310521F08091BC0087FFF4CF8091BB0056
:103150000895DF92EF92FF920F931F93182FD62EB0
:10316000072F7A0192DF812F880FAADF802FA8DF37
:103170008D2DA6DF8ADF110F812F8160A1DF81E015
:10318000CEDFF701808393DF1F910F91FF90EF90C7
:10319000DF900895CF92DF92FF920F931F93182F25
:1031A000F62E072F6A0171DF812F880F89DF802FAC
:1031B00087DF8F2D85DF69DF110F812F816080DF31
:1031C00080E0ADDFF82E81E0AADF082F70DF9F2DB1
:1031D00080E010E0802B912BF601918380831F917A
:1031E0000F91FF90DF90CF9008952F923F924F92D2
:1031F0005F926F927F928F929F92AF92BF92CF9287
:10320000DF92EF92FF920F931F93CF93DF93182FCC
:10321000F62E072FEA0139DF812F880F51DF802F2B
:103220004FDF8F2D4DDF31DF110F812F816048DFA0
:1032300080E075DFE82E80E072DFA82E80E06FDF8F
:10324000282E81E06CDF682E32DFFF2400E010E0E2
:103250001E2D0027FF24EE24BB24CC24DD24650191
:10326000BB24AA24EA28FB280C291D2977248824BA
:103270009924E628F72808291929332444245524B9
:10328000542C432C322C2224E228F328042915291B
:10329000E882F9820A831B83DF91CF911F910F91FE
:1032A000FF90EF90DF90CF90BF90AF909F908F9066
:1032B0007F906F905F904F903F902F900895EF9286
:1032C000FF920F931F93182FF62E072FE42EDDDEAB
:1032D000812F880FF5DE802FF3DE8F2DF1DE8E2D0E
:1032E000EFDEE5DE1F910F91FF90EF900895DF92E2
:1032F000EF92FF920F931F93182FE62E072FD42ED5
:10330000F52EC3DE812F880FDBDE802FD9DE8E2DD8
:10331000D7DE8F2DD5DE8D2DD3DEC9DE1F910F9127
:10332000FF90EF90DF900895BF92CF92DF92EF92DF
:10333000FF920F931F93D82EB62EC72E79018A01C4
:10334000A4DE8D2D880FBCDE8C2DBADE8B2DB8DE71
:10335000812F9927AA27BB27B3DEC801AA27BB273D
:10336000AFDEBB27A12F902F8F2DAADE8E2DA8DEDA
:103370009EDE1F910F91FF90EF90DF90CF90BF9056
:1033800008950895089587E293E0F7DC52CC87E230
:1033900093E067CD87E293E03DCD87E293E066ED71
:1033A00073E098CC9ED9F89480E29EE420E931E065
:1033B000F9013197F1F70197D9F78AEC9CEAA2E479
:1033C000BCED8093180890931908A0931A08B09345
:1033D0001B082CE088E190E00FB6F894A895809344
:1033E00060000FBE20936000FFCF67E870E040E808
:1033F00074C366E870E041E070C38F929F92AF9211
:10340000BF92CF92DF92EF92FF920F931F93DF93C1
:10341000CF93CDB7DEB76B970FB6F894DEBF0FBE74
:10342000CDBF982E5B01DE011496E2E4F3E088E163
:1034300001900D928150E1F7892D69E870E0AE01AD
:103440004F5F5F4F4DD3882E89818F71898388317B
:1034500028F4FE01E80FF11D848189838981F5013B
:1034600080838E010E5F1F4F892D6CE870E0A801EC
:103470003AD3F82E8B81F50183871486892D6EE867
:1034800070E0A80130D3C82E8A819B8123E0880F89
:10349000991F2A95E1F7F50190878783892D60E9C7
:1034A00070E0A80120D3D82E8A819B81B3E0880FD9
:1034B000991FBA95E1F7F50194838383892D62E919
:1034C00070E0A80110D3E82E8A819B81969587959C
:1034D00096958795F50196878587892D66E970E031
:1034E000A80101D3482FFC28F828FD28FE288A814E
:1034F0009B81F50192838183238534858781908523
:10350000B9010E9423237287618783819481B90165
:103510000E942323768365838F2D842B6B960FB6B1
:10352000F894DEBF0FBECDBFCF91DF911F910F91F9
:10353000FF90EF90DF90CF90BF90AF909F908F90D3
:103540000895BF92CF92DF92EF92FF920F931F9355
:10355000DF93CF930F92CDB7DEB7082F6B0160E3F7
:1035600070E07E010894E11CF11CA701B9D2B82ECD
:103570001981107112951F701983802F61E370E01B
:10358000A701AED2482F898190E08170907020E031
:1035900030E0113011F021E030E08217930721F480
:1035A00081E0F601808302C0F6011082842F8B290E
:1035B0000F90CF91DF911F910F91FF90EF90DF90CF
:1035C000CF90BF9008950F931F93DF93CF9300D0B8
:1035D00000D0CDB7DEB7182F6CE670E0AE014F5FBC
:1035E0005F4F84D2082F89819A81AB81BC8100977B
:1035F000A105B10529F4812F67E870E041E204C01C
:10360000812F67E870E040E468D2802B0F900F9024
:103610000F900F90CF91DF911F910F9108952F92EE
:103620003F924F925F926F927F928F929F92AF9252
:10363000CF92DF92EF92FF920F931F93DF93CF937E
:10364000CDB7DEB72D970FB6F894DEBF0FBECDBF56
:1036500089876A017B011801290166E070E0AE01EB
:103660004D5F5F4F40D2A82E0B811C8101151105C3
:1036700031F1C701B60128EE33E040E050E0C4D795
:103680003B014C01980140E050E060E070E080E0D8
:1036900090E4EDD7CA01B90120E039E040E050E004
:1036A000B3D7DC01CB0126E0B695A7959795879512
:1036B0002A95D1F78D839E83AF83B88709C09EEF8B
:1036C000A92A1D821E821F82188666247724430140
:1036D000D701C6010A97A109B1098F3B9105A10540
:1036E000B10510F4AA2019F0AEEFAA2A5BC021148C
:1036F00031044104510491F489856CE670E020E0C6
:1037000030E040E050E0E3D1A82E8CE396EFAFEF3D
:10371000BFEF680E791E8A1E9B1E44C0C214D304DC
:10372000E404F50418F00EEFA02EC8C089856EEDF4
:1037300070E0AE014F5F5F4FD6D1A82EE980FA80CE
:10374000AFEFB3E0EA22FB22FA82E982C201B101C3
:1037500042D62DE33AE047E85FE3F3D66A877B87FA
:103760008C879D8700E010E0C801B70134D69B012B
:10377000AC016A857B858C859D85E3D600D69B014F
:10378000AC0189856CE670E0A2D1A82A84E39FEEA3
:10379000AFEFBFEF680E791E8A1E9B1E969487942A
:1037A000779467949EEFA91609F488C0BCE0660C74
:1037B000771C881C991CBA95D1F72D813E814F81C9
:1037C0005885A4E0220F331F441F551FAA95D1F737
:1037D000CA01B901F7E09695879577956795FA95AF
:1037E000D1F7660D771D881D991DE6E05695479522
:1037F00037952795EA95D1F73AD721503040404088
:10380000504060E070E006C0569547953795279583
:103810006F5F7F4FDA01C90180700097A105B10584
:1038200099F7962F8827A9015070480F591F89854D
:103830006EE570E04FD1182F6D817E818F81988564
:103840002CE030E040E050E0DFD69B01AC01DC0131
:10385000CB0107E0B695A795979587950A95D1F77F
:10386000680E791E8A1E9B1EA6E0569547953795D1
:103870002795AA95D1F7C401B301F9D6215030405C
:103880004040504060E070E006C05695479537953F
:1038900027956F5F7F4FDA01C90180700097A105FE
:1038A000B10599F7962F8827A9015070480F591F25
:1038B000898561E670E00ED1A12AA82A8A2D2D966D
:1038C0000FB6F894DEBF0FBECDBFCF91DF911F9131
:1038D0000F91FF90EF90DF90CF90AF909F908F90DF
:1038E0007F906F905F904F903F902F9008958F92B0
:1038F0009F92AF92BF92CF92DF92EF92FF920F937F
:103900001F93DF93CF930F92CDB7DEB7A82EDD24A0
:10391000EE24FF244E010894811C911C8A2D65EE33
:1039200070E0A401DDD0D82A8981833039F088EE97
:10393000E81683E0F80620F0DD24DA9410E004C0F5
:103940000894E11CF11C11E08A2D41E050E060E098
:1039500070E072D0113011F30DE210E0F801E35D78
:10396000FC4F8A2DB8014081B8D0D82A0F5F1F4F75
:103970000838110599F78A2D67E870E040E4ADD06A
:103980009D2C982AEE24FF246E010894C11CD11CA2
:103990008A2DB601D6DD982A8981813039F088EEEA
:1039A000E81683E0F80620F099249A9410E004C009
:1039B0000894E11CF11C11E08A2D41E050E060E028
:1039C00070E03AD0113021F38A2D13DDB82E8A2D04
:1039D0000CDDF82E8A2D68E070E049E07ED0C82E1C
:1039E0008A2D6BE070E040E078D0D82E8A2D64E21A
:1039F00070E040E055E06ED0E82E8A2D42E350E0C2
:103A000060E070E000E010E020E030E008DEFB283D
:103A1000FC28FD28FE28F82A8F2D89290F90CF91A8
:103A2000DF911F910F91FF90EF90DF90CF90BF90AB
:103A3000AF909F908F900895AF92BF92CF92DF92F8
:103A4000EF92FF920F931F93CB01BA01C4D45B0195
:103A50006C0120E030E04AE755E473D57B018C012E
:103A600020E030E040E85FE31ED488231CF461E0EE
:103A700070E020C0C801B70120E03FEF4FE757E4F6
:103A80005CD51816A4F4C601B50120E030E040E290
:103A900051E457D574D480E991E005C0FC01319719
:103AA000F1F76150704061157105C1F706C0C8019A
:103AB000B70165D4CB010197F1F780E01F910F9119
:103AC000FF90EF90DF90CF90BF90AF9008952CDCE7
:103AD00080E008950CDC80E00895F1DB80E008953B
:103AE00038DB80E0089556DB80E008957EDB80E0DF
:103AF0000895A1E1B0E0EEE7FDE1DBC53C017F8781
:103B00006E876A01FC0117821682838181FD03C0E2
:103B10006FEF7FEF5FC39E012F5F3F4F398B288B85
:103B2000F3012381EE85FF8523FD859123FF81919C
:103B3000FF87EE87882309F44AC3853251F4EE8566
:103B4000FF8523FD859123FF8191FF87EE878532D5
:103B500029F490E0B3010E948727E2CF982F10E06C
:103B6000882499241032B0F49B3269F09C3228F4F6
:103B7000903251F0933271F40BC09D3239F0903392
:103B800049F4116028C01260146025C0186023C079
:103B9000106121C017FD2AC0892F80538A3078F424
:103BA00016FF06C0FAE09F9E902C1124980E13C0B9
:103BB0003AE0839E802C1124880E10620CC09E3245
:103BC00021F416FD04C3106406C09C3611F410687D
:103BD00002C0983659F4EE85FF8523FD959123FFA9
:103BE0009191FF87EE87992309F0BCCF892F8554E7
:103BF000833020F4812F8061905E07C0892F855625
:103C0000833008F09BC1812F8F7E86FD02C076E055
:103C1000972E6FE3F62EF822953619F4F0E4FF2A7A
:103C200007C0963619F420E8F22A02C091109A943F
:103C3000F7FE0AC03BE3391518F45CE3B52E02C069
:103C4000B92CB39427E009C047E0491520F4BB2400
:103C500047E0942EF7CF292DBB24C60104969D87FB
:103C60008C87F6016081718182819381AE014F5F03
:103C70005F4F0B2DD7D76C010981202E332400FF15
:103C800004C003FD02C01DE209C0F1FE02C01BE238
:103C900005C0F2FC02C010E001C010E2C1018C704E
:103CA0009070892BB9F1112311F483E001C084E0F5
:103CB000881510F088240AC0881AF3FC07C080E237
:103CC00090E0B3010E9487278A94C9F7112329F055
:103CD000812F90E0B3010E94872723FE03C00FE9E4
:103CE00013E00EC003EA13E00BC0E114F10409F085
:103CF000805290E0B3010E9487270F5F1F4F05C0DD
:103D0000EF2CFF24F0E1EF22FF24F80184918823B7
:103D100061F711C1F7FE12C0BC0C24FE04C08A81F9
:103D2000813309F4BA941B141CF0BB24B3942DC046
:103D3000F8E0FB1550F538E0B32E27C0F6FC25C09F
:103D4000892D90E08C159D054CF02CEFC2162FEFBD
:103D5000D20624F030E8F32A01C09A94992049F061
:103D6000E2E0F0E0EC0FFD1FE90DF11D80818033F2
:103D7000A1F3F7FE0AC0B92CB394892D90E0C816C0
:103D8000D90614F0992401C09C18F7FC03C025E063
:103D900030E009C01C141D041CF021E030E003C019
:103DA00096012F5F3F4F112311F02F5F3F4F992056
:103DB00029F0892D90E00196280F391F882D90E079
:103DC0002817390714F0882401C0821A4F2C552473
:103DD000C20189709070892B39F008C080E290E0B0
:103DE000B3010E9487278A948820C1F7112329F004
:103DF000812F90E0B3010E94872743FE07C008C0CF
:103E000080E390E0B3010E9487278A948820C1F75D
:103E1000F7FE46C08601D7FE02C000E010E0760142
:103E20000894E11CF11CE01AF10A41E050E04C0F4B
:103E30005D1FE40EF51E26014B185108892D90E0F8
:103E4000AA24BB24A81AB90A5FEF0F3F150729F46B
:103E50008EE290E0B3010E948727C016D10634F0AD
:103E6000401651061CF4F701808101C080E3015027
:103E700010400894E11CF11C0A151B052CF090E081
:103E8000B3010E948727E0CF0C151D0539F49A81F4
:103E9000963318F4953311F424FE81E390E049C081
:103EA0008A81813309F00F7E90E0B3010E94872759
:103EB0009920A1F08EE290E0B3010E94872712E0E2
:103EC000E1E0F0E0EC0FFD1FE10FF11D1F5F8081CD
:103ED00090E0B3010E9487279A9491F744FC03C0B5
:103EE00085E690E002C085E490E0B3010E94872758
:103EF000D7FC05C0C114D10441F404FF06C0D0941E
:103F0000C194D108D3948DE201C08BE290E0B3015B
:103F1000FED780E305C08F5F26EF3FEFC20ED31EB2
:103F20003AE0C316D104BCF790E0B301F0D7C60164
:103F3000C096B301ECD7CC84DD8446C1933631F012
:103F4000933799F0933509F055C022C0F60180816E
:103F500089835E010894A11CB11C22E030E0C20EEE
:103F6000D31E21E0E22EF12C11C0F601A080B18019
:103F700016FD03C06FEF7FEF02C0692D70E022E0F5
:103F800030E0C20ED31EC5017ED77C011F7712C060
:103F9000F601A080B18016FD03C06FEF7FEF02C075
:103FA000692D70E022E030E0C20ED31EC5013AD781
:103FB0007C01106813FF06C019C080E290E0B301D5
:103FC000A6D78A94882D90E0E816F906B0F30EC0C3
:103FD000F50117FD859117FF81915F0190E0B30115
:103FE00096D781108A940894E108F108E114F1044D
:103FF00079F7EAC0943611F0993681F517FF08C0B9
:10400000F601208131814281538184E090E00AC031
:10401000F601808191819C01442737FD4095542F02
:1040200082E090E0C80ED91E9FE6F92EF12257FFDC
:1040300009C050954095309521953F4F4F4F5F4FA8
:1040400090E8F92ACA01B901AE014F5F5F4F2AE03B
:1040500030E0B1D7E82EE889EE1A40C0953721F458
:104060001F7E2AE030E01CC0197F9F3661F0903738
:1040700020F4983509F0ABC00FC0903739F098376D
:1040800009F0A5C004C028E030E00AC0106114FDAA
:10409000146020E130E004C014FD166020E132E03D
:1040A00017FF08C0F601608171818281938144E02D
:1040B00050E008C0F60180819181BC0180E090E071
:1040C00042E050E0C40ED51EAE014F5F5F4F73D784
:1040D000E82E5889E51A8FE7F82EF122F6FE0BC07C
:1040E0008EEFF822E91438F4F4FE07C0F2FC05C0A4
:1040F0009FEEF92202C01E2D01C0192DF4FE0DC045
:10410000FE01EE0DF11D8081803319F4E9EEFE22EF
:1041100008C01F5FF2FE05C003C08F2D867809F02E
:104120001F5F0F2DF3FC13C0F0FE0EC0181510F02A
:104130009E2C0AC09E2C980C911A182D05C080E266
:1041400090E0B301E4D61F5F1815C8F304C018153A
:1041500010F4811A01C0882404FF0EC080E390E0AF
:10416000B301D5D602FF1BC001FD03C088E790E074
:104170000EC088E590E00BC0802F867881F001FFAB
:1041800002C08BE201C080E2F7FC8DE290E0B30157
:10419000BED605C080E390E0B301B9D69A94E91485
:1041A000C8F3EA94E1E0F0E0EC0FFD1FEE0DF11D25
:1041B000808190E0B301ABD6EE2099F705C080E294
:1041C00090E0B301A4D68A948820C9F7A9CCF30162
:1041D00066817781CB016196E2E187C25058BB27A7
:1041E000AA270ED070C161D130F066D120F031F431
:1041F0009F3F11F41EF456C10EF4E095E7FB4CC14D
:10420000E92F72D180F3BA17620773078407950705
:1042100018F071F49EF58AC10EF4E0950B2EBA2FBA
:10422000A02D0B01B90190010C01CA01A0011124BC
:10423000FF27591B99F0593F50F4503E68F11A1668
:10424000F040A22F232F342F4427585FF3CF4695F9
:1042500037952795A795F0405395C9F77EF41F161B
:10426000BA0B620B730B840BBAF09150A1F0FF0FE5
:10427000BB1F661F771F881FC2F70EC0BA0F621FD1
:10428000731F841F48F4879577956795B795F795C1
:104290009E3F08F0B3CF9395880F08F09927EE0F53
:1042A000979587950895D4D008F481E008950CD0AF
:1042B0000AC102D140F0F9D030F021F45F3F19F08B
:1042C000EBC0511134C1EEC00FD198F39923C9F35B
:1042D0005523B1F3951B550BBB27AA27621773070C
:1042E000840738F09F5F5F4F220F331F441FAA1FC0
:1042F000A9F333D00E2E3AF0E0E830D09150504080
:10430000E695001CCAF729D0FE2F27D0660F771F2D
:10431000881FBB1F261737074807AB07B0E809F00F
:10432000BB0B802DBF01FF2793585F4F2AF09E3FA4
:10433000510568F0B1C0FBC05F3FECF3983EDCF381
:10434000869577956795B795F7959F5FC9F7880F1D
:10435000911D9695879597F90895E1E0660F771F6F
:10436000881FBB1F621773078407BA0720F0621B00
:10437000730B840BBA0BEE1F88F7E0950895BCD041
:1043800088F09F5790F0B92F9927B751A0F0D1F03E
:10439000660F771F881F991F1AF0BA95C9F712C0C8
:1043A000B13081F0C3D0B1E00895C0C0672F782F3D
:1043B0008827B85F39F0B93FCCF386957795679534
:1043C000B395D9F73EF490958095709561957F4FA0
:1043D0008F4F9F4F0895E89409C097FB3EF4909546
:1043E0008095709561957F4F8F4F9F4F9923A9F0CE
:1043F000F92F96E9BB279395F6958795779567955D
:10440000B795F111F8CFFAF4BB0F11F460FF1BC0A0
:104410006F5F7F4F8F4F9F4F16C0882311F096E933
:1044200011C0772321F09EE8872F762F05C06623E1
:1044300071F096E8862F70E060E02AF09A95660F9A
:10444000771F881FDAF7880F9695879597F9089553
:10445000990F0008550FAA0BE0E8FEEF1616170695
:10446000E807F907C0F012161306E407F50798F0FD
:10447000621B730B840B950B39F40A2661F0232B16
:10448000242B252B21F408950A2609F4A140A69592
:104490008FEF811D811D089597F99F6780E870E077
:1044A00060E008959FEF80EC089500240A941616AA
:1044B000170618060906089500240A941216130612
:1044C000140605060895092E0394000C11F48823A0
:1044D00052F0BB0F40F4BF2B11F460FF04C06F5FBC
:1044E0007F4F8F4F9F4F089557FD9058440F551F92
:1044F00059F05F3F71F04795880F97FB991F61F066
:104500009F3F79F087950895121613061406551FDC
:10451000F2CF4695F1DF08C0161617061806991F48
:10452000F1CF86957105610508940895E894BB273D
:1045300066277727CB0197F908958ADF08F48FEF74
:1045400008950BD0C0CFB1DF28F0B6DF18F0952367
:1045500009F0A2CFA7CF1124EACFC6DFA0F3959F21
:10456000D1F3950F50E0551F629FF001729FBB275A
:10457000F00DB11D639FAA27F00DB11DAA1F649F06
:104580006627B00DA11D661F829F2227B00DA11DB9
:10459000621F739FB00DA11D621F839FA00D611D3F
:1045A000221F749F3327A00D611D231F849F600D60
:1045B000211D822F762F6A2F11249F5750408AF099
:1045C000E1F088234AF0EE0FFF1FBB1F661F771F25
:1045D000881F91505040A9F79E3F510570F05CCF65
:1045E000A6CF5F3FECF3983EDCF386957795679511
:1045F000B795F795E7959F5FC1F7FE2B880F911D43
:104600009695879597F90895629FD001739FF00161
:10461000829FE00DF11D649FE00DF11D929FF00D52
:10462000839FF00D749FF00D659FF00D9927729F89
:10463000B00DE11DF91F639FB00DE11DF91FBD0114
:10464000CF0111240895AA1BBB1B51E107C0AA1F6B
:10465000BB1FA617B70710F0A61BB70B881F991F23
:104660005A95A9F780959095BC01CD010895A1E2D6
:104670001A2EAA1BBB1BFD010DC0AA1FBB1FEE1FDC
:10468000FF1FA217B307E407F50720F0A21BB30B27
:10469000E40BF50B661F771F881F991F1A9469F7A3
:1046A00060957095809590959B01AC01BD01CF01FF
:1046B00008952F923F924F925F926F927F928F92C6
:1046C0009F92AF92BF92CF92DF92EF92FF920F93A1
:1046D0001F93CF93DF93CDB7DEB7CA1BDB0B0FB6AB
:1046E000F894DEBF0FBECDBF09942A883988488868
:1046F0005F846E847D848C849B84AA84B984C884FE
:10470000DF80EE80FD800C811B81AA81B981CE0FF4
:10471000D11D0FB6F894DEBF0FBECDBFED010895D9
:10472000A0E0B0E0E5E9F3E2CACFEC015B0161157E
:10473000710519F0FB0191838083F9908F2D90E032
:1047400049D3892BD1F7FDE2FF1621F4F990EE242D
:10475000E39405C02BE2F21609F4F990EE248E01E1
:1047600001501040C80167EA73E043E050E042D3D3
:10477000892BF9F48E010E5F1F4FC8016AEA73E0BE
:1047800045E050E037D3892B19F48E01095F1F4FA4
:10479000A114B10419F0F50111830083E0FC04C0F9
:1047A00070E090E080E813C070E090E080E86FEF88
:1047B00003C1C8016FEA73E043E050E01BD3892BCB
:1047C00069F4A114B10429F470E090E080EC6FE783
:1047D000F3C02296F501D183C083F6CF88249924B3
:1047E00040E050E060E070E0EF2DE053EA30A0F5EB
:1047F000F2E0EF2A8E2D90E09C0128703070E2FEEE
:1048000006C0232B79F50894811C911C2BC0232B07
:1048100019F0089481089108DB01CA0112E0880FA1
:10482000991FAA1FBB1F1A95D1F7480F591F6A1F5E
:104830007B1F440F551F661F771F4E0F511D611DB3
:10484000711D483929E9520729E9620729E17207F0
:1048500048F084E0E82A06C0EE3F31F4E3FC39C0BA
:1048600098E0E92AF990C0CFE53311F0E53189F5F8
:1048700029912D3219F4E0E1EE2A05C02B3219F00E
:1048800081E090E003C0299182E090E0E22FE053C4
:10489000EA3018F0C81BD90B1CC020E030E0FCE067
:1048A00020383F075CF4C901880F991F880F991FB2
:1048B000280F391F220F331F2E0F311DE991E053AE
:1048C000EA3068F3E4FE03C0309521953F4F820E35
:1048D000931ECE2CDD24E1FE07C0A114B10421F00B
:1048E0002197F501D183C083CB01BA0174DD7B012F
:1048F0008C01F3E0CF22DD2423E0C216D10421F4A1
:1049000017FB109517F9109557016801C801B701F9
:1049100020E030E040E050E0C6DC882309F448C0E5
:1049200097FE0DC026ECE22E23E0F22E90948194A7
:1049300091089394C0E2D0E000E010E011C09EED39
:10494000E92E93E0F92EF6CFF701259135914591A7
:104950005491C601B501F5DD5B016C018C1A9D0A0D
:104960008C169D068CF7D595C7950F5F1F4F0630A7
:10497000110529F08CEF9FEFE80EF91EF1CFC5016C
:10498000D6017C018D018C2D880F8D2D881F8F3FC6
:1049900049F0C601B50120E030E040E050E083DCA2
:1049A000882331F482E290E09093170880931608F0
:1049B0007E2D9F2D802F612F272F392F482F562F87
:1049C000B901CA01CDB7DEB7ECE095CE2F923F9288
:1049D0005F926F927F928F929F92AF92BF92CF928F
:1049E000DF92EF92FF920F931F93CF93DF938C018F
:1049F0001B01EA016115710519F0FB0191838083A8
:104A0000209749F0CE010297839728F020E030E00C
:104A100040E050E0F3C0F801A1908F018A2D90E0B2
:104A2000D9D1892BC1F7FDE2AF1631F4F801A1907D
:104A30008F015524539407C0FBE2AF1619F4F80117
:104A4000A1908F015524209719F0C031D105C1F4F0
:104A5000F0E3AF1679F4F8018081883711F08835DA
:104A600049F4F801A1800E5F1F4FF2E05F2AC0E118
:104A7000D0E006C0209721F480E3A816E9F427C00F
:104A8000C830D10531F1C930D10524F4C230D10587
:104A900031F50CC0CA30D10589F0C031D105F9F427
:104AA000C12CD12CE12CB8E0FB2E27C0C12CD12C7D
:104AB000E12CA0E4FA2E21C0CAE0D0E0FCECCF2E1D
:104AC000FCECDF2EFCECEF2EFCE0FF2E16C0C8E065
:104AD000D0E0C12CD12CE12CE0E1FE2E0EC09E01D5
:104AE000442737FD4095542F60E070E080E090E867
:104AF000BEDDC901DA016C017D0120E030E040E05B
:104B000050E060E03E01882477FC8094982C70EDA2
:104B1000B72EBA0CE9E0EB1570F48A2D81548A3176
:104B200018F499ECB92E06C08A2D81568A3148F5C1
:104B300089EAB82EBA0C8B2D90E08C179D070CF5E6
:104B40006F3FD9F0C216D306E406F506A8F0CA01F5
:104B5000B901A401930158DD9B01AC012B0D311D5E
:104B6000411D511D2130F0E03F07F0E04F07F0E814
:104B70005F0710F461E001C06FEFF801A1908F01B1
:104B8000C6CF2114310481F0662331F0015010406A
:104B9000F1011183008308C051FE1AC00250104079
:104BA000F1011183008314C067FF12C050FC05C0DF
:104BB0002FEF3FEF4FEF5FE704C020E030E040E031
:104BC00050E882E290E0909317088093160816C090
:104BD00050FE08C050954095309521953F4F4F4F5E
:104BE0005F4F0CC057FF0AC082E290E09093170815
:104BF000809316082FEF3FEF4FEF5FE7B901CA012F
:104C0000DF91CF911F910F91FF90EF90DF90CF90A8
:104C1000BF90AF909F908F907F906F905F903F90EC
:104C20002F900895283008F027E03327DA01990FF4
:104C3000311D87FD916000966105710539F4326080
:104C40002E5F3D9330E32A95E1F708959F3F30F0C2
:104C500080387105610509F03C5F3C5F3D93913000
:104C600008F08068911DDF93CF931F930F93FF92FD
:104C7000EF92192F987F9695E92F96959695E90FC3
:104C8000FF27E45CFB4F99273327EE24FF24A7017D
:104C9000E70105900894079428F4360FE71EF81EE4
:104CA000491F511D660F771F881F991F0694A1F792
:104CB0000590079428F4E70EF81E491F561FC11DE2
:104CC000770F881F991F661F0694A1F70590079418
:104CD00028F4F80E491F561FC71FD11D880F991FB2
:104CE000661F771F0694A1F70590079420F4490FDB
:104CF000561FC71FD81F990F661F771F881F06945E
:104D0000A9F784911095177041F0D695C7955795DE
:104D10004795F794E7941A95C1F7E2EEF3E06894AB
:104D20001590159135916591959105907FE2739558
:104D3000E118F10A430B560BC90BD009C0F7E10C7F
:104D4000F11E431F561FC91FD01D7EF4703311F48E
:104D50008A95E6CFE894015030F0080F0AF4002756
:104D6000021708F4202F2395022F7A3328F079E3D5
:104D70007D932A95E9F710C07D932A9589F60694CC
:104D800097956795379517951794E118F10A430B96
:104D9000560BC90BD00998F023957E9173957A3301
:104DA00008F070E37C932013B8F77E9170617D93D7
:104DB00030F0839571E37D9370E32A95E1F7112438
:104DC000EF90FF900F911F91CF91DF91992787FD71
:104DD00090950895911174C1803219F089508550D1
:104DE000D0F708959111089581568A5108F48052A0
:104DF00085580895FB01DC014150504088F08D91A9
:104E000081341CF08B350CF4805E659161341CF0AC
:104E10006B350CF4605E861B611171F3990B08957C
:104E2000881BFCCFFC010590615070400110D8F741
:104E3000809590958E0F9F1F089544EE53E02EC0ED
:104E4000FC018191861721F08823D9F799270895CD
:104E50003197CF010895FB01DC018D9101908019FC
:104E60000110D9F3990B0895FB01DC01415050402A
:104E700048F001900D920020C9F701C01D924150E9
:104E80005040E0F70895FC0161507040019001101E
:104E9000D8F7809590958E0F9F1F0895FA01A191E4
:104EA000B081009719F41097E1F0CD01DC01CD013C
:104EB0000D90002011F4C00113C0FB0121912223A9
:104EC00019F02015D9F7F3CFFB012191201519F422
:104ED0001E92119606C02223C1F70D900020A1F763
:104EE000D001FA01A193B0830895A0E0B0E0EAE711
:104EF000F7E2EFCB9E01275F3F4F8D819E816F814F
:104F00007885A9010E94791D2096E2E0FECB0F93DF
:104F10001F93CF93DF938C01EB018B8181FF1BC02B
:104F200082FF0DC02E813F818C819D81281739071A
:104F300064F4E881F9810193F983E88306C0E88588
:104F4000F985802F0995892B31F48E819F810196F7
:104F50009F838E8302C00FEF1FEFC801DF91CF91B7
:104F60001F910F910895EF92FF920F931F93CF938C
:104F7000DF937C018B01DB0113968C9181FD03C0D3
:104F8000CFEFDFEF13C0C0E0D0E00BC0D801189620
:104F9000ED91FC911997B8010995892B11F0CFEF8C
:104FA000DFEFF70181917F01882381F7CE01CDB733
:104FB000DEB7E6E0A6CBFA01AA27283051F120316E
:104FC00081F1E8946F936E7F6E5F7F4F8F4F9F4F9D
:104FD000AF4FB1E03ED0B4E03CD0670F781F891FDF
:104FE0009A1FA11D680F791F8A1F911DA11D6A0FAD
:104FF000711D811D911DA11D20D009F468943F9160
:105000002AE0269F11243019305D3193DEF6CF015E
:105010000895462F4770405D4193B3E00FD0C9F724
:10502000F6CF462F4F70405D4A3318F0495D31FD91
:105030004052419302D0A9F7EACFB4E0A6959795E4
:10504000879577956795BA95C9F7009761057105BA
:1050500008959B01AC010A2E069457954795379504
:105060002795BA95C9F7620F731F841F951FA01D5E
:105070000895DC01CB01FC01F999FECF06C0F2BD19
:10508000E1BDF89A319600B40D9241505040B8F706
:105090000895DC01CB0102C02D9105D04150504054
:1050A000D8F70895262FF999FECF1FBA92BD81BD7A
:1050B00020BD0FB6F894FA9AF99A0FBE019608959A
:0A50C000992788270895F894FFCF80
:1050CA0025660D0A0025750D0A007B2252414E47BE
:1050DA0045223A25662C224D415852414E474522D7
:1050EA003A25667D0D0A0025666D6D0D0A0046613A
:1050FA006C73650054727565007B225245434F52AA
:10510A0044494E47223A2025732C20002244495311
:10511A0054414E43455F6D6D223A205B00252E3384
:10512A00662C005D2C20224D41585F44495354415E
:10513A004E43455F6D6D223A205B005D7D0D0A008E
:10514A0025730D0A003A000000000000000000006C
:10515A000000000000000000000000000000000045
:10516A000000000000000000000000000000000035
:10517A000000000000000000000000000000000025
:10518A000000000000000000000000000000000015
:10519A000000000000000000000100000000000004
:1051AA0000000000000000000000000000000000F5
:1051BA0000000000000000000000000000000000E5
:1051CA0000000000000000000000000000000000D5
:1051DA0000000000000000000000000000000000C5
:1051EA0000000000000000000000000000000000B5
:1051FA0000000000000000000000000000000000A5
:10520A000000000000000000000000000000000094
:10521A000000000000000000000000000000000084
:10522A000000000000000000000000000000000074
:10523A000000000000000000000000000000000064
:10524A000000000000000000000000000000000054
:10525A000000000000000000000000000000000044
:10526A000000000000000000000000000000000034
:10527A000000000000000000000000000000000024
:10528A000000000000000000000000000000000014
:10529A000000000000000000000000000000000004
:1052AA0000000000000000000000000000000000F4
:1052BA0000000000000000000000000000000000E4
:1052CA0000000000000000000000000000000000D4
:1052DA0000000000000000000000000000000000C4
:1052EA00C8420000C8420100834000000104400097
:1052FA000001820800000100000000000000000018
:10530A000000FFFFFF05020401070300FFFF090D6C
:10531A00FFFFFFFF0A06FFFF0B0C0000001102004F
:10532A000208000810010100000000FF000F000041
:10533A00000000200B0000021421000005000000FC
:10534A0000C8000038FF010008000001CC0701F185
:10535A000500A000800838000000000F8900000046
:10536A00000000000107050606000002C7FF9B00B7
:06537A000000010000002C
:00000001FF
