:10000000DEC1000013C2000011C200000FC20000D8
:100010000DC200000BC2000009C2000007C20000B0
:1000200005C2000003C200000C947B0EFFC100005B
:10003000FDC10000FBC10000F9C10000F7C10000D4
:10004000F5C10000F3C10000F1C10000EFC10000E4
:10005000EDC10000EBC10000E9C10000E8C10000F3
:10006000E5C10000E3C10000E1C10000DFC1000004
:10007000DDC10000DBC10000D9C10000D7C1000014
:10008000D5C10000D3C10000D1C10000CFC1000024
:10009000CDC10000CBC10000C9C10000C7C1000034
:1000A000C5C10000C3C10000C1C100005D7D005D8D
:1000B0002C20224D41585F44495354414E43455FE3
:1000C0006D6D223A205B002244495354414E434512
:1000D0005F6D6D223A205B007B225245434F5244B4
:1000E000494E47223A20007D002C224D4158524172
:1000F0004E4745223A007B2252414E4745223A0064
:10010000564C35334C3443440053656E736F723A2A
:100110002000207C2000332E322E31004669726D83
:1001200077617265205265766973696F6E3A200057
:10013000207C2000417765736F6D65204661756393
:10014000657400207C2000487970657274726F6E4F
:10015000697800332E322E310012011001020000A6
:10016000081819F5FF01000102DC0109023E000236
:100170000100C03209040000010202010005240050
:100180001001042402060524060001070582030865
:1001900000FF09040100020A0000000705040240F4
:1001A00000050705830240000504030904220348F3
:1001B000007900700065007200540072006F006EDC
:1001C0000069007800200049006E0063002E0000E6
:1001D000001E0341007700650073006F006D00652D
:1001E0000020004600610075006300650074000097
:1001F000002D3131322C417267756D656E7420743B
:100200006F6F206C6F6E673A20002D3131332C42B6
:1002100061642070617468206F7220686561646534
:10022000723A20002D3130382C546F6F206D616E82
:100230007920706172616D65746572733A20002D6A
:100240003130382C546F6F20666577207061726191
:100250006D6574657273000D0A0031002B302C221D
:100260004E6F206572726F7222004552524F5220BB
:10027000636F6D6D616E6420746F6F206C6F6E675D
:10028000006E616E00696E6600494E46494E4954E3
:10029000594E414ECDCCCC3D0AD7233C17B7D1386F
:1002A00077CC2B329595E6241FB14F0A00002041F0
:1002B0000000C84200401C4620BCBE4CCA1B0E5A5F
:1002C000AEC59D7400407A10F35A00A0724E180912
:1002D0000010A5D4E80000E87648170000E40B54AD
:1002E000020000CA9A3B000000E1F505000080967C
:1002F0009800000040420F000000A08601000000AE
:10030000102700000000E803000000006400000067
:1003100000000A00000000000100000000002C7630
:10032000D888DC674F0823DFC1DFAE59E1B1B7964B
:10033000E5E3E453C63AE651997696E8E6C28426A8
:10034000EB898C9B62ED407C6FFCEFBC9C9F40F284
:10035000BAA56FA5F490055A2AF75C936B6CF96700
:100360006DC11BFCE0E40D47FEF520E6B500D0EDC5
:10037000902E0300943577050080841E080000202D
:100380004E0A000000C80C333333330F986E1283CB
:100390001141EF8D2114893BE65516CFFEE6DB189F
:1003A000D1844B381BF77C1D901DA4BBE424203264
:1003B00084725E228100C9F124ECA1E53D2711245D
:1003C0001FBECFEFDAE0DEBFCDBF04B603FE18C01C
:1003D0008091790790917A07A0917B07B0917C0773
:1003E0008A5C9C4AA244BC4D59F410927907109241
:1003F0007A0710927B0710927C07E0E0F8E30995FA
:1004000014E0A0E0B1E0E0EEFBE402C005900D9244
:10041000AC39B107D9F717E0ACE9B4E001C01D92DF
:10042000A937B107E1F729D00C94EE25E9CD1F9249
:100430000F920FB60F9211242F933F934F935F9318
:100440006F937F938F939F93AF93BF93EF93FF939C
:10045000F8940E94000C7894FF91EF91BF91AF91B6
:100460009F918F917F916F915F914F913F912F91CC
:100470000F900FBE0F901F901895CF92DF92EF92C2
:10048000FF920F931F93DF93CF93CDB7DEB7CA5779
:10049000D0400FB6F894DEBF0FBECDBF8AEB93E01D
:1004A0006CE974E00E94FB1080E880936100109278
:1004B000610084B7877F84BF85B7806885BF85B7B3
:1004C000806885BF88E10FB6F89480936000109231
:1004D00060000FBE83E085BD80916E0081608093D7
:1004E0006E00559A5D98579A5F988091C1008A6016
:1004F0008093C1008091C20089608093C20080E037
:1005000094E120E931E0F9013197F1F70197D9F74A
:100510008CE994E09A8389831E8A89E18D8B81E03E
:100520008C8B82E08B8B89E290E09A8B898B988B05
:100530008F878AE290E09E878D879C878B878BE2EE
:1005400090E09A87898798878F830E945E0E0E9429
:100550007B12789497E0E92EF12CEC0EFD1EC7017A
:100560000E94CA1287E1C82ED12CCC0EDD1EC60116
:100570002DD0A2D5CAD5BED5BBD0B2D51CD7D0D52B
:10058000A5D589E20E94021A89E242E350E060E0C8
:1005900070E000E010E020E030E00E949A1889E26C
:1005A0000E946E180F2D1C2DCD2C0E9471126E2DE5
:1005B000ED820E83812F9C2D29813A814B815C81B4
:1005C000702F0E94E616E1D7C2D7EFCFFC018AEA6E
:1005D00093E0918380838DE993E09383828380E924
:1005E00093E09583848382E893E09783868384E70E
:1005F00093E09187808786E693E0938782878BE5F7
:1006000093E0958784878BE493E0978786878DE3D3
:1006100093E0918B808B8DE293E0938B828B8FE1C3
:1006200093E0958B848B84E193E0978B868B86E0B7
:1006300093E0918F808F84EF92E0938F828F83EE8F
:1006400092E0958F848F82ED92E0978F868F8FEB6B
:1006500092E091A380A380EA92E093A382A383E82F
:1006600092E095A384A384E692E097A386A383E512
:1006700092E091A780A780E392E093A782A785E10B
:1006800092E095A784A781E092E097A786A786EFDE
:1006900091E091AB80AB85EE91E093AB82AB85EDC1
:1006A00091E095AB84AB83EC91E097AB86AB85EAA8
:1006B00091E091AF80AF89E891E093AF82AF8BE694
:1006C00091E095AF84AF89E491E097AF86AFE05CAD
:1006D000FF4F8CE391E08193919382E391E08193CA
:1006E000919387E291E08193919311821082089512
:1006F00060910305709104058091050590910605B0
:1007000020E030E040E85FE30E947A1E2091F70489
:100710003091F8044091F9045091FA040E947A1E35
:100720009B01AC0160E070E080E89FE30E94E21E64
:1007300060930705709308058093090590930A0557
:100740000895DF93CF9300D000D000D0CDB7DEB7AF
:1007500081E08093B90326960FB6F894DEBF0FBEF2
:10076000CDBFCF91DF910895DF93CF9300D000D01C
:1007700000D0CDB7DEB726960FB6F894DEBF0FBE19
:10078000CDBFCF91DF9108950F931F93DF93CF9348
:1007900000D000D000D0CDB7DEB729833A834B8399
:1007A0005C836D837E8309811A818DB79EB708971C
:1007B0000FB6F8949EBF0FBE8DBFEDB7FEB7319652
:1007C000ADB7BEB712961C930E93119780E091E0DF
:1007D000938382838091FB049091FC04A091FD049B
:1007E000B091FE0484839583A683B7830E9400257D
:1007F0008DB79EB708960FB6F8949EBF0FBE8DBFFB
:10080000C8010E947A1426960FB6F894DEBF0FBE78
:10081000CDBFCF91DF911F910F9108950F931F933B
:10082000DF93CF9300D000D000D0CDB7DEB72983BF
:100830003A834B835C836D837E8309811A818DB7F4
:100840009EB708970FB6F8949EBF0FBE8DBFEDB749
:10085000FEB73196ADB7BEB712961C930E931197A3
:1008600080E091E093838283809107059091080551
:10087000A0910905B0910A0584839583A683B78367
:100880000E9400258DB79EB708960FB6F8949EBFBC
:100890000FBE8DBFC8010E947A1426960FB6F89439
:1008A000DEBF0FBECDBFCF91DF911F910F91089595
:1008B0000F931F93DF93CF9300D000D000D0CDB71C
:1008C000DEB729833A834B835C836D837E83098102
:1008D0001A818DB79EB708970FB6F8949EBF0FBECA
:1008E0008DBFEDB7FEB73196ADB7BEB712961C936C
:1008F0000E93119780E091E0938382838091FF04AF
:1009000090910005A0910105B09102058483958323
:10091000A683B7830E9400258DB79EB708960FB6B1
:10092000F8949EBF0FBE8DBFC8010E947A14269610
:100930000FB6F894DEBF0FBECDBFCF91DF911F91F0
:100940000F9108950F931F93DF93CF9300D000D0A2
:1009500000D0CDB7DEB729833A834B835C836D83A8
:100960007E8309811A818DB79EB708970FB6F894D8
:100970009EBF0FBE8DBFEDB7FEB73196ADB7BEB708
:1009800012961C930E93119780E091E093838283DB
:100990008091100790911107A0911207B091130751
:1009A00084839583A683B7830E9400258DB79EB765
:1009B00008960FB6F8949EBF0FBE8DBFC8010E9467
:1009C0007A1426960FB6F894DEBF0FBECDBFCF9136
:1009D000DF911F910F9108950F931F93DF93CF9392
:1009E00000D000D000D0CDB7DEB729833A834B8347
:1009F0005C836D837E8309811A818DB79EB70897CA
:100A00000FB6F8949EBF0FBE8DBFEDB7FEB73196FF
:100A1000ADB7BEB712961C930E93119780E091E08C
:100A2000938382838091F7049091F804A091F90454
:100A3000B091FA0484839583A683B7830E9400252E
:100A40008DB79EB708960FB6F8949EBF0FBE8DBFA8
:100A5000C8010E947A1426960FB6F894DEBF0FBE26
:100A6000CDBFCF91DF911F910F9108950F931F93E9
:100A7000DF93CF9300D000D000D0CDB7DEB729836D
:100A80003A834B835C836D837E8309811A818DB7A2
:100A90009EB708970FB6F8949EBF0FBE8DBFEDB7F7
:100AA000FEB73196ADB7BEB712961C930E93119751
:100AB00080E091E093838283809103059091040507
:100AC000A0910505B091060584839583A683B7831D
:100AD0000E9400258DB79EB708960FB6F8949EBF6A
:100AE0000FBE8DBFC8010E947A1426960FB6F894E7
:100AF000DEBF0FBECDBFCF91DF911F910F91089543
:100B00000F931F93DF93CF9300D000D000D0CDB7C9
:100B1000DEB729833A834B835C836D837E830981AF
:100B20001A8100D000D000D0EDB7FEB73196ADB736
:100B3000BEB712961C930E93119783E091E09383B6
:100B400082838091B7049091B804958384830E9436
:100B500000258DB79EB706960FB6F8949EBF0FBEC0
:100B60008DBFC8010E947A1426960FB6F894DEBF96
:100B70000FBECDBFCF91DF911F910F9108950F93BD
:100B80001F93DF93CF9300D000D000D0CDB7DEB756
:100B900029833A834B835C836D837E8309811A8129
:100BA00000D000D000D0EDB7FEB73196ADB7BEB7DC
:100BB00012961C930E93119783E091E093838283A6
:100BC00080910B05848315820E9400258DB79EB706
:100BD00006960FB6F8949EBF0FBE8DBFC8010E9447
:100BE0007A1426960FB6F894DEBF0FBECDBFCF9114
:100BF000DF911F910F9108950F931F93DF93CF9370
:100C000000D000D000D0CDB7DEB729833A834B8324
:100C10005C836D837E8309811A818BB100D000D003
:100C200000D0EDB7FEB73196ADB7BEB712961C93A4
:100C30000E93119723E031E03383228390E025E087
:100C4000969587952A95E1F78170907095838483B6
:100C50000E9400258DB79EB706960FB6F8949EBFEA
:100C60000FBE8DBFC8010E947A1426960FB6F89465
:100C7000DEBF0FBECDBFCF91DF911F910F910895C1
:100C80000F931F93DF93CF9300D000D000D0CDB748
:100C9000DEB729833A834B835C836D837E8309812E
:100CA0001A818DB79EB708970FB6F8949EBF0FBEF6
:100CB0008DBFEDB7FEB73196ADB7BEB712961C9398
:100CC0000E93119786E091E09383828380910C07C5
:100CD00090910D07A0910E07B0910F078483958323
:100CE000A683B7830E9400258DB79EB708960FB6DE
:100CF000F8949EBF0FBE8DBFC8010E947A1426963D
:100D00000FB6F894DEBF0FBECDBFCF91DF911F911C
:100D10000F910895CF92DF92EF92FF920F931F935E
:100D2000DF93CF9300D000D000D0CDB7DEB72983BA
:100D30003A834B835C836D837E83E980FA8088ED00
:100D400090E0B7010E9463148091B903882319F4DD
:100D50002BE031E002C021E131E000D000D000D032
:100D6000EDB7FEB73196ADB7BEB71296FC92EE92D4
:100D7000119786E191E093838283358324830E94D7
:100D80000025EDB7FEB736960FB6F894FEBF0FBE3E
:100D9000EDBF87EC90E0B7010E94631400E010E023
:100DA0006BE1C62E61E0D62E8DB79EB708970FB6C1
:100DB000F8949EBF0FBE8DBF2DB73EB72F5F3F4F3C
:100DC000ADB7BEB71296FC92EE921197F901D3829D
:100DD000C2828091B004F801E80FF11DEF73F0704A
:100DE00053E0EE0FFF1F5A95E1F7E45FFA4F808161
:100DF0009181A281B381F90184839583A683B7830E
:100E00000E9400250F5F1F4F8DB79EB708960FB643
:100E1000F8949EBF0FBE8DBF0034110529F68FEAEE
:100E200090E0B7010E94631400E010E0ADB7BEB7D8
:100E300018970FB6F894BEBF0FBEADBF2DB73EB723
:100E40002F5F3F4F1296FC92EE921197F901C282EA
:100E5000D3828091B004F801E80FF11DEF73F070B8
:100E600043E0EE0FFF1F4A95E1F7E05FFA4F808104
:100E70009181A281B381F90184839583A683B7838D
:100E80000E9400250F5F1F4F8DB79EB708960FB6C3
:100E9000F8949EBF0FBE8DBF0034110539F68CEA61
:100EA00090E0B7010E946314C7010E947A1426964D
:100EB0000FB6F894DEBF0FBECDBFCF91DF911F916B
:100EC0000F91FF90EF90DF90CF900895EF92FF92F7
:100ED0000F931F93DF93CF9300D000D000D0CDB7F6
:100EE000DEB729833A834B835C836D837E830981DC
:100EF0001A8186EF90E0B8010E9463148DB79EB707
:100F000008970FB6F8949EBF0FBE8DBFEDB7FEB722
:100F10003196ADB7BEB712961C930E93119770E041
:100F2000E72E71E0F72EF382E28280910C07909118
:100F30000D07A0910E07B0910F0784839583A683B8
:100F4000B7830E9400258DB79EB708960FB6F89418
:100F50009EBF0FBE8DBF89EE90E0B8010E94631462
:100F6000ADB7BEB718970FB6F894BEBF0FBEADBFF2
:100F7000EDB7FEB7319612961C930E931197F3823C
:100F8000E2828091AB049091AC04A091AD04B09149
:100F9000AE0484839583A683B7830E9400258DB712
:100FA0009EB708960FB6F8949EBF0FBE8DBF87EE12
:100FB00090E0B8010E946314C8010E947A1426963A
:100FC0000FB6F894DEBF0FBECDBFCF91DF911F915A
:100FD0000F91FF90EF9008950F931F93DF93CF939E
:100FE00000D000D000D0CDB7DEB729833A834B8341
:100FF0005C836D837E8309811A8187E491E0B80167
:101000000E94631483E491E0B8010E94631484E3B6
:1010100091E0B8010E94631480E391E0B8010E945E
:1010200063148CE191E0B8010E94631486E191E0C1
:10103000B8010E94631482E191E0B8010E94631438
:1010400089E091E0B8010E94631480E091E0B8016A
:101050000E946314C8010E947A1426960FB6F89471
:10106000DEBF0FBECDBFCF91DF911F910F910895CD
:101070000F931F93DF93CF9300D000D000D0CDB754
:10108000DEB729833A834B835C836D837E8309813A
:101090001A8183E591E0B8010E946314C8010E949F
:1010A0007A1426960FB6F894DEBF0FBECDBFCF914F
:1010B000DF911F910F910895F999FECF8FEF94E082
:1010C00061E370E044E050E00C94C425F999FECF50
:1010D0008BEF94E061E470E044E050E00C94C425B0
:1010E000F999FECF80E197E061E270E044E050E0E2
:1010F0000C94C425F999FECF87EF94E061E170E08C
:1011000044E050E00E94C425F3CAF999FECF83E081
:1011100095E061E070E044E050E00E94C425E8CA38
:10112000F999FECF87EB94E061E570E042E050E092
:101130000C94C425DF93CF93CDB7DEB72C970FB6B1
:10114000F894DEBF0FBECDBFFC012F8338874987DF
:101150005A876B877C878081882319F40E942B151E
:1011600015C0CF01BE016F5F7F4F0E941B21F9990F
:10117000FECF6B837C838D839E83CE01039661E4D7
:1011800070E044E050E00E94D425A0DF2C960FB61A
:10119000F894DEBF0FBECDBFCF91DF910895DF93EE
:1011A000CF93CDB7DEB72C970FB6F894DEBF0FBE46
:1011B000CDBFFC012F83388749875A876B877C878F
:1011C0008081882319F40E942B1515C0CF01BE0120
:1011D0006F5F7F4F0E941B21F999FECF6B837C8349
:1011E0008D839E83CE01039661E370E044E050E07E
:1011F0000E94D42561DF2C960FB6F894DEBF0FBE97
:10120000CDBFCF91DF910895DF93CF93CDB7DEB7F8
:101210002C970FB6F894DEBF0FBECDBFFC012F8315
:10122000388749875A876B877C878081882319F4A0
:101230000E942B1515C0CF01BE016F5F7F4F0E942A
:101240001B21F999FECF6B837C838D839E83CE0116
:10125000039661E270E044E050E00E94D42540DF54
:101260002C960FB6F894DEBF0FBECDBFCF91DF91A5
:101270000895DF93CF93CDB7DEB72C970FB6F894D0
:10128000DEBF0FBECDBFFC012F83388749875A8749
:101290006B877C878081882319F40E942B1515C0E9
:1012A000CF01BE016F5F7F4F0E941B21F999FECFD6
:1012B0006B837C838D839E83CE01039661E070E017
:1012C00044E050E00E94D42520DF2C960FB6F8941D
:1012D000DEBF0FBECDBFCF91DF910895DF93CF93D7
:1012E000CDB7DEB72C970FB6F894DEBF0FBECDBFDB
:1012F0002F83388749875A876B877C87FC01019049
:101300000020E9F73297E817F90719F40E942B1526
:1013100014C0BE016F5F7F4F0E941B21F999FECF61
:101320006B837C838D839E83CE01039661E170E0A5
:1013300044E050E00E94D425DDDE2C960FB6F894F0
:10134000DEBF0FBECDBFCF91DF910895DF93CF9366
:10135000CDB7DEB72A970FB6F894DEBF0FBECDBF6C
:10136000FC012D833E834F83588769877A8780816C
:10137000882319F40E942B1515C0CF01BE016F5FA1
:101380007F4F4AE050E00E947122F999FECF7C83A2
:101390006B83CE01039661E570E042E050E00E946D
:1013A000D425BEDE2A960FB6F894DEBF0FBECDBFA1
:1013B000CF91DF910895F999FECF8BE095E060E041
:1013C00070E041E050E00E94C425B3C0DF93CF93AA
:1013D000CDB7DEB729970FB6F894DEBF0FBECDBFED
:1013E000FC012C833D834E835F83688779878081EE
:1013F000882319F40E942B1514C0CF01BE016E5F23
:101400007F4F4AE050E00E947122F999FECF698334
:10141000CE01019660E070E041E050E00E94D425EA
:10142000CADF29960FB6F894DEBF0FBECDBFCF91AD
:10143000DF910895DF93CF9300D000D000D0CDB7D7
:10144000DEB729833A834B835C836D837E8310925E
:10145000210180E073D026960FB6F894DEBF0FBE50
:10146000CDBFCF91DF910895DF93CF9300D000D00F
:1014700000D0CDB7DEB729833A834B835C836D837D
:101480007E831092210181E059D026960FB6F89400
:10149000DEBF0FBECDBFCF91DF910895DF93CF9315
:1014A00000D000D000D0CDB7DEB729833A834B837C
:1014B0005C836D837E8381E08093210180E03ED058
:1014C00026960FB6F894DEBF0FBECDBFCF91DF9149
:1014D0000895DF93CF9300D000D000D0CDB7DEB712
:1014E00029833A834B835C836D837E830E94001340
:1014F00026960FB6F894DEBF0FBECDBFCF91DF9119
:101500000895DF93CF9300D000D000D0CDB7DEB7E1
:1015100029833A834B835C836D837E830E945C17AF
:1015200026960FB6F894DEBF0FBECDBFCF91DF91E8
:10153000089580910B058093D2000895882319F0B7
:101540008BB1806202C08BB18F7D8BB90895809181
:10155000AF04882381F080912101882311F081E07C
:10156000EDDF81E08093AA041092B9041092B604D2
:101570001092B50408958091AA04882329F010924E
:10158000AA0481E08093B90408956F927F928F92AC
:101590009F92AF92BF92CF92DF92EF92FF920F9302
:1015A0001F93DF93CF93CDB7DEB760970FB6F89454
:1015B000DEBF0FBECDBF89E2BE016F5F7F4F0E94CD
:1015C0002C188981882309F406C18091B103909178
:1015D000B203A091B303B091B4038093B503909389
:1015E000B603A093B703B093B80380910C07909112
:1015F0000D07A0910E07B0910F078093B103909350
:10160000B203A093B303B093B40389E2BE016E5F4B
:101610007F4F0E94881789E20E9484176B8170E0D7
:1016200080E090E00E94761F209107053091080528
:101630004091090550910A050E94E21E7B018C0130
:101640006091030570910405809105059091060550
:101650002091B1033091B2034091B3035091B40390
:101660000E942C209B01AC01C801B7010E94791E89
:101670007B018C016091F7047091F8048091F9046A
:101680009091FA042091B5033091B6034091B703CD
:101690005091B8030E942C209B01AC01C801B701F6
:1016A0000E94791E5B016C0160930C0770930D071B
:1016B00080930E0790930F076091AB047091AC0478
:1016C0008091AD049091AE042091FF04309100050B
:1016D00040910105509102050E94791E7B018C0109
:1016E0006093AB047093AC048093AD049093AE040C
:1016F000C601B501A80197010E9428201816F4F42C
:10170000C601B501A80197010E94791E2091FB0432
:101710003091FC044091FD045091FE040E942C2065
:101720009B01AC01C801B7010E947A1E6093AB0413
:101730007093AC048093AD049093AE046090AB04BE
:101740007090AC048090AD049090AE0410E0C401A1
:10175000B301209110073091110740911207509169
:1017600013070E94791E9B01AC01C601B5010E94BE
:10177000DE1E88230CF411E01093AF04112319F03E
:1017800080E090E009C090E08091B903882309F4DB
:1017900091E081E09827892F8093B9038823D9F0BD
:1017A0008091B004E82FF0E023E0EE0FFF1F2A95B0
:1017B000E1F7DF01A45FBA4FAD92BD92CD92DC920A
:1017C0001397E05FFA4F60827182828293828F5F0B
:1017D0008F738093B00460960FB6F894DEBF0FBE8F
:1017E000CDBFCF91DF911F910F91FF90EF90DF90D0
:1017F000CF90BF90AF909F908F907F906F90089503
:101800008091B1049091B204A091B304B091B4045A
:101810000196A11DB11D8093B1049093B204A093D1
:10182000B304B093B4048091B904882349F0809143
:10183000B5049091B60401969093B6048093B504D4
:101840002091B5043091B6048091B7049091B8040A
:101850002817390760F080912101882311F080E07A
:101860006DDE1092B9041092B6041092B50408957A
:10187000DA01923049F0933061F09130F9F4E9E502
:10188000F1E022E130E01EC0EBE6F1E02EE330E0D3
:1018900019C0813049F0813018F0823079F408C0E5
:1018A000E9EAF1E0849107C0EDEAF1E0849103C038
:1018B000E1EDF1E08491282F30E004C0E0E0F0E0B9
:1018C00020E030E0ED93FC93C90108959C01409124
:1018D0001F07509120074617570718F4F90190E0A9
:1018E00043C06115710511F0AB01F8CF8091E8009C
:1018F0008E778093E80040E050E0F0CF80911807A9
:10190000882309F447C0853009F446C08091E80077
:1019100083FD44C08091E80082FD36C08091E800DC
:1019200080FF22C08091F3009091F200782F60E058
:10193000292F30E0262B372B07C081918093F100AF
:10194000415050402F5F3F4F4115510519F028304D
:10195000310598F390E02830310509F491E0809149
:10196000E8008E778093E8004115510539F69923F8
:1019700029F60AC080911807882361F0853061F04C
:101980008091E80083FD0AC08091E80082FFF2CFD9
:1019900080E0089582E0089583E0089581E008954D
:1019A0009C0140911F07509120074617570718F4D4
:1019B000F90190E044C06115710511F0AB01F8CF59
:1019C0008091E8008E778093E80040E050E0F0CF0F
:1019D00080911807882309F448C0853009F447C06E
:1019E0008091E80083FD45C08091E80082FD37C00A
:1019F0008091E80080FF23C08091F3009091F20075
:101A0000782F60E0292F30E0262B372B08C08491F7
:101A10008093F1003196415050402F5F3F4F411568
:101A2000510519F02830310590F390E02830310548
:101A300009F491E08091E8008E778093E8004115E9
:101A4000510531F6992321F60AC0809118078823A1
:101A500061F0853061F08091E80083FD0AC08091DB
:101A6000E80082FFF2CF80E0089582E0089583E0ED
:101A7000089581E00895382F282F2EC0822F8F706F
:101A80008093E900231721F4762F942F50E006C0AD
:101A90007091EC009091ED005091F00091FF1BC00F
:101AA0008091EB008E7F8093EB008091ED008D7F25
:101AB0008093ED008091EB0081608093EB00709348
:101AC000EC009093ED005093F0008091EE0087FDC4
:101AD00002C080E008952F5F273080F23F7030937E
:101AE000E90081E008950F931F93CF93DF93062FB2
:101AF000EC0110E02AC09881992329F16B81E981DA
:101B0000FA812C81892F8F70873018F5223010F4DC
:101B100052E001C056E040E028E030E003C04F5FF3
:101B2000220F331F2E173F07D0F36295660F660F03
:101B3000607C991F9927991F692B4295407F452BFF
:101B40009ADF882331F01F5F25961017A0F281E0FD
:101B500001C080E0DF91CF911F910F910895809196
:101B6000190788239CF404C0809118078823B9F0D2
:101B70008091E80082FFF8CF8091E8008B77809316
:101B8000E800089580911807882349F08091E800C3
:101B900080FFF8CF8091E8008E778093E800089569
:101BA0004091E4005091E50024E68091EC0080FF34
:101BB00024C08091E80080FD1EC080911807882312
:101BC00011F482E00895853011F483E00895809146
:101BD000EB0085FF02C081E008958091E4009091C0
:101BE000E5008417950709F3222311F484E0089592
:101BF0002150AC01DACF80E008958091E80082FFA7
:101C0000DCCFF9CF6BD072D0E0EEF0E08081816064
:101C10008083A8EDB0E08C918F778C9319BCE7EDB1
:101C2000F0E080818E7F80838C918F7E8C931092E8
:101C300017070895EF92FF920F931F934FD056D03E
:101C400008ED10E0F80180818F77808380818068C3
:101C5000808380818F7D808319BC10921807109239
:101C60001407109216071092150780EEE82EF12C3B
:101C7000F70180818B7F8083F80180818160808380
:101C800080E060E042E0F7DEE1EEF0E080818E7F10
:101C90008083E2EEF0E080818160808380818860D3
:101CA0008083F70180818E7F8083F801808180614D
:101CB00080831F910F91FF90EF900895E8EDF0E081
:101CC00080818F7E8083E7EDF0E08081816080837A
:101CD00084E082BF81E080931707ACCFE8EDF0E0AD
:101CE00080818E7F80831092E20008951092DA0046
:101CF0001092E10008951F920F920FB60F921124D7
:101D00002F933F934F935F936F937F938F939F9303
:101D1000AF93BF93EF93FF938091E10082FF0AC0DE
:101D20008091E20082FF06C08091E1008B7F80936A
:101D3000E1000FD28091DA0080FF1DC08091D800B1
:101D400080FF19C08091DA008E7F8093DA00809145
:101D5000D90080FF0CC080E189BD82E189BD09B452
:101D600000FEFDCF81E080931807B9D304C019BCF1
:101D700010921807B5D38091E10080FF18C08091C0
:101D8000E20080FF14C08091E2008E7F8093E20029
:101D90008091E20080618093E2008091D8008062AF
:101DA0008093D80019BC85E080931807D2D1809128
:101DB000E10084FF2FC08091E20084FF2BC080E10E
:101DC00089BD82E189BD09B400FEFDCF8091D800B4
:101DD0008F7D8093D8008091E1008F7E8093E10019
:101DE0008091E2008F7E8093E2008091E20081602A
:101DF0008093E20080911407882311F084E007C0EB
:101E00008091E30087FD02C081E001C083E0809300
:101E100018079FD18091E10083FF22C08091E200EA
:101E200083FF1EC08091E100877F8093E10082E004
:101E300080931807109214078091E1008E7F8093A1
:101E4000E1008091E2008E7F8093E2008091E200C9
:101E500080618093E20080E060E042E00CDE79D1B6
:101E6000FF91EF91BF91AF919F918F917F916F9172
:101E70005F914F913F912F910F900FBE0F901F9048
:101E800018951F93DF93CF93CDB7DEB7AC970FB6FE
:101E9000F894DEBF0FBECDBFE9E1F7E08091F1001D
:101EA000819327E0E132F207C9F71FD38091E80060
:101EB00083FF37C18091190730911A07353009F433
:101EC00087C0363040F43130C9F1313070F03330F2
:101ED00009F027C133C0383009F4F5C0393009F4AE
:101EE00004C1363009F01DC196C0803821F0823817
:101EF00009F017C108C09091150780911607882333
:101F000099F0926011C080911D078F708093E90055
:101F10008091EB0090E025E0969587952A95E1F772
:101F2000982F91701092E9008091E800877F80934C
:101F3000E8009093F1001092F100D0C0882319F0CE
:101F4000823009F0EEC090E08F719070009721F020
:101F5000029709F0E6C00CC080911B07813009F0A0
:101F6000E0C010921607333069F5809316072AC037
:101F700080911B07882331F520911D072F7009F4EC
:101F8000D0C02093E9008091EB0080FF1BC033306C
:101F900021F48091EB00806213C08091EB0080619E
:101FA0008093EB0081E090E002C0880F991F2A9592
:101FB000E2F78093EA001092EA008091EB008860DB
:101FC0008093EB001092E9008091E800877F89C040
:101FD000882309F0A6C010911B071F778091E300AA
:101FE0008078812B8093E3008091E800877F809345
:101FF000E800B5DD8091E80080FFFCCF8091E30030
:1020000080688093E300112311F482E001C083E033
:102010008093180786C08058823008F082C0809173
:102020001B0790911C0723E08C3D920709F033C0F9
:1020300083E08C838AE28B837FB7F894DE01159668
:102040006EE040E050E011E2E62FF0E01093570020
:10205000849140FF03C082958F706F5F8F70282F2F
:1020600030E08A3018F0C901C79602C0C901C09695
:102070008D939D934F5F5F4F4431510529F77FBF8B
:102080008091E800877F8093E800CE0103966AE2A2
:1020900070E01CDC12C060911D07AE014F5F5F4F06
:1020A000E7DBBC01009709F43CC08091E800877F22
:1020B0008093E80089819A8173DC8091E8008B77B6
:1020C0008093E8002EC0803861F58091E800877F1A
:1020D0008093E800809114078093F1008091E800DC
:1020E0008E778093E8003BDD1CC08823D1F490916B
:1020F0001B079230B0F48091E800877F8093E8005E
:10210000909314072CDD80911407882331F480917B
:10211000E30087FD02C081E001C084E080931807DE
:10212000E7D18091E80083FF0AC08091E800877FB3
:102130008093E8008091EB0080628093EB00AC9686
:102140000FB6F894DEBF0FBECDBFCF91DF911F91C8
:10215000089508951F9380911807882371F01091B6
:10216000E9008091EC001092E9008091E80083FF83
:1021700001C087DE1F701093E9001F910895FC01D4
:1021800080911807843099F584899589A689B78943
:102190000097A105B10559F186818F708093E90000
:1021A0008091E80082FF23C04091F3002091F2006B
:1021B000942F80E030E0822B932B892B19F46FEF62
:1021C0007FEF04C08091F100682F70E04091F30030
:1021D0002091F200942F80E030E0822B932B892B0A
:1021E00041F48091E8008B778093E80002C06FEFA4
:1021F0007FEFCB010895FB012EE0DB011D922A95B4
:10220000E9F723E023832CE831E1318720872EE0B2
:1022100031E133872287958784870895FC0184857F
:102220009585ADDF9C0197FF02C02EEF3FEFC901FE
:1022300008950895FC0180911807843051F5848930
:102240009589A689B7890097A105B10511F181810A
:102250008F708093E9004091F3002091F200942F59
:1022600080E030E0822B932B892BA9F09091E8003D
:102270008091E8008E778093E80095FD0CC090DC9B
:10228000982F882349F48091E8008E778093E800A6
:1022900003C092E001C090E0892F0895FC01809175
:1022A0001807843091F484899589A689B7890097A5
:1022B000A105B10551F081818F708093E900809173
:1022C000E80080FF02C0CF01B5CF08951F93FC0145
:1022D000162F809118078430E1F484899589A689A6
:1022E000B7890097A105B105A1F081818F70809316
:1022F000E9008091E80085FD08C08091E8008E77B4
:102300008093E8004DDC882329F41093F10080E0ED
:1023100001C082E01F910895282FFB0184859585D7
:10232000622FD4DF882319F420E030E002C02FEFC1
:102330003FEFC9010895CF93DF93EC014096FC0174
:102340008BE0DF011D928A95E9F782E08C83898713
:1023500083E08E87CE01019661E0C5DB882371F0B2
:10236000CE01069661E0BFDB882341F0CE010B96DB
:1023700061E0B9DB882319F081E001C080E0DF91E2
:10238000CF910895CF93DF93EC018091E80083FF14
:10239000A3C0888190E020911D0730911E07281767
:1023A000390709F099C080911A07813269F08232A9
:1023B00020F4803209F090C03CC0823209F46BC036
:1023C000833209F089C07AC080911907813A09F0F7
:1023D00083C08091E800877F8093E8008091E800C7
:1023E00080FFFCCF8C899D89AE89BF898093F100E5
:1023F000292F3A2F4B2F55272093F1009D01442779
:1024000055272093F1008B2F9927AA27BB2780936C
:10241000F100888D8093F100898D8093F1008A8D81
:102420008093F1008091E8008E778093E80097DB3D
:1024300053C080911907813209F04EC08091E800A5
:10244000877F8093E80005C080911807882309F4EE
:1024500043C08091E80082FFF7CF8091F100909116
:10246000F1002091F1003091F1008C8B9D8B2E8B2F
:102470003F8B8091F100888F8091F100898F80914E
:10248000F1008A8F8091E8008B778093E80067DB0A
:10249000CE01CFDE21C0809119078132E9F480910D
:1024A000E800877F8093E8005ADB80911B079091BA
:1024B0001C07998B888BCE01BCDE0EC0809119075A
:1024C000813251F48091E800877F8093E80047DBF8
:1024D000CE0160911B07ADDEDF91CF910895089585
:1024E00008958AEB93E0DADE35CE8AEB93E04ACFAB
:1024F0008AEB93E020CF8AEB93E06AEB74E07BCE2B
:10250000ECEBF0E080818B7F808308950F931F9325
:102510008C01F6DF809164008F7780936400F8016E
:1025200086858093B8008785813059F0813028F006
:10253000823089F08330E1F412C08091B9008E7F3F
:102540001AC08091B90081608093B9008091B90070
:102550008D7F8093B9008091B9008E7F03C08091F8
:10256000B90081608093B9008091B900826008C091
:102570008091B90081608093B9008091B9008D7F0E
:102580008093B9008091BC0084608093BC001F914F
:102590000F910895FC01A481B5819C91848580955B
:1025A00089238C93A681B7819C9185858095892309
:1025B0008C93A081B1818C919485892B8C93A2817D
:1025C000B3818C919585892B8C93CF019FCF84EA21
:1025D0008093BC0090E02AE106C0822F8A95F1F733
:1025E0009F5F993221F08091BC0087FFF6CF83E591
:1025F000089584E98093BC0080E50895FACF08959A
:102600007FDFFCCF8093BB0084E88093BC0090E028
:102610002AE106C0822F8A95F1F79F5F9832F9F080
:102620008091BC0087FFF6CF8091B90090E0887F51
:1026300090708832910589F08932910534F488319F
:10264000910559F0809759F408C08034910529F01C
:102650008035910511F0C89711F48BE408958EE44C
:102660000895882311F484EC01C084E88093BC00B1
:1026700020E030E09AE108C0892F8A95F1F72F5FBA
:102680003F4F2832310521F08091BC0087FFF4CF05
:102690008091BB000895DF92EF92FF920F931F93FA
:1026A000182FD62E072F7A0192DF812F880FAADFED
:1026B000802FA8DF8D2DA6DF8ADF110F812F81608B
:1026C000A1DF81E0CEDFF701808393DF1F910F91BF
:1026D000FF90EF90DF900895CF92DF92FF920F93DB
:1026E0001F93182FF62E072F6A0171DF812F880F95
:1026F00089DF802F87DF8F2D85DF69DF110F812F25
:10270000816080DF80E0ADDFF82E81E0AADF082F56
:1027100070DF9F2D80E010E0802B912BF6019183DC
:1027200080831F910F91FF90DF90CF9008952F929B
:102730003F924F925F926F927F928F929F92AF9251
:10274000BF92CF92DF92EF92FF920F931F93CF939E
:10275000DF93182FF62E072FEA0139DF812F880F1C
:1027600051DF802F4FDF8F2D4DDF31DF110F812F94
:10277000816048DF80E075DFE82E80E072DFA82E00
:1027800080E06FDF282E81E06CDF682E32DFFF24CF
:1027900000E010E01E2D0027FF24EE24BB24CC24F3
:1027A000DD246501BB24AA24EA28FB280C291D2965
:1027B000772488249924E628F7280829192933241E
:1027C00044245524542C432C322C2224E228F32870
:1027D00004291529E882F9820A831B83DF91CF91AE
:1027E0001F910F91FF90EF90DF90CF90BF90AF902F
:1027F0009F908F907F906F905F904F903F902F9021
:102800000895EF92FF920F931F93182FF62E072F24
:10281000E42EDDDE812F880FF5DE802FF3DE8F2D95
:10282000F1DE8E2DEFDEE5DE1F910F91FF90EF9030
:102830000895DF92EF92FF920F931F93182FE62EC9
:10284000072FD42EF52EC3DE812F880FDBDE802FDD
:10285000D9DE8E2DD7DE8F2DD5DE8D2DD3DEC9DED0
:102860001F910F91FF90EF90DF900895BF92CF924C
:10287000DF92EF92FF920F931F93D82EB62EC72EA2
:1028800079018A01A4DE8D2D880FBCDE8C2DBADE85
:102890008B2DB8DE812F9927AA27BB27B3DEC8016D
:1028A000AA27BB27AFDEBB27A12F902F8F2DAADE33
:1028B0008E2DA8DE9EDE1F910F91FF90EF90DF908E
:1028C000CF90BF9008950F931F93CF93DF938B0109
:1028D000FC01EC01849106C090E0B8010E94122531
:1028E000FE01849121968823B9F7DF91CF911F9142
:1028F0000F910895BC0187E592E0E5CF0F931F93F8
:10290000DF93CF9300D000D000D0CDB7DEB72983BE
:102910003A834B835C836D837E8309811A818AE5C8
:1029200092E0B801D0DFC801E5DF26960FB6F89433
:10293000DEBF0FBECDBFCF91DF911F910F910895E4
:10294000EF92FF920F931F93DF93CF9300D000D0AD
:1029500000D0CDB7DEB729833A834B835C836D8388
:102960007E83E980FA808091C8049091C904009721
:1029700039F48CE592E0B701A6DFC701BBDF2BC0BD
:102980000BE210E0809FF001819FF00D909FF00D11
:102990001124E15EF84F80819181B70194DF80912D
:1029A000C8049091C9049C01209FC001219F900DF3
:1029B000309F900D11248A50994FB7010E943E25F7
:1029C000C70198DF8091C8049091C9040197909342
:1029D000C9048093C80426960FB6F894DEBF0FBED4
:1029E000CDBFCF91DF911F910F91FF90EF90089590
:1029F0000F931F93CF93DF93EC018091C8049091C4
:102A0000C9048230910510F501969093C904809312
:102A1000C8040BE210E09C01209FC001219F900D93
:102A2000309F900D11248A50994F0E94BF248091AD
:102A3000C8049091C904809FF001819FF00D909F80
:102A4000F00D1124E15EF84FD183C083DF91CF9167
:102A50001F910F9108958FE392E065ED73E040E0E0
:102A600050E0C6CFDF92EF92FF920F931F93CF9368
:102A7000DF931092CA047C01C0E0D0E013C00D2D9A
:102A800010E0C8010E947D240817190731F4FE01E7
:102A9000E653FB4FD082219602C0F7018083089451
:102AA000E11CF11CF701D080DD2049F7C653DB4F54
:102AB00018828AEC94E0DF91CF911F910F91FF90E3
:102AC000EF90DF9008956F927F928F929F92AF92D6
:102AD000BF92CF92DF92EF92FF920F931F93DF93FB
:102AE000CF93CDB7DEB7C255D0400FB6F894DEBF56
:102AF0000FBECDBF4C015B017A016E010894C11C71
:102B0000D11C8AE2682E712C6C0E7D1E38C0F80133
:102B100060817181C60148E250E00E94BF24C60175
:102B2000A1DFBC01C30148E250E00E94BF24C601FE
:102B3000B5010E94B624009731F0C301B5010E948F
:102B4000B6240097C1F4F40120813181F80162813B
:102B500073816217730741F4F70180819181F40159
:102B60009183808381E012C06115710521F0FB0122
:102B70008681882361F782E090E0E80EF91EF70174
:102B8000008111810115110511F680E0CE5ADF4F49
:102B90000FB6F894DEBF0FBECDBFCF91DF911F916E
:102BA0000F91FF90EF90DF90CF90BF90AF909F90EC
:102BB0008F907F906F9008954F925F926F927F9267
:102BC0008F929F92AF92BF92CF92DF92EF92FF923D
:102BD0000F931F93DF93CF93CDB7DEB7C459D04087
:102BE0000FB6F894DEBF0FBECDBF5C012B01FE0116
:102BF000E157FF4F0083118322833383448355833E
:102C00001B821C821D821E82FE0137968DE0DF0131
:102C10001D928A95E9F71A821982C50160E270E077
:102C20000E94AB248C01009759F17C010894E11CAF
:102C3000F11CF70101900020E9F73197EE19FF0927
:102C4000719720F081EF91E0B70173C043E0C42E8B
:102C5000D12CCC0EDD1EC60160E270E00E94AB24D8
:102C6000009731F084E292E0B60140E150E063C0A9
:102C7000C601B70140E150E00E94BF24F801108274
:102C8000C50166ED73E00E94A8248C0180E034E168
:102C9000C32ED12CCC0EDD1E2DE3A22EB12CAC0EFA
:102CA000BD1E96E6892E912C8C0E9D1E3E01089429
:102CB000611C711C52C0C601B80148E250E00E947C
:102CC000BF2472012CC0D80112962D913C9113970C
:102CD00089819A8128173907F1F46D917C91C5019A
:102CE00048E250E00E94BF24C501BCDEBC01C40123
:102CF00048E250E00E94BF24C501B6010E94B624FC
:102D0000009731F0C401B6010E94B624009719F46F
:102D10001A83098312C0E2E0F0E0EE0EFF1ED70135
:102D20000D911C910115110571F631C08AE092E0F8
:102D3000B60148E250E05CDE31C080E090E066ED34
:102D400073E00E94A8248C01009731F0C601B801FD
:102D500048E250E00E94BF2481E00115110509F00E
:102D6000AACF8823D9F0E981FA81A481B58110978F
:102D7000A9F0FE01E157FF4FCE010396208131817A
:102D80004281538164817581FD01099507C0C301AA
:102D9000B601A20198DE882381F6C8CFCC56DF4F5A
:102DA0000FB6F894DEBF0FBECDBFCF91DF911F915C
:102DB0000F91FF90EF90DF90CF90BF90AF909F90DA
:102DC0008F907F906F905F904F900895CF92DF9299
:102DD000EF92FF920F931F93DF93CF9300D000D019
:102DE00000D0CDB7DEB76C0129833A834B835C8377
:102DF0006D837E83F22EE32E4BC090E00E947D24F3
:102E00008B3321F08D3011F08A30C9F48091F304B6
:102E10009091F404892B61F00F2DF982EA8288EDFC
:102E200093E0B6011E2D2B813C814D815E81C4DE75
:102E30001092D8031092F4041092F30429C0883041
:102E400011F08F3741F4E091F304F091F4043097DE
:102E500011F031970DC02091F3043091F4042F3418
:102E6000310570F4F901E852FC4F8083F901319685
:102E7000F093F404E093F304E852FC4F108208C08E
:102E80008AE692E06F2D7E2D1EDD8F2D9E2D32DD88
:102E90008AEB93E074D997FFB0CF26960FB6F894DB
:102EA000DEBF0FBECDBFCF91DF911F910F91FF907D
:102EB000EF90DF90CF9008950E94020EF89480E288
:102EC0009EE420E931E0F9013197F1F70197D9F754
:102ED0008AEC9CEAA2E4BCED8093790790937A0790
:102EE000A0937B07B0937C072CE088E190E00FB6BD
:102EF000F894A895809360000FBE20936000FFCFE8
:102F000067E870E040E874C366E870E041E070C3D1
:102F10008F929F92AF92BF92CF92DF92EF92FF92E9
:102F20000F931F93DF93CF93CDB7DEB76B970FB699
:102F3000F894DEBF0FBECDBF982E5B01DE01149664
:102F4000E9E2F4E088E101900D928150E1F7892DEA
:102F500069E870E0AE014F5F5F4F4DD3882E8981E5
:102F60008F718983883128F4FE01E80FF11D848177
:102F700089838981F50180838E010E5F1F4F892D22
:102F80006CE870E0A8013AD3F82E8B81F5018387B5
:102F90001486892D6EE870E0A80130D3C82E8A818E
:102FA0009B8123E0880F991F2A95E1F7F50190870F
:102FB0008783892D60E970E0A80120D3D82E8A810B
:102FC0009B81B3E0880F991FBA95E1F7F5019483CF
:102FD0008383892D62E970E0A80110D3E82E8A81ED
:102FE0009B819695879596958795F5019687858718
:102FF000892D66E970E0A80101D3482FFC28F82844
:10300000FD28FE288A819B81F50192838183238597
:10301000348587819085B9010E94AE2072876187CF
:1030200083819481B9010E94AE20768365838F2DC0
:10303000842B6B960FB6F894DEBF0FBECDBFCF9139
:10304000DF911F910F91FF90EF90DF90CF90BF9095
:10305000AF909F908F900895BF92CF92DF92EF92A2
:10306000FF920F931F93DF93CF930F92CDB7DEB7ED
:10307000082F6B0160E370E07E010894E11CF11CF5
:10308000A701B9D2B82E1981107112951F7019833A
:10309000802F61E370E0A701AED2482F898190E0D4
:1030A0008170907020E030E0113011F021E030E0CC
:1030B0008217930721F481E0F601808302C0F601B4
:1030C0001082842F8B290F90CF91DF911F910F9148
:1030D000FF90EF90DF90CF90BF9008950F931F93D4
:1030E000DF93CF9300D000D0CDB7DEB7182F6CE6BA
:1030F00070E0AE014F5F5F4F84D2082F89819A81C3
:10310000AB81BC810097A105B10529F4812F67E847
:1031100070E041E204C0812F67E870E040E468D2CB
:10312000802B0F900F900F900F90CF91DF911F91F8
:103130000F9108952F923F924F925F926F927F92DC
:103140008F929F92AF92CF92DF92EF92FF920F9366
:103150001F93DF93CF93CDB7DEB72D970FB6F894BB
:10316000DEBF0FBECDBF89876A017B01180129012F
:1031700066E070E0AE014D5F5F4F40D2A82E0B813C
:103180001C810115110531F1C701B60128EE33E0AC
:1031900040E050E0C4D73B014C01980140E050E0D2
:1031A00060E070E080E090E4EDD7CA01B90120E072
:1031B00039E040E050E0B3D7DC01CB0126E0B69522
:1031C000A795979587952A95D1F78D839E83AF8391
:1031D000B88709C09EEFA92A1D821E821F82188609
:1031E000662477244301D701C6010A97A109B109D2
:1031F0008F3B9105A105B10510F4AA2019F0AEEF9F
:10320000AA2A5BC0211431044104510491F4898538
:103210006CE670E020E030E040E050E0E3D1A82E22
:103220008CE396EFAFEFBFEF680E791E8A1E9B1EF0
:1032300044C0C214D304E404F50418F00EEFA02E29
:10324000C8C089856EED70E0AE014F5F5F4FD6D18B
:10325000A82EE980FA80AFEFB3E0EA22FB22FA82DF
:10326000E982C201B10142D62DE33AE047E85FE3CB
:10327000F3D66A877B878C879D8700E010E0C801C2
:10328000B70134D69B01AC016A857B858C859D8511
:10329000E3D600D69B01AC0189856CE670E0A2D133
:1032A000A82A84E39FEEAFEFBFEF680E791E8A1E57
:1032B0009B1E96948794779467949EEFA91609F4C1
:1032C00088C0BCE0660C771C881C991CBA95D1F7A5
:1032D0002D813E814F815885A4E0220F331F441F6A
:1032E000551FAA95D1F7CA01B901F7E096958795C0
:1032F00077956795FA95D1F7660D771D881D991D0D
:10330000E6E05695479537952795EA95D1F73AD750
:10331000215030404040504060E070E006C056957B
:103320004795379527956F5F7F4FDA01C901807008
:103330000097A105B10599F7962F8827A90150702C
:10334000480F591F89856EE570E04FD1182F6D81A8
:103350007E818F8198852CE030E040E050E0DFD620
:103360009B01AC01DC01CB0107E0B695A7959795D1
:1033700087950A95D1F7680E791E8A1E9B1EA6E0D6
:103380005695479537952795AA95D1F7C401B3016E
:10339000F9D6215030404040504060E070E006C017
:1033A00056954795379527956F5F7F4FDA01C9018D
:1033B00080700097A105B10599F7962F8827A9017C
:1033C0005070480F591F898561E670E00ED1A12A1F
:1033D000A82A8A2D2D960FB6F894DEBF0FBECDBF5A
:1033E000CF91DF911F910F91FF90EF90DF90CF90E1
:1033F000AF909F908F907F906F905F904F903F9095
:103400002F9008958F929F92AF92BF92CF92DF92AA
:10341000EF92FF920F931F93DF93CF930F92CDB74D
:10342000DEB7A82EDD24EE24FF244E010894811C73
:10343000911C8A2D65EE70E0A401DDD0D82A898127
:10344000833039F088EEE81683E0F80620F0DD24BA
:10345000DA9410E004C00894E11CF11C11E08A2DFC
:1034600041E050E060E070E072D0113011F30DE205
:1034700010E0F801EC5EFB4F8A2DB8014081B8D016
:10348000D82A0F5F1F4F0838110599F78A2D67E872
:1034900070E040E4ADD09D2C982AEE24FF246E010C
:1034A0000894C11CD11C8A2DB601D6DD982A8981C9
:1034B000813039F088EEE81683E0F80620F0992490
:1034C0009A9410E004C00894E11CF11C11E08A2DCC
:1034D00041E050E060E070E03AD0113021F38A2DF5
:1034E00013DDB82E8A2D0CDDF82E8A2D68E070E0F1
:1034F00049E07ED0C82E8A2D6BE070E040E078D0A5
:10350000D82E8A2D64E270E040E055E06ED0E82EBF
:103510008A2D42E350E060E070E000E010E020E03F
:1035200030E008DEFB28FC28FD28FE28F82A8F2D35
:1035300089290F90CF91DF911F910F91FF90EF900C
:10354000DF90CF90BF90AF909F908F900895AF92F3
:10355000BF92CF92DF92EF92FF920F931F93CB0116
:10356000BA01C4D45B016C0120E030E04AE755E4C5
:1035700073D57B018C0120E030E040E85FE31ED48E
:1035800088231CF461E070E020C0C801B70120E08E
:103590003FEF4FE757E45CD51816A4F4C601B50118
:1035A00020E030E040E251E457D574D480E991E066
:1035B00005C0FC013197F1F761507040611571054C
:1035C000C1F706C0C801B70165D4CB010197F1F777
:1035D00080E01F910F91FF90EF90DF90CF90BF9010
:1035E000AF90089543D980E0089523D980E00895ED
:1035F00008D980E008954FD880E008956DD880E024
:10360000089595D880E00895A1E1B0E0E9E0FBE1FC
:10361000DBC53C017F876E876A01FC011782168239
:10362000838181FD03C06FEF7FEF5FC39E012F5F3A
:103630003F4F398B288BF3012381EE85FF8523FDD6
:10364000859123FF8191FF87EE87882309F44AC380
:10365000853251F4EE85FF8523FD859123FF81910D
:10366000FF87EE87853229F490E0B3010E9412258E
:10367000E2CF982F10E0882499241032B0F49B32C6
:1036800069F09C3228F4903251F0933271F40BC0FF
:103690009D3239F0903349F4116028C012601460F3
:1036A00025C0186023C0106121C017FD2AC0892FD2
:1036B00080538A3078F416FF06C0FAE09F9E902C63
:1036C0001124980E13C03AE0839E802C1124880E9A
:1036D00010620CC09E3221F416FD04C3106406C0B3
:1036E0009C3611F4106802C0983659F4EE85FF85B7
:1036F00023FD959123FF9191FF87EE87992309F090
:10370000BCCF892F8554833020F4812F8061905E57
:1037100007C0892F8556833008F09BC1812F8F7E8B
:1037200086FD02C076E0972E6FE3F62EF8229536DE
:1037300019F4F0E4FF2A07C0963619F420E8F22ABB
:1037400002C091109A94F7FE0AC03BE3391518F4B1
:103750005CE3B52E02C0B92CB39427E009C047E062
:10376000491520F4BB2447E0942EF7CF292DBB2424
:10377000C60104969D878C87F601608171818281E4
:103780009381AE014F5F5F4F0B2DD7D76C0109813D
:10379000202E332400FF04C003FD02C01DE209C037
:1037A000F1FE02C01BE205C0F2FC02C010E001C045
:1037B00010E2C1018C709070892BB9F1112311F4C2
:1037C00083E001C084E0881510F088240AC0881ABC
:1037D000F3FC07C080E290E0B3010E9412258A94B6
:1037E000C9F7112329F0812F90E0B3010E9412251F
:1037F00023FE03C001E812E00EC005E812E00BC092
:10380000E114F10409F0805290E0B3010E94122506
:103810000F5F1F4F05C0EF2CFF24F0E1EF22FF24C4
:10382000F8018491882361F711C1F7FE12C0BC0C26
:1038300024FE04C08A81813309F4BA941B141CF05D
:10384000BB24B3942DC0F8E0FB1550F538E0B32E3F
:1038500027C0F6FC25C0892D90E08C159D054CF005
:103860002CEFC2162FEFD20624F030E8F32A01C065
:103870009A94992049F0E2E0F0E0EC0FFD1FE90D89
:10388000F11D80818033A1F3F7FE0AC0B92CB394F7
:10389000892D90E0C816D90614F0992401C09C180F
:1038A000F7FC03C025E030E009C01C141D041CF027
:1038B00021E030E003C096012F5F3F4F112311F04C
:1038C0002F5F3F4F992029F0892D90E00196280F16
:1038D000391F882D90E02817390714F0882401C07B
:1038E000821A4F2C5524C20189709070892B39F0AF
:1038F00008C080E290E0B3010E9412258A948820DB
:10390000C1F7112329F0812F90E0B3010E94122505
:1039100043FE07C008C080E390E0B3010E94122577
:103920008A948820C1F7F7FE46C08601D7FE02C000
:1039300000E010E076010894E11CF11CE01AF10AA5
:1039400041E050E04C0F5D1FE40EF51E26014B18C0
:103950005108892D90E0AA24BB24A81AB90A5FEF68
:103960000F3F150729F48EE290E0B3010E94122563
:10397000C016D10634F0401651061CF4F7018081C0
:1039800001C080E3015010400894E11CF11C0A15AD
:103990001B052CF090E0B3010E941225E0CF0C151E
:1039A0001D0539F49A81963318F4953311F424FEE9
:1039B00081E390E049C08A81813309F00F7E90E075
:1039C000B3010E9412259920A1F08EE290E0B3018C
:1039D0000E94122512E0E1E0F0E0EC0FFD1FE10F84
:1039E000F11D1F5F808190E0B3010E9412259A941F
:1039F00091F744FC03C085E690E002C085E490E0C6
:103A0000B3010E941225D7FC05C0C114D10441F4B2
:103A100004FF06C0D094C194D108D3948DE201C0B4
:103A20008BE290E0B301FED780E305C08F5F26EF05
:103A30003FEFC20ED31E3AE0C316D104BCF790E0AC
:103A4000B301F0D7C601C096B301ECD7CC84DD84B6
:103A500046C1933631F0933799F0933509F055C04C
:103A600022C0F601808189835E010894A11CB11CEB
:103A700022E030E0C20ED31E21E0E22EF12C11C074
:103A8000F601A080B18016FD03C06FEF7FEF02C08A
:103A9000692D70E022E030E0C20ED31EC5017ED752
:103AA0007C011F7712C0F601A080B18016FD03C013
:103AB0006FEF7FEF02C0692D70E022E030E0C20EB0
:103AC000D31EC5013AD77C01106813FF06C019C088
:103AD00080E290E0B301A6D78A94882D90E0E816A2
:103AE000F906B0F30EC0F50117FD859117FF81911E
:103AF0005F0190E0B30196D781108A940894E108A1
:103B0000F108E114F10479F7EAC0943611F099361E
:103B100081F517FF08C0F601208131814281538170
:103B200084E090E00AC0F601808191819C014427E5
:103B300037FD4095542F82E090E0C80ED91E9FE6D5
:103B4000F92EF12257FF09C05095409530952195E7
:103B50003F4F4F4F5F4F90E8F92ACA01B901AE01BC
:103B60004F5F5F4F2AE030E0B1D7E82EE889EE1AC8
:103B700040C0953721F41F7E2AE030E01CC0197F39
:103B80009F3661F0903720F4983509F0ABC00FC034
:103B9000903739F0983709F0A5C004C028E030E02C
:103BA0000AC0106114FD146020E130E004C014FD6F
:103BB000166020E132E017FF08C0F60160817181D4
:103BC0008281938144E050E008C0F60180819181B8
:103BD000BC0180E090E042E050E0C40ED51EAE0192
:103BE0004F5F5F4F73D7E82E5889E51A8FE7F82E9D
:103BF000F122F6FE0BC08EEFF822E91438F4F4FE41
:103C000007C0F2FC05C09FEEF92202C01E2D01C0C4
:103C1000192DF4FE0DC0FE01EE0DF11D80818033E3
:103C200019F4E9EEFE2208C01F5FF2FE05C003C0D2
:103C30008F2D867809F01F5F0F2DF3FC13C0F0FE67
:103C40000EC0181510F09E2C0AC09E2C980C911ACC
:103C5000182D05C080E290E0B301E4D61F5F18156F
:103C6000C8F304C0181510F4811A01C0882404FF99
:103C70000EC080E390E0B301D5D602FF1BC001FD6A
:103C800003C088E790E00EC088E590E00BC0802F6D
:103C9000867881F001FF02C08BE201C080E2F7FC70
:103CA0008DE290E0B301BED605C080E390E0B301A1
:103CB000B9D69A94E914C8F3EA94E1E0F0E0EC0F85
:103CC000FD1FEE0DF11D808190E0B301ABD6EE201B
:103CD00099F705C080E290E0B301A4D68A948820C9
:103CE000C9F7A9CCF30166817781CB016196E2E146
:103CF00087C25058BB27AA270ED070C161D130F0BF
:103D000066D120F031F49F3F11F41EF456C10EF439
:103D1000E095E7FB4CC1E92F72D180F3BA17620737
:103D200073078407950718F071F49EF58AC10EF4A5
:103D3000E0950B2EBA2FA02D0B01B90190010C01BB
:103D4000CA01A0011124FF27591B99F0593F50F4D3
:103D5000503E68F11A16F040A22F232F342F44272B
:103D6000585FF3CF469537952795A795F040539523
:103D7000C9F77EF41F16BA0B620B730B840BBAF0F3
:103D80009150A1F0FF0FBB1F661F771F881FC2F75E
:103D90000EC0BA0F621F731F841F48F48795779572
:103DA0006795B795F7959E3F08F0B3CF9395880F29
:103DB00008F09927EE0F979587950895D4D008F4C9
:103DC00081E008950CD00AC102D140F0F9D030F062
:103DD00021F45F3F19F0EBC0511134C1EEC00FD197
:103DE00098F39923C9F35523B1F3951B550BBB27C2
:103DF000AA2762177307840738F09F5F5F4F220F6F
:103E0000331F441FAA1FA9F333D00E2E3AF0E0E867
:103E100030D091505040E695001CCAF729D0FE2FB3
:103E200027D0660F771F881FBB1F26173707480745
:103E3000AB07B0E809F0BB0B802DBF01FF279358FB
:103E40005F4F2AF09E3F510568F0B1C0FBC05F3F55
:103E5000ECF3983EDCF3869577956795B795F795E3
:103E60009F5FC9F7880F911D9695879597F90895DB
:103E7000E1E0660F771F881FBB1F62177307840777
:103E8000BA0720F0621B730B840BBA0BEE1F88F786
:103E9000E0950895BCD088F09F5790F0B92F9927EE
:103EA000B751A0F0D1F0660F771F881F991F1AF045
:103EB000BA95C9F712C0B13081F0C3D0B1E008950E
:103EC000C0C0672F782F8827B85F39F0B93FCCF38F
:103ED000869577956795B395D9F73EF4909580953B
:103EE000709561957F4F8F4F9F4F0895E89409C05B
:103EF00097FB3EF490958095709561957F4F8F4F1D
:103F00009F4F9923A9F0F92F96E9BB279395F69532
:103F1000879577956795B795F111F8CFFAF4BB0FB0
:103F200011F460FF1BC06F5F7F4F8F4F9F4F16C014
:103F3000882311F096E911C0772321F09EE8872F9E
:103F4000762F05C0662371F096E8862F70E060E05A
:103F50002AF09A95660F771F881FDAF7880F9695D3
:103F6000879597F90895990F0008550FAA0BE0E877
:103F7000FEEF16161706E807F907C0F0121613062B
:103F8000E407F50798F0621B730B840B950B39F46B
:103F90000A2661F0232B242B252B21F408950A26D1
:103FA00009F4A140A6958FEF811D811D089597F911
:103FB0009F6780E870E060E008959FEF80EC0895CF
:103FC00000240A94161617061806090608950024F8
:103FD0000A9412161306140605060895092E039472
:103FE000000C11F4882352F0BB0F40F4BF2B11F4E6
:103FF00060FF04C06F5F7F4F8F4F9F4F089557FD45
:104000009058440F551F59F05F3F71F04795880F46
:1040100097FB991F61F09F3F79F0879508951216DD
:1040200013061406551FF2CF4695F1DF08C0161689
:1040300017061806991FF1CF86957105610508943A
:104040000895E894BB2766277727CB0197F9089551
:104050008ADF08F48FEF08950BD0C0CFB1DF28F0CE
:10406000B6DF18F0952309F0A2CFA7CF1124EACF2D
:10407000C6DFA0F3959FD1F3950F50E0551F629FC7
:10408000F001729FBB27F00DB11D639FAA27F00DB1
:10409000B11DAA1F649F6627B00DA11D661F829FD8
:1040A0002227B00DA11D621F739FB00DA11D621FBD
:1040B000839FA00D611D221F749F3327A00D611DDA
:1040C000231F849F600D211D822F762F6A2F1124BC
:1040D0009F5750408AF0E1F088234AF0EE0FFF1F0F
:1040E000BB1F661F771F881F91505040A9F79E3F46
:1040F000510570F05CCFA6CF5F3FECF3983EDCF348
:10410000869577956795B795F795E7959F5FC1F782
:10411000FE2B880F911D9695879597F90895629FBC
:10412000D001739FF001829FE00DF11D649FE00DAF
:10413000F11D929FF00D839FF00D749FF00D659F10
:10414000F00D9927729FB00DE11DF91F639FB00D0F
:10415000E11DF91FBD01CF0111240895AA1BBB1B4E
:1041600051E107C0AA1FBB1FA617B70710F0A61B77
:10417000B70B881F991F5A95A9F780959095BC0198
:10418000CD010895A1E21A2EAA1BBB1BFD010DC093
:10419000AA1FBB1FEE1FFF1FA217B307E407F507F7
:1041A00020F0A21BB30BE40BF50B661F771F881FD3
:1041B000991F1A9469F760957095809590959B0169
:1041C000AC01BD01CF0108952F923F924F925F92B3
:1041D0006F927F928F929F92AF92BF92CF92DF9217
:1041E000EF92FF920F931F93CF93DF93CDB7DEB77C
:1041F000CA1BDB0B0FB6F894DEBF0FBECDBF099410
:104200002A88398848885F846E847D848C849B8466
:10421000AA84B984C884DF80EE80FD800C811B8174
:10422000AA81B981CE0FD11D0FB6F894DEBF0FBEA3
:10423000CDBFED010895A0E0B0E0E0E2F1E2CACF29
:10424000EC015B016115710519F0FB01918380831D
:10425000F9908F2D90E049D3892BD1F7FDE2FF161D
:1042600021F4F990EE24E39405C02BE2F21609F450
:10427000F990EE248E0101501040C80169E872E007
:1042800043E050E042D3892BF9F48E010E5F1F4FBB
:10429000C8016CE872E045E050E037D3892B19F48F
:1042A0008E01095F1F4FA114B10419F0F5011183AC
:1042B0000083E0FC04C070E090E080E813C070E090
:1042C00090E080E86FEF03C1C80161E972E043E06C
:1042D00050E01BD3892B69F4A114B10429F470E0D8
:1042E00090E080EC6FE7F3C02296F501D183C083A4
:1042F000F6CF8824992440E050E060E070E0EF2D94
:10430000E053EA30A0F5F2E0EF2A8E2D90E09C0118
:1043100028703070E2FE06C0232B79F50894811CCA
:10432000911C2BC0232B19F0089481089108DB0104
:10433000CA0112E0880F991FAA1FBB1F1A95D1F757
:10434000480F591F6A1F7B1F440F551F661F771F99
:104350004E0F511D611D711D483929E9520729E988
:10436000620729E1720748F084E0E82A06C0EE3FC0
:1043700031F4E3FC39C098E0E92AF990C0CFE53385
:1043800011F0E53189F529912D3219F4E0E1EE2A99
:1043900005C02B3219F081E090E003C0299182E042
:1043A00090E0E22FE053EA3018F0C81BD90B1CC094
:1043B00020E030E0FCE020383F075CF4C901880FC2
:1043C000991F880F991F280F391F220F331F2E0F97
:1043D000311DE991E053EA3068F3E4FE03C0309503
:1043E00021953F4F820E931ECE2CDD24E1FE07C0A7
:1043F000A114B10421F02197F501D183C083CB0131
:10440000BA0174DD7B018C01F3E0CF22DD2423E0CF
:10441000C216D10421F417FB109517F91095570116
:104420006801C801B70120E030E040E050E0C6DCA0
:10443000882309F448C097FE0DC028EAE22E22E046
:10444000F22E9094819491089394C0E2D0E000E021
:1044500010E011C090ECE92E92E0F92EF6CFF701B2
:104460002591359145915491C601B501F5DD5B016A
:104470006C018C1A9D0A8C169D068CF7D595C795F4
:104480000F5F1F4F0630110529F08CEF9FEFE80EEC
:10449000F91EF1CFC501D6017C018D018C2D880F4D
:1044A0008D2D881F8F3F49F0C601B50120E030E017
:1044B00040E050E083DC882331F482E290E0909386
:1044C0007807809377077E2D9F2D802F612F272FD0
:1044D000392F482F562FB901CA01CDB7DEB7ECE00E
:1044E00095CE2F923F925F926F927F928F929F9282
:1044F000AF92BF92CF92DF92EF92FF920F931F93F2
:10450000CF93DF938C011B01EA016115710519F04E
:10451000FB0191838083209749F0CE010297839716
:1045200028F020E030E040E050E0F3C0F801A19036
:104530008F018A2D90E0D9D1892BC1F7FDE2AF160A
:1045400031F4F801A1908F015524539407C0FBE288
:10455000AF1619F4F801A1908F015524209719F096
:10456000C031D105C1F4F0E3AF1679F4F8018081D0
:10457000883711F0883549F4F801A1800E5F1F4F8C
:10458000F2E05F2AC0E1D0E006C0209721F480E38A
:10459000A816E9F427C0C830D10531F1C930D105DA
:1045A00024F4C230D10531F50CC0CA30D10589F0F0
:1045B000C031D105F9F4C12CD12CE12CB8E0FB2E8F
:1045C00027C0C12CD12CE12CA0E4FA2E21C0CAE0D6
:1045D000D0E0FCECCF2EFCECDF2EFCECEF2EFCE070
:1045E000FF2E16C0C8E0D0E0C12CD12CE12CE0E1B8
:1045F000FE2E0EC09E01442737FD4095542F60E0EB
:1046000070E080E090E8BEDDC901DA016C017D0157
:1046100020E030E040E050E060E03E01882477FC9C
:104620008094982C70EDB72EBA0CE9E0EB1570F47D
:104630008A2D81548A3118F499ECB92E06C08A2D3E
:1046400081568A3148F589EAB82EBA0C8B2D90E054
:104650008C179D070CF56F3FD9F0C216D306E40600
:10466000F506A8F0CA01B901A401930158DD9B0128
:10467000AC012B0D311D411D511D2130F0E03F07D4
:10468000F0E04F07F0E85F0710F461E001C06FEF62
:10469000F801A1908F01C6CF2114310481F0662367
:1046A00031F001501040F1011183008308C051FE28
:1046B0001AC002501040F1011183008314C067FF3B
:1046C00012C050FC05C02FEF3FEF4FEF5FE704C073
:1046D00020E030E040E050E882E290E090937807FC
:1046E0008093770716C050FE08C0509540953095CE
:1046F00021953F4F4F4F5F4F0CC057FF0AC082E2DA
:1047000090E090937807809377072FEF3FEF4FEF7C
:104710005FE7B901CA01DF91CF911F910F91FF901F
:10472000EF90DF90CF90BF90AF909F908F907F9051
:104730006F905F903F902F900895283008F027E009
:104740003327DA01990F311D87FD916000966105CD
:10475000710539F432602E5F3D9330E32A95E1F71D
:1047600008959F3F30F080387105610509F03C5F86
:104770003C5F3D93913008F08068911DDF93CF93AB
:104780001F930F93FF92EF92192F987F9695E92F21
:1047900096959695E90FFF27E25EFC4F9927332700
:1047A000EE24FF24A701E70105900894079428F45C
:1047B000360FE71EF81E491F511D660F771F881F11
:1047C000991F0694A1F70590079428F4E70EF81EA8
:1047D000491F561FC11D770F881F991F661F06941A
:1047E000A1F70590079428F4F80E491F561FC71F1C
:1047F000D11D880F991F661F771F0694A1F705909A
:10480000079420F4490F561FC71FD81F990F661F22
:10481000771F881F0694A9F784911095177041F0AF
:10482000D695C79557954795F794E7941A95C1F78C
:10483000E4ECF2E0689415901591359165919591AD
:1048400005907FE27395E118F10A430B560BC90BF3
:10485000D009C0F7E10CF11E431F561FC91FD01D20
:104860007EF4703311F48A95E6CFE894015030F06D
:10487000080F0AF40027021708F4202F2395022FAF
:104880007A3328F079E37D932A95E9F710C07D9378
:104890002A9589F6069497956795379517951794F5
:1048A000E118F10A430B560BC90BD00998F0239578
:1048B0007E9173957A3308F070E37C932013B8F7F8
:1048C0007E9170617D9330F0839571E37D9370E309
:1048D0002A95E1F71124EF90FF900F911F91CF914E
:1048E000DF91992787FD90950895911174C18032C9
:1048F00019F089508550D0F7089591110895815687
:104900008A5108F4805285580895FB01DC0141501A
:10491000504088F08D9181341CF08B350CF4805E12
:10492000659161341CF06B350CF4605E861B61117F
:1049300071F3990B0895881BFCCFFC010590615021
:1049400070400110D8F7809590958E0F9F1F0895A5
:1049500045EF54E02EC0FC018191861721F0882399
:10496000D9F7992708953197CF010895FB01DC010C
:104970008D91019080190110D9F3990B0895FB01D5
:10498000DC014150504048F001900D920020C9F7E1
:1049900001C01D9241505040E0F70895FC01615064
:1049A000704001900110D8F7809590958E0F9F1F51
:1049B0000895FA01A191B081009719F41097E1F0E0
:1049C000CD01DC01CD010D90002011F4C00113C018
:1049D000FB012191222319F02015D9F7F3CFFB0118
:1049E0002191201519F41E92119606C02223C1F7B9
:1049F0000D900020A1F7D001FA01A193B083089592
:104A0000A0E0B0E0E5E0F5E2EFCB9E01275F3F4F8D
:104A10008D819E816F817885A9010E94041B20965B
:104A2000E2E0FECB0F931F93CF93DF938C01EB015A
:104A30008B8181FF1BC082FF0DC02E813F818C8145
:104A40009D812817390764F4E881F9810193F9837E
:104A5000E88306C0E885F985802F0995892B31F414
:104A60008E819F8101969F838E8302C00FEF1FEF7F
:104A7000C801DF91CF911F910F910895EF92FF929E
:104A80000F931F93CF93DF937C018B01DB01139670
:104A90008C9181FD03C0CFEFDFEF13C0C0E0D0E009
:104AA0000BC0D8011896ED91FC911997B8010995A2
:104AB000892B11F0CFEFDFEFF70181917F01882380
:104AC00081F7CE01CDB7DEB7E6E0A6CBFA01AA2783
:104AD000283051F1203181F1E8946F936E7F6E5F41
:104AE0007F4F8F4F9F4FAF4FB1E03ED0B4E03CD0EF
:104AF000670F781F891F9A1FA11D680F791F8A1FD2
:104B0000911DA11D6A0F711D811D911DA11D20D038
:104B100009F468943F912AE0269F11243019305DF2
:104B20003193DEF6CF010895462F4770405D4193E3
:104B3000B3E00FD0C9F7F6CF462F4F70405D4A3330
:104B400018F0495D31FD4052419302D0A9F7EACFF8
:104B5000B4E0A6959795879577956795BA95C9F727
:104B600000976105710508959B01AC010A2E06941A
:104B70005795479537952795BA95C9F7620F731FD3
:104B8000841F951FA01D0895DC01CB01FC01F9993C
:104B9000FECF06C0F2BDE1BDF89A319600B40D9289
:104BA00041505040B8F70895DC01CB0102C02D916F
:104BB00005D041505040D8F70895262FF999FECFDF
:104BC0001FBA92BD81BD20BD0FB6F894FA9AF99A2A
:104BD0000FBE01960895992788270895F894FFCF6E
:104BE00025660025750025666D6D0046616C736550
:104BF00000547275650025732C2000252E33662C19
:104C000000014155544F00220149014E0A004F4610
:104C100046002E0149011A0A004F4E003901490190
:104C2000340A00574154455200430101020000007C
:104C30004D41585F44495354414E43455F4D4D5F8C
:104C400052455345545F5241544500500101029A68
:104C5000080057415445525F4445424F554E434525
:104C60005F54494D454F55540072010102A6090099
:104C70004D41585F44495354414E43455F4C454173
:104C80004B4147450090010102CF0800444554457F
:104C90004354494F4E5F5448524553484F4C445F2C
:104CA0004D4D00AC0101020409004C4153455250E6
:104CB0004F57455200CA010102E609004949525FB7
:104CC0004245544100DC0101026E09004949525F2E
:104CD000414C50484100EC01010239090053455450
:104CE00000FD01000000000057415445525F53543D
:104CF0004154453F0008021F03FC050052414E4746
:104D0000455F414E445F4D415852414E47453F003B
:104D10001C021F036607004D41585F44495354412C
:104D20004E43455F4D4D5F52455345545F5241548C
:104D3000453F0037021F03C40300424C41434B422E
:104D40004F583F005A021F038A06005741544552EC
:104D50005F4445424F554E43455F54494D454F557D
:104D6000543F006B021F038005004D41585F4449CA
:104D70005354414E43455F4C45414B4147453F00ED
:104D80008A021F03580400444554454354494F4E7A
:104D90005F5448524553484F4C445F4D4D3F00A728
:104DA000021F03A204004C41534552504F57455235
:104DB0003F00C6021F03BF05004949525F474149F2
:104DC0004E3F00D9021F030E04004949525F42457D
:104DD00054413F00EA021F03EC04004949525F417D
:104DE0004C5048413F00FB021F0336050052414E24
:104DF00047453F000D031F03400600474554001B75
:104E00000300000000005245434F52440026037443
:104E100003A1030056455253696F6E3F003403747B
:104E2000033808004552526F723F0044037403A0D8
:104E3000140042544C4F6164657200520366038152
:104E40000A00525354006203740300000053595384
:104E500054656D006D030000000001444542554754
:104E60003F007B030000B40300434C52493243002F
:104E700089030000690A002A49444E3F0097030055
:104E800000EC07002A4F50433F00A40300007E14AB
:104E9000000000C8420000C8420100834000000139
:104EA0000440000001820800000100000000000032
:104EB0000000000000003A000000000000000000B8
:104EC00000000000000000000000000000000000E2
:104ED00000000000000000000000000000000000D2
:104EE00000000000000000000000000000000000C2
:104EF00000000000000000000000000000000000B2
:104F0000000000000000000000FFFFFF0502040198
:104F1000070300FFFF090DFFFFFFFF0A06FFFF0B5E
:104F20000C0000001102000208000810010100003E
:104F30000000FF000F0000000000200B0000021422
:104F40002100000500000000C8000038FF01000833
:104F5000000001CC0701F10500A000800838000026
:104F600000000F8900000000000000010705060690
:0C4F7000000002C7FF9B000000010000D1
:00000001FF
