:1000000040C2000075C2000073C2000071C200004F
:100010006FC200006DC200006BC2000069C2000028
:1000200067C2000065C200000C942B1261C2000080
:100030005FC200005DC200005BC2000059C2000048
:1000400057C2000055C2000053C2000051C2000058
:100050004FC200004DC200004BC200004AC2000067
:1000600047C2000045C2000043C2000041C2000078
:100070003FC200003DC200003BC2000039C2000088
:1000800037C2000035C2000033C2000031C2000098
:100090002FC200002DC200002BC2000029C20000A8
:1000A00027C2000025C2000023C200002D313132DA
:1000B0002C50726F6772616D206D6E656D6F6E6929
:1000C0006320746F6F206C6F6E67002D3131322C9E
:1000D000417267756D656E7420746F6F206C6F6E02
:1000E00067002D3131332C426164207061746820C7
:1000F0006F72206865616465723A20000D0A0033F2
:100100002E30004669726D7761726520526576699E
:1001100073696F6E3A2000207C2000417765736F11
:100120006D652046617563657400207C2000487908
:1001300070657274726F6E6978000D0A00332E302C
:10014000002B302C224E6F206572726F72220D0AC6
:1001500000310D0A004552524F5220636F6D6D61A0
:100160006E6420746F6F206C6F6E670D0A005741CC
:100170005445525F4445424F554E43455F54494DA7
:10018000454F5554004D41585F44495354414E43E7
:10019000455F4C45414B4147450044455445435418
:1001A000494F4E5F5448524553484F4C445F4D4D64
:1001B000004C41534552504F574552004949525FF8
:1001C00042455441004949525F414C504841005317
:1001D000544F52650053544154453F004155544FCC
:1001E000004F4646004F4E00574154455200434C85
:1001F000524932430057415445525F4445424F559E
:100200004E43455F54494D454F55543F004D41586D
:100210005F44495354414E43455F4C45414B414730
:10022000453F00444554454354494F4E5F5448525E
:100230004553484F4C445F4D4D3F004C4153455250
:10024000504F5745523F004949525F4741494E3F41
:10025000004949525F424554413F004949525F417C
:100260004C5048413F0052414E47453F004745549E
:100270000044454255473F002A49444E3F005645F9
:100280005253696F6E3F004552526F723F004254A5
:100290004C4F616465720052535400535953546576
:1002A0006D002A4F50433F004E554C4C0012011038
:1002B00001020000081819F5FF01000102DC010924
:1002C000023E00020100C0320904000001020201E6
:1002D000000524001001042402060524060001077D
:1002E0000582030800FF09040100020A000000075C
:1002F00005040240000507058302400005040309C8
:1003000004220348007900700065007200540072F6
:10031000006F006E0069007800200049006E0063E5
:10032000002E0000001E0341007700650073006F7F
:10033000006D0065002000460061007500630065E7
:1003400000740000006E616E00696E6600494E46E2
:10035000494E4954594E414ECDCCCC3D0AD7233C51
:1003600017B7D13877CC2B329595E6241FB14F0AB9
:10037000000020410000C84200401C4620BCBE4C8A
:10038000CA1B0E5AAEC59D7400407A10F35A00A0E5
:10039000724E18090010A5D4E80000E8764817004E
:1003A00000E40B54020000CA9A3B000000E1F5058E
:1003B000000080969800000040420F000000A086D8
:1003C00001000000102700000000E803000000000A
:1003D0006400000000000A000000000001000000AE
:1003E00000002C76D888DC674F0823DFC1DFAE59C8
:1003F000E1B1B796E5E3E453C63AE651997696E85B
:10040000E6C28426EB898C9B62ED407C6FFCEFBCDE
:100410009C9F40F2BAA56FA5F490055A2AF75C9309
:100420006B6CF9676DC11BFCE0E40D47FEF520E63F
:10043000B500D0ED902E0300943577050080841E22
:10044000080000204E0A000000C80C333333330F7D
:10045000986E12831141EF8D2114893BE65516CF1A
:10046000FEE6DB18D1844B381BF77C1D901DA4BB26
:10047000E424203284725E228100C9F124ECA1E5DB
:100480003D2711241FBECFEFDAE0DEBFCDBF04B69B
:1004900003FE18C08091850390918603A091870385
:1004A000B09188038A5C9C4AA244BC4D59F41092D6
:1004B0008503109286031092870310928803E0E070
:1004C000F8E3099513E0A0E0B1E0EEE7F5E402C03F
:1004D00005900D92A832B107D9F713E0A8E2B3E076
:1004E00001C01D92A538B107E1F729D00C94BD22B7
:1004F00087CD1F920F920FB60F9211242F933F9327
:100500004F935F936F937F938F939F93AF93BF931B
:10051000EF93FF93F8940E94B00F7894FF91EF91BE
:10052000BF91AF919F918F917F916F915F914F910B
:100530003F912F910F900FBE0F901F9018956F92C3
:100540007F928F929F92AF92BF92CF92DF92EF9263
:10055000FF920F931F93DF93CF93CDB7DEB7C75FA3
:10056000D1400FB6F894DEBF0FBECDBFFE01ED50F7
:10057000FF4F119211921192119281E091E0DF01EF
:100580009C011D9221503040E1F71B821A828DE0C0
:1005900093E068E273E00E94AB1480E8809361000E
:1005A0001092610084B7877F84BF85B7806885BF5C
:1005B00085B7806885BF88E10FB6F89480936000A6
:1005C000109260000FBE83E085BD80916E00816057
:1005D00080936E00559A5D98579A5F988091C100FC
:1005E0008A608093C1008091C20089608093C200BC
:1005F00080E094E120E931E0F9013197F1F70197CA
:10060000D9F7198E89E1888F81E08F8B82E08E8BFC
:1006100089E290E09D8B8C8B9B8B8A8B8AE290E0A9
:10062000998B888B9F878E878BE290E09D878C8744
:100630009B878A870E940E120E942F177894CE0102
:100640000A960E946916CE014A9647D0D6D4F4D4B1
:10065000E8D46DD2DCD405D5FAD40E9457178E01A8
:100660000F5F1F4F89E26DE470E0A8010E94EA1657
:10067000898180FFF7CF88E293E09D838C8389E2B4
:1006800068E170E041E00E940B173AE0C32ED12CE4
:10069000CC0EDD1E23EF622E712C6C0E7D1E92E0BF
:1006A000892E912C8C0E9D1E8AE1A82EB12CAC0EA9
:1006B000BD1E0E9425172C2DD986C886C301B40102
:1006C000A501EC80FD800E811F8139850E940A0EF4
:1006D0000E94B20E0E94940EECCF0F931F93DC0188
:1006E00088EA92E011969C938E9321E012962C93C7
:1006F000129714961C921E92139707E715E0169610
:100700001C930E931597FD01379682EA92E0189696
:100710009C938E9317971282B483A38381E89CE005
:1007200096838583AD01425F5F4F8BE992E01F9610
:100730009C938E931E97FA012283B483A38367E868
:1007400075E0768365839D012B5E3F4F87E992E0DC
:1007500056969C938E935597F90112825483438346
:1007600076836583FD017C968EE892E05D969C938E
:100770008E935C971282348323838AE99BE096836D
:100780008583FD01B39687E892E094969C938E93BF
:10079000939712825483438385E29CE096838583FA
:1007A000FD01BA968EE792E09B969C938E939A9762
:1007B00012825483438381E09CE096838583FD010C
:1007C000F19688E792E0D2969C938E93D19712820D
:1007D000B483A38389EC9BE096838583FD01F8961F
:1007E00081E792E0D9969C938E93D8971282B48336
:1007F000A3838BEC9AE0968385839D01215C3F4F18
:100800008DE692E0F901918380831282B483A38301
:1008100016830583FD01EA5BFF4F86E692E0918334
:1008200080831282348323838AEB97E096838583C7
:10083000FD01E35BFF4F8BE592E0918380831282A1
:10084000348323838CEC96E096838583FD01EC5AF8
:10085000FF4F81E592E0918380831282348323836A
:1008600089E896E096838583FD01E55AFF4F87E48A
:1008700092E09183808312823483238380EC95E01D
:1008800096838583FD01EE59FF4F8BE392E09183C0
:10089000808312823483238387E497E09683858361
:1008A000FD01E759FF4F83E292E09183808312823A
:1008B0003483238386E496E096838583FD01E059A3
:1008C000FF4F8DE092E091838083128234832383F3
:1008D00083E096E096838583FD01E958FF4F85EF1D
:1008E00091E0918380831282348323838FE097E0A9
:1008F00096838583FD01E258FF4F8EEE91E0918350
:1009000080831282B483A38383EB9AE096838583EA
:100910009D012B573F4F88EE91E0F9019183808331
:100920001282B483A38316830583FD01E457FF4F2E
:1009300085EE91E0918380831282348323838EE756
:100940009AE096838583FD01ED56FF4F81EE91E09D
:100950009183808312823483238384E69AE0968392
:100960008583FD01E656FF4F8CED91E091838083F6
:1009700012823483238388E99AE096838583FD017C
:10098000EF55FF4F85ED91E0918380831282348390
:1009900023838DE797E0968385839D0128553F4FFC
:1009A0008FEC91E0F901918380831282B483A38359
:1009B00016830583FD01E155FF4F85EC91E091839E
:1009C000808312823483238389E699E0968385832A
:1009D000FD01EA54FF4F8CEB91E0918380831282FA
:1009E0003483238385E199E096838583FD01E35475
:1009F000FF4F81EB91E091838083128234832383C4
:100A000081E19AE096838583FD01EC53FF4F8AE9EB
:100A100091E09183808312823483238381EC98E078
:100A200096838583FD01E553FF4F85E891E091832F
:100A300080831282348323838DE698E096838583B6
:100A4000AE52BF4F8EE691E011969C938E93129614
:100A50001C92129714963C932E9313978DEB99E06A
:100A600016969C938E9315978FE190E01F910F91AE
:100A70000895DF93CF9300D000D000D0CDB7DEB77C
:100A8000E0913603F0913703E230F1055CF43196E2
:100A9000F0933703E0933603EE0FFF1FE95AFC4F44
:100AA0009183808326960FB6F894DEBF0FBECDBF2C
:100AB000CF91DF910895CF93DF93AC019B01FC01AF
:100AC0008491FB018083EB01A0E0B0E006C01196A9
:100AD000FA01EA0FFB1FE491E88389918823B9F7B3
:100AE000A20FB31F11961C92DF91CF910895DF934F
:100AF000CF9300D000D000D0CDB7DEB726960FB68A
:100B0000F894DEBF0FBECDBFCF91DF910895DF9384
:100B1000CF9300D000D000D0CDB7DEB726960FB669
:100B2000F894DEBF0FBECDBFCF91DF9108956091E5
:100B3000650370916603809167039091680320E0DC
:100B400030E040E85FE30E94891B20915D03309113
:100B50005E0340915F03509160030E94891B9B01DB
:100B6000AC0160E070E080E89FE30E94F11B6093BD
:100B7000690370936A0380936B0390936C030895E9
:100B8000DF93CF9300D000D000D0CDB7DEB729835C
:100B90003A834B835C836D837E838DB79EB70897C2
:100BA0000FB6F8949EBF0FBE8DBFEDB7FEB731965E
:100BB00089819A81ADB7BEB712969C938E93119797
:100BC00080E091E0938382838091690390916A032E
:100BD000A0916B03B0916C0384839583A683B78344
:100BE0000E948E218DB79EB708960FB6F8949EBFCF
:100BF0000FBE8DBF26960FB6F894DEBF0FBECDBFD9
:100C0000CF91DF910895DF93CF9300D000D000D033
:100C1000CDB7DEB729833A834B835C836D837E83B4
:100C20008DB79EB708970FB6F8949EBF0FBE8DBFC5
:100C3000EDB7FEB7319689819A81ADB7BEB71296EE
:100C40009C938E93119780E091E0938382838091AF
:100C5000610390916203A0916303B0916403848364
:100C60009583A683B7830E948E218DB79EB7089681
:100C70000FB6F8949EBF0FBE8DBF26960FB6F894A0
:100C8000DEBF0FBECDBFCF91DF910895DF93CF932D
:100C900000D000D000D0CDB7DEB729833A834B8394
:100CA0005C836D837E838DB79EB708970FB6F894EB
:100CB0009EBF0FBE8DBFEDB7FEB7319689819A8179
:100CC000ADB7BEB712969C938E93119780E091E0DA
:100CD000938382838091720390917303A091740334
:100CE000B091750384839583A683B7830E948E2178
:100CF0008DB79EB708960FB6F8949EBF0FBE8DBFF6
:100D000026960FB6F894DEBF0FBECDBFCF91DF9110
:100D10000895DF93CF9300D000D000D0CDB7DEB7D9
:100D200029833A834B835C836D837E838DB79EB723
:100D300008970FB6F8949EBF0FBE8DBFEDB7FEB7F4
:100D4000319689819A81ADB7BEB712969C938E93E6
:100D5000119780E091E09383828380915D0390916D
:100D60005E03A0915F03B091600384839583A683A3
:100D7000B7830E948E218DB79EB708960FB6F89460
:100D80009EBF0FBE8DBF26960FB6F894DEBF0FBE76
:100D9000CDBFCF91DF910895DF93CF9300D000D0E6
:100DA00000D0CDB7DEB729833A834B835C836D8354
:100DB0007E838DB79EB708970FB6F8949EBF0FBE7F
:100DC0008DBFEDB7FEB7319689819A81ADB7BEB7B9
:100DD00012969C938E93119780E091E09383828387
:100DE0008091650390916603A0916703B0916803B9
:100DF00084839583A683B7830E948E218DB79EB787
:100E000008960FB6F8949EBF0FBE8DBF26960FB6FC
:100E1000F894DEBF0FBECDBFCF91DF910895DF9371
:100E2000CF9300D000D000D0CDB7DEB729833A836E
:100E30004B835C836D837E8300D000D000D0EDB700
:100E4000FEB7319689819A81ADB7BEB712969C9351
:100E50008E93119785E091E0938382838091440380
:100E600090914503958384830E948E218DB79EB710
:100E700006960FB6F8949EBF0FBE8DBF26960FB68E
:100E8000F894DEBF0FBECDBFCF91DF910895DF9301
:100E9000CF9300D000D000D0CDB7DEB729833A83FE
:100EA0004B835C836D837E8300D000D000D0EDB790
:100EB000FEB7319689819A81ADB7BEB712969C93E1
:100EC0008E93119785E091E09383828380916D03E7
:100ED000848315820E948E218DB79EB706960FB629
:100EE000F8949EBF0FBE8DBF26960FB6F894DEBF56
:100EF0000FBECDBFCF91DF910895DF93CF9300D088
:100F000000D000D0CDB7DEB729833A834B835C8312
:100F10006D837E838BB100D000D000D0EDB7FEB7DB
:100F2000319629813A81ADB7BEB712963C932E9384
:100F3000119725E031E03383228390E035E09695E8
:100F400087953A95E1F781709070958384830E942C
:100F50008E218DB79EB706960FB6F8949EBF0FBE32
:100F60008DBF26960FB6F894DEBF0FBECDBFCF91D2
:100F7000DF910895DF93CF9300D000D000D0CDB79C
:100F8000DEB729833A834B835C836D837E838DB781
:100F90009EB708970FB6F8949EBF0FBE8DBFEDB7F2
:100FA000FEB7319689819A81ADB7BEB712969C93F0
:100FB0008E9311978AE091E09383828380916E03F0
:100FC00090916F03A0917003B09171038483958316
:100FD000A683B7830E948E218DB79EB708960FB661
:100FE000F8949EBF0FBE8DBF26960FB6F894DEBF55
:100FF0000FBECDBFCF91DF910895F999FECF81E665
:1010000093E061E370E044E050E00C945222F999DF
:10101000FECF82E793E061E270E044E050E00C94A0
:101020005222F999FECF8DE593E061E170E044E052
:1010300050E00E9452227BCDF999FECF85E693E0E5
:1010400061E070E044E050E00E94522270CDF999D6
:10105000FECF84E493E061E470E042E050E00C9461
:101060005222F999FECF8DE693E060E070E041E016
:1010700050E00E9452224AC6DF92EF92FF920F93F5
:101080001F93CF93DF938C01C0E0D0E0EE24FF24C8
:1010900012C0F801EC0FFD1FD0808D2D90E00E9452
:1010A0000321892B39F4F801EE0DFF1DD08208943D
:1010B000E11CF11C2196F80101900020E9F731971D
:1010C000E01BF10BEC17FD0720F7DF91CF911F918B
:1010D0000F91FF90EF90DF9008950F931F93DF9390
:1010E000CF93CDB7DEB72C970FB6F894DEBF0FBE07
:1010F000CDBF8C012F83388749875A876B877C87C0
:10110000FC0101900020E9F73197E81BF90B71977A
:1011100020F5B2DFC801BE016F5F7F4F0E94A91D9D
:101120006B837C838D839E83F80101900020E9F717
:101130003197E01BF10B719780F4F80180818823CF
:1011400061F0F999FECFCE01039661E370E044E0CF
:1011500050E00E94622251DF09C08BEC90E02F81A9
:10116000388549855A856B857C8583DC2C960FB63E
:10117000F894DEBF0FBECDBFCF91DF911F910F91CD
:1011800008950F931F93DF93CF93CDB7DEB72C97BE
:101190000FB6F894DEBF0FBECDBF8C012F8338870A
:1011A00049875A876B877C87FC0101900020E9F70B
:1011B0003197E81BF90B719720F55EDFC801BE017E
:1011C0006F5F7F4F0E94A91D6B837C838D839E83FD
:1011D000F80101900020E9F73197E01BF10B7197BE
:1011E00080F4F8018081882361F0F999FECFCE0167
:1011F000039661E270E044E050E00E94622207DF63
:1012000009C08BEC90E02F81388549855A856B8524
:101210007C852FDC2C960FB6F894DEBF0FBECDBFB9
:10122000CF91DF911F910F9108950F931F93DF933B
:10123000CF93CDB7DEB72C970FB6F894DEBF0FBEB5
:10124000CDBF8C012F83388749875A876B877C876E
:10125000FC0101900020E9F73197E81BF90B719729
:1012600020F50ADFC801BE016F5F7F4F0E94A91DF4
:101270006B837C838D839E83F80101900020E9F7C6
:101280003197E01BF10B719780F4F801808188237E
:1012900061F0F999FECFCE01039661E170E044E080
:1012A00050E00E946222BDDE09C08BEC90E02F81ED
:1012B000388549855A856B857C85DBDB2C960FB696
:1012C000F894DEBF0FBECDBFCF91DF911F910F917C
:1012D00008950F931F93DF93CF93CDB7DEB72C976D
:1012E0000FB6F894DEBF0FBECDBF8C012F833887B9
:1012F00049875A876B877C87FC0101900020E9F7BA
:101300003197E81BF90B719720F5B6DEC801BE01D5
:101310006F5F7F4F0E94A91D6B837C838D839E83AB
:10132000F80101900020E9F73197E01BF10B71976C
:1013300080F4F8018081882361F0F999FECFCE0115
:10134000039661E070E044E050E00E94622274DEA7
:1013500009C08BEC90E02F81388549855A856B85D3
:101360007C8587DB2C960FB6F894DEBF0FBECDBF11
:10137000CF91DF911F910F9108950F931F93DF93EA
:10138000CF93CDB7DEB72A970FB6F894DEBF0FBE66
:10139000CDBF8C012D833E834F83588769877A8721
:1013A000FC0101900020E9F73197E81BF90B7197D8
:1013B00020F562DEC801BE016F5F7F4F4AE050E05A
:1013C0000E94FF1E7C836B83F80101900020E9F7E7
:1013D0003197E01BF10B719780F4F801808188232D
:1013E00061F0F999FECFCE01039661E470E042E02E
:1013F00050E00E9462222BDE09C08BEC90E02D8130
:101400003E814F81588569857A8533DB2A960FB6F0
:10141000F894DEBF0FBECDBFCF91DF911F910F912A
:1014200008950F931F93DF93CF93CDB7DEB729971E
:101430000FB6F894DEBF0FBECDBF8C012C833D8369
:101440004E835F8368877987FC0101900020E9F76C
:101450003197E81BF90B719718F50EDEC801BE0134
:101460006E5F7F4F4AE050E00E94FF1E6983F801E3
:1014700001900020E9F73197E01BF10B719780F4A0
:10148000F8018081882361F0F999FECFCE010196A1
:1014900060E070E041E050E00E946222E2DD09C0BD
:1014A0008BEC90E02C813D814E815F816885798550
:1014B000E0DA29960FB6F894DEBF0FBECDBFCF910C
:1014C000DF911F910F910895DF93CF9300D000D04B
:1014D00000D0CDB7DEB729833A834B835C836D831D
:1014E0007E831092BC0180E016D426960FB6F89445
:1014F000DEBF0FBECDBFCF91DF910895DF93CF93B5
:1015000000D000D000D0CDB7DEB729833A834B831B
:101510005C836D837E831092BC0181E0FCD32696B0
:101520000FB6F894DEBF0FBECDBFCF91DF91089507
:10153000DF93CF9300D000D000D0CDB7DEB72983A2
:101540003A834B835C836D837E8381E08093BC010F
:1015500080E0E1D326960FB6F894DEBF0FBECDBF74
:10156000CF91DF910895DF93CF9300D000D000D0CA
:10157000CDB7DEB729833A834B835C836D837E834B
:101580000E949F1626960FB6F894DEBF0FBECDBF01
:10159000CF91DF9108954F925F926F927F928F92D9
:1015A0009F92AF92BF92CF92DF92EF92FF920F93F2
:1015B0001F93DF93CF93CDB7DEB728970FB6F8947C
:1015C000DEBF0FBECDBF2B833C834D835E836F8315
:1015D00078870B811C81EE24FF242E010894411C86
:1015E000511C71E1672E71E0772E6EE1862E61E06D
:1015F000962E52E0A52EB12CAC0EBD1E42E4C42E98
:1016000041E0D42E89E268E170E041E00E940B17CE
:1016100089E26FE470E0A2010E94EA1689818823C2
:10162000D9F18DB79EB708970FB6F8949EBF0FBE3D
:101630008DBFEDB7FEB73196ADB7BEB712961C930E
:101640000E9311977382628280913E0390913F03C3
:10165000A0914003B091410384839583A683B7830F
:101660000E948E210F900F90EDB7FEB73196ADB767
:10167000BEB712961C930E93119793828282898132
:10168000848315820E948E218DB79EB706960FB671
:10169000F8949EBF0FBE8DBF898182FFB9CF89E2CA
:1016A00062E670E0A5010E94EA1600D000D000D0EA
:1016B000EDB7FEB73196ADB7BEB712961C930E9339
:1016C0001197D382C2828A81848315820E948E21DF
:1016D0008DB79EB706960FB6F8949EBF0FBE8DBF0E
:1016E00089E265E170E047E00E940B170894E11C75
:1016F000F11C98ECE916F10409F084CF82E591E041
:10170000B8010E94CC2128960FB6F894DEBF0FBE18
:10171000CDBFCF91DF911F910F91FF90EF90DF90A0
:10172000CF90BF90AF909F908F907F906F905F9081
:101730004F900895DF93CF9300D000D000D0CDB765
:10174000DEB729833A834B835C836D837E830E945B
:10175000341726960FB6F894DEBF0FBECDBFCF91DB
:10176000DF9108950F931F93CF93DF938B01FC01BB
:10177000EC01849106C090E0B8010E94A021FE0116
:10178000849121968823B9F7DF91CF911F910F9112
:1017900008950F931F93DF93CF9300D000D000D014
:1017A000CDB7DEB729833A834B835C836D837E8319
:1017B00009811A818EE291E0B801D4DF8AE291E0DA
:1017C000B801D0DF8BE191E0B801CCDF87E191E097
:1017D000B801C8DF83E091E0B801C4DF8FEF90E08B
:1017E000B801C0DF8CEF90E0B801BCDF26960FB6E1
:1017F000F894DEBF0FBECDBFCF91DF911F910F9147
:1018000008950F931F93DF93CF9300D000D000D0A3
:10181000CDB7DEB729833A834B835C836D837E83A8
:1018200009811A818DE391E0B8019CDF8AE391E0A0
:10183000B80198DF26960FB6F894DEBF0FBECDBF75
:10184000CF91DF911F910F9108950F931F93DF9315
:10185000CF9300D000D000D0CDB7DEB729833A8334
:101860004B835C836D837E8309811A81E09136030B
:10187000F0913703309729F481E491E0B80172DFE9
:1018800035C0EE0FFF1FE95AFC4F80819181B801EE
:1018900069DF80916B01882301F100D000D000D076
:1018A000EDB7FEB73196ADB7BEB712961C930E9347
:1018B000119783E691E0938382838BE691E0958391
:1018C00084830E948E2110926B018DB79EB706967D
:1018D0000FB6F8949EBF0FBE8DBF809136039091D6
:1018E00037030197909337038093360326960FB6FC
:1018F000F894DEBF0FBECDBFCF91DF911F910F9146
:101900000895DF93CF9300D000D000D0CDB7DEB7DD
:1019100029833A834B835C836D837E8369817A81DB
:1019200081E591E01FDF26960FB6F894DEBF0FBE6B
:10193000CDBFCF91DF910895AF92BF92DF92EF922A
:10194000FF920F931F93CF93DF935B01FB011082F4
:101950007C01C0E0D0E013C00D2D10E0C8010E9452
:101960000B210817190731F4F501EC0FFD1FD08288
:10197000219602C0F70180830894E11CF11CF70155
:10198000D080DD2049F7CA0DDB1D1882DF91CF9191
:101990001F910F91FF90EF90DF90BF90AF9008954F
:1019A000AF92BF92CF92DF92EF92FF920F931F936D
:1019B000CF93DF937C016B01EA0100E010E0BC2EC5
:1019C000AD2E888199816EE072E040E050E073D8DE
:1019D0008EE092E06DEB71E0AFDF8EE092E0B60159
:1019E0000E944421009739F08DEB91E0B6010E94EE
:1019F00044210097C1F4F701408151818B2D9A2D2C
:101A00009C01F901238134812417350729F4F7015A
:101A1000B082A18281E00EC02115310521F0F901CB
:101A20008281813079F30F5F1F4F27960F311105A7
:101A300031F680E0DF91CF911F910F91FF90EF90F1
:101A4000DF90CF90BF90AF9008952F923F924F922A
:101A50005F926F927F928F929F92AF92BF92CF923E
:101A6000DF92EF92FF920F931F93DF93CF93CDB747
:101A7000DEB728970FB6F894DEBF0FBECDBF2B019F
:101A80000B831C832D833E834F8358871A821982D0
:101A900068E671E00E9436217C016B807C80BAE6AA
:101AA000AB2EB1E0BB2E80E01E010894211C311C3E
:101AB0007DC0C70160E270E00E943921FC015C0139
:101AC0008081803221F410820894A11CB11CF7019E
:101AD00001900020E9F73197EE19FF09E135F10592
:101AE00018F08CEA90E00BC0F50101900020E9F7B6
:101AF0003197EA19FB09719758F08BEC90E02B8134
:101B00003C814D815E816F8178850E94390569C075
:101B10008201CC24DD24902E812EF8012381348192
:101B200089819A8128173907E9F48081918160EBD6
:101B300072E0A3010E945B0580EB92E06FE572E02A
:101B4000FBDE80EB92E0B7010E944421009739F060
:101B50008FE592E0B7010E944421009719F4998221
:101B60008A821CC00894C11CD11C095F1F4FFFE171
:101B7000CF16D10481F62EC082EE90E02B813C81FD
:101B80004D815E816F8178850E9439058BE691E0F9
:101B9000B70140E550E00E944D2123C080E090E075
:101BA00068E671E00E9436217C0181E0E114F104D5
:101BB00009F07FCF8823A9F0E981FA810580F681B9
:101BC000E02DC5012B813C814D815E816F8178853F
:101BD000099507C0C101B701A201E2DE8823F1F631
:101BE000CBCF28960FB6F894DEBF0FBECDBFCF91F6
:101BF000DF911F910F91FF90EF90DF90CF90BF90FA
:101C0000AF909F908F907F906F905F904F903F909C
:101C10002F9008958F929F92AF92BF92CF92DF92B2
:101C2000EF92FF920F931F93DF93CF9300D000D0DA
:101C300000D0CDB7DEB75C016B014A01E982FA82C0
:101C40000B831C832D833E83FE2CEA8047C090E0EB
:101C50000E940B218B3321F08D3011F08A30B9F4C2
:101C6000D6018D919C91181619065CF40F2DF982FE
:101C7000EA82C501B4011E2D2B813C814D815E811C
:101C8000E4DEF5011082D6011D921C9227C0883037
:101C900011F08F3749F4D601ED91FC9111971E1682
:101CA0001F06E4F431970FC0D601ED91FC91B1E02D
:101CB000E330FB0774F4EA0DFB1D8083D601ED9140
:101CC000FC9111973196ED93FC93EA0DFB1D108268
:101CD00005C085E591E06F2D7E2D44DD8DE093E01C
:101CE000FED597FFB4CF26960FB6F894DEBF0FBE91
:101CF000CDBFCF91DF911F910F91FF90EF90DF90BB
:101D0000CF90BF90AF909F908F90089580916D037A
:101D10008093D2000895882319F08BB1806202C0AD
:101D20008BB18F7D8BB9089580913D03882381F01D
:101D30008091BC01882311F081E0EDDF81E0809388
:101D40003803109246031092430310924203089501
:101D500080913803882329F01092380381E0809322
:101D600046030895AF92BF92CF92DF92EF92FF9217
:101D70000F931F93DF93CF9300D0CDB7DEB789E2E7
:101D80006FE470E0AE014E5F5F4F0E94EA168A81F9
:101D900082FFD9C08091010390910203A0910303B7
:101DA000B09104038093050390930603A093070367
:101DB000B093080380916E0390916F03A09170031C
:101DC000B09171038093010390930203A0930303E6
:101DD000B093040389E262E670E0AE014F5F5F4FAB
:101DE000F9D789E265E170E047E00E940B1789E2CC
:101DF00068E170E041E00E940B17698170E080E0CB
:101E000090E00E94591C2091690330916A0340912F
:101E10006B0350916C030E94F11B7B018C0160915C
:101E20006503709166038091670390916803209128
:101E300001033091020340910303509104030E9477
:101E40000F1D9B01AC01C801B7010E94881B7B01DB
:101E50008C0160915D0370915E0380915F039091AE
:101E600060032091050330910603409107035091D0
:101E700008030E940F1D9B01AC01C801B7010E941D
:101E8000881B5B016C0160936E0370936F038093FA
:101E9000700390937103E0903903F0903A0300913E
:101EA0003B0310913C03A80197010E940B1D1816DB
:101EB000A4F4C801B7012091090330910A034091AD
:101EC0000B0350910C030E94891B6093390370939C
:101ED0003A0380933B0390933C03E0903903F090E6
:101EE0003A0300913B0310913C03C801B7012091D4
:101EF00072033091730340917403509175030E94F3
:101F0000881B9B01AC01C601B5010E94ED1B882313
:101F1000C4F481E080933D03C801B70120916103BF
:101F20003091620340916303509164030E94881BC7
:101F30006093390370933A0380933B0390933C037F
:101F400002C010923D030F900F90CF91DF911F912F
:101F50000F91FF90EF90DF90CF90BF90AF900895DA
:101F600080913E0390913F03A0914003B0914103C3
:101F70000196A11DB11D80933E0390933F03A09352
:101F80004003B093410380914603882349F0809138
:101F9000420390914303019690934303809342033D
:101FA0002091420330914303809144039091450373
:101FB0002817390760F08091BC01882311F080E078
:101FC000AADE109246031092430310924203089532
:101FD000DA01923049F0933061F09130F9F4EDEA92
:101FE000F2E022E130E01EC0EFEBF2E02EE330E061
:101FF00019C0813049F0813018F0823079F408C07E
:10200000EDEFF2E0849107C0E1E0F3E0849103C0DA
:10201000E5E2F3E08491282F30E004C0E0E0F0E056
:1020200020E030E0ED93FC93C90108959C014091BC
:102030008103509182034617570718F4F90190E085
:1020400043C06115710511F0AB01F8CF8091E80034
:102050008E778093E80040E050E0F0CF80917A03E3
:10206000882309F447C0853009F446C08091E80010
:1020700083FD44C08091E80082FD36C08091E80075
:1020800080FF22C08091F3009091F200782F60E0F1
:10209000292F30E0262B372B07C081918093F10048
:1020A000415050402F5F3F4F4115510519F02830E6
:1020B000310598F390E02830310509F491E08091E2
:1020C000E8008E778093E8004115510539F6992391
:1020D00029F60AC080917A03882361F0853061F087
:1020E0008091E80083FD0AC08091E80082FFF2CF72
:1020F00080E0089582E0089583E0089581E00895E6
:102100009C0140918103509182034617570718F4B0
:10211000F90190E044C06115710511F0AB01F8CFF1
:102120008091E8008E778093E80040E050E0F0CFA7
:1021300080917A03882309F448C0853009F447C0A8
:102140008091E80083FD45C08091E80082FD37C0A2
:102150008091E80080FF23C08091F3009091F2000D
:10216000782F60E0292F30E0262B372B08C0849190
:102170008093F1003196415050402F5F3F4F411501
:10218000510519F02830310590F390E028303105E1
:1021900009F491E08091E8008E778093E800411582
:1021A000510531F6992321F60AC080917A038823DC
:1021B00061F0853061F08091E80083FD0AC0809174
:1021C000E80082FFF2CF80E0089582E0089583E086
:1021D000089581E00895382F282F2EC0822F8F7008
:1021E0008093E900231721F4762F942F50E006C046
:1021F0007091EC009091ED005091F00091FF1BC0A8
:102200008091EB008E7F8093EB008091ED008D7FBD
:102210008093ED008091EB0081608093EB007093E0
:10222000EC009093ED005093F0008091EE0087FD5C
:1022300002C080E008952F5F273080F23F70309316
:10224000E90081E008950F931F93CF93DF93062F4A
:10225000EC0110E02AC09881992329F16B81E98172
:10226000FA812C81892F8F70873018F5223010F475
:1022700052E001C056E040E028E030E003C04F5F8C
:10228000220F331F2E173F07D0F36295660F660F9C
:10229000607C991F9927991F692B4295407F452B98
:1022A0009ADF882331F01F5F25961017A0F281E096
:1022B00001C080E0DF91CF911F910F91089580912F
:1022C0007B0388239CF404C080917A038823B9F0AF
:1022D0008091E80082FFF8CF8091E8008B778093AF
:1022E000E800089580917A03882349F08091E800FE
:1022F00080FFF8CF8091E8008E778093E800089502
:102300004091E4005091E50024E68091EC0080FFCC
:1023100024C08091E80080FD1EC080917A0388234C
:1023200011F482E00895853011F483E008958091DE
:10233000EB0085FF02C081E008958091E400909158
:10234000E5008417950709F3222311F484E008952A
:102350002150AC01DACF80E008958091E80082FF3F
:10236000DCCFF9CF6BD072D0E0EEF0E080818160FD
:102370008083A8EDB0E08C918F778C9319BCE7ED4A
:10238000F0E080818E7F80838C918F7E8C93109281
:1023900079030895EF92FF920F931F934FD056D079
:1023A00008ED10E0F80180818F778083808180685C
:1023B000808380818F7D808319BC10927A03109274
:1023C0007603109278031092770380EEE82EF12CBA
:1023D000F70180818B7F8083F80180818160808319
:1023E00080E060E042E0F7DEE1EEF0E080818E7FA9
:1023F0008083E2EEF0E0808181608083808188606C
:102400008083F70180818E7F8083F80180818061E5
:1024100080831F910F91FF90EF900895E8EDF0E019
:1024200080818F7E8083E7EDF0E080818160808312
:1024300084E082BF81E080937903ACCFE8EDF0E0E7
:1024400080818E7F80831092E20008951092DA00DE
:102450001092E10008951F920F920FB60F9211246F
:102460002F933F934F935F936F937F938F939F939C
:10247000AF93BF93EF93FF938091E10082FF0AC077
:102480008091E20082FF06C08091E1008B7F809303
:10249000E1000FD28091DA0080FF1DC08091D8004A
:1024A00080FF19C08091DA008E7F8093DA008091DE
:1024B000D90080FF0CC080E189BD82E189BD09B4EB
:1024C00000FEFDCF81E080937A03BDD404C019BC27
:1024D00010927A03B9D48091E10080FF18C08091F6
:1024E000E20080FF14C08091E2008E7F8093E200C2
:1024F0008091E20080618093E2008091D800806248
:102500008093D80019BC85E080937A03D2D1809162
:10251000E10084FF2FC08091E20084FF2BC080E1A6
:1025200089BD82E189BD09B400FEFDCF8091D8004C
:102530008F7D8093D8008091E1008F7E8093E100B1
:102540008091E2008F7E8093E2008091E2008160C2
:102550008093E20080917603882311F084E007C025
:102560008091E30087FD02C081E001C083E0809399
:102570007A039FD18091E10083FF22C08091E20025
:1025800083FF1EC08091E100877F8093E10082E09D
:1025900080937A03109276038091E1008E7F80937E
:1025A000E1008091E2008E7F8093E2008091E20062
:1025B00080618093E20080E060E042E00CDE79D14F
:1025C000FF91EF91BF91AF919F918F917F916F910B
:1025D0005F914F913F912F910F900FBE0F901F90E1
:1025E00018951F93DF93CF93CDB7DEB7AC970FB697
:1025F000F894DEBF0FBECDBFEBE7F3E08091F100B2
:10260000819323E0E338F207C9F723D48091E800EF
:1026100083FF37C180917B0330917C03353009F40F
:1026200087C0363040F43130C9F1313070F033308A
:1026300009F027C133C0383009F4F5C0393009F446
:1026400004C1363009F01DC196C0803821F08238AF
:1026500009F017C108C0909177038091780388230F
:1026600099F0926011C080917F038F708093E90090
:102670008091EB0090E025E0969587952A95E1F70B
:10268000982F91701092E9008091E800877F8093E5
:10269000E8009093F1001092F100D0C0882319F067
:1026A000823009F0EEC090E08F719070009721F0B9
:1026B000029709F0E6C00CC080917D03813009F0DB
:1026C000E0C010927803333069F5809378032AC014
:1026D00080917D03882331F520917F032F7009F4C9
:1026E000D0C02093E9008091EB0080FF1BC0333005
:1026F00021F48091EB00806213C08091EB00806137
:102700008093EB0081E090E002C0880F991F2A952A
:10271000E2F78093EA001092EA008091EB00886073
:102720008093EB001092E9008091E800877F89C0D8
:10273000882309F0A6C010917D031F778091E300E4
:102740008078812B8093E3008091E800877F8093DD
:10275000E800B5DD8091E80080FFFCCF8091E300C8
:1027600080688093E300112311F482E001C083E0CC
:1027700080937A0386C08058823008F082C08091AE
:102780007D0390917E0323E08C3D920709F033C0D6
:1027900083E08C838AE28B837FB7F894DE01159601
:1027A0006EE040E050E011E2E62FF0E010935700B9
:1027B000849140FF03C082958F706F5F8F70282FC8
:1027C00030E08A3018F0C901C79602C0C901C0962E
:1027D0008D939D934F5F5F4F4431510529F77FBF24
:1027E0008091E800877F8093E800CE0103966AE23B
:1027F00070E01CDC12C060917F03AE014F5F5F4F41
:10280000E7DBBC01009709F43CC08091E800877FBA
:102810008093E80089819A8173DC8091E8008B774E
:102820008093E8002EC0803861F58091E800877FB2
:102830008093E800809176038093F1008091E80016
:102840008E778093E8003BDD1CC08823D1F4909103
:102850007D039230B0F48091E800877F8093E80098
:10286000909376032CDD80917603882331F4809158
:10287000E30087FD02C081E001C084E080937A0319
:10288000EBD28091E80083FF0AC08091E800877F47
:102890008093E8008091EB0080628093EB00AC961F
:1028A0000FB6F894DEBF0FBECDBFCF91DF911F9161
:1028B000089508951F9380917A03882371F01091F1
:1028C000E9008091EC001092E9008091E80083FF1C
:1028D00001C087DE1F701093E9001F910895FC016D
:1028E00080917A03843099F584899589A689B7897E
:1028F0000097A105B10559F186818F708093E90099
:102900008091E80082FF23C04091F3002091F20003
:10291000942F80E030E0822B932B892B19F46FEFFA
:102920007FEF04C08091F100682F70E04091F300C8
:102930002091F200942F80E030E0822B932B892BA2
:1029400041F48091E8008B778093E80002C06FEF3C
:102950007FEFCB010895FB012EE0DB011D922A954C
:10296000E9F723E023832CE335E1318720872EEB41
:1029700034E133872287958784870895FC01848515
:102980009585ADDF9C0197FF02C02EEF3FEFC90197
:1029900008950895FC0180917A03843051F584896B
:1029A0009589A689B7890097A105B10511F18181A3
:1029B0008F708093E9004091F3002091F200942FF2
:1029C00080E030E0822B932B892BA9F09091E800D6
:1029D0008091E8008E778093E80095FD0CC090DC34
:1029E000982F882349F48091E8008E778093E8003F
:1029F00003C092E001C090E0892F0895FC0180910E
:102A00007A03843091F484899589A689B7890097DF
:102A1000A105B10551F081818F708093E90080910B
:102A2000E80080FF02C0CF01B5CF08951F93FC01DD
:102A3000162F80917A038430E1F484899589A689E0
:102A4000B7890097A105B105A1F081818F708093AE
:102A5000E9008091E80085FD08C08091E8008E774C
:102A60008093E8004DDC882329F41093F10080E086
:102A700001C082E01F910895282FFB018485958570
:102A8000622FD4DF882319F420E030E002C02FEF5A
:102A90003FEFC9010895CF93DF93EC014096FC010D
:102AA0008BE0DF011D928A95E9F782E08C838987AC
:102AB00083E08E87CE01019661E0C5DB882371F04B
:102AC000CE01069661E0BFDB882341F0CE010B9674
:102AD00061E0B9DB882319F081E001C080E0DF917B
:102AE000CF910895CF93DF93EC018091E80083FFAD
:102AF000A3C0888190E020917F0330918003281744
:102B0000390709F099C080917C03813269F08232E3
:102B100020F4803209F090C03CC0823209F46BC0CE
:102B2000833209F089C07AC080917B03813A09F031
:102B300083C08091E800877F8093E8008091E8005F
:102B400080FFFCCF8C899D89AE89BF898093F1007D
:102B5000292F3A2F4B2F55272093F1009D01442711
:102B600055272093F1008B2F9927AA27BB27809305
:102B7000F100888D8093F100898D8093F1008A8D1A
:102B80008093F1008091E8008E778093E80097DBD6
:102B900053C080917B03813209F04EC08091E800E0
:102BA000877F8093E80005C080917A03882309F429
:102BB00043C08091E80082FFF7CF8091F1009091AF
:102BC000F1002091F1003091F1008C8B9D8B2E8BC8
:102BD0003F8B8091F100888F8091F100898F8091E7
:102BE000F1008A8F8091E8008B778093E80067DBA3
:102BF000CE01CFDE21C080917B038132E9F4809148
:102C0000E800877F8093E8005ADB80917D039091F4
:102C10007E03998B888BCE01BCDE0EC080917B0336
:102C2000813251F48091E800877F8093E80047DB90
:102C3000CE0160917D03ADDEDF91CF910895ECEB85
:102C4000F0E080818B7F808308950F931F938C0128
:102C5000F6DF809164008F7780936400F8018685A9
:102C60008093B8008785813059F0813028F0823018
:102C700089F08330E1F412C08091B9008E7F1AC0D0
:102C80008091B90081608093B9008091B9008D7FF7
:102C90008093B9008091B9008E7F03C08091B90004
:102CA00081608093B9008091B900826008C08091F2
:102CB000B90081608093B9008091B9008D7F8093C5
:102CC000B9008091BC0084608093BC001F910F917B
:102CD0000895FC01A481B5819C9184858095892308
:102CE0008C93A681B7819C918585809589238C934F
:102CF000A081B1818C919485892B8C93A281B38121
:102D00008C919585892B8C93CF019FCF84EA8093FA
:102D1000BC0090E02AE106C0822F8A95F1F79F5F00
:102D2000993221F08091BC0087FFF6CF83E50895AA
:102D300084E98093BC0080E50895FACF08957FDF91
:102D4000FCCF8093BB0084E88093BC0090E02AE134
:102D500006C0822F8A95F1F79F5F9832F9F0809133
:102D6000BC0087FFF6CF8091B90090E0887F90701B
:102D70008832910589F08932910534F488319105C2
:102D800059F0809759F408C08034910529F08035B6
:102D9000910511F0C89711F48BE408958EE408951D
:102DA000882311F484EC01C084E88093BC0020E007
:102DB00030E09AE108C0892F8A95F1F72F5F3F4FE5
:102DC0002832310521F08091BC0087FFF4CF80913B
:102DD000BB000895DF92EF92FF920F931F93182F7D
:102DE000D62E072F7A0192DF812F880FAADF802F3E
:102DF000A8DF8D2DA6DF8ADF110F812F8160A1DF73
:102E000081E0CEDFF701808393DF1F910F91FF9068
:102E1000EF90DF900895EF92FF920F931F93182F7A
:102E2000F62E072FE42E72DF812F880F8ADF802F86
:102E300088DF8F2D86DF8E2D84DF7ADF1F910F9143
:102E4000FF90EF900895089508958DE093E0D6DD0A
:102E500031CD8DE093E046CE8DE093E01CCE8DE049
:102E600093E067E473E077CD7DDAF89480E29EE446
:102E700020E931E0F9013197F1F70197D9F78AECB0
:102E80009CEAA2E4BCED8093850390938603A09313
:102E90008703B09388032CE088E190E00FB6F894A4
:102EA000A895809360000FBE20936000FFCF89E259
:102EB00067E072E041E0AFDF89E268E072E041E0A4
:102EC000AADF89E266E970E040E0A5DF89E267E910
:102ED00070E04DEFA0DF89E263EE70E040E09BDF41
:102EE00089E264EE70E044E096DF89E265EE70E02E
:102EF00042E091DF89E266EE70E041E08CDF89E23A
:102F000067EE70E043E087DF89E265EF70E042E062
:102F100082DF89E269ED70E045E07DDF89E26BEDFB
:102F200070E04EEC78DF89E26CED70E043E073DF37
:102F300089E26DED70E048EF6EDF89E26FE970E0E5
:102F400040E069DF89E263EA70E04CE364DF89E234
:102F500067EB70E040E05FDF89E26BEB70E04CE331
:102F60005ADF89E262EB70E049E055DF89E26AEC02
:102F700070E049E050DF89E268E971E041E04BDF51
:102F800089E260EB71E047E146DF89E26DEA71E0DA
:102F900040E041DF89E26FEF70E045E03CDF89E22D
:102FA00060E071E045E037DF89E269E971E045E022
:102FB00032DF89E266EA71E04BE12DDF89E26CEAFB
:102FC00071E04EE328DF89E267EA71E04FE123DF39
:102FD00089E260E370E040E01EDF89E261E170E0D9
:102FE00040E119DF89E26AE071E04FEF14DF89E226
:102FF0006FE370E046E40FDF89E260E470E043E6EF
:103000000ADF89E26EE370E041E305DF89E261E314
:1030100070E040E000DF89E26EE270E041E0FBDE5C
:1030200089E26BE170E040E0F6DE89E264E170E0A5
:1030300044E2F1CEA1E1B0E0EFE1F8E153C53C019B
:103040007F876E876A01FC0117821682838181FD6A
:1030500003C06FEF7FEF58C39E012F5F3F4F398B47
:10306000288BF3012381EE85FF8523FD859123FFC6
:103070008191FF87EE87882309F443C3853251F499
:10308000EE85FF8523FD859123FF8191FF87EE87E4
:10309000853229F490E0B3010E94A021E2CF982F5D
:1030A00010E0882499241032B0F49B3269F09C32ED
:1030B00028F4903251F0933271F40BC09D3239F004
:1030C000903349F4116028C01260146025C0186064
:1030D00023C0106121C017FD2AC0892F80538A3078
:1030E00078F416FF06C0FAE09F9E902C1124980EEB
:1030F00013C03AE0839E802C1124880E10620CC00D
:103100009E3221F416FDFDC2106406C09C3611F4F7
:10311000106802C0983659F4EE85FF8523FD95911D
:1031200023FF9191FF87EE87992309F0BCCF892F68
:103130008554833020F4812F8061905E07C0892FF1
:103140008556833008F094C1812F8F7E86FD02C0A2
:1031500076E0972E6FE3F62EF822953619F4F0E418
:10316000FF2A07C0963619F420E8F22A02C091100F
:103170009A94F7FE0AC03BE3391518F45CE3B52EC8
:1031800002C0B92CB39427E009C047E0491520F4E8
:10319000BB2447E0942EF7CF292DBB24C60104960B
:1031A0009D878C87F6016081718182819381AE0158
:1031B0004F5F5F4F0B2D4FD76C010981202E3324B9
:1031C00000FF04C003FD02C01DE209C0F1FE02C001
:1031D0001BE205C0F2FC02C010E001C010E2C10118
:1031E0008C709070892BB9F1112311F483E001C028
:1031F00084E0881510F088240AC0881AF3FC07C000
:1032000080E290E0B3010E94A0218A94C9F71123C3
:1032100029F0812F90E0B3010E94A02123FE03C07A
:1032200005E413E00EC009E413E00BC0E114F1045F
:1032300009F0805290E0B3010E94A0210F5F1F4F60
:1032400005C0EF2CFF24F0E1EF22FF24F801849168
:10325000882361F70AC1F7FE12C0BC0C24FE04C02B
:103260008A81813309F4BA941B141CF0BB24B394F3
:103270002DC0F8E0FB1550F538E0B32E27C0F6FC62
:1032800025C0892D90E08C159D054CF02CEFC216C1
:103290002FEFD20624F030E8F32A01C09A94992047
:1032A00049F0E2E0F0E0EC0FFD1FE90DF11D808137
:1032B0008033A1F3F7FE0AC0B92CB394892D90E0B6
:1032C000C816D90614F0992401C09C18F7FC03C055
:1032D00025E030E009C01C141D041CF021E030E0A2
:1032E00003C096012F5F3F4F112311F02F5F3F4F17
:1032F000992029F0892D90E00196280F391F882DFB
:1033000090E02817390714F0882401C0821A4F2C46
:103310005524C20189709070892B39F008C080E271
:1033200090E0B3010E94A0218A948820C1F7112364
:1033300029F0812F90E0B3010E94A02143FE06C036
:1033400007C080E390E0B301FBD78A948820C9F7D7
:10335000F7FE44C08601D7FE02C000E010E076010F
:103360000894E11CF11CE01AF10A41E050E04C0F16
:103370005D1FE40EF51E26014B185108892D90E0C3
:10338000AA24BB24A81AB90A5FEF0F3F150721F43E
:103390008EE290E0B301D4D7C016D10634F04016C7
:1033A00051061CF4F701808101C080E301501040F8
:1033B0000894E11CF11C0A151B0524F090E0B301F0
:1033C000BFD7E2CF0C151D0539F49A81963318F456
:1033D000953311F424FE81E390E045C08A81813366
:1033E00009F00F7E90E0B301ABD7992091F08EE207
:1033F00090E0B301A5D712E0E1E0F0E0EC0FFD1F93
:10340000E10FF11D1F5F808190E0B30199D79A947D
:1034100099F744FC03C085E690E002C085E490E0A3
:10342000B3018ED7D7FC05C0C114D10441F404FF09
:1034300006C0D094C194D108D3948DE201C08BE230
:1034400090E0B3017DD780E305C08F5F26EF3FEFAB
:10345000C20ED31E3AE0C316D104BCF790E0B3010C
:103460006FD7C601C096B3016BD7CC84DD8446C14B
:10347000933631F0933799F0933509F055C022C057
:10348000F601808189835E010894A11CB11C22E0B1
:1034900030E0C20ED31E21E0E22EF12C11C0F60165
:1034A000A080B18016FD03C06FEF7FEF02C0692DD1
:1034B00070E022E030E0C20ED31EC501FDD67C01D3
:1034C0001F7712C0F601A080B18016FD03C06FEF18
:1034D0007FEF02C0692D70E022E030E0C20ED31E03
:1034E000C501B9D67C01106813FF06C019C080E27F
:1034F00090E0B30125D78A94882D90E0E816F9066C
:10350000B0F30EC0F50117FD859117FF81915F01A2
:1035100090E0B30115D781108A940894E108F1086E
:10352000E114F10479F7EAC0943611F0993681F587
:1035300017FF08C0F601208131814281538184E068
:1035400090E00AC0F601808191819C01442737FDFB
:103550004095542F82E090E0C80ED91E9FE6F92EC8
:10356000F12257FF09C050954095309521953F4F66
:103570004F4F5F4F90E8F92ACA01B901AE014F5F82
:103580005F4F2AE030E030D7E82EE889EE1A40C0DD
:10359000953721F41F7E2AE030E01CC0197F9F364A
:1035A00061F0903720F4983509F0ABC00FC0903728
:1035B00039F0983709F0A5C004C028E030E00AC00F
:1035C000106114FD146020E130E004C014FD1660A9
:1035D00020E132E017FF08C0F6016081718182812D
:1035E000938144E050E008C0F60180819181BC01E4
:1035F00080E090E042E050E0C40ED51EAE014F5F87
:103600005F4FF2D6E82E5889E51A8FE7F82EF1229F
:10361000F6FE0BC08EEFF822E91438F4F4FE07C072
:10362000F2FC05C09FEEF92202C01E2D01C0192D2B
:10363000F4FE0DC0FE01EE0DF11D8081803319F402
:10364000E9EEFE2208C01F5FF2FE05C003C08F2D09
:10365000867809F01F5F0F2DF3FC13C0F0FE0EC03B
:10366000181510F09E2C0AC09E2C980C911A182D3B
:1036700005C080E290E0B30163D61F5F1815C8F360
:1036800004C0181510F4811A01C0882404FF0EC06C
:1036900080E390E0B30154D602FF1BC001FD03C0DC
:1036A00088E790E00EC088E590E00BC0802F867818
:1036B00081F001FF02C08BE201C080E2F7FC8DE2E5
:1036C00090E0B3013DD605C080E390E0B30138D669
:1036D0009A94E914C8F3EA94E1E0F0E0EC0FFD1FDE
:1036E000EE0DF11D808190E0B3012AD6EE2099F70E
:1036F00005C080E290E0B30123D68A948820C9F700
:10370000B0CCF30166817781CB016196E2E106C21C
:103710005058BB27AA270ED044C135D130F03AD13A
:1037200020F031F49F3F11F41EF42AC10EF4E0950D
:10373000E7FB20C1E92F46D180F3BA176207730770
:103740008407950718F071F49EF55EC10EF4E095BC
:103750000B2EBA2FA02D0B01B90190010C01CA014B
:10376000A0011124FF27591B99F0593F50F4503EF6
:1037700068F11A16F040A22F232F342F4427585FE8
:10378000F3CF469537952795A795F0405395C9F700
:103790007EF41F16BA0B620B730B840BBAF09150B8
:1037A000A1F0FF0FBB1F661F771F881FC2F70EC057
:1037B000BA0F621F731F841F48F48795779567952A
:1037C000B795F7959E3F08F0B3CF9395880F08F013
:1037D0009927EE0F979587950895A8D008F481E072
:1037E00008950CD0DEC0D6D040F0CDD030F021F41A
:1037F0005F3F19F0BFC0511108C1C2C0E3D098F3B8
:103800009923C9F35523B1F3951B550BBB27AA2761
:1038100062177307840738F09F5F5F4F220F331FD3
:10382000441FAA1FA9F333D00E2E3AF0E0E830D09F
:1038300091505040E695001CCAF729D0FE2F27D0A2
:10384000660F771F881FBB1F261737074807AB0770
:10385000B0E809F0BB0B802DBF01FF2793585F4FE5
:103860002AF09E3F510568F085C0CFC05F3FECF362
:10387000983EDCF3869577956795B795F7959F5FAA
:10388000C9F7880F911D9695879597F90895E1E0FE
:10389000660F771F881FBB1F621773078407BA075D
:1038A00020F0621B730B840BBA0BEE1F88F7E095B8
:1038B0000895E89409C097FB3EF490958095709523
:1038C00061957F4F8F4F9F4F9923A9F0F92F96E96C
:1038D000BB279395F695879577956795B795F111E1
:1038E000F8CFFAF4BB0F11F460FF1BC06F5F7F4F7E
:1038F0008F4F9F4F16C0882311F096E911C0772390
:1039000021F09EE8872F762F05C0662371F096E898
:10391000862F70E060E02AF09A95660F771F881F67
:10392000DAF7880F9695879597F90895990F00080B
:10393000550FAA0BE0E8FEEF16161706E807F90781
:10394000C0F012161306E407F50798F0621B730B1C
:10395000840B950B39F40A2661F0232B242B252B9D
:1039600021F408950A2609F4A140A6958FEF811D40
:10397000811D089597F99F6780E870E060E00895E1
:103980009FEF80EC089500240A9416161706180677
:103990000906089500240A94121613061406050653
:1039A0000895092E0394000C11F4882352F0BB0FE4
:1039B00040F4BF2B11F460FF04C06F5F7F4F8F4F47
:1039C0009F4F089557FD9058440F551F59F05F3F82
:1039D00071F04795880F97FB991F61F09F3F79F031
:1039E00087950895121613061406551FF2CF4695B3
:1039F000F1DF08C0161617061806991FF1CF869535
:103A00007105610508940895E894BB276627772718
:103A1000CB0197F908958ADF08F48FEF08950BD052
:103A2000C0CFB1DF28F0B6DF18F0952309F0A2CFA0
:103A3000A7CF1124EACFC6DFA0F3959FD1F3950F4E
:103A400050E0551F629FF001729FBB27F00DB11D22
:103A5000639FAA27F00DB11DAA1F649F6627B00DB2
:103A6000A11D661F829F2227B00DA11D621F739F9B
:103A7000B00DA11D621F839FA00D611D221F749FA9
:103A80003327A00D611D231F849F600D211D822FF0
:103A9000762F6A2F11249F5750408AF0E1F0882337
:103AA0004AF0EE0FFF1FBB1F661F771F881F915044
:103AB0005040A9F79E3F510570F05CCFA6CF5F3F05
:103AC000ECF3983EDCF3869577956795B795F79577
:103AD000E7959F5FC1F7FE2B880F911D96958795FF
:103AE00097F908952F923F924F925F926F927F9233
:103AF0008F929F92AF92BF92CF92DF92EF92FF92FE
:103B00000F931F93CF93DF93CDB7DEB7CA1BDB0BA9
:103B10000FB6F894DEBF0FBECDBF09942A8839884E
:103B200048885F846E847D848C849B84AA84B98455
:103B3000C884DF80EE80FD800C811B81AA81B98161
:103B4000CE0FD11D0FB6F894DEBF0FBECDBFED0175
:103B50000895A0E0B0E0EEEAFDE1CACFEC015B0120
:103B60006115710519F0FB0191838083F9908F2D08
:103B700090E049D3892BD1F7FDE2FF1621F4F990AB
:103B8000EE24E39405C02BE2F21609F4F990EE243A
:103B90008E0101501040C8016DE473E043E050E035
:103BA00042D3892BF9F48E010E5F1F4FC80160E5E7
:103BB00073E045E050E037D3892B19F48E01095F9B
:103BC0001F4FA114B10419F0F50111830083E0FC2B
:103BD00004C070E090E080E813C070E090E080E8FE
:103BE0006FEF03C1C80165E573E043E050E01BD30C
:103BF000892B69F4A114B10429F470E090E080EC01
:103C00006FE7F3C02296F501D183C083F6CF8824F5
:103C1000992440E050E060E070E0EF2DE053EA309E
:103C2000A0F5F2E0EF2A8E2D90E09C012870307014
:103C3000E2FE06C0232B79F50894811C911C2BC051
:103C4000232B19F0089481089108DB01CA0112E0C6
:103C5000880F991FAA1FBB1F1A95D1F7480F591F2C
:103C60006A1F7B1F440F551F661F771F4E0F511D84
:103C7000611D711D483929E9520729E9620729E1C7
:103C8000720748F084E0E82A06C0EE3F31F4E3FC16
:103C900039C098E0E92AF990C0CFE53311F0E53159
:103CA00089F529912D3219F4E0E1EE2A05C02B3275
:103CB00019F081E090E003C0299182E090E0E22FCA
:103CC000E053EA3018F0C81BD90B1CC020E030E0EC
:103CD000FCE020383F075CF4C901880F991F880F6A
:103CE000991F280F391F220F331F2E0F311DE99105
:103CF000E053EA3068F3E4FE03C0309521953F4F6E
:103D0000820E931ECE2CDD24E1FE07C0A114B10467
:103D100021F02197F501D183C083CB01BA01C9DD20
:103D20007B018C01F3E0CF22DD2423E0C216D10415
:103D300021F417FB109517F9109557016801C80178
:103D4000B70120E030E040E050E047DD882309F48F
:103D500048C097FE0DC02CE6E22E23E0F22E909490
:103D6000819491089394C0E2D0E000E010E011C08B
:103D700094E8E92E93E0F92EF6CFF70125913591DD
:103D800045915491C601B5014ADE5B016C018C1A64
:103D90009D0A8C169D068CF7D595C7950F5F1F4F12
:103DA0000630110529F08CEF9FEFE80EF91EF1CFD8
:103DB000C501D6017C018D018C2D880F8D2D881FAA
:103DC0008F3F49F0C601B50120E030E040E050E00F
:103DD00004DD882331F482E290E0909384038093A1
:103DE00083037E2D9F2D802F612F272F392F482F62
:103DF000562FB901CA01CDB7DEB7ECE095CE2F92B0
:103E00003F925F926F927F928F929F92AF92BF92FA
:103E1000CF92DF92EF92FF920F931F93CF93DF9396
:103E20008C011B01EA016115710519F0FB019183F9
:103E30008083209749F0CE010297839728F020E0F5
:103E400030E040E050E0F3C0F801A1908F018A2DEE
:103E500090E0D9D1892BC1F7FDE2AF1631F4F8011A
:103E6000A1908F015524539407C0FBE2AF1619F4BB
:103E7000F801A1908F015524209719F0C031D10588
:103E8000C1F4F0E3AF1679F4F8018081883711F0BE
:103E9000883549F4F801A1800E5F1F4FF2E05F2AD8
:103EA000C0E1D0E006C0209721F480E3A816E9F431
:103EB00027C0C830D10531F1C930D10524F4C23052
:103EC000D10531F50CC0CA30D10589F0C031D1051A
:103ED000F9F4C12CD12CE12CB8E0FB2E27C0C12C69
:103EE000D12CE12CA0E4FA2E21C0CAE0D0E0FCECF9
:103EF000CF2EFCECDF2EFCECEF2EFCE0FF2E16C0EC
:103F0000C8E0D0E0C12CD12CE12CE0E1FE2E0EC0A7
:103F10009E01442737FD4095542F60E070E080E01B
:103F200090E809D3C901DA016C017D0120E030E09D
:103F300040E050E060E03E01882477FC8094982CBB
:103F400070EDB72EBA0CE9E0EB1570F48A2D8154B0
:103F50008A3118F499ECB92E06C08A2D81568A311F
:103F600048F589EAB82EBA0C8B2D90E08C179D0786
:103F70000CF56F3FD9F0C216D306E406F506A8F09B
:103F8000CA01B901A4019301B7D29B01AC012B0D69
:103F9000311D411D511D2130F0E03F07F0E04F077A
:103FA000F0E85F0710F461E001C06FEFF801A19045
:103FB0008F01C6CF2114310481F0662331F0015006
:103FC0001040F1011183008308C051FE1AC0025055
:103FD0001040F1011183008314C067FF12C050FC30
:103FE00005C02FEF3FEF4FEF5FE704C020E030E068
:103FF00040E050E882E290E0909384038093830352
:1040000016C050FE08C050954095309521953F4F01
:104010004F4F5F4F0CC057FF0AC082E290E0909371
:104020008403809383032FEF3FEF4FEF5FE7B901E6
:10403000CA01DF91CF911F910F91FF90EF90DF9018
:10404000CF90BF90AF909F908F907F906F905F9038
:104050003F902F900895283008F027E03327DA01A9
:10406000990F311D87FD916000966105710539F446
:1040700032602E5F3D9330E32A95E1F708959F3F2C
:1040800030F080387105610509F03C5F3C5F3D937D
:10409000913008F08068911DDF93CF931F930F93A9
:1040A000FF92EF92192F987F9695E92F9695969506
:1040B000E90FFF27EE51FC4F99273327EE24FF2409
:1040C000A701E70105900894079428F4360FE71E2E
:1040D000F81E491F511D660F771F881F991F0694F0
:1040E000A1F70590079428F4E70EF81E491F561F04
:1040F000C11D770F881F991F661F0694A1F70590B1
:10410000079428F4F80E491F561FC71FD11D880FAA
:10411000991F661F771F0694A1F70590079420F456
:10412000490F561FC71FD81F990F661F771F881F7B
:104130000694A9F784911095177041F0D695C7950C
:1041400057954795F794E7941A95C1F7E8E8F3E097
:1041500068941590159135916591959105907FE240
:104160007395E118F10A430B560BC90BD009C0F740
:10417000E10CF11E431F561FC91FD01D7EF4703382
:1041800011F48A95E6CFE894015030F0080F0AF454
:104190000027021708F4202F2395022F7A3328F0E6
:1041A00079E37D932A95E9F710C07D932A9589F6E6
:1041B000069497956795379517951794E118F10A26
:1041C000430B560BC90BD00998F023957E9173953C
:1041D0007A3308F070E37C932013B8F77E91706116
:1041E0007D9330F0839571E37D9370E32A95E1F739
:1041F0001124EF90FF900F911F91CF91DF9199279C
:1042000087FD90950895911174C1803219F08950FD
:104210008550D0F708959111089581568A5108F478
:10422000805285580895FB01DC014150504088F0D0
:104230008D9181341CF08B350CF4805E6591613476
:104240001CF06B350CF4605E861B611171F3990BE9
:104250000895881BFCCFFC0105906150704001104F
:10426000D8F7809590958E0F9F1F089545E553E0F0
:104270002EC0FC018191861721F08823D9F7992758
:1042800008953197CF010895FB01DC018D910190D4
:1042900080190110D9F3990B0895FB01DC014150FD
:1042A000504048F001900D920020C9F701C01D92C6
:1042B00041505040E0F70895FC016150704001907A
:1042C0000110D8F7809590958E0F9F1F0895FA01E1
:1042D000A191B081009719F41097E1F0CD01DC01B4
:1042E000CD010D90002011F4C00113C0FB012191FC
:1042F000222319F02015D9F7F3CFFB0121912015C6
:1043000019F41E92119606C02223C1F70D900020C9
:10431000A1F7D001FA01A193B0830895A0E0B0E025
:10432000E3E9F1E2EFCB9E01275F3F4F8D819E8154
:104330006F817885A9010E941A182096E2E0FECBD1
:104340000F931F93CF93DF938C01EB018B8181FF40
:104350001BC082FF0DC02E813F818C819D8128175B
:10436000390764F4E881F9810193F983E88306C091
:10437000E885F985802F0995892B31F48E819F81FD
:1043800001969F838E8302C00FEF1FEFC801DF915C
:10439000CF911F910F910895EF92FF920F931F936A
:1043A000CF93DF937C018B01DB0113968C9181FD10
:1043B00003C0CFEFDFEF13C0C0E0D0E00BC0D801E7
:1043C0001896ED91FC911997B8010995892B11F078
:1043D000CFEFDFEFF70181917F01882381F7CE01D5
:1043E000CDB7DEB7E6E0A6CBFA01AA27283051F117
:1043F000203181F1E8946F936E7F6E5F7F4F8F4F16
:104400009F4FAF4FB1E03ED0B4E03CD0670F781F74
:10441000891F9A1FA11D680F791F8A1F911DA11D59
:104420006A0F711D811D911DA11D20D009F4689492
:104430003F912AE0269F11243019305D3193DEF63A
:10444000CF010895462F4770405D4193B3E00FD0F0
:10445000C9F7F6CF462F4F70405D4A3318F0495DDB
:1044600031FD4052419302D0A9F7EACFB4E0A695BE
:104470009795879577956795BA95C9F700976105E0
:10448000710508959B01AC010A2E06945795479536
:1044900037952795BA95C9F7620F731F841F951F2B
:1044A000A01D0895DC01CB01FC01F999FECF06C0E7
:1044B000F2BDE1BDF89A319600B40D9241505040E2
:1044C000B8F70895DC01CB0102C02D9105D0415011
:1044D0005040D8F70895262FF999FECF1FBA92BD04
:1044E00081BD20BD0FB6F894FA9AF99A0FBE0196D5
:1044F0000895992788270895629FD001739FF0013E
:10450000829FE00DF11D649FE00DF11D929FF00D63
:10451000839FF00D749FF00D659FF00D9927729F9A
:10452000B00DE11DF91F639FB00DE11DF91FBD0125
:10453000CF0111240895A1E21A2EAA1BBB1BFD0175
:104540000DC0AA1FBB1FEE1FFF1FA217B307E40772
:10455000F50720F0A21BB30BE40BF50B661F771FCA
:10456000881F991F1A9469F76095709580959095AA
:0E4570009B01AC01BD01CF010895F894FFCF6F
:10457E0025660D0A0025750D0A0025666D6D0D0A5E
:10458E000074696D653A20256C756D732000524577
:10459E0053554C545F5F494E544552525550545FDB
:1045AE005354415455535F4750494F3A2025780D87
:1045BE000A0052656164696E673A2025756D6D0D4E
:1045CE000A00454E44204F46205245434F52440D5B
:1045DE000A0A0025730D0A003A00000000000000D0
:1045EE0000000000000000000000000000000000BD
:1045FE0000000000000000000000000000000000AD
:10460E00000000000000000000000000000000009C
:10461E00000000000000000000000000000000008C
:10462E00000000000000000000000000010000007B
:10463E00000000000000000000000000000000006C
:10464E00000000000000000000000000000000005C
:10465E00000000000000000000000000000000004C
:10466E00000000000000000000000000000000003C
:10467E00000000000000000000000000000000002C
:10468E00000000000000000000000000000000001C
:10469E00000000000000000000000000000000000C
:1046AE0000000000000000000000000000000000FC
:1046BE0000000000000000000000000000000000EC
:1046CE0000000000000000000000000000000000DC
:1046DE0000000000000000000000000000000000CC
:1046EE0000000000000000000000000000000000BC
:1046FE0000000000000000000000000000000000AC
:10470E00000000000000000000000000000000009B
:10471E00000000000000000000000000000000008B
:10472E00000000000000000000000000000000007B
:10473E00000000000000000000000000000000006B
:10474E00000000000000000000000000000000005B
:10475E00000000000000000000000000000000004B
:10476E00000000000000000000000000000000003B
:10477E00000000C8420000C842CDCCCC3D008340B2
:10478E00000001044000000182080000010000004A
:08479E00000000000000000013
:00000001FF
