:10000000FDC1000032C2000030C200002EC200005C
:100010002CC200002AC2000028C2000026C2000034
:1000200024C2000022C200000C94FA0E1EC200007E
:100030001CC200001AC2000018C2000016C2000054
:1000400014C2000012C2000010C200000EC2000064
:100050000CC200000AC2000008C2000007C2000073
:1000600004C2000002C2000000C20000FEC1000085
:10007000FCC10000FAC10000F8C10000F6C1000098
:10008000F4C10000F2C10000F0C10000EEC10000A8
:10009000ECC10000EAC10000E8C10000E6C10000B8
:1000A000E4C10000E2C10000E0C100002D313132A6
:1000B0002C50726F6772616D206D6E656D6F6E6929
:1000C0006320746F6F206C6F6E67002D3131322C9E
:1000D000417267756D656E7420746F6F206C6F6E02
:1000E00067002D3131332C426164207061746820C7
:1000F0006F72206865616465723A20000D0A000D18
:100100000A000D0A000D0A000D0A000D0A005761D1
:100110006974696E672035306D730D0A0053746120
:100120007274696E67206D6561737572656D656E59
:10013000740D0A000D0A00312E32004669726D7787
:100140006172653A2000202000322E300048617232
:1001500064776172653A2000202000417765736FF3
:100160006D652046617563657400202000487970D4
:10017000657274726F6E6978000D0A004649524DBF
:10018000574152452052455620322E31002B302CFB
:10019000224E6F206572726F72220D0A00426F6FDD
:1001A000746C6F616465722052756E6E696E672E35
:1001B0002E2E00310D0A004441524B004949520095
:1001C00053544F5245004F4646004F4E005741543E
:1001D000455200504F574552004155544F004C4135
:1001E00053455200434C52493243004C415345520F
:1001F0003F004441524B3F004949523F00414C535C
:100200003F0052414E47453F004745540044454258
:1002100055473F002A49444E3F0056455253696FA7
:100220006E3F004552526F723F0042544C4F616422
:100230006572005253540053595354656D002A4F50
:1002400050433F004E554C4C004552524F52206394
:100250006F6D6D616E6420746F6F206C6F6E670AD6
:100260000012011001020000081819F5FF01000139
:1002700002DC0109023E00020100C0320904000054
:1002800001020201000524001001042402060524D5
:10029000060001070582030800FF09040100020AA5
:1002A0000000000705040240000507058302400026
:1002B00005040309042203480079007000650072F8
:1002C00000540072006F006E006900780020004941
:1002D000006E0063002E0000001E034100770065E1
:1002E0000073006F006D006500200046006100751E
:1002F0000063006500740000006E616E00696E6648
:100300000000407A10F35A00A0724E18090010A5A0
:10031000D4E80000E87648170000E40B540200001F
:10032000CA9A3B000000E1F50500008096980000A5
:100330000040420F000000A08601000000102700CE
:10034000000000E803000000006400000000000A54
:1003500000000000000100000000002C76D888DCBE
:10036000674F0823DFC1DFAE59E1B1B796E5E3E49B
:1003700053C63AE651997696E8E6C28426EB898C14
:100380009B62ED407C6FFCEFBC9C9F40F2BAA56F76
:10039000A5F490055A2AF75C936B6CF9676DC11B45
:1003A000FCE0E40D47FEF520E6B500D0ED902E030D
:1003B00000943577050080841E080000204E0A0056
:1003C0000000C80C333333330F986E12831141EFA2
:1003D0008D2114893BE65516CFFEE6DB18D1844B00
:1003E000381BF77C1D901DA4BBE424203284725E70
:1003F000228100C9F124ECA1E53D270011241FBE94
:10040000CFEFDAE0DEBFCDBF04B603FE18C08091A7
:100410000D0290910E02A0910F02B09110028A5C21
:100420009C4AA244BC4D59F410920D0210920E0247
:1004300010920F0210921002E0E0F8E3099511E02B
:10044000A0E0B1E0E8E5F7E302C005900D92A03C22
:10045000B107D9F712E0A0ECB1E001C01D92AD30B8
:10046000B107E1F712D00C94AA1BCACD1F920F92CC
:100470000FB60F9211248F9381E08093C0018F916A
:100480000F900FBE0F901F9018956F927F928F92D2
:100490009F92AF92BF92CF92DF92EF92FF920F9313
:1004A0001F93DF93CF93CDB7DEB7CC5CD1400FB6AF
:1004B000F894DEBF0FBECDBFFE01E853FF4F11928F
:1004C00011921192119281E091E0DF019C011D9245
:1004D00021503040E1F71A82198285EA91E061ECFF
:1004E00071E00E947A1180E88093610010926100AF
:1004F00084B7877F84BF85B7806885BF85B78068EC
:1005000085BF88E10FB6F894809360001092600078
:100510000FBE83E085BD80916E00816080936E0088
:10052000559A5D98579A5F988091C1008A60809330
:10053000C1008091C20089608093C20080E094E194
:1005400020E931E0F9013197F1F70197D9F781EC12
:1005500091E09C838B83188E89E18F8B81E08E8B59
:1005600082E08D8B89E290E09C8B8B8B9A8B898BC0
:100570008AE290E0988B8F879E878D878BE290E050
:100580009C878B879A8789870E94DD0E0E94CC14F6
:1005900078948E01075F1F4FC8010E94381399E1BC
:1005A000E92EF12CEC0EFD1EC70167D04CD25CD2B7
:1005B0000E94F414D02E812E88EC682E712C6C0EC3
:1005C0007D1E9E2CCF2C5E010894A11CB11C0E94A4
:1005D000C2142D2DDF828886C301B501492D5C2D03
:1005E000EB80FC800D811E81382DF3D70E947C0C9E
:1005F0000E94A20B0E94880B0E94680BE8CFDF9339
:10060000CF9300D000D000D0CDB7DEB7E091CF01BE
:10061000F091D001E230F1055CF43196F093D00115
:10062000E093CF01EE0FFF1FEC50FE4F91838083CC
:1006300026960FB6F894DEBF0FBECDBFCF91DF91E7
:100640000895CF93DF93AC019B01FC018491FB01E2
:100650008083EB01A0E0B0E006C01196FA01EA0F3A
:10066000FB1FE491E88389918823B9F7A20FB31F98
:1006700011961C92DF91CF9108950F931F93DC0187
:1006800084E492E011969C938E9321E012962C9331
:10069000129714961C921E92139704EB14E0169670
:1006A0001C930E931597FD0137968EE392E01896F2
:1006B0009C938E9317971282B483A38384E699E068
:1006C00096838583AD01425F5F4F87E392E01F967B
:1006D0009C938E931E97FA012283B483A38364ECC8
:1006E00074E0768365839D012B5E3F4F83E392E048
:1006F00056969C938E935597F901128254834383A7
:1007000076836583FD017C968AE292E05D969C93F8
:100710008E935C971282348323838CE399E09683D3
:100720008583FD01B39683E292E094969C938E9329
:10073000939712825483438380EE98E09683858357
:10074000FD01BA968AE192E09B969C938E939A97CC
:100750001282548343838CEB98E096838583FD015A
:10076000F19684E192E0D2969C938E93D197128277
:10077000B483A38388E798E096838583FD01F89688
:100780008DE092E0D9969C938E93D8971282B48391
:10079000A38388E997E0968385839D01215C3F4F81
:1007A00089E092E0F901918380831282B483A3836C
:1007B00016830583FD01EA5BFF4F82E092E091839F
:1007C00080831282348323838CE497E0968385832D
:1007D000FD01E35BFF4F8DEF91E0918380831282F7
:1007E000348323838FE097E096838583FD01EC5A61
:1007F000FF4F88EF91E091838083128234832383BB
:1008000084E996E096838583FD01E55AFF4F82EFE8
:1008100091E09183808312823483238382ED96E07A
:1008200096838583FD01EE59FF4F8BEE91E0918316
:10083000808312823483238386E596E096838583C2
:10084000FD01E759FF4F84EE91E09183808312828E
:10085000B483A38387E296E0968385839D01205924
:100860003F4F8EED91E0F901918380831282B48332
:10087000A38316830583FD01E958FF4F89ED91E0BD
:100880009183808312823483238384ED94E0968362
:100890008583FD01E258FF4F83ED91E091838083D2
:1008A00012823483238384E096E0968385839D01BE
:1008B0002B573F4F8DEC91E0F90191838083128299
:1008C000B483A38316830583FD01E457FF4F8AECAD
:1008D00091E09183808312823483238388E095E0C2
:1008E00096838583FD01ED56FF4F86EC91E0918361
:1008F000808312823483238380EF94E09683858300
:100900009D0126563F4F80EC91E0F9019183808351
:100910001282B483A38316830583FD01EF55FF4F35
:100920008CEB91E09183808312823483238386E76A
:1009300095E096838583A855BF4F87EB91E011968C
:100940009C938E9312961C92129714963C932E931E
:1009500013978CEB95E016969C938E93159789E1EF
:1009600090E01F910F910895DF93CF9300D000D0B6
:1009700000D0CDB7DEB726960FB6F894DEBF0FBE17
:10098000CDBFCF91DF910895DF93CF9300D000D0FA
:1009900000D0CDB7DEB726960FB6F894DEBF0FBEF7
:1009A000CDBFCF91DF910895DF93CF9300D000D0DA
:1009B00000D0CDB7DEB781E080936C0126960FB6EC
:1009C000F894DEBF0FBECDBFCF91DF91089588238D
:1009D00019F08BB1806202C08BB18F7D8BB9089505
:1009E000DF93CF9300D000D000D0CDB7DEB72983FE
:1009F0003A834B835C836D837E8380E0E8DF2696B9
:100A00000FB6F894DEBF0FBECDBFCF91DF91089532
:100A1000DF93CF9300D000D000D0CDB7DEB72983CD
:100A20003A834B835C836D837E8381E0D0DF26969F
:100A30000FB6F894DEBF0FBECDBFCF91DF91089502
:100A40008091D2010895F999FECF8CEF91E062E098
:100A500070E043E050E00E94801B8CEF91E00E9428
:100A600075198093D1010895F999FECF8AEF91E02D
:100A700060E070E042E050E00E94801B8AEF91E06D
:100A80000E9475198093D2010895DF92EF92FF9230
:100A90000F931F93CF93DF938C01C0E0D0E0EE243F
:100AA000FF2412C0F801EC0FFD1FD0808D2D90E0C7
:100AB0000E946A1A892B39F4F801EE0DFF1DD082CD
:100AC0000894E11CF11C2196F80101900020E9F73F
:100AD0003197E01BF10BEC17FD0720F7DF91CF9169
:100AE0001F910F91FF90EF90DF9008950F931F9348
:100AF000DF93CF9300D000D000D0CDB7DEB78C010C
:100B000029833A834B835C836D837E83FC01019050
:100B10000020E9F73197E81BF90B719708F4B5DF6E
:100B2000F80101900020E9F73197E01BF10B3497B1
:100B300078F4F8018081882359F0F999FECFC80133
:100B400062E070E043E050E00E94901B7CDF09C04F
:100B50008BEC90E029813A814B815C816D817E81B3
:100B60004EDD26960FB6F894DEBF0FBECDBFCF91F7
:100B7000DF911F910F9108950F931F93DF93CF93F0
:100B800000D000D000D0CDB7DEB7182F092F2983B1
:100B90003A834B835C836D837E83A82FB92FFD013D
:100BA00001900020E9F73197EA1BFB0B719708F4DD
:100BB0006CDFA12FB02FFD0101900020E9F73197E4
:100BC000EA1BFB0B339760F4F999FECF812F902F2E
:100BD00060E070E042E050E00E94901B45DF09C0F9
:100BE0008BEC90E029813A814B815C816D817E8123
:100BF00006DD26960FB6F894DEBF0FBECDBFCF91AF
:100C0000DF911F910F9108950F931F93DF93CF935F
:100C100000D000D000D0CDB7DEB78C0129833A8355
:100C20004B835C836D837E8330DF10926C01C8013F
:100C30000E9475198093D30126960FB6F894DEBFF3
:100C40000FBECDBFCF91DF911F910F910895DF931C
:100C5000CF9300D000D000D0CDB7DEB729833A8340
:100C60004B835C836D837E830E94AE1326960FB602
:100C7000F894DEBF0FBECDBFCF91DF9108950F93E3
:100C80001F93CF93DF938B01FC01EC01849106C08D
:100C900090E0B8010E94F61AFE0184912196882303
:100CA000B9F7DF91CF911F910F9108950F931F9383
:100CB000DF93CF9300D000D000D0CDB7DEB729832B
:100CC0003A834B835C836D837E8309811A818CEF29
:100CD00090E0B801D4DF2091D20000D000D000D045
:100CE000EDB7FEB73196ADB7BEB712961C930E9313
:100CF000119780E091E093838283248315820E9480
:100D0000E51A8DB79EB706960FB6F8949EBF0FBE34
:100D10008DBF26960FB6F894DEBF0FBECDBFCF9124
:100D2000DF911F910F9108950F931F93DF93CF933E
:100D300000D000D000D0CDB7DEB729833A834B83F3
:100D40005C836D837E8309811A818FEF90E0B80107
:100D500096DF00D000D000D0EDB7FEB73196ADB72A
:100D6000BEB712961C930E93119780E091E0938387
:100D700082838091D101848315820E94E51A8DB708
:100D80009EB706960FB6F8949EBF0FBE8DBF2696EF
:100D90000FB6F894DEBF0FBECDBFCF91DF911F918C
:100DA0000F9108950F931F93DF93CF9300D000D03E
:100DB00000D0CDB7DEB729833A834B835C836D8344
:100DC0007E8309811A8182E091E0B80158DF38DE24
:100DD00000D000D000D0EDB7FEB73196ADB7BEB7AA
:100DE00012961C930E93119720E031E033832283F7
:100DF000848315820E94E51A8DB79EB706960FB6BA
:100E0000F8949EBF0FBE8DBF26960FB6F894DEBF36
:100E10000FBECDBFCF91DF911F910F9108950F931A
:100E20001F93DF93CF9300D000D000D0CDB7DEB7B3
:100E300029833A834B835C836D837E8309811A8186
:100E400085E091E0B8011BDF4FD500D000D000D085
:100E5000EDB7FEB73196ADB7BEB712961C930E93A1
:100E6000119720E031E033832283958384830E94AD
:100E7000E51A8DB79EB706960FB6F8949EBF0FBEC3
:100E80008DBF26960FB6F894DEBF0FBECDBFCF91B3
:100E9000DF911F910F9108950F931F93DF93CF93CD
:100EA00000D000D000D0CDB7DEB729833A834B8382
:100EB0005C836D837E8309811A81EED4882359F483
:100EC000E4D4882321F0E1D48823E9F704C0F4D4E2
:100ED000DCD48823E9F788E091E0B801D0DEF1D4D2
:100EE00000D000D000D0EDB7FEB73196ADB7BEB799
:100EF00012961C930E93119720E031E033832283E6
:100F0000848315820E94E51A8DB79EB706960FB6A8
:100F1000F8949EBF0FBE8DBFCFD426960FB6F8941F
:100F2000DEBF0FBECDBFCF91DF911F910F9108950E
:100F30000F931F93DF93CF9300D000D000D0CDB795
:100F4000DEB729833A834B835C836D837E8309817B
:100F50001A81A2D400D000D000D0EDB7FEB73196F0
:100F6000ADB7BEB712961C930E93119725E031E0F2
:100F700033832283848315820E94E51A8DB79EB73E
:100F800006960FB6F8949EBF0FBE8DBF8DE191E01F
:100F9000B80175DE91D480D400D000D000D0EDB778
:100FA000FEB73196ADB7BEB712961C930E9311974C
:100FB0002DE131E033832283848315820E94E51A78
:100FC0008DB79EB706960FB6F8949EBF0FBE8DBF25
:100FD0005CD400D000D000D0EDB7FEB73196ADB7ED
:100FE000BEB712961C930E93119729E331E0338319
:100FF0002283848315820E94E51A8DB79EB70696D8
:101000000FB6F8949EBF0FBE8DBF8EE091E0B80181
:1010100036DE84EF91E020E931E0F9013197F1F714
:101020000197D9F739D400D000D000D0EDB7FEB782
:101030003196ADB7BEB712961C930E93119725E06B
:1010400031E033832283848315820E94E51A8DB7B1
:101050009EB706960FB6F8949EBF0FBE8DBF15D4EF
:1010600000D000D000D0EDB7FEB73196ADB7BEB717
:1010700012961C930E93119729E331E03383228358
:10108000848315820E94E51A8DB79EB706960FB627
:10109000F8949EBF0FBE8DBF14D400D000D000D0F6
:1010A000EDB7FEB73196ADB7BEB712961C930E934F
:1010B000119728E431E033832283848315820E94D0
:1010C000E51A8DB79EB706960FB6F8949EBF0FBE71
:1010D0008DBF8BE091E0B801D2DD26960FB6F89473
:1010E000DEBF0FBECDBFCF91DF911F910F9108954D
:1010F0000F931F93DF93CF9300D000D000D0CDB7D4
:10110000DEB729833A834B835C836D837E830981B9
:101110001A818DE691E0B801B2DD8AE691E0B8016E
:10112000AEDD8BE591E0B801AADD88E591E0B8017C
:10113000A6DD8DE491E0B801A2DD89E491E0B8017B
:101140009EDD86E491E0B8019ADD8BE391E0B80181
:1011500096DD87E391E0B80192DD84E391E0B80188
:101160008EDD26960FB6F894DEBF0FBECDBFCF91B1
:10117000DF911F910F9108950F931F93DF93CF93EA
:1011800000D000D000D0CDB7DEB729833A834B839F
:101190005C836D837E8309811A818CE791E0B801BD
:1011A0006EDD89E791E0B8016ADD26960FB6F89406
:1011B000DEBF0FBECDBFCF91DF911F910F9108957C
:1011C0000F931F93DF93CF9300D000D000D0CDB703
:1011D000DEB729833A834B835C836D837E830981E9
:1011E0001A81E091CF01F091D001309729F48DE878
:1011F00091E0B80144DD35C0EE0FFF1FEC50FE4F0B
:1012000080819181B8013BDD80915E01882301F1ED
:1012100000D000D000D0EDB7FEB73196ADB7BEB765
:1012200012961C930E93119786E591E09383828327
:101230008EE591E0958384830E94E51A10925E0109
:101240008DB79EB706960FB6F8949EBF0FBE8DBFA2
:101250008091CF019091D00101979093D00180931C
:10126000CF0126960FB6F894DEBF0FBECDBFCF914B
:10127000DF911F910F910895DF93CF9300D000D09D
:1012800000D0CDB7DEB729833A834B835C836D836F
:101290007E8369817A818DE991E0F1DC0E94C2143C
:1012A00088E893E120E931E0F9013197F1F70197FE
:1012B000D9F70E94D11426960FB6F894DEBF0FBE60
:1012C000CDBFCF91DF910895DF93CF9300D000D0B1
:1012D00000D0CDB7DEB729833A834B835C836D831F
:1012E0007E8369817A8183EB91E0C9DC26960FB613
:1012F000F894DEBF0FBECDBFCF91DF910895AF92BE
:10130000BF92DF92EF92FF920F931F93CF93DF93E1
:101310005B01FB0110827C01C0E0D0E013C00D2D09
:1013200010E0C8010E94721A0817190731F4F5017C
:10133000EC0FFD1FD082219602C0F7018083089434
:10134000E11CF11CF701D080DD2049F7CA0DDB1D3F
:101350001882DF91CF911F910F91FF90EF90DF9056
:10136000BF90AF900895AF92BF92CF92DF92EF926D
:10137000FF920F931F93CF93DF937C016B01EA01E0
:1013800000E010E0BC2EAD2E888199816BE771E002
:1013900040E050E056D98BE791E06DE671E0AFDFB9
:1013A0008BE791E0B6010E94931A009739F08DE621
:1013B00091E0B6010E94931A0097C1F4F7014081B1
:1013C00051818B2D9A2D9C01F901238134812417A1
:1013D000350729F4F701B082A18281E00EC0211502
:1013E000310521F0F9018281813079F30F5F1F4FC0
:1013F00027960931110531F680E0DF91CF911F91D9
:101400000F91FF90EF90DF90CF90BF90AF90089535
:101410002F923F924F925F926F927F928F929F9204
:10142000AF92BF92CF92DF92EF92FF920F931F93F2
:10143000DF93CF93CDB7DEB728970FB6F894DEBF12
:101440000FBECDBF2B010B831C832D833E834F83A7
:1014500058871A8219826BE571E00E94851A7C0117
:101460006B807C804DE5A42E41E0B42E80E01E010F
:101470000894211C311C79C0C70160E270E00E9411
:10148000881AFC015C018081803221F4108208946A
:10149000A11CB11CF70101900020E9F73197EE196A
:1014A000FF093E9718F08CEA90E00BC0F50101901F
:1014B0000020E9F73197EA19FB09719750F08BEC9E
:1014C00090E02B813C814D815E816F81788597D83A
:1014D00067C08201CC24DD24902E812EF801238167
:1014E000348189819A8128173907E1F480819181BB
:1014F00067E971E0A301A5D887E991E069E871E0A7
:10150000FEDE87E991E0B7010E94931A009739F057
:1015100089E891E0B7010E94931A009719F4998223
:101520008A821BC00894C11CD11C095F1F4FF9E1BE
:10153000CF16D10489F62DC082EE90E02B813C813C
:101540004D815E816F8178855AD88EE591E0B70133
:101550004DE050E00E949C1A23C080E090E06BE5D3
:1015600071E00E94851A7C0181E0E114F10409F028
:1015700083CF8823A9F0E981FA810580F681E02DE7
:10158000C5012B813C814D815E816F8178850995F4
:1015900007C0C101B701A201E6DE8823F1F6CCCF76
:1015A00028960FB6F894DEBF0FBECDBFCF91DF9166
:1015B0001F910F91FF90EF90DF90CF90BF90AF9071
:1015C0009F908F907F906F905F904F903F902F9063
:1015D00008958F929F92AF92BF92CF92DF92EF9237
:1015E000FF920F931F93DF93CF9300D000D000D0D2
:1015F000CDB7DEB75C016B014A01E982FA820B8349
:101600001C832D833E83FE2CEA8047C090E00E941D
:10161000721A8B3321F08D3011F08A30B9F4D60173
:101620008D919C91181619065CF40F2DF982EA82AF
:10163000C501B4011E2D2B813C814D815E81E8DE08
:10164000F5011082D6011D921C9227C0883011F03E
:101650008F3749F4D601ED91FC9111971E161F06A4
:10166000E4F431970FC0D601ED91FC91B1E0E33085
:10167000FB0774F4EA0DFB1D8083D601ED91FC910C
:1016800011973196ED93FC93EA0DFB1D108205C076
:1016900089E492E06F2D7E2DF2DA85EA91E0EED5B5
:1016A00097FFB4CF26960FB6F894DEBF0FBECDBF1E
:1016B000CF91DF911F910F91FF90EF90DF90CF902E
:1016C000BF90AF909F908F9008958093D20008951F
:1016D0008091FF018823D9F080916C01882391F0DB
:1016E00003D123E0969587952A95E1F78F3F9105E1
:1016F00021F018F08FEF90E007C0009729F481E007
:1017000090E002C08091D301E0DF1092FF010895C4
:101710008091D501882361F081E059D981E08093DF
:10172000D4011092E2011092DF011092DE010895BF
:101730008091D401882329F01092D40181E0809314
:10174000E20108959F92AF92BF92CF92DF92EF9203
:10175000FF920F931F93A0D0882309F463C0909049
:10176000D101692D70E080E090E02091D6013091A8
:10177000D7014091D8015091D9010E941F195B01F6
:101780006C019FD0E12C41E0F42EE918F10800270C
:10179000F7FC0095102F8701FF24EE24282F30E05E
:1017A00040E050E0C801B7010E941F196A0D7B1D7F
:1017B0008C1D9D1D272F382F492F55272093D6018B
:1017C0003093D7014093D8015093D9018091DA0129
:1017D0009091DB01A091DC01B091DD0182179307AC
:1017E000A407B50740F42093DA013093DB0140935E
:1017F000DC015093DD011092D5018091DA019091C6
:10180000DB01A091DC01B091DD0180509048A24045
:10181000B040281739074A075B0740F481E08093FE
:10182000D50104C032D0882309F446D08091E30169
:101830008823D1F08091DA019091DB01A091DC0145
:10184000B091DD0181319105A105B10558F04097B6
:10185000A109B1098093DA019093DB01A093DC0127
:10186000B093DD011092E3011F910F91FF90EF9073
:10187000DF90CF90BF90AF909F90089589E26EE483
:1018800070E0C4D780958170089589E26DE470E0BE
:10189000BDD780958170089589E26FE470E0B6D776
:1018A00090E08770843009F491E0892F089589E2EF
:1018B00068E370E041E0E9C789E268E170E041E097
:1018C000E4C789E265E170E041E0DFD789E264E6E0
:1018D00070E09CC789E265E170E042E0D6D789E21A
:1018E00060E570E00C947614C9DF8823E9F7DFDF48
:1018F000C5DF8823E9F7EECF8091C0018823B1F1DD
:101900001092C00181E08093E3012091E0013091C9
:10191000E1012F5F3F4F3093E1012093E00180917F
:10192000E201882349F08091DE019091DF01019668
:101930009093DF018093DE012551334140F0B7DF02
:1019400081E08093FF011092E1011092E00180910B
:10195000DE019091DF01825A974040F080E037D855
:101960001092E2011092DF011092DE010895DA0177
:10197000923049F0933061F09130F9F4E1E6F2E011
:1019800022E130E01EC0E3E7F2E02EE330E019C0D0
:10199000813049F0813018F0823079F408C0E1EBF1
:1019A000F2E0849107C0E5EBF2E0849103C0E9ED39
:1019B000F2E08491282F30E004C0E0E0F0E020E085
:1019C00030E0ED93FC93C90108959C0140910B0216
:1019D00050910C024617570718F4F90190E043C0E4
:1019E0006115710511F0AB01F8CF8091E8008E7799
:1019F0008093E80040E050E0F0CF8091040288231B
:101A000009F447C0853009F446C08091E80083FDA1
:101A100044C08091E80082FD36C08091E80080FFDC
:101A200022C08091F3009091F200782F60E0292F7E
:101A300030E0262B372B07C081918093F100415075
:101A400050402F5F3F4F4115510519F028303105A7
:101A500098F390E02830310509F491E08091E80096
:101A60008E778093E8004115510539F6992329F6C0
:101A70000AC080910402882361F0853061F0809172
:101A8000E80083FD0AC08091E80082FFF2CF80E089
:101A9000089582E0089583E0089581E008959C010F
:101AA00040910B0250910C024617570718F4F901A8
:101AB00090E044C06115710511F0AB01F8CF809141
:101AC000E8008E778093E80040E050E0F0CF80910E
:101AD0000402882309F448C0853009F447C0809186
:101AE000E80083FD45C08091E80082FD37C0809109
:101AF000E80080FF23C08091F3009091F200782FDE
:101B000060E0292F30E0262B372B08C0849180938A
:101B1000F1003196415050402F5F3F4F4115510524
:101B200019F02830310590F390E02830310509F4A0
:101B300091E08091E8008E778093E800411551058F
:101B400031F6992321F60AC080910402882361F0BE
:101B5000853061F08091E80083FD0AC08091E80043
:101B600082FFF2CF80E0089582E0089583E0089537
:101B700081E00895382F282F2EC0822F8F708093F8
:101B8000E900231721F4762F942F50E006C07091BE
:101B9000EC009091ED005091F00091FF1BC08091FE
:101BA000EB008E7F8093EB008091ED008D7F809322
:101BB000ED008091EB0081608093EB007093EC006E
:101BC0009093ED005093F0008091EE0087FD02C0ED
:101BD00080E008952F5F273080F23F703093E90056
:101BE00081E008950F931F93CF93DF93062FEC01AD
:101BF00010E02AC09881992329F16B81E981FA814B
:101C00002C81892F8F70873018F5223010F452E024
:101C100001C056E040E028E030E003C04F5F220FF3
:101C2000331F2E173F07D0F36295660F660F607C57
:101C3000991F9927991F692B4295407F452B9ADF61
:101C4000882331F01F5F25961017A0F281E001C0B4
:101C500080E0DF91CF911F910F910895809105024F
:101C600088239CF404C0809104028823B9F08091F9
:101C7000E80082FFF8CF8091E8008B778093E8003E
:101C8000089580910402882349F08091E80080FF44
:101C9000F8CF8091E8008E778093E8000895409116
:101CA000E4005091E50024E68091EC0080FF24C020
:101CB0008091E80080FD1EC080910402882311F409
:101CC00082E00895853011F483E008958091EB005F
:101CD00085FF02C081E008958091E4009091E500C5
:101CE0008417950709F3222311F484E00895215005
:101CF000AC01DACF80E008958091E80082FFDCCF6C
:101D0000F9CF6BD072D0E0EEF0E08081816080830B
:101D1000A8EDB0E08C918F778C9319BCE7EDF0E0E3
:101D200080818E7F80838C918F7E8C9310920302B2
:101D30000895EF92FF920F931F934FD056D008ED66
:101D400010E0F80180818F778083808180688083B4
:101D500080818F7D808319BC109204021092000252
:101D6000109202021092010280EEE82EF12CF7018F
:101D700080818B7F8083F80180818160808380E017
:101D800060E042E0F7DEE1EEF0E080818E7F80836C
:101D9000E2EEF0E0808181608083808188608083D2
:101DA000F70180818E7F8083F8018081806180834C
:101DB0001F910F91FF90EF900895E8EDF0E0808182
:101DC0008F7E8083E7EDF0E080818160808384E016
:101DD00082BF81E080930302ACCFE8EDF0E0808128
:101DE0008E7F80831092E20008951092DA001092A4
:101DF000E10008951F920F920FB60F9211242F93B6
:101E00003F934F935F936F937F938F939F93AF9382
:101E1000BF93EF93FF938091E10082FF0AC080910E
:101E2000E20082FF06C08091E1008B7F8093E10099
:101E30000FD28091DA0080FF1DC08091D80080FF12
:101E400019C08091DA008E7F8093DA008091D900EA
:101E500080FF0CC080E189BD82E189BD09B400FE2C
:101E6000FDCF81E0809304028BD504C019BC109291
:101E7000040287D58091E10080FF18C08091E200C4
:101E800080FF14C08091E2008E7F8093E2008091F9
:101E9000E20080618093E2008091D80080628093AC
:101EA000D80019BC85E080930402D2D18091E10072
:101EB00084FF2FC08091E20084FF2BC080E189BDA8
:101EC00082E189BD09B400FEFDCF8091D8008F7DED
:101ED0008093D8008091E1008F7E8093E100809113
:101EE000E2008F7E8093E2008091E2008160809327
:101EF000E20080910002882311F084E007C0809105
:101F0000E30087FD02C081E001C083E0809304020A
:101F10009FD18091E10083FF22C08091E20083FF86
:101F20001EC08091E100877F8093E10082E0809372
:101F30000402109200028091E1008E7F8093E10004
:101F40008091E2008E7F8093E2008091E2008061C8
:101F50008093E20080E060E042E00CDE79D1FF9106
:101F6000EF91BF91AF919F918F917F916F915F9111
:101F70004F913F912F910F900FBE0F901F9018958A
:101F80001F93DF93CF93CDB7DEB7AC970FB6F8941E
:101F9000DEBF0FBECDBFE5E0F2E08091F10081939E
:101FA00022E0ED30F207C9F7F1D48091E80083FF19
:101FB00037C18091050230910602353009F487C09F
:101FC000363040F43130C9F1313070F0333009F03F
:101FD00027C133C0383009F4F5C0393009F404C1E1
:101FE000363009F01DC196C0803821F0823809F0E2
:101FF00017C108C09091010280910202882399F0D4
:10200000926011C0809109028F708093E9008091E5
:10201000EB0090E025E0969587952A95E1F7982FBB
:1020200091701092E9008091E800877F8093E8002A
:102030009093F1001092F100D0C0882319F0823003
:1020400009F0EEC090E08F719070009721F0029738
:1020500009F0E6C00CC080910702813009F0E0C0B1
:1020600010920202333069F5809302022AC08091F7
:102070000702882331F5209109022F7009F4D0C09E
:102080002093E9008091EB0080FF1BC0333021F4E6
:102090008091EB00806213C08091EB00806180939F
:1020A000EB0081E090E002C0880F991F2A95E2F7CB
:1020B0008093EA001092EA008091EB0088608093A0
:1020C000EB001092E9008091E800877F89C08823A7
:1020D00009F0A6C0109107021F778091E300807875
:1020E000812B8093E3008091E800877F8093E80054
:1020F000B5DD8091E80080FFFCCF8091E30080682F
:102100008093E300112311F482E001C083E0809307
:10211000040286C08058823008F082C08091070295
:102120009091080223E08C3D920709F033C083E0D0
:102130008C838AE28B837FB7F894DE0115966EE07C
:1021400040E050E011E2E62FF0E010935700849158
:1021500040FF03C082958F706F5F8F70282F30E033
:102160008A3018F0C901C79602C0C901C0968D9384
:102170009D934F5F5F4F4431510529F77FBF809199
:10218000E800877F8093E800CE0103966AE270E062
:102190001CDC12C060910902AE014F5F5F4FE7DBAC
:1021A000BC01009709F43CC08091E800877F8093D0
:1021B000E80089819A8173DC8091E8008B778093B5
:1021C000E8002EC0803861F58091E800877F809319
:1021D000E800809100028093F1008091E8008E7702
:1021E0008093E8003BDD1CC08823D1F49091070266
:1021F0009230B0F48091E800877F8093E80090935C
:1022000000022CDD80910002882331F48091E300EC
:1022100087FD02C081E001C084E080930402B9D34D
:102220008091E80083FF0AC08091E800877F809357
:10223000E8008091EB0080628093EB00AC960FB6D3
:10224000F894DEBF0FBECDBFCF91DF911F910895EF
:1022500008951F9380910402882371F01091E90082
:102260008091EC001092E9008091E80083FF01C0AA
:1022700087DE1F701093E9001F910895FC01809183
:102280000402843099F584899589A689B7890097D5
:10229000A105B10559F186818F708093E900809185
:1022A000E80082FF23C04091F3002091F200942FB8
:1022B00080E030E0822B932B892B19F46FEF7FEFB6
:1022C00004C08091F100682F70E04091F3002091EC
:1022D000F200942F80E030E0822B932B892B41F485
:1022E0008091E8008B778093E80002C06FEF7FEF6A
:1022F000CB010895FB012EE0DB011D922A95E9F741
:1023000023E023832BE032E1318720872DE831E180
:1023100033872287958784870895FC018485958576
:10232000ADDF9C0197FF02C02EEF3FEFC90108957A
:102330000895FC0180910402843051F584899589C7
:10234000A689B7890097A105B10511F181818F7028
:102350008093E9004091F3002091F200942F80E0F7
:1023600030E0822B932B892BA9F09091E80080918B
:10237000E8008E778093E80095FD0CC090DC982FE4
:10238000882349F48091E8008E778093E80003C0A9
:1023900092E001C090E0892F0895FC018091040231
:1023A000843091F484899589A689B7890097A1051D
:1023B000B10551F081818F708093E9008091E80030
:1023C00080FF02C0CF01B5CF08951F93FC01162FE7
:1023D000809104028430E1F484899589A689B789C3
:1023E0000097A105B105A1F081818F708093E9006C
:1023F0008091E80085FD08C08091E8008E77809389
:10240000E8004DDC882329F41093F10080E001C03E
:1024100082E01F910895282FFB0184859585622F06
:10242000D4DF882319F420E030E002C02FEF3FEF23
:10243000C9010895CF93DF93EC014096FC018BE036
:10244000DF011D928A95E9F782E08C83898783E01A
:102450008E87CE01019661E0C5DB882371F0CE0145
:10246000069661E0BFDB882341F0CE010B9661E068
:10247000B9DB882319F081E001C080E0DF91CF91C2
:102480000895CF93DF93EC018091E80083FFA3C010
:10249000888190E02091090230910A0228173907BB
:1024A00009F099C080910602813269F0823220F4ED
:1024B000803209F090C03CC0823209F46BC0833294
:1024C00009F089C07AC080910502813A09F083C081
:1024D0008091E800877F8093E8008091E80080FF8A
:1024E000FCCF8C899D89AE89BF898093F100292F0B
:1024F0003A2F4B2F55272093F1009D014427552754
:102500002093F1008B2F9927AA27BB278093F100F6
:10251000888D8093F100898D8093F1008A8D80935E
:10252000F1008091E8008E778093E80097DB53C03C
:1025300080910502813209F04EC08091E800877FCA
:102540008093E80005C080910402882309F443C009
:102550008091E80082FFF7CF8091F1009091F10027
:102560002091F1003091F1008C8B9D8B2E8B3F8B55
:102570008091F100888F8091F100898F8091F10026
:102580008A8F8091E8008B778093E80067DBCE012B
:10259000CFDE21C0809105028132E9F48091E8000C
:1025A000877F8093E8005ADB8091070290910802B0
:1025B000998B888BCE01BCDE0EC0809105028132E2
:1025C00051F48091E800877F8093E80047DBCE01DB
:1025D00060910702ADDEDF91CF910895ECEBF0E062
:1025E00080818B7F808308950F931F938C01F6DF8A
:1025F000809164008F7780936400F80186858093D2
:10260000B8008785813059F0813028F0823089F018
:102610008330E1F412C08091B9008E7F1AC080919E
:10262000B90081608093B9008091B9008D7F80935B
:10263000B9008091B9008E7F03C08091B90081609C
:102640008093B9008091B900826008C08091B90080
:1026500081608093B9008091B9008D7F8093B9002B
:102660008091BC0084608093BC001F910F910895FD
:10267000FC01A481B5819C918485809589238C93EC
:10268000A681B7819C918585809589238C93A081B3
:10269000B1819C918485809589238C93A281B3819B
:1026A0009C918585809589238C93CF019DCF84E96A
:1026B0008093BC0080E508958091B900882311F0D3
:1026C00002D0F5DFF4CFDF92EF92FF920F931F93CA
:1026D000CF93DF9300E010E0C0E0D0E094EAD92E81
:1026E00088ECE82EF12C8091B900882309F4E4DF0E
:1026F000D092BC0005C0C7010197F1F70F5F1F4FD3
:10270000083C11052CF48091BC0087FFF4CF03C076
:10271000083C110591F08091B90090E0887F90709D
:102720008031910541F08833910519F0089729F41B
:1027300002C08FE305C083E501C08FE3C8ECD0E0A1
:102740002196C83CD1057CF2DF91CF911F910F916A
:10275000FF90EF90DF900895AACF08953FDFFCCF60
:102760008093BB0084E88093BC0020E030E048EC1C
:1027700050E008C0CA010197F1F72F5F3F4F283C96
:102780003105D1F08091BC0087FFF4CF8091B90072
:1027900090E0887F90708832910561F089329105D0
:1027A0001CF4489749F406C08034910519F080352F
:1027B000910511F48BE408958EE40895882311F0B7
:1027C00084E801C084EC8093BC0020E030E048EC59
:1027D00050E008C0CA010197F1F72F5F3F4F283C36
:1027E000310591F08091BC0087FFF4CF8091B90052
:1027F00090E0887F90708035910519F088359105BB
:1028000019F48091BB0008958FEF0895FF920F9304
:102810001F93CF93DF93182FF62E072F54DF8335A6
:1028200009F5C12FD0E0CC0FDD1F8C2F99DF8B3441
:10283000C9F4802F95DF8B34A9F48F2D91DF8B3471
:1028400089F435DF40DF833569F49E012160822FF2
:1028500087DF00E08B3439F401E081E0AFDF182F2F
:1028600026DF02C000E01FEF8AE18A95F1F7809130
:10287000BC0084FD02C0002309F470DF812FDF91CA
:10288000CF911F910F91FF900895EF92FF920F93B8
:102890001F93182FF62E072FE42E15DF8335A9F48A
:1028A000812F880F5DDF8B3481F4802F59DF8B34CB
:1028B00061F48F2D55DF8B3441F48E2D51DF10E004
:1028C0008B3421F411E0F3DE01C010E08AE18A9537
:1028D000F1F78091BC0084FD02C0112309F43EDFB2
:1028E0008FEF1F910F91FF90EF900895FF920F933C
:1028F0001F93CF93DF93182FF62E072FE4DE833537
:1029000029F5C12FD0E0CC0FDD1F8C2F29DF8B34B0
:10291000E9F4802F25DF8B34C9F48F2D21DF8B3430
:10292000A9F4C5DED0DE833589F49E012160822FB3
:1029300017DFFF248B3459F4FF24F39480E03EDF4B
:10294000082F81E03BDF182FB2DE03C0FF240FEF1A
:102950001FEF8AE18A95F1F78091BC0084FD02C0E7
:10296000FF2009F4FBDE902F80E0212F30E0282BA0
:10297000392BC901DF91CF911F910F91FF900895DD
:102980000895089585EA91E008DD63CC85EA91E039
:1029900078CD85EA91E04ECD85EA91E064EE71E074
:1029A000A9CCAFD9F89480E29EE420E931E0F901A6
:1029B0003197F1F70197D9F78AEC9CEAA2E4BCEDD4
:1029C00080930D0290930E02A0930F02B093100219
:1029D0002CE088E190E00FB6F894A8958093600011
:1029E0000FBE20936000FFCF89E267E072E041E014
:1029F0004CDF89E268E072E041E047DF89E266E9A6
:102A000070E040E042DF89E267E970E04DEF3DDFD2
:102A100089E263EE70E040E038DF89E264EE70E066
:102A200044E033DF89E265EE70E042E02EDF89E2C8
:102A300066EE70E041E029DF89E267EE70E043E096
:102A400024DF89E265EF70E042E01FDF89E269ED93
:102A500070E045E01ADF89E26BED70E04EEC15DFC7
:102A600089E26CED70E043E010DF89E26DED70E02B
:102A700048EF0BDF89E26FE970E040E006DF89E2B2
:102A800063EA70E04CE301DF89E267EB70E040E06D
:102A9000FCDE89E26BEB70E04CE3F7DE89E262EB8F
:102AA00070E049E0F2DE89E26AEC70E049E0EDDED8
:102AB00089E268E971E041E0E8DE89E260EB71E01B
:102AC00047E1E3DE89E26DEA71E040E0DEDE89E2C3
:102AD0006FEF70E045E0D9DE89E260E071E045E04B
:102AE000D4DE89E269E971E045E0CFDE89E266EA99
:102AF00071E04BE1CADE89E26CEA71E04EE3C5DECB
:102B000089E267EA71E04FE1C0DE89E260E370E0EC
:102B100040E0BBDE89E261E170E040E1B6DE89E2DF
:102B20006AE071E04FEFB1DE89E26FE370E046E406
:102B3000ACDE89E261E370E040E0A7DE89E260E4B8
:102B400070E043E6A2DE89E26EE270E041E09DDEE5
:102B500089E26BE170E040E098DE89E26EE370E0CC
:102B600041E393DE89E264E170E044E28ECEA1E1CC
:102B7000B0E0ECEBF5E182C33C017F876E876A0130
:102B8000FC0117821682838181FD03C06FEF7FEF06
:102B900052C39E012F5F3F4F398B288BF301238156
:102BA000EE85FF8523FD859123FF8191FF87EE87C9
:102BB000882309F43DC3853251F4EE85FF8523FD5A
:102BC000859123FF8191FF87EE87853221F490E084
:102BD000B3010CD5E3CF982F10E08824992410324C
:102BE000B0F49B3269F09C3228F4903251F0933269
:102BF00071F40BC09D3239F0903349F4116028C054
:102C00001260146025C0186023C0106121C017FD38
:102C10002AC0892F80538A3078F416FF06C0FAE064
:102C20009F9E902C1124980E13C03AE0839E802C16
:102C30001124880E10620CC09E3221F416FDF8C2D9
:102C4000106406C09C3611F4106802C0983659F41E
:102C5000EE85FF8523FD959123FF9191FF87EE87F8
:102C6000992309F0BCCF892F8554833020F4812F1C
:102C70008061905E07C0892F8556833008F08FC130
:102C8000812F8F7E86FD02C076E0972E6FE3F62EB1
:102C9000F822953619F4F0E4FF2A07C0963619F4A5
:102CA00020E8F22A02C091109A94F7FE0AC03BE392
:102CB000391518F45CE3B52E02C0B92CB39427E0A3
:102CC00009C047E0491520F4BB2447E0942EF7CF14
:102CD000292DBB24C60104969D878C87F60160814F
:102CE000718182819381AE014F5F5F4F0B2D1AD3AB
:102CF0006C010981202E332400FF04C003FD02C0B3
:102D00001DE209C0F1FE02C01BE205C0F2FC02C0D8
:102D100010E001C010E2C1018C709070892BA1F10C
:102D2000112311F483E001C084E0881510F0882499
:102D300009C0881AF3FC06C080E290E0B30156D4C3
:102D40008A94D1F7112321F0812F90E0B3014ED462
:102D500023FE03C009EF12E00DC00DEF12E00AC020
:102D6000E114F10409F0805290E0B3013FD40F5F09
:102D70001F4F05C0EF2CFF24F0E1EF22FF24F801E4
:102D80008491882369F708C1F7FE12C0BC0C24FEA9
:102D900004C08A81813309F4BA941B141CF0BB244B
:102DA000B3942DC0F8E0FB1550F538E0B32E27C0E2
:102DB000F6FC25C0892D90E08C159D054CF02CEF7C
:102DC000C2162FEFD20624F030E8F32A01C09A94FD
:102DD000992049F0E2E0F0E0EC0FFD1FE90DF11D54
:102DE00080818033A1F3F7FE0AC0B92CB394892DFA
:102DF00090E0C816D90614F0992401C09C18F7FC7D
:102E000003C025E030E009C01C141D041CF021E0C3
:102E100030E003C096012F5F3F4F112311F02F5F69
:102E20003F4F992029F0892D90E00196280F391FF6
:102E3000882D90E02817390714F0882401C0821AE1
:102E40004F2C5524C20189709070892B31F007C036
:102E500080E290E0B301CAD38A948820C9F7112395
:102E600021F0812F90E0B301C1D343FE06C007C01B
:102E700080E390E0B301BAD38A948820C9F7F7FEC3
:102E800044C08601D7FE02C000E010E0760108943D
:102E9000E11CF11CE01AF10A41E050E04C0F5D1F0B
:102EA000E40EF51E26014B185108892D90E0AA2446
:102EB000BB24A81AB90A5FEF0F3F150721F48EE271
:102EC00090E0B30193D3C016D10634F040165106FA
:102ED0001CF4F701808101C080E301501040089488
:102EE000E11CF11C0A151B0524F090E0B3017ED310
:102EF000E2CF0C151D0539F49A81963318F49533F9
:102F000011F424FE81E390E045C08A81813309F009
:102F10000F7E90E0B3016AD3992091F08EE290E0A9
:102F2000B30164D312E0E1E0F0E0EC0FFD1FE10F2C
:102F3000F11D1F5F808190E0B30158D39A9499F7F7
:102F400044FC03C085E690E002C085E490E0B30154
:102F50004DD3D7FC05C0C114D10441F404FF06C011
:102F6000D094C194D108D3948DE201C08BE290E05B
:102F7000B3013CD380E305C08F5F26EF3FEFC20E65
:102F8000D31E3AE0C316D104BCF790E0B3012ED3B0
:102F9000C601C096B3012AD3CC84DD8446C19336E2
:102FA00031F0933799F0933509F055C022C0F601FE
:102FB000808189835E010894A11CB11C22E030E06D
:102FC000C20ED31E21E0E22EF12C11C0F601A0802A
:102FD000B18016FD03C06FEF7FEF02C0692D70E076
:102FE00022E030E0C20ED31EC501B5D27C011F77AE
:102FF00012C0F601A080B18016FD03C06FEF7FEF15
:1030000002C0692D70E022E030E0C20ED31EC5017F
:1030100071D27C01106813FF06C019C080E290E0F5
:10302000B301E4D28A94882D90E0E816F906B0F353
:103030000EC0F50117FD859117FF81915F0190E0AA
:10304000B301D4D281108A940894E108F108E11404
:10305000F10479F7EAC0943611F0993681F517FF3B
:1030600008C0F601208131814281538184E090E0E3
:103070000AC0F601808191819C01442737FD40956B
:10308000542F82E090E0C80ED91E9FE6F92EF1225F
:1030900057FF09C050954095309521953F4F4F4FB0
:1030A0005F4F90E8F92ACA01B901AE014F5F5F4F47
:1030B0002AE030E0C7D2E82EE889EE1A40C0953702
:1030C00021F41F7E2AE030E01CC0197F9F3661F09A
:1030D000903720F4983509F0ABC00FC0903739F025
:1030E000983709F0A5C004C028E030E00AC010619C
:1030F00014FD146020E130E004C014FD166020E1EE
:1031000032E017FF08C0F6016081718182819381EE
:1031100044E050E008C0F60180819181BC0180E06C
:1031200090E042E050E0C40ED51EAE014F5F5F4F0D
:1031300089D2E82E5889E51A8FE7F82EF122F6FE9B
:103140000BC08EEFF822E91438F4F4FE07C0F2FC4D
:1031500005C09FEEF92202C01E2D01C0192DF4FEFC
:103160000DC0FE01EE0DF11D8081803319F4E9EEF2
:10317000FE2208C01F5FF2FE05C003C08F2D8678B7
:1031800009F01F5F0F2DF3FC13C0F0FE0EC01815E1
:1031900010F09E2C0AC09E2C980C911A182D05C078
:1031A00080E290E0B30122D21F5F1815C8F304C07B
:1031B000181510F4811A01C0882404FF0EC080E3A2
:1031C00090E0B30113D202FF1BC001FD03C088E7EA
:1031D00090E00EC088E590E00BC0802F867881F0EB
:1031E00001FF02C08BE201C080E2F7FC8DE290E0BB
:1031F000B301FCD105C080E390E0B301F7D19A940C
:10320000E914C8F3EA94E1E0F0E0EC0FFD1FEE0DE5
:10321000F11D808190E0B301E9D1EE2099F705C05E
:1032200080E290E0B301E2D18A948820C9F7B6CC5D
:10323000F30166817781CB016196E2E13BC0629F39
:10324000D001739FF001829FE00DF11D649FE00D9E
:10325000F11D929FF00D839FF00D749FF00D659FFF
:10326000F00D9927729FB00DE11DF91F639FB00DFE
:10327000E11DF91FBD01CF01112408952F923F9246
:103280004F925F926F927F928F929F92AF92BF9276
:10329000CF92DF92EF92FF920F931F93CF93DF9322
:1032A000CDB7DEB7CA1BDB0B0FB6F894DEBF0FBE7F
:1032B000CDBF09942A88398848885F846E847D84CC
:1032C0008C849B84AA84B984C884DF80EE80FD80CE
:1032D0000C811B81AA81B981CE0FD11D0FB6F89444
:1032E000DEBF0FBECDBFED010895FC0188279927F1
:1032F000E89421912032E9F3293010F02E30C8F300
:103300002B3239F02D3231F4689403C056D1820F3C
:10331000911D219120532A30C8F31EF49095819578
:103320009F4F0895283008F027E03327DA01990FDE
:10333000311D87FD916000966105710539F4326099
:103340002E5F3D9330E32A95E1F708959F3F30F0DB
:1033500080387105610509F03C5F3C5F3D93913019
:1033600008F08068911DDF93CF931F930F93FF9216
:10337000EF92192F987F9695E92F96959695E90FDC
:10338000FF27E55AFC4F99273327EE24FF24A70196
:10339000E70105900894079428F4360FE71EF81EFD
:1033A000491F511D660F771F881F991F0694A1F7AB
:1033B0000590079428F4E70EF81E491F561FC11DFB
:1033C000770F881F991F661F0694A1F70590079431
:1033D00028F4F80E491F561FC71FD11D880F991FCB
:1033E000661F771F0694A1F70590079420F4490FF4
:1033F000561FC71FD81F990F661F771F881F069477
:10340000A9F784911095177041F0D695C7955795F7
:103410004795F794E7941A95C1F7E1E0F3E06894D3
:103420001590159135916591959105907FE2739571
:10343000E118F10A430B560BC90BD009C0F7E10C98
:10344000F11E431F561FC91FD01D7EF4703311F4A7
:103450008A95E6CFE894015030F0080F0AF400276F
:10346000021708F4202F2395022F7A3328F079E3EE
:103470007D932A95E9F710C07D932A9589F60694E5
:1034800097956795379517951794E118F10A430BAF
:10349000560BC90BD00998F023957E9173957A331A
:1034A00008F070E37C932013B8F77E9170617D93F0
:1034B00030F0839571E37D9370E32A95E1F7112451
:1034C000EF90FF900F911F91CF91DF91992787FD8A
:1034D0009095089591113BC1803219F08950855023
:1034E000D0F708959111089581568A5108F48052B9
:1034F00085580895FC010590615070400110D8F77F
:10350000809590958E0F9F1F089542EF51E02EC039
:10351000FC018191861721F08823D9F79927089516
:103520003197CF010895FB01DC018D910190801945
:103530000110D9F3990B0895FB01DC014150504073
:1035400048F001900D920020C9F701C01D92415032
:103550005040E0F70895FC01615070400190011067
:10356000D8F7809590958E0F9F1F0895FA01A1912D
:10357000B081009719F41097E1F0CD01DC01CD0185
:103580000D90002011F4C00113C0FB0121912223F2
:1035900019F02015D9F7F3CFFB012191201519F46B
:1035A0001E92119606C02223C1F70D900020A1F7AC
:1035B000D001FA01A193B08308957AE0979F902DEE
:1035C000879F802D910D11240895A0E0B0E0EAEED0
:1035D000FAE164CE9E01275F3F4F8D819E816F810E
:1035E0007885A901C4DA2096E2E074CE0F931F9388
:1035F000CF93DF938C01EB018B8181FF1BC082FF96
:103600000DC02E813F818C819D812817390764F47C
:10361000E881F9810193F983E88306C0E885F9859B
:10362000802F0995892B31F48E819F8101969F838C
:103630008E8302C00FEF1FEFC801DF91CF911F9162
:103640000F910895FA01AA27283051F1203181F114
:10365000E8946F936E7F6E5F7F4F8F4F9F4FAF4F9A
:10366000B1E03ED0B4E03CD0670F781F891F9A1FAD
:10367000A11D680F791F8A1F911DA11D6A0F711D61
:10368000811D911DA11D20D009F468943F912AE06D
:10369000269F11243019305D3193DEF6CF01089555
:1036A000462F4770405D4193B3E00FD0C9F7F6CF86
:1036B000462F4F70405D4A3318F0495D31FD40524E
:1036C000419302D0A9F7EACFB4E0A69597958795E4
:1036D00077956795BA95C9F70097610571050895C3
:1036E0009B01AC010A2E069457954795379527956F
:1036F000BA95C9F7620F731F841F951FA01D089507
:10370000DC01CB01FC01F999FECF06C0F2BDE1BDA1
:10371000F89A319600B40D9241505040B8F7089590
:10372000DC01CB0102C02D9105D041505040D8F7AB
:103730000895262FF999FECF1FBA92BD81BD20BDF5
:103740000FB6F894FA9AF99A0FBE01960895992740
:0837500088270895F894FFCFCB
:1037580025640D0A004D6561737572656D656E743B
:103768002072656164793A2025640D0A004D65610F
:10377800737572656D656E74207265616479206E0B
:103788006F773A2025640D0A0042757379206269C3
:10379800743A2025640D0A0052656164696E673ABF
:1037A8002025640D0A0025730D0A003A0000000068
:1037B8000000000000000000000000000100000000
:1037C80000000000000000000000000000000000F1
:1037D80000000000000000000000000000000000E1
:1037E80000000000000000000000000000000000D1
:1037F80000000000000083400000010440000001B8
:103808008208000001000000000000000000000025
:00000001FF
